:0400000007EF00F016
:100008007D82B8ED30F04BEF2DF0050E0001D96F71
:10001800FD51D8B49AEF04F0DAEC30F00101C65182
:10002800D8B43FD21E0E0001D96F1E0E226E7C502E
:10003800F60F236E7B50C80F246E030E256EFF0E3D
:10004800276E2668050EDCEC1FF01E0E096E7B502D
:10005800C80F0A6EFF0E0C6E0B68370E14EC2BF0EF
:10006800C80E7B24036E046AFF0E0422000E066E7F
:10007800030E056ECDEC2CF003501E0F0B6E7C505A
:10008800F60F0C6EFF0E0E6E0D68050E61EC2BF070
:100098007B50796E7A6AD89079367A36900E7924C0
:1000A800036EFF0E7A20046E000E066E030E056EB8
:1000B800CDEC2CF003501E0F0B6E7C50F60F0C6E1F
:1000C800FF0E0E6E0D68050E61EC2BF0200E1B6EF8
:1000D800120E1C6E120E1D6EF80E1F6E000E1E6E96
:1000E800140EBDEC2DF0000E1A6E140E196E000ED3
:1000F8001C6E290E1B6E000E1E6E160E1D6E000E57
:10010800206E290E1F6EF80E226E000E216E2FEC47
:1001180022F0000E1A6E250E196E000E1C6E290EA6
:100128001B6E000E1E6E230E1D6E000E206E290E15
:100138001F6EF80E226E000E216E2FEC22F0000EBC
:100148001A6E1D0E196E000E1C6E200E1B6E000E10
:100158001E6E1D0E1D6E000E206E220E1F6EF80EF6
:10016800226E000E216E2FEC22F0000E1A6E1D0E6C
:10017800196E000E1C6E310E1B6E000E1E6E1D0ECB
:100188001D6E000E206E2F0E1F6EF80E226E000ED2
:10019800216E2FEC22F0240E096E050E0A6EF80E61
:1001A8000C6E000E0B6E1D0E14EC2BF0290E0B6E50
:1001B800050E0C6EF80E0E6E000E0D6E1D0E61EC27
:1001C8002BF03A0E0101106F2F0E116FB60E0001C1
:1001D800C96F7F0ECA6F2F0E436EC9C044F0CAC0E4
:1001E80045F0F80E476E000E466EFF0E496E4868E1
:1001F800010E4A6E510E2DEC1DF0000E316E1E0ED2
:10020800306E000E336E400E326E000E356E050EE7
:10021800346E070E376EE00E366EA7EC2EF0360EF3
:10022800096E030E0A6E070E0C6EE00E0B6E1E0EA4
:1002380014EC2BF0470E096E030E0A6E070E0C6EB7
:10024800E00E0B6E1E0E14EC2BF0400E0B6E030E20
:100258000C6E070E0E6EE00E0D6E140E61EC2BF098
:10026800400E0B6E030E0C6E070E0E6EE00E0D6E3A
:10027800250E61EC2BF0000E1A6E1E0E196E000E84
:100288001C6E400E1B6E000E1E6E270E1D6E000E9D
:10029800206E490E1F6E070E226EE00E216E2FECA7
:1002A80022F0000E1A6E1E0E196E000E1C6E400E05
:1002B8001B6E000E1E6E270E1D6E000E206E370E72
:1002C8001F6E070E226EE00E216E2FEC22F0000E3C
:1002D8001A6E1E0E196E000E1C6E400E1B6E000E5E
:1002E8001E6E150E1D6E000E206E490E1F6E070E37
:1002F800226EE00E216E2FEC22F0000E1A6E1E0EFA
:10030800196E000E1C6E400E1B6E000E1E6E150E32
:100318001D6E000E206E370E1F6E070E226EE00E49
:10032800216E2FEC22F0000E0E6E1E0E0D6E000ECA
:10033800106E400E0F6E000E126E060E116E000E3D
:10034800146E000E136EA4EC20F03A0E0101126F29
:10035800450E136FC50E0001CB6F7F0ECC6F450E97
:10036800436ECBC044F0CCC045F0070E476EE00E9C
:10037800466EFF0E496E4868010E4A6E510E2DEC0E
:100388001DF01E0E0001D56F5C0ED66FD5C00DF0A6
:100398000E6AD6C00FF0106A000E126E040E116EAF
:1003A800FF0E146EE00E136EA4EC20F0D5C030F0F2
:1003B800316AD6C032F0336A000E356E020E346EE2
:1003C800FF0E376EE00E366EA7EC2EF00001D65108
:1003D800F50F196E010E1A6E080E1B6EFF0E1D6EBC
:1003E800E00E1C6ED551F5EC2EF00001D651F30F3E
:1003F800226E050E236E0B0E246E010E256EFF0E67
:10040800276EE00E266ED551FE0FDCEC1FF00001C2
:10041800D651F50F096E010E0A6EFF0E0C6EE00E36
:100428000B6ED551030F14EC2BF00001D651F70FCA
:10043800096E010E0A6EFF0E0C6EE00E0B6ED551A2
:10044800030F14EC2BF00001D651F90F096E010EC1
:100458000A6EFF0E0C6EE00E0B6ED551030F14ECF6
:100468002BF05D0E0001D96F3A0E0101146F5D0E7D
:10047800156FDB0E0001CD6F7F0ECE6F5D0E436EE4
:10048800CDC044F0CEC045F0FF0E476EE00E466E7C
:10049800FF0E496E4868010E4A6E510E2DEC1DF094
:1004A80045D21E0E0001D96F1E0E226E7C50F60F2B
:1004B800236E7B50C80F246E030E256EFF0E276E29
:1004C8002668050EDCEC1FF01E0E096E7B50C80F67
:1004D8000A6EFF0E0C6E0B68230E14EC2BF0C80E80
:1004E8007B24036E046AFF0E0422000E066E030EC0
:1004F800056ECDEC2CF003501E0F0B6E7C50F60FE2
:100508000C6EFF0E0E6E0D68050E61EC2BF07B5025
:10051800796E7A6AD89079367A36900E7924036E95
:10052800FF0E7A20046E000E066E030E056ECDECEB
:100538002CF003501E0F0B6E7C50F60F0C6EFF0E46
:100548000E6E0D68050E61EC2BF0260E1B6E120E5A
:100558001C6E120E1D6EF80E1F6E000E1E6E0A0E19
:10056800BDEC2DF0000E1A6E0A0E196E000E1C6EF0
:100578002F0E1B6E000E1E6E0C0E1D6E000E206ED2
:100588002F0E1F6EF80E226E000E216E2FEC22F039
:10059800000E1A6E1B0E196E000E1C6E2F0E1B6EAF
:1005A800000E1E6E190E1D6E000E206E2F0E1F6E91
:1005B800F80E226E000E216E2FEC22F0000E1A6E3D
:1005C800130E196E000E1C6E260E1B6E000E1E6E8C
:1005D800130E1D6E000E206E280E1F6EF80E226E72
:1005E800000E216E2FEC22F0000E1A6E130E196EFB
:1005F800000E1C6E370E1B6E000E1E6E130E1D6E47
:10060800000E206E350E1F6EF80E226E000E216E43
:100618002FEC22F02A0E096E050E0A6EF80E0C6EEB
:10062800000E0B6E130E14EC2BF02F0E0B6E050E36
:100638000C6EF80E0E6E000E0D6E130E61EC2BF0A4
:10064800240E0101106F350E116FBE0E0001CF6F21
:100658007F0ED06F350E436ECFC044F0D0C045F04A
:10066800F80E476E000E466EFF0E496E4868010E82
:100678004A6E3A0E2DEC1DF0000E316E140E306EDF
:10068800000E336E500E326E000E356E050E346E4F
:10069800070E376EE00E366EA7EC2EF0460E096E8A
:1006A800030E0A6E070E0C6EE00E0B6E140E14ECA1
:1006B8002BF0570E096E030E0A6E070E0C6EE00E35
:1006C8000B6E140E14EC2BF0500E0B6E030E0C6E0A
:1006D800070E0E6EE00E0D6E0A0E61EC2BF0500E3A
:1006E8000B6E030E0C6E070E0E6EE00E0D6E1B0EDB
:1006F80061EC2BF0000E1A6E140E196E000E1C6EB3
:10070800500E1B6E000E1E6E1D0E1D6E000E206E0E
:10071800590E1F6E070E226EE00E216E2FEC22F08E
:10072800000E1A6E140E196E000E1C6E500E1B6E03
:10073800000E1E6E1D0E1D6E000E206E470E1F6EE3
:10074800070E226EE00E216E2FEC22F0000E1A6EBC
:10075800140E196E000E1C6E500E1B6E000E1E6ECF
:100768000B0E1D6E000E206E590E1F6E070E226EA8
:10077800E00E216E2FEC22F0000E1A6E140E196E88
:10078800000E1C6E500E1B6E000E1E6E0B0E1D6EA4
:10079800000E206E470E1F6E070E226EE00E216EB1
:1007A8002FEC22F0000E0E6E140E0D6E000E106E61
:1007B800500E0F6E000E126E060E116E000E146EA5
:1007C800000E136EA4EC20F0240E0101126F550EDA
:1007D800136FC50E0001D16F7F0ED26F550E436E99
:1007E800D1C044F0D2C045F0070E476EE00E466E09
:1007F800FF0E496E4868010E4A6E3A0E2DEC1DF048
:10080800140E0001D76F7A0ED86FD7C00DF00E6A9C
:10081800D8C00FF0106A000E126E040E116EFF0E93
:10082800146EE00E136EA4EC20F0D7C030F0316ADD
:10083800D8C032F0336A000E356E020E346EFF0EE9
:10084800376EE00E366EA7EC2EF00001D851F50F8A
:10085800196E010E1A6E080E1B6EFF0E1D6EE00E4D
:100868001C6ED751F5EC2EF00001D851F30F226E13
:10087800050E236E0B0E246E010E256EFF0E276EDD
:10088800E00E266ED751FE0FDCEC1FF00001D851A8
:10089800F50F096E010E0A6EFF0E0C6EE00E0B6E60
:1008A800D751030F14EC2BF00001D851F70F096E44
:1008B800010E0A6EFF0E0C6EE00E0B6ED751030F81
:1008C80014EC2BF00001D851F90F096E010E0A6ED5
:1008D800FF0E0C6EE00E0B6ED751030F14EC2BF0CD
:1008E800780E0001D96F240E0101146F780E156F70
:1008F800DB0E0001D36F7F0ED46F780E436ED3C02A
:1009080044F0D4C045F0FF0E476EE00E466EFF0E71
:10091800496E4868010E4A6E3A0E2DEC1DF0000E25
:1009280001015C6F000E5A6F000E5B6F010162518E
:10093800D8B405D05C2B5A2B5B2B000E626F5C5130
:10094800796E7A6A0051791808E101517A18D8A4A9
:1009580004D00001FD51D8B411D05CC100F10101EF
:10096800016B11C1C5F05CC1C6F0F80E0001C86F7B
:10097800000EC76F01011051F1EC2DF001015A5121
:10098800796E7A6A0251791808E103517A18D8A465
:1009980004D00001FD51D8B411D05AC102F10101AF
:1009A800036B13C1C5F05AC1C6F0070E0001C86F2A
:1009B800E00EC76F01011251F1EC2DF001015B51FE
:1009C800796E7A6A0451791808E105517A18D8A421
:1009D80004D00001FD51D8B411D05BC104F101016C
:1009E800056B15C1C5F05BC1C6F0FF0E0001C86FED
:1009F800E00EC76F01011451F1EC2DF0000E00015B
:100A0800FD6F1200050E0001F96FFD51D8B474D2C4
:100A1800DAEC30F02D0E0001F96F050E0101106FB0
:100A28002D0E116F2D0E256E560E266E070E286E92
:100A3800E00E276E000E2A6E000E296E010E2B6E38
:100A48003B0E2FEC1EF07C50D30F0001F86FF8C05E
:100A58000DF00E6A000E106E2A0E0F6E000E126E4A
:100A6800040E116EFF0E146EE00E136EA4EC20F04F
:100A7800F8C030F0316A000E336E2A0E326E000E66
:100A8800356E020E346EFF0E376EE00E366EA7EC32
:100A98002EF01F0E196E010E1A6E080E1B6EFF0E39
:100AA8001D6EE00E1C6E0001F851F5EC2EF01D0EC7
:100AB800226E050E236E0B0E246E010E256EFF0EA0
:100AC800276EE00E266E0001F851FE0FDCEC1FF0D9
:100AD8001F0E096E010E0A6EFF0E0C6EE00E0B6EF5
:100AE8000001F851030F14EC2BF0210E096E010ED2
:100AF8000A6EFF0E0C6EE00E0B6E0001F851030F2C
:100B080014EC2BF0230E096E010E0A6EFF0E0C6E0C
:100B1800E00E0B6E0001F851030F14EC2BF0EC0EF5
:100B28007C240D6E0E6AFF0E0E22000E106E230E30
:100B38000F6E000E126E010E116EFF0E146EE00E97
:100B4800136EA4EC20F02D0E256E430E266EFF0EBC
:100B5800286EE00E276E000E2A6E000E296E010E1A
:100B68002B6E7C50ED0F2FEC1EF07C50D80F01013E
:100B7800126F2D0E136F0001F9510F0FF96F050E4B
:100B88000101146FF9C015F1F9C025F0410E266E68
:100B9800050E286E9F0E276E000E2A6E000E296E17
:100BA800010E2B6E3B0E2FEC1EF0F9C025F0500EF7
:100BB800266EF80E286E000E276E000E2A6E000EA6
:100BC800296E010E2B6E7C50D80F2FEC1EF0F9C049
:100BD80025F0470E266EF80E286E000E276E000EC2
:100BE8002A6E000E296E010E2B6E7C50CE0F2FEC54
:100BF8001EF07C50E70F0101166FF9C017F10001D4
:100C0800F9510F0FF96F050E0101186FF9C019F1AD
:100C1800F9C025F06D0E266EF80E286E000E276EB0
:100C2800000E2A6E000E296E010E2B6E370E2FEC69
:100C38001EF0F9C025F0410E266EF80E286E000E43
:100C4800276E000E2A6E000E296E010E2B6E460EC0
:100C58002FEC1EF0F9C025F0680E266EF80E286EEF
:100C6800000E276E000E2A6E000E296E010E2B6EE6
:100C7800510E2FEC1EF00101C651D8B43BD07C5068
:100C8800BF0F1A6FF9C01BF1F9C025F0300E266EA0
:100C9800000E286E1F0E276E000E2A6E000E296E9B
:100CA800010E2B6E7C50F10F2FEC1EF0F9C00BF0EB
:100CB8000A0E0C6E000E0E6E000E0D6E7C50F10FBB
:100CC80061EC2BF0F9C00BF0040E0C6E000E0E6EEA
:100CD8001F0E0D6E7C50F10F61EC2BF0F9C00BF07C
:100CE800040E0C6E000E0E6E1F0E0D6E7C50F70F6C
:100CF80061EC2BF00001F9510F0FF96F050E01019E
:100D08001C6FF9C01DF1F9C025F06D0E266EFF0E9F
:100D1800286EE00E276E000E2A6E000E296E010E58
:100D28002B6E370E2FEC1EF0F9C025F0570E266EED
:100D3800FF0E286EE00E276E000E2A6E000E296E3A
:100D4800010E2B6E450E2FEC1EF0F9C025F0680E33
:100D5800266EFF0E286EE00E276E000E2A6E000E1D
:100D6800296E010E2B6E540E2FEC1EF00101C65198
:100D7800D8B417D07C50BF0F1E6FF9C01FF1F9C04F
:100D880025F0570E266EFF0E286E2768000E2A6E75
:100D9800000E296E010E2B6E7C50F00F2FEC1EF00A
:100DA80054D00001F9510F0FF96F050E01011E6FA4
:100DB800F9C01FF1F9C025F0570E266EFF0E286EF8
:100DC8002768000E2A6E000E296E010E2B6E3F0E4C
:100DD8002FEC1EF00001F9510F0FF96F050E0101FC
:100DE8001A6FF9C01BF1F9C025F0300E266E000EFF
:100DF800286E1F0E276E000E2A6E000E296E010E39
:100E08002B6E440E2FEC1EF0F9C00BF00A0E0C6E80
:100E1800000E0E6E000E0D6E440E61EC2BF0F9C044
:100E28000BF0040E0C6E000E0E6E1F0E0D6E440EAF
:100E380061EC2BF0F9C00BF0040E0C6E000E0E6E78
:100E48001F0E0D6E4A0E61EC2BF00001FF05D8A4B1
:100E58002AD0020EE16F000EE66F780EE76F280EBB
:100E6800E86F460EE96F17C1C5F0E1C0C6F0F80E8D
:100E7800C86F000EC76F01011651F1EC2DF01DC1AE
:100E8800C5F0E6C0C6F0E7C0C7F0E8C0C8F0E9C0E2
:100E9800C9F0FF0E0001CB6FE00ECA6F01011C51B3
:100EA80085EC2DF029D0010EE16F000EE66F780E6B
:100EB800E76F280EE86F460EE96F17C1C5F0E1C06D
:100EC800C6F0F80EC86F000EC76F01011651F1EC9D
:100ED8002DF01DC1C5F0E6C0C6F0E7C0C7F0E8C0F8
:100EE800C8F0E9C0C9F0FF0E0001CB6FE00ECA6F71
:100EF80001011C5185EC2DF00001FF05D8A41DD07F
:100F0800020E41EC30F003C0F2F004C0F3F0030E1F
:100F1800796E980EE82EFED7792EFCD7010E41EC9B
:100F280030F003C0F4F004C0F5F0030E796E980EAB
:100F3800E82EFED7792EFCD71CD0030E41EC30F0FA
:100F480003C0F2F004C0F3F0030E796E980EE82E99
:100F5800FED7792EFCD7000E41EC30F003C0F4F038
:100F680004C0F5F0030E796E980EE82EFED7792EA0
:100F7800FCD7040E41EC30F003C0F6F004C0F7F0E3
:100F8800010104510001F61909E1010105510001AF
:100F9800F719D8A403D0FD51D8B474D0F6C004F121
:100FA800F7C005F10A0E206E280E216EA00E226EE3
:100FB8003B0E236EF6C003F0F7C004F0056A066A1C
:100FC800000EE1EC24F003C01CF004C01DF005C0C5
:100FD8001EF006C01FF05CEC16F01CC0EAF01DC045
:100FE800EBF01EC0ECF01FC0EDF0000E206E000EFE
:100FF800216E480E226E420E236EEAC01CF0EBC032
:101008001DF0ECC01EF0EDC01FF05CEC16F01CC02B
:10101800DCF01DC0DDF01EC0DEF01FC0DFF0DCC05C
:101028001CF0DDC01DF0DEC01EF0DFC01FF03EC1A9
:1010380020F03FC121F040C122F041C123F05CEC17
:1010480016F01CC0CCF01DC0CDF01EC0CEF01FC0E5
:10105800CFF0CCC003F0CDC004F0CEC005F0CFC0B7
:1010680006F05FEC2AF003500001E06F13C1C5F0F1
:10107800E0C0C6F0FF0EC86FE00EC76F0101125145
:10108800F1EC2DF0010100510001F21914E1010108
:1010980001510001F319D8A40ED001010251000139
:1010A800F41909E1010103510001F519D8A403D08D
:1010B800FD51D8B45CD1010100510001F21909E1D8
:1010C800010101510001F319D8A403D0FD51D8B48E
:1010D80093D0F2C000F1F3C001F10A0E206E280E81
:1010E800216EA00E226E3B0E236EF2C003F0F3C0F9
:1010F80004F0056A066A000EE1EC24F003C01CF057
:1011080004C01DF005C01EF006C01FF05CEC16F010
:101118001CC0EAF01DC0EBF01EC0ECF01FC0EDF0E3
:10112800EAC01CF0EBC01DF0ECC01EF0EDC01FF0D3
:101138003EC120F03FC121F040C122F041C123F05F
:101148005CEC16F01CC0EEF01DC0EFF01EC0F0F015
:101158001FC0F1F011C1C5F0EEC0C6F0EFC0C7F076
:10116800F0C0C8F0F1C0C9F0070E0001CB6FE00E67
:10117800CA6F0101105185EC2DF0EEC007F0EFC0E9
:1011880008F0F0C009F0F1C00AF0E6C003F0E7C0CB
:1011980004F0E8C005F0E9C006F0DAEC1AF003C084
:1011A8001CF004C01DF005C01EF006C01FF0000EA4
:1011B800206E000E216E200E226E410E236E5CEC16
:1011C80016F01CC0D8F01DC0D9F01EC0DAF01FC040
:1011D800DBF019C1C5F0D8C0C6F0D9C0C7F0DAC075
:1011E800C8F0DBC0C9F0F80E0001CB6F000ECA6F63
:1011F8000101185185EC2DF0010102510001F4198B
:1012080009E1010103510001F519D8A403D0FD51EA
:10121800D8B454D0F4C002F1F5C003F10A0E206E20
:10122800280E216EA00E226E3B0E236EF4C003F032
:10123800F5C004F0056A066A000EE1EC24F003C06C
:101248001CF004C01DF005C01EF006C01FF05CECC9
:1012580016F01CC0EAF01DC0EBF01EC0ECF01FC079
:10126800EDF0EAC01CF0EBC01DF0ECC01EF0EDC0C4
:101278001FF03EC120F03FC121F040C122F041C122
:1012880023F05CEC16F01CC0E2F01DC0E3F01EC0B9
:10129800E4F01FC0E5F015C1C5F0E2C0C6F0E3C038
:1012A800C7F0E4C0C8F0E5C0C9F0050E0001CB6F77
:1012B8009F0ECA6F0101145185EC2DF0EEC003F0AA
:1012C800EFC004F0F0C005F0F1C006F0E2C007F08E
:1012D800E3C008F0E4C009F0E5C00AF0DAEC1AF05F
:1012E80003C0D4F004C0D5F005C0D6F006C0D7F0CE
:1012F8001BC1C5F0D4C0C6F0D5C0C7F0D6C0C8F071
:10130800D7C0C9F0000E0001CB6F1F0ECA6F0101D4
:101318001A5185EC2DF0EEC01CF0EFC01DF0F0C0A6
:101328001EF0F1C01FF0E2C020F0E3C021F0E4C0DD
:1013380022F0E5C023F05CEC16F01CC0D0F01DC014
:10134800D1F01EC0D2F01FC0D3F01FC1C5F0D0C06D
:10135800C6F0D1C0C7F0D2C0C8F0D3C0C9F0FF0EE4
:101368000001CB6FCA6901011E5185EC2DF0000EFA
:101378000001FD6F1200000E0001A16F4FC0A2F026
:1013880050C0A3F051C0A4F052C0A5F0A5AF14D02E
:10139800010EA16FA2C003F0A3C004F0A4C005F021
:1013A800A5C006F059EC30F003C0A2F004C0A3F0C9
:1013B80005C0A4F006C0A5F0000EA76F000EA66F2A
:1013C80044C191F045C192F0A151D8B40DD0A151BA
:1013D800D8A404D0000E876F2B0E03D0000E876FA1
:1013E8002D0E866F86C0A1F0A2C003F0A3C004F042
:1013F800A4C005F0A5C006F09BEC29F00304041076
:10140800D8A430D00001A151D8B409D0A1C064F14A
:101418009107D8A09207000EA76F010EA66F640E61
:10142800A625036E010EA721046EE00E056E7F0E41
:10143800066EDBEC2FF0FD0E9127FF0E92234DC0B8
:1014480015F04EC016F0640E176E010E186E91C09E
:1014580019F092C01AF0AEEC2BF015C04DF016C082
:101468004EF01200A2C003F0A3C004F0A4C005F01F
:10147800A5C006F09BEC29F003500410D8A41AD09C
:101488000001A151D8B409D0A1C064F19107D8A036
:101498009207000EA76F010EA66F640EA625036EB5
:1014A800010EA721046EE40E056E7F0E066EDBECBE
:1014B8002FF0C1D7000E0001A86F000EA96F800E93
:1014C800AA6F3F0EAB6F000E906F000E8F6FA2C019
:1014D80003F0A3C004F0A4C005F0A5C006F0000EF8
:1014E800076E000E086E000E096E000E0A6E43ECC1
:1014F8002CF0D8A00CD0BED093C0A8F094C0A9F00E
:1015080095C0AAF096C0ABF000018F4B902BA8C0F5
:101518001CF0A9C01DF0AAC01EF0ABC01FF0000E41
:10152800206E000E216E200E226E410E236E5CECA2
:1015380016F01CC093F01DC094F01EC095F01FC09B
:1015480096F000019351A25D036E9451A359046E65
:101558009551A459056E9651A559066E50EC2EF07A
:1015680006BECAD706500510041004E1020E035C3B
:10157800D8A0C2D793C035F094C036F095C037F0E4
:1015880096C038F0A2C039F0A3C03AF0A4C03BF02E
:10159800A5C03CF033EC29F0D8A0AED70001A85183
:1015A800A25D036EA951A359046EAA51A459056EF0
:1015B800AB51A559066E50EC2EF006BE08D0065069
:1015C8000510041043E1020E035CD8B03FD0A8C058
:1015D800A2F0A9C0A3F0AAC0A4F0ABC0A5F04AD05D
:1015E800A8C003F0A9C004F0AAC005F0ABC006F07B
:1015F800000E076E000E086E200E096E410E0A6E70
:10160800DAEC1AF003C0A8F004C0A9F005C0AAF0EB
:1016180006C0ABF000018F07D8A09007A851A25DC3
:10162800036EA951A359046EAA51A459056EAB5172
:10163800A559066E50EC2EF006BEC9D70650051007
:10164800041004E1020E035CD8A0C1D7A2C035F093
:10165800A3C036F0A4C037F0A5C038F0A8C039F050
:10166800A9C03AF0AAC03BF0ABC03CF033EC29F07B
:10167800D8A0B6D753C089F089C08AF0010147BF06
:1016880005D046C182F047C183F005D0000E0001A5
:10169800836F060E826F82C08DF083C08EF00001CA
:1016A8008D4B8E2B660E8A19D8A416D090AF0CD00D
:1016B800000EA86F000EA96F800EAA6F3F0EAB6FC9
:1016C800000E906F000E8F6F670E8919D8B404D082
:1016D8008F518D2790518E23000E986F000E976FB3
:1016E800A2C099F0A3C09AF0A4C09BF0A5C09CF03A
:1016F800A8C093F0A9C094F0AAC095F0ABC096F02A
:101708007BD099C003F09AC004F09BC005F09CC040
:1017180006F0A8C007F0A9C008F0AAC009F0ABC03D
:101728000AF0DAEC1AF003C01CF004C01DF005C082
:101738001EF006C01FF008EC1FF01CC09DF01DC075
:101748009EF01EC09FF01FC0A0F09DC003F09EC079
:1017580004F09FC005F0A0C006F05FEC2AF003C0BB
:101768008BF004C08CF099C045F09AC046F09BC03D
:1017780047F09CC048F09DC020F09EC021F09FC05B
:1017880022F0A0C023F0A8C01CF0A9C01DF0AAC078
:101798001EF0ABC01FF05CEC16F01CC049F01DC079
:1017A8004AF01EC04BF01FC04CF01AEC2FF045C099
:1017B80099F046C09AF047C09BF048C09CF0A8C07A
:1017C80003F0A9C004F0AAC005F0ABC006F0000EF3
:1017D800076E000E086E200E096E410E0A6EDAECD6
:1017E8001AF003C0A8F004C0A9F005C0AAF006C00A
:1017F800ABF00001974B982B8D51975D9851800A5B
:10180800546E8E51800A5458D8A07BD7A8C01CF0BB
:10181800A9C01DF0AAC01EF0ABC01FF0000E206EBC
:10182800000E216EA00E226E400E236E5CEC16F0A8
:101838001CC09DF01DC09EF01EC09FF01FC0A0F0F0
:1018480099C035F09AC036F09BC037F09CC038F08C
:101858009DC039F09EC03AF09FC03BF0A0C03CF05C
:1018680033EC29F0D8B003D0000E000118D099C08D
:1018780003F09AC004F09BC005F09CC006F09DC020
:1018880007F09EC008F09FC009F0A0C00AF043EC22
:101898002CF0D8A00BD000018BB108D0000E9D6FA2
:1018A800000E9E6F000E9F6F000EA06FA2C035F055
:1018B800A3C036F0A4C037F0A5C038F09DC039F0F9
:1018C8009EC03AF09FC03BF0A0C03CF0F2EC17F08D
:1018D80035C099F036C09AF037C09BF038C09CF0FC
:1018E80099C035F09AC036F09BC037F09CC038F0EC
:1018F800000E206E000E216E200E226E410E236E09
:1019080093C01CF094C01DF095C01EF096C01FF047
:101918005CEC16F01CC039F01DC03AF01EC03BF05C
:101928001FC03CF033EC29F0D8A024D000018F4B25
:10193800902B93C01CF094C01DF095C01EF096C06B
:101948001FF0000E206E000E216E200E226E410E3A
:10195800236E5CEC16F01CC093F01DC094F01EC002
:1019680095F01FC096F0660E00018A19D8A402D01F
:101978008D4B8E2B93C0A8F094C0A9F095C0AAF007
:1019880096C0ABF08FC080F090C081F0000E0001CF
:10199800886F000E856F000E846F000E986F000E22
:1019A800976FCDD099C003F09AC004F09BC005F0A2
:1019B8009CC006F0A8C007F0A9C008F0AAC009F0AA
:1019C800ABC00AF0DAEC1AF003C01CF004C01DF03A
:1019D80005C01EF006C01FF008EC1FF01CC09DF0EB
:1019E8001DC09EF01EC09FF01FC0A0F09DC003F058
:1019F8009EC004F09FC005F0A0C006F05FEC2AF07E
:101A080004BE06D0045013E10A0E035CD8B00FD010
:101A18009DC003F09EC004F09FC005F0A0C006F072
:101A28005FEC2AF003C08BF004C08CF005D0000EE8
:101A380000018C6F090E8B6F00018851D8B481AFFB
:101A480020D0640EA625D96E010EA721DA6E2E0EBF
:101A5800DF6EA64BA72B9107D8A09207010E886FBF
:101A680010D0640EA625D96E010EA721DA6E300EAD
:101A7800DF6EA64BA72B9107D8A092078407D8A0A2
:101A8800850784518511D8A4ECD7640EA625D96E94
:101A9800010EA721DA6E8B51300FDF6EA64BA72BF4
:101AA8009107D8A0920799C045F09AC046F09BC00C
:101AB80047F09CC048F09DC020F09EC021F09FC018
:101AC80022F0A0C023F0A8C01CF0A9C01DF0AAC035
:101AD8001EF0ABC01FF05CEC16F01CC049F01DC036
:101AE8004AF01EC04BF01FC04CF01AEC2FF045C056
:101AF80099F046C09AF047C09BF048C09CF0A8C037
:101B080003F0A9C004F0AAC005F0ABC006F0000EAF
:101B1800076E000E086E200E096E410E0A6EDAEC92
:101B28001AF003C0A8F004C0A9F005C0AAF006C0C6
:101B3800ABF000018007D8A08107974B982B8D51F7
:101B4800975D9851800A546E8E51800A5458D8B0C7
:101B580008D0A7BF27D7A75104E14B0EA65DD8A090
:101B680021D7000E986F4F0E976F640E9725D96E88
:101B7800010E9821DA6E000EDF6E640E546E010EAF
:101B8800556EA651545EA751555A97515424036E69
:101B980098515520046E640E056E010E066EA6C09F
:101BA80007F0A7C008F03DEC2FF0A651975DA66F8F
:101BB800A7519859A76FA151D8B402D0010E01D0EE
:101BC800000E976F986BA151D8B40BD0A607D8A078
:101BD800A707640EA625D96E010EA721DA6EA1C04B
:101BE800DFFF9751915F9851925B4DC015F04EC041
:101BF80016F0640EA625176E010EA721186E91C067
:101C080019F092C01AF0AEEC2BF015C04DF016C0CA
:101C18004EF012000001FD51D8B43DD1190EFC6FF1
:101C28001E0EFB6FDAEC30F0970E036E7F0E046E1B
:101C380055EC31F0C90E0001AC6F000EAE6F060E08
:101C4800AD6FD60EAF6F7F0EB06F000EB16F000E86
:101C5800B26FA00EB36F400EB46F01EC2AF0210EE4
:101C6800436EC90E446E456AFF0E476E4668000E05
:101C7800496E000E486E010E4A6E050E2DEC1DF0E1
:101C8800210E256E560E266EFF0E286E2768000E52
:101C98002A6E000E296E010E2B6E140E2FEC1EF00C
:101CA8001F0E0B6E030E0C6EFF0E0E6E0D68180ED7
:101CB80061EC2BF0000E0001DA6FDA510B0DF350D6
:101CC800FB25030F0B6E010E0C6EFF0E0E6E0D68DA
:101CD800FC0561EC2BF00001DA510B0DF350FB25EC
:101CE800050F0B6E010E0C6EFF0E0E6E0D68FC05D7
:101CF80061EC2BF00001DA510B0DF350FB25070FB7
:101D08000B6E010E0C6EFF0E0E6E0D68FC0561EC7D
:101D18002BF00001DA510B0DF350FB25090F0B6E68
:101D2800010E0C6EFF0E0E6E0D68FC0561EC2BF0BB
:101D3800000E456E000E466EA00E476E400E486EB1
:101D48007D0E206E3F0E216E550E226E3F0E236EC5
:101D58000001DA51756E766A010E7526000E76223C
:101D680075C003F076C004F0000E04BEFF0E056EC9
:101D7800066E010EE1EC24F003C01CF004C01DF057
:101D880005C01EF006C01FF05CEC16F01CC049F040
:101D98001DC04AF01EC04BF01FC04CF01AEC2FF0CB
:101DA80045C0CFF046C0D0F047C0D1F048C0D2F00F
:101DB800C90E0001AC6F000EAE6F060EAD6FD60EE9
:101DC800AF6F7F0EB06FCFC0B1F0D0C0B2F0D1C04E
:101DD800B3F0D2C0B4F001EC2AF00001DA510B0DD7
:101DE800F350FB250E0F436EC90E446E456AFF0E75
:101DF800476E4668000E496E000E486E010E4A6E28
:101E0800FC51EC0F2DEC1DF00001DA510B0DF350D5
:101E1800FB250E0F256E560E266EFF0E286E2768C0
:101E2800000E2A6E000E296E010E2B6EFC51FB0F60
:101E38002FEC1EF00001DA510B0DF350FB250C0FAF
:101E48000B6E030E0C6EFF0E0E6E0D68FC0561EC3A
:101E58002BF00001DA2B050EDA652FD7FB290101DB
:101E6800596F0001FB51430F0101586FA20E036E19
:101E78007F0E046E55EC31F0000E0001DA6F2C0E67
:101E8800DA25D96EDA6A010EDA2258C1DFFFDA2BB9
:101E9800090EDA65F4D7040EFF19D8A404D0020E8F
:101EA80041EC30F003D0030E41EC30F003C0D8F021
:101EB80004C0D9F00A0E206E280E216EA00E226EE4
:101EC8003B0E236ED8C003F0D9C004F0056A066A39
:101ED800000EE1EC24F003C01CF004C01DF005C0A6
:101EE8001EF006C01FF05CEC16F01CC0D3F01DC03D
:101EF800D4F01EC0D5F01FC0D6F0D3C01CF0D4C09B
:101F08001DF0D5C01EF0D6C01FF03EC120F03FC165
:101F180021F040C122F041C123F05CEC16F01CC056
:101F2800C5F01DC0C6F01EC0C7F01FC0C8F0D8C09D
:101F380003F0D9C004F0056A066A000EE1EC24F04B
:101F480003C04DF004C04EF005C04FF006C050F07D
:101F5800000E516E000E526E000E536E000E546E3F
:101F6800000E556EC00E566E7F0E576E440E586E9C
:101F780001015851036E046A056A066A000EE1EC15
:101F880024F003C059F004C05AF005C05BF006C045
:101F98005CF001015951036E046A056A066A000E75
:101FA800E1EC24F003C05DF004C05EF005C05FF012
:101FB80006C060F03EEC24F04D500001D76F000ED3
:101FC800DA6FDA510A0DF3CF75F0F4CF76F0FC51E1
:101FD8007524196E000E76201A6E2C0EDA25D96E2D
:101FE800DA6A010EDA22DF50776E77501B6E1C6AB0
:101FF800DA510A0DF3CF78F0F4CF79F0FC51782656
:10200800000E79220A0E78241D6E000E79201E6EAD
:102018002D0EDA25D96EDA6A010EDA22DF507A6ED1
:102028007A501F6E206A000E226E000E216E2FEC71
:1020380022F00001DA2B080EDA65C3D7000EDA6F3A
:102048002D0EDA25D96EDA6A010EDA222C0EDA257F
:10205800E16EE26A010EE222DFCFE7FFDA2B080E1B
:10206800DA65EED7D7C035F1000EDA6FDA510A0D0E
:10207800F3CF75F0F4CF76F0FC517524196E000E8D
:1020880076201A6E2C0EDA25D96EDA6A010EDA225B
:10209800DF50776E77501B6E1C6ADA510A0DF3CF4A
:1020A80078F0F4CF79F0FC517826000E79220A0EE8
:1020B80078241D6E000E79201E6E2D0EDA25D96E3D
:1020C800DA6A010EDA22DF507A6E7A501F6E206AC1
:1020D800FF0E226EE00E216E2FEC22F00001DA2BAB
:1020E800080EDA65C3D7000EFD6F1200050E000159
:1020F800D86FFD51D8B402D1DAEC30F02D0E0001C2
:10210800D86F050E0101106F2D0E116F2D0E256E63
:102118006D0E266E070E286EE00E276E000E2A6ED4
:10212800000E296E010E2B6E3C0E2FEC1EF02D0EAC
:10213800256E410E266E070E286EE00E276E000EE5
:102148002A6E000E296E010E2B6E4D0E2FEC1EF01E
:102158002D0E256E680E266E070E286EE00E276E71
:10216800000E2A6E000E296E010E2B6E5E0E2FECED
:102178001EF00001D8510F0FD86F050E0101126F24
:10218800D8C013F1D8C025F06D0E266E050E286E46
:102198009F0E276E000E2A6E000E296E010E2B6E02
:1021A8003C0E2FEC1EF0D8C025F0570E266E050EFB
:1021B800286E9F0E276E000E2A6E000E296E010EE5
:1021C8002B6E4C0E2FEC1EF0D8C025F0680E266E34
:1021D800050E286E9F0E276E000E2A6E000E296EC1
:1021E800010E2B6E5E0E2FEC1EF00001D8510F0F62
:1021F800D86F050E0101146FD8C015F1D8C025F0AD
:102208003A0E266EFF0E286E2768000E2A6E000E04
:10221800296E010E2B6E1C0E2FEC1EF0230E0101F1
:10222800166FD8C017F1D8C025F03A0E266EFF0EEB
:10223800286E2768000E2A6E000E296E010E2B6E7E
:102248003B0E2FEC1EF0420E0101186FD8C019F199
:102258000001D8510F0FD86F140E01011A6FD8C0A2
:102268001BF1D8C025F0410E266EFF0E286E276898
:10227800000E2A6E000E296E010E2B6E460E2FECF4
:102288001EF0D8C025F0520E266EF80E286E000EED
:10229800276E000E2A6E000E296E010E2B6E5A0E46
:1022A8002FEC1EF0D8C025F0450E266EF80E286ECD
:1022B800000E276E000E2A6E000E296E010E2B6E80
:1022C800670E2FEC1EF0D8C025F0430E266EF80ED0
:1022D800286E000E276E000E2A6E000E296E010E63
:1022E8002B6E720E2FEC1EF00101C551D8B406D02A
:1022F800000E5F6F000E5E6F000E5D6F000E000136
:10230800CC6F780ECD6F280ECE6F460ECF6F20C1E2
:1023180003F021C104F022C105F023C106F0CCC0AE
:1023280007F0CDC008F0CEC009F0CFC00AF043ECEA
:102338002CF0D8A004D00001FD51D8B41BD0CCC0DB
:1023480020F1CDC021F1CEC022F1CFC023F111C1BF
:10235800C5F0D4C0C6F0D5C0C7F0D6C0C8F0D7C045
:10236800C9F0070E0001CB6FE00ECA6F01011051D2
:1023780085EC2DF0000E0001D46F780ED56F280E75
:10238800D66F460ED76F24C103F025C104F026C1CD
:1023980005F027C106F0D4C007F0D5C008F0D6C0B4
:1023A80009F0D7C00AF043EC2CF0D8A004D0000103
:1023B800FD51D8B41BD0D4C024F1D5C025F1D6C066
:1023C80026F1D7C027F113C1C5F0D4C0C6F0D5C0D7
:1023D800C7F0D6C0C8F0D7C0C9F0050E0001CB6F52
:1023E8009F0ECA6F0101125185EC2DF0290E0001D4
:1023F800D06F5C0ED16F9F0ED26F3F0ED36F28C186
:1024080003F029C104F02AC105F02BC106F0D0C0A1
:1024180007F0D1C008F0D2C009F0D3C00AF043ECED
:102428002CF0D8A004D00001FD51D8B41AD0D0C0E7
:1024380028F1D1C029F1D2C02AF1D3C02BF11BC198
:10244800C5F0D0C0C6F0D1C0C7F0D2C0C8F0D3C064
:10245800C9F0FF0E0001CB6FCA6901011A5185EC62
:102468002DF001016251D8A404D00001FD51D8B467
:1024780074D0000E0101626F5D2B3C0E5D19D8A46B
:1024880003D0000E5D6F5E2B3C0E5E19D8A403D0FE
:10249800000E5E6F5F2B180E5F19D8A402D0000ED5
:1024A8005F6F5F51796E7A6A0051791808E10151BE
:1024B8007A18D8A404D00001FD51D8B410D05FC157
:1024C80000F10101016B15C1C5F05FC1C6F0FF0E37
:1024D8000001C86FC76901011451F1EC2DF0010129
:1024E8005E51796E7A6A0251791808E103517A18B7
:1024F800D8A404D00001FD51D8B410D05EC102F1B7
:102508000101036B17C1C5F05EC1C6F0FF0E0001E3
:10251800C86FC76901011651F1EC2DF001015D5139
:10252800796E7A6A0451791808E105517A18D8A4A5
:1025380004D00001FD51D8B410D05DC104F10101EF
:10254800056B19C1C5F05DC1C6F0FF0E0001C86F6B
:10255800C76901011851F1EC2DF0000E0001FD6F63
:1025680012005850D96EDA6ADECFF6FFDDCFF7FFDA
:102578000800F550250AD8A4ACD15850D96EDA6AAB
:10258800DE2A000EDD22000E0101456F000E446FA9
:1025980044C150F1466947695850D96EDA6ADECFAE
:1025A800F6FFDDCFF7FF0800F5502A0AD8A41AD0A5
:1025B8005850D96EDA6ADE2A000EDD225950D96EDB
:1025C800DA6A020EDF26DF5CD96EDA6ADECF44F102
:1025D800DECF45F145AF30D05081446D451FD8B0AE
:1025E800452B2AD05850D96EDA6ADECF09F0DDCFF4
:1025F8000AF043EC27F009C044F10AC045F106D0BF
:102608005850D96EDA6ADE2A000EDD225850D96E8B
:10261800DA6ADECFF6FFDDCFF7FF0800F5CF5AF014
:10262800D00E5A245B6E5C6AFF0E5C225C5004E19B
:102638000A0E5B5CD8A0E4D75850D96EDA6ADECFB0
:10264800F6FFDDCFF7FF0800F5502E0AD8A454D0C6
:10265800000E0101476F000E466F5850D96EDA6AB6
:10266800DE2A000EDD225850D96EDA6ADECFF6FF78
:10267800DDCFF7FF0800F5502A0AD8A413D0585028
:10268800D96EDA6ADE2A000EDD225950D96EDA6A6E
:10269800020EDF26DF5CD96EDA6ADECF46F1DECFC6
:1026A80047F12AD05850D96EDA6ADECF09F0DDCF6B
:1026B8000AF043EC27F009C046F10AC047F106D0FA
:1026C8005850D96EDA6ADE2A000EDD225850D96ECB
:1026D800DA6ADECFF6FFDDCFF7FF0800F5CF5AF054
:1026E800D00E5A245B6E5C6AFF0E5C225C5004E1DB
:1026F8000A0E5B5CD8A0E4D75850D96EDA6ADECFF0
:1027080066F0DDCF67F066C0F6FF67C0F7FF080028
:10271800F550640AD8B409D066C0F6FF67C0F7FF61
:102728000800F550690AD8A43DD05950D96EDA6A24
:10273800DF50DF2ADF2AD96EDA6ADECF5DF0DDCF1F
:102748005EF0000E5EBEFF0E5F6E606E616E626EC2
:10275800636E646E010E66245A6E000E67205B6E0F
:102768005850D96EDA6A5AC0DEFF5BC0DDFF56C02A
:1027780020F057C021F05DC022F05EC023F05FC09A
:1027880024F060C025F061C026F062C027F063C065
:1027980028F064C029F01EEC1CF020C056F021C0BF
:1027A80057F012005850D96EDA6ADECF66F0DDCFE6
:1027B80067F066C0F6FF67C0F7FF0800F5CF65F061
:1027C80008D0664A672A17D06C0E01D0000E656ED5
:1027D80012D065505A6E5B6A5B50000AD8A4F6D7CF
:1027E8005A504C0AD8B4EDD72A0AD8B4EDD70A0AF9
:1027F800D8B4E7D7EBD766C0F6FF67C0F7FF080085
:10280800F550660AD8B414D059D05950D96EDA6A3E
:10281800DFCF5AF0040EDF265A50D96EDA6ADECFBF
:102828005DF0DECF5EF0DECF5FF0DECF60F00ED081
:1028380065505A6E5B6A5B50000AD8A407D05A509C
:102848004C0AD8B4E2D7200AD8B4DFD7010E6624E0
:102858005A6E000E67205B6E5850D96EDA6A5AC0FD
:10286800DEFF5BC0DDFF1AD056C04DF057C04EF0FA
:102878005DC04FF05EC050F05FC051F060C052F0D4
:1028880066C0F6FF67C0F7FF0800F5CF53F0BFEC4E
:1028980009F04DC056F04EC057F0120066C0F6FF62
:1028A80067C0F7FF0800F5505A6E5B6A5B50000A74
:1028B800D8A404D05A50660AD8B4D6D75850D96E7E
:1028C800DA6ADE2A000EDD22000E576E000E566E02
:1028D80012005850D96EDA6ADECFF6FFDDCFF7FF67
:1028E8000800F550056E066A56C007F057C008F094
:1028F800FBEC2BF05850D96EDA6ADE2A000EDD2286
:10290800000E576E010E566E12001D50215C2250AB
:10291800800A296E1E50800A2958D8B018D01DC0C8
:1029280030F01EC031F021C01DF022C01EF030C0B2
:1029380021F031C022F01BC032F01CC033F01FC0A0
:102948001BF020C01CF032C01FF033C020F0215013
:10295800255C2650800A296E2250800A2958D8B052
:1029680018D025C034F026C035F021C025F022C08B
:1029780026F034C021F035C022F023C036F024C040
:1029880037F01FC023F020C024F036C01FF037C036
:1029980020F01D50215C2250800A296E1E50800AAA
:1029A8002958D8B018D01DC038F01EC039F021C041
:1029B8001DF022C01EF038C021F039C022F01BC023
:1029C8003AF01CC03BF01FC01BF020C01CF03AC0FE
:1029D8001FF03BC020F025501D1855E126501E1849
:1029E800D8A451D01BC04EF01CC04FF04EC050F0C0
:1029F8004FC051F050501F5C2050800A296E515032
:102A0800800A2958D8B005D01FC050F020C051F016
:102A18000ED01F504E5C4F50800A296E2050800AFD
:102A28002958D8B004D01FC04EF020C04FF05050E5
:102A3800235C2450800A296E5150800A2958D8B046
:102A480005D023C050F024C051F00ED023504E5C66
:102A58004F50800A296E2450800A2958D8B004D0D3
:102A680023C04EF024C04FF01DC00BF050504E5CF8
:102A7800296E29280C6E27C00DF028C00EF0505082
:102A880061EC2BF012001B501F5C2A6E1C50205862
:102A98002B6E1D50215C2C6E1E5022582D6E1B5023
:102AA800235C4A6E1C5024584B6E1D50255C426EA8
:102AB8001E502658436E1F50235C446E20502458E5
:102AC800456E2150255C2E6E225026582F6E000E22
:102AD800476E000E466E000E496E000E486E255079
:102AE800211809E126502218D8A405D021C040F0A9
:102AF80022C041F006D0FF0E2124406EFF0E222096
:102B0800416E1DC04CF01EC04DF04ED046C003F0C3
:102B180047C004F02CC005F02DC006F0CDEC2CF019
:102B28001B500324506E1C500420516E48C003F003
:102B380049C004F042C005F043C006F0CDEC2CF0CB
:102B48001B5003244E6E1C5004204F6E2A504626FC
:102B58002B5047224A5048264B50492250504E5C31
:102B68004F50800A296E5150800A2958D8B00CD08D
:102B780050C03CF051C03DF04EC050F04FC051F035
:102B88003CC04EF03DC04FF04CC00BF050504E5C76
:102B9800296E29280C6E27C00DF028C00EF0505061
:102BA80061EC2BF04C4A4D2A4C50405C4150800A55
:102BB800296E4D50800A2958D8B0A8D721504C5CAE
:102BC800036E22504D58046E44C005F045C006F00F
:102BD80070EC30F003C046F004C047F01D504C5C68
:102BE800036E1E504D58046E4AC005F04BC006F0E7
:102BF80070EC30F003C048F004C049F04ED046C035
:102C080003F047C004F02EC005F02FC006F0CDEC4D
:102C18002CF01F500324506E20500420516E48C0E1
:102C280003F049C004F042C005F043C006F0CDEC03
:102C38002CF01B5003244E6E1C5004204F6E445041
:102C48004626455047224A5048264B504922505064
:102C58004E5C4F50800A296E5150800A2958D8B0CE
:102C68000CD050C03EF051C03FF04EC050F04FC0A5
:102C780051F03EC04EF03FC04FF04CC00BF05050EA
:102C88004E5C296E29280C6E27C00DF028C00EF066
:102C9800505061EC2BF04C4A4D2A4C50255C265084
:102CA800800A296E4D50800A2958D8A01200A7D74B
:102CB8001F50800B286E1F501F242E6E1EBE2E80A4
:102CC8002E50D8B40DD02E28D8A408D0000E1C6ED3
:102CD800000E1D6E000E1E6E000E1F6E1E8E08D09A
:102CE800000E1C6E000E1D6E000E1E6E000E1F6E76
:102CF8002350800B281A23502324296E22BE2980B2
:102D08002950D8B40DD02928D8A408D0000E206E98
:102D1800000E216E000E226E000E236E228E08D049
:102D2800000E206E000E216E000E226E000E236E25
:102D38002950D8B403D02E50D8A409D0000E1C6E48
:102D4800000E1D6E000E1E6E000E1F6E1200225029
:102D58001C02F3CF33F0F4CF34F033502A6E2B6AD1
:102D68002C6A2D6A34502F6E306A316A326A2150CB
:102D78001D02F3CF33F0F4CF34F033502A26000E7F
:102D88002B222C222D2234502F26000E30223122C5
:102D9800322220501E02F3CF33F0F4CF34F03350F8
:102DA8002A26000E2B222C222D2234502F26000EEC
:102DB8003022312232222CC02DF02BC02CF02AC018
:102DC8002BF02A6A20501D02F3CF33F0F4CF34F0F1
:102DD80033502A2634502B22000E2C22000E2D228E
:102DE80021501C02F3CF33F0F4CF34F033502A26AD
:102DF80034502B22000E2C22000E2D222CC02DF038
:102E08002BC02CF02AC02BF02A6A20501C02F3CFCA
:102E180033F0F4CF34F033502A2634502B22000EEE
:102E28002C22000E2D2222501D02F3CF33F0F4CFB6
:102E380034F033502F2634503022000E3122000E49
:102E4800322221501E02F3CF33F0F4CF34F0335046
:102E58002F2634503022000E3122000E322222500A
:102E68001E02F3CF33F0F4CF34F03350246E3450D5
:102E7800256E266A276A26C027F025C026F024C0BA
:102E880025F0246A24502F2625503022265031223E
:102E9800275032222D502F26000E30223122322286
:102EA8002CC02DF02BC02CF02AC02BF02A6A2950F8
:102EB8002EC024F0256A2426000E2522820E242402
:102EC800336EFF0E2520346E0FD0D8902F36303653
:102ED800313632362DBE2F80D8902A362B362C36F6
:102EE8002D363306D8A0340631AEEFD7000E296E42
:102EF8002DAE17D0FF0E2A14246EFF0E2B14256E4C
:102F0800FF0E2C14266E7F0E2D14276E24502510CC
:102F180026102710D8B403D0010E296E02D02FB086
:102F2800FBD72950D8B41FD0010E2F26000E30220F
:102F38003122322232A017D02FC024F030C025F021
:102F480031C026F032C027F0273427322632253206
:102F5800243224C02FF025C030F026C031F027C01D
:102F680032F0334A342A34BE0DD0345003E13328CA
:102F7800D8A008D0000E2F6E000E306E800E316E75
:102F88007F0E20D034BE05D034500EE13304D8B0C3
:102F98000BD0000E2F6E000E306E000E316E000E3C
:102FA800326E000E286E0FD033C02EF0FF0E2F1693
:102FB800FF0E30167F0E3116000E32162EB0318EEF
:102FC800D8902E30326E285032122FC01CF030C0EC
:102FD8001DF031C01EF032C01FF012003850800BB7
:102FE800416E38503824436E37BE43804350D8B4BE
:102FF8000DD04328D8A408D0000E356E000E366ECA
:10300800000E376E000E386E378E06D0000E356E05
:10301800000E366E000E376E000E386E3C50800B78
:10302800426E41504218D8A4418C3C503C24426E18
:103038003BBE42804250D8B40DD04228D8A408D014
:10304800000E396E000E3A6E000E3B6E000E3C6E9E
:103058003B8E06D0000E396E000E3A6E000E3B6EA7
:10306800000E3C6E4350425CD8B022D041AC02D036
:10307800800E411A43C044F042C043F044C042F0BD
:1030880035C044F039C035F044C039F036C044F09A
:103098003AC036F044C03AF037C044F03BC037F08D
:1030A80044C03BF038C044F03CC038F044C03CF069
:1030B800000E446E435042C03DF03E6A3D5E000E35
:1030C8003E5A3EBE2CD03E5004E11A0E3D5CD8A0BC
:1030D80026D03550361037103810D8B402D0010E2B
:1030E80001D0000E446E000E356E000E366E000ED6
:1030F800376E000E386E42C043F015D044A005D09C
:10310800D89044300109446E02D0D890443235B08A
:10311800448E38343832373236323532432A4250C8
:10312800435CD8A0EBD741BC28D04350D8A409D0E1
:10313800000E356E000E366E000E376E000E386EBD
:103148001200395035263A5036223B5037223C502F
:10315800382238A071D044A005D0D8904430010955
:10316800446E02D0D890443235B0448E3834383268
:10317800373236323532432A5FD03950355C3A50CF
:1031880036583B5037583850800A3D6E3C50800ABC
:103198003D58D8B025D03550395C3D6E36503A5838
:1031A8003E6E37503B583F6E38503C58406EFF0ECD
:1031B8003D24356EFF0E3E20366EFF0E3F20376EE3
:1031C800FF0E4020386E800E411A446C4450D8A43B
:1031D8000FD0010E3526000E36223722382208D0AD
:1031E8003950355E3A50365A3B50375A3C50385A67
:1031F8003550361037103810D8A41CD04450D8A4F5
:1032080019D0000E356E000E366E000E376E000EA9
:10321800386E1200D890353636363736383644BED2
:10322800358044A002D0D88001D0D890443643508D
:10323800D8A4430637AEEED7000E426E44AE0BD08C
:1032480044C03DF07F0E3D16D8B403D0010E426E47
:1032580002D035B0FBD74250D8B420D0010E352665
:10326800000E36223722382238A018D035C03DF05B
:1032780036C03EF037C03FF038C040F040344032EE
:103288003F323E323D323DC035F03EC036F03FC0A1
:1032980037F040C038F04328D8A4432A4328D8B48C
:1032A80003D04350D8A40DD0000E356E000E366EF4
:1032B800000E376E000E386E4350D8A402D0000EB0
:1032C800416E43A002D0378E01D0379ED89043304C
:1032D800386E41BE388E35C035F036C036F037C04E
:1032E80037F038C038F01200050E666E000E1B6EFF
:1032F800000E1A6E08EC31F0050E306E7C50F60F99
:10330800316E160E326E010E336E000E356E1F0EC4
:10331800346E050EC0EC28F07C50E70F656E060E83
:10332800226E0C0E236E0F0E246E030E256EFF0EFA
:10333800276E26686550DCEC1FF0060E096E0F0E2E
:103348000A6E000E0C6E1F0E0B6E65500B0F14EC00
:103358002BF0060E096E0F0E0A6E000E0C6E1F0E75
:103368000B6E65500A0F14EC2BF00A0E65241B6EC9
:103378001C6A000E1C22000E1E6E100E1D6E0A0E18
:1033880065241F6E206A000E2022000E226E1A0E7F
:10339800216E0F0E6524236E246A000E2422000E6F
:1033A800266E150E256EFF0E286E276889EC14F020
:1033B800060E226E0C0E236E0F0E246E030E256E63
:1033C800FF0E276E26680C0EDCEC1FF0060E096E49
:1033D8000F0E0A6E000E0C6E1F0E0B6E0C0E14EC08
:1033E8002BF0060E096E0F0E0A6E000E0C6E1F0EE5
:1033F8000B6E0D0E14EC2BF0000E1C6E0D0E1B6EDA
:10340800000E1E6E100E1D6E000E206E0D0E1F6E2D
:10341800000E226E1A0E216E000E246E080E236E08
:10342800000E266E150E256EFF0E286E276889EC95
:1034380014F07B50EA0F666E66C030F0FB0E7C24F9
:10344800036E046AFF0E0422000E066E020E056E5D
:10345800CDEC2CF00350FB0F316E160E326E010EC0
:10346800336E000E356E1F0E346E050EC0EC28F05C
:1034780066C030F0FB0E7C24036E046AFF0E042243
:10348800000E066E020E056ECDEC2CF00350FB0FFD
:10349800316E160E326E010E336E000E356E1F0E33
:1034A800346EFB0E7C24036E046AFF0E0422000EA9
:1034B800066E020E056ECDEC2CF00350050FC0EC25
:1034C80028F066500E0F666ED10E616E7F0E626E2A
:1034D800CC0E636E7F0E646E0101C651D8B434D031
:1034E8006650030F436E61C044F062C045F0FF0EA2
:1034F800476E4668FF0E496E4868010E4A6E120E06
:103508002DEC1DF0FB0E7C24036E046AFF0E0422D2
:10351800000E066E020E056ECDEC2CF00350120F55
:10352800656E6650030F436E63C044F064C045F097
:10353800FF0E476E4668FF0E496E4868010E4A6ED8
:1035480065502DEC1DF0120066C043F061C044F0D8
:1035580062C045F0FF0E476E4668FF0E496E486828
:10356800010E4A6E0A0E2DEC1DF0FB0E7C24036E34
:10357800046AFF0E0422000E066E020E056ECDECE4
:103588002CF003500A0F656E66C043F063C044F028
:1035980064C045F0FF0E476E4668FF0E496E4868E6
:1035A800010E4A6E65502DEC1DF012000650800B7E
:1035B800136E065006241A6E05BE1A801A50D8B427
:1035C8000DD01A28D8A408D0000E036E000E046E81
:1035D800000E056E000E066E058E06D0000E036EF8
:1035E800000E046E000E056E000E066E0A50800B6B
:1035F800131A0A500A241B6E09BE1B801B50D8B42C
:103608000DD01B28D8A408D0000E076E000E086E37
:10361800000E096E000E0A6E098E06D0000E076EA7
:10362800000E086E000E096E000E0A6E0750081094
:1036380009100A10D8A417D0000E036E000E046EED
:10364800000E056E000E066E800E05127F0E061225
:103658001350061203C003F004C004F005C005F0BF
:1036680006C006F012001A50D8A409D0000E036E46
:10367800000E046E000E056E000E066E12001B5042
:103688001AC00BF00C6A0B5E000E0C5A7F0E0B244E
:10369800146E000E0C20156E03C00FF004C010F05D
:1036A80005C011F006C012F0000E036E000E046E85
:1036B800000E056E000E066E000E166E000E176EDA
:1036C800000E186E000E196E000E1B6E28D01B50CF
:1036D800D8B411D0D8900F36103611361236D8908B
:1036E800033604360536063619BE0380D8901636DA
:1036F80017361836193607500F5C085010580950FD
:1037080011580A501258D8A009D0198C07500F5ECA
:103718000850105A0950115A0A50125A1B2A190EE9
:103728001B64D5D70F50101011101210D8B411D037
:1037380016800FD0D890033604360536063619BEE3
:103748000380D89016361736183619361406D8A0BE
:10375800150605AEEFD7000E1B6E19AE17D0FF0E7B
:1037680016140B6EFF0E17140C6EFF0E18140D6E48
:103778007F0E19140E6E0B500C100D100E10D8B4CD
:1037880003D0010E1B6E02D003B0FBD71B50D8B478
:103798001FD0010E0326000E04220522062206A0D1
:1037A80017D003C00BF004C00CF005C00DF006C024
:1037B8000EF00E340E320D320C320B320BC003F009
:1037C8000CC004F00DC005F00EC006F0144A152A0E
:1037D80015BE10D0155003E11428D8A00BD0000E48
:1037E800156E1468000E036E000E046E000E056E52
:1037F800000E066E15BE05D0155011E11404D8B0A0
:103808000ED0000E156E000E146E000E036E000E24
:10381800046E000E056E000E066E000E136E14C0C8
:103828001AF01AA002D0058E01D0059ED8901A3041
:10383800066E0ED722C038F023C039F024C03AF003
:1038480025C03BF026C03CF027C03DF028C03EF024
:1038580029C03FF03FAE02D0010E01D0000E406EED
:103868004050D8B410D03F1E3E1E3D1E3C1E3B1E8D
:103878003A1E391E386C000E39223A223B223C226D
:103888003D223E223F22010147BF05D0475108E1B2
:103898004605D8B005D0000E356E010E346E04D042
:1038A80046C134F047C135F044C136F045C137F060
:1038B8004050D8B410D03606D8A037064050D8A407
:1038C80004D0000E336E2B0E03D0000E336E2D0E77
:1038D800326E32C040F0000E426E4F0E416E000E46
:1038E800B36F7CD04106D8A04206640E4124D96E3D
:1038F800010E4220DA6E38C003F039C004F03AC035
:1039080005F03BC006F03CC007F03DC008F03EC0E3
:1039180009F03FC00AF00A0E0B6E000E0C6E000E86
:103928000D6E000E0E6E000E0F6E000E106E000E65
:10393800116E000E126EB1EC26F003C02AF004C01E
:103948002BF005C02CF006C02DF007C02EF008C0E3
:103958002FF009C030F00AC031F02AC015F02BC092
:1039680016F00FEC30F01550300FDF6E3406D8A08B
:1039780035063606D8A0370638C003F039C004F03B
:103988003AC005F03BC006F03CC007F03DC008F067
:103998003EC009F03FC00AF00A0E0B6E000E0C6E16
:1039A800000E0D6E000E0E6E000E0F6E000E106EE5
:1039B800000E116E000E126E9AEC23F003C038F060
:1039C80004C039F005C03AF006C03BF007C03CF02F
:1039D80008C03DF009C03EF00AC03FF042BE16D014
:1039E800425003E14104D8A011D0385039103A10A0
:1039F8003B103C103D103E103F10D8A473D735BE85
:103A080005D0355002E13404D8B06CD74050D8B452
:103A18000BD04106D8A04206640E4124D96E010E8F
:103A28004220DA6E40C0DFFF20C015F021C016F03A
:103A3800640E4124176E010E4220186E36C019F02C
:103A480037C01AF0AEEC2BF015C020F016C021F0EC
:103A58001200556E55C05DF043C058F0040E0101C8
:103A68004A254B6E000E4B214C6E4BC0F6FF4CC0E6
:103A7800F7FF0800F5CF5BF0060E4A254B6E000EE7
:103A88004B214C6E4BC0F6FF4CC0F7FF0800F5CF3A
:103A980056F044C003F045C004F05FEC2FF003C0BB
:103AA80051F004C052F0000E5A6E000E596ECCD080
:103AB800595044244B6E5A5045204C6E4BC0F6FF6B
:103AC8004CC0F7FFF86A050EF76403D00800F550FC
:103AD80005D0F6CFE1FFF7CFE2FFE750606E5B500D
:103AE800605CD8A0AFD06050565CD8A0ABD05BC0AB
:103AF80003F0046AFF0E066EF90E056E70EC30F0E6
:103B08006050070DF3CF4BF0F4CF4CF0020E0101DB
:103B18004A254D6E000E4B214E6E4DC0F6FF4EC02D
:103B2800F7FF4B500900F5244F6E4C500900F52063
:103B3800506E03504F245E6E045050205F6E020E8C
:103B48005E244B6E000E5F204C6E4BC0F6FF4CC0DF
:103B5800F7FF0800F5CF5CF0030E5E244B6E000EF5
:103B68005F204C6E4BC0F6FF4CC0F7FF0800F5CF46
:103B780057F05C50D8B457D05750D8B454D0050E2D
:103B88005E244B6E000E5F204C6E4BC0F6FF4CC09F
:103B9800F7FF0800F550536E546A53BE5406C451DB
:103BA800D8B430D05C505324036E000E5420046EF9
:103BB8004AC005F0066A70EC30F05D5003244B6E85
:103BC800000E04204C6E7C504D6E4E6A4B504D5C7E
:103BD8004E50800A4F6E4C50800A4F58D8B012D0C1
:103BE800000E5D6E080E01014A254B6E000E4B213A
:103BF8004C6E4BC0F6FF4CC0F7FF0800F5504A0268
:103C0800F350582658C025F060C026F046C027F06B
:103C180047C028F048C029F049C02AF04AC02BF014
:103C28005D502FEC1EF0040E5E244B6E000E5F20DC
:103C38004C6E4BC0F6FF4CC0F7FF0800F5504A0227
:103C4800F3505D26594A5A2A5150595C52505A58D5
:103C5800D8B012002DD73C6E040E01014A252C6EF7
:103C6800000E4B212D6E2CC0F6FF2DC0F7FF08006B
:103C7800F550265E2650070DF3CF2CF0F4CF2DF02B
:103C8800020E4A252E6E000E4B212F6E2EC0F6FF17
:103C98002FC0F7FF2C500900F524416E2D50090064
:103CA800F520426E4AC1F6FF4BC1F7FF0900F5CF78
:103CB80030F00A00F5CF31F041C0F6FF42C0F7FFFF
:103CC8000900F5CF32F00A00F5CF33F0020E412497
:103CD8002C6E000E42202D6E2CC0F6FF2DC0F7FF73
:103CE8000800F5CF38F0030E41242C6E000E422058
:103CF8002D6E2CC0F6FF2DC0F7FF0800F5CF39F068
:103D0800050E41242C6E000E42202D6E2CC0F6FFAD
:103D18002DC0F7FF0800F5CF3DF0060E41242C6EAC
:103D2800000E42202D6E2CC0F6FF2DC0F7FF0800B4
:103D3800F5CF3EF0000E3B6E000E3A6E000E356E6B
:103D4800000E346E000E376E000E366E010E2B64B8
:103D58000AD03D50346E356A34BE35063E50366E54
:103D6800376A36BE3706000E406E49D0000E3F6EE9
:103D780041D03A2A3A042C6E070E2C16D8A40FD03C
:103D8800325030242C6E335031202D6E2CC0F6FF6B
:103D98002DC0F7FF0800F5CF3BF0324A332A3BAE7F
:103DA80026D02B04D8A40ED03E5025244024096EDA
:103DB80027C00AF028C00BF03D503C243F24F6EC05
:103DC8002FF015D0405036242B02F3502524196EBD
:103DD8002BC01AF02BC01BF027C01CF028C01DF008
:103DE8003F5034242B02F3503C24F5EC2EF0D890AD
:103DF8003B363F2A38503F5CD8A0BBD7402A3950C1
:103E0800405CD8B01200B2D736C12CF037C12DF0C3
:103E180038C12EF039C12FF01CC02CF01DC02DF078
:103E28001EC02EF01FC02FF0810E206EFF0E216ED7
:103E38002CC022F02DC023F02EC024F02FC025F076
:103E4800180E05D0D8902532243223322232E82E9B
:103E5800F9D7225020242A6E000E21202B6E2BBE6B
:103E68000FD02B5004E1170E2A5CD8A009D01CC033
:103E78001CF01DC01DF01EC01EF01FC01FF0120058
:103E88002BBE5BD02AC020F0FF0E216EFF0E226EE3
:103E98007F0E236E000E246E206601D007D02434D6
:103EA8002432233222322132202EF6D721C026F0A6
:103EB80022C027F023C028F024C029F026502C1453
:103EC800206E27502D14216E28502E14226E295052
:103ED8002F14236E2050211022102310D8B4C7D7D6
:103EE8002CC020F02DC021F02EC022F02FC023F0CE
:103EF800200E05D0D8902332223221322032E82EEB
:103F0800F9D72050D8B408D026502C2627502D2277
:103F180028502E2229502F22261C206E271C216E65
:103F2800281C226E291C236E20502C1621502D1679
:103F380022502E1623502F1632D02CC020F02DC020
:103F480021F02EC022F02FC023F0200E05D0D890EB
:103F58002332223221322032E82EF9D7206608D0C7
:103F6800000E2C6E000E2D6E000E2E6E000E16D05A
:103F7800D8902C34206E2D34216E2E34226E2F349E
:103F8800236E2050211022102310D8B408D0000E20
:103F98002C6E000E2D6E800E2E6EBF0E2F6E2CC056
:103FA8001CF02DC01DF02EC01EF02FC01FF01200F7
:103FB8002C6E22C00BF02550FE0DF35023240C6EFE
:103FC80026C00DF027C00EF02C50252461EC2BF0F4
:103FD80022502424286E28040B6E2550FE0DF35021
:103FE80023240C6E26C00DF027C00EF02C5025247B
:103FF80061EC2BF022502524096E2550FE0DF3505C
:1040080024240A6E26C00BF027C00CF02C5014ECA8
:104018002BF022502524096E2550FE0DF350242440
:104028000A6E26C00BF027C00CF02C502324286EF3
:10403800280414EC2BF02C5025240D6E0E6A0E3635
:10404800225025240F6E106A103625C011F0126A0E
:10405800010E136E26C014F027C015F0F4EC22F000
:1040680023502CC028F0296A2826000E2922255022
:10407800285E000E295AFF0E28240D6EFF0E2920F7
:104088000E6E225025240F6E106A103625C011F0CE
:10409800126A020E136E26C014F027C015F0F4EC55
:1040A80022F023502CC028F0296A2826000E292245
:1040B8002550285E000E295AFF0E28240D6EFF0E8B
:1040C80029200E6E245022C02AF02B6A2A26000EC0
:1040D8002B2225502A5E000E2B5AFF0E2A240F6E23
:1040E800FF0E2B20106E25C011F0126A040E136EFD
:1040F80026C014F027C015F0F4EC22F02C5025242B
:104108000D6E0E6A0E36245022C028F0296A282621
:10411800000E29222550285E000E295AFF0E282459
:104128000F6EFF0E2920106E25C011F0126A080EBE
:10413800136E26C014F027C015F0F4EC22F012001C
:10414800115001081B6E1250D8A0E82A00081C6EF6
:10415800000E186E010E176E11C015F012C016F081
:10416800D89015361636151E161E154A162A15C06D
:1041780019F016C01AF0000E1E6E000E1D6E11C04A
:104188001FF012C020F00F501124096E13C00AF05E
:1041980014C00BF00D50F6EC2FF011500F5C096EA7
:1041A80013C00AF014C00BF00D50F6EC2FF00FC03E
:1041B80009F013C00AF014C00BF00D501124F6ECEE
:1041C8002FF00FC009F013C00AF014C00BF0115003
:1041D8000D5CF6EC2FF06FD01CBE0BD01F06D8A0DC
:1041E8002006020E1926000E1A2219501B261A50F4
:1041F8001C221D4A1E2A020E1726000E18221750CE
:104208001B2618501C220F501F24096E13C00AF0D9
:1042180014C00BF00D501D24F6EC2FF00F501F2486
:10422800096E13C00AF014C00BF01D500D5CF6ECBB
:104238002FF01F500F5C096E13C00AF014C00BF06A
:104248000D501D24F6EC2FF01F500F5C096E13C0A3
:104258000AF014C00BF01D500D5CF6EC2FF00F5057
:104268001D24096E13C00AF014C00BF00D501F2452
:10427800F6EC2FF00F501D24096E13C00AF014C07D
:104288000BF01F500D5CF6EC2FF01D500F5C096E03
:1042980013C00AF014C00BF00D501F24F6EC2FF0D9
:1042A8001D500F5C096E13C00AF014C00BF01F50AC
:1042B8000D5CF6EC2FF01F501D5C1E50800A156E29
:1042C8002050800A1558D8B0120086D7700ED36EC9
:1042D800000E936E9390928E928C94829480949414
:1042E800949A94888A808B8480EC2FF016EC31F0B5
:1042F8003EEC31F0000E88EC2CF07DEC31F0F9EC5E
:1043080030F0420E036E620E046E5FEC31F0AD0EBB
:104318006F6E7F0E706EEAEC30F0A7EC30F0000E96
:104328001B6E000E1A6E08EC31F0010E0FEC2DF02A
:10433800000E73EC31F0A20E036E7F0E046E55EC86
:1043480031F078EC19F006EC05F0F28EF28C83EC83
:1043580030F00101BD6FBC51BD19D8B42AD0BD5190
:10436800D8B425D0BD51BCEC2AF0030E0101BD190B
:10437800D8B404D0040EBD19D8A416D00001FE513B
:104388000FEC2DF0000E0101C56F0001FE05D8B439
:1043980004D0030EFE19D8A402D0010E01D0000EDD
:1043A8000101C66F78EC19F0010E0001FD6FBDC167
:1043B800BCF1040E01016065CAD7040E41EC30F06F
:1043C80003C0BAF104C0BBF10A0E206E280E216E9C
:1043D800A00E226E3B0E236EBAC103F0BBC104F0DF
:1043E800056A066A000EE1EC24F003C01CF004C064
:1043F8001DF005C01EF006C01FF05CEC16F01CC0D6
:10440800B6F11DC0B7F11EC0B8F11FC0B9F1B6C1F1
:104418001CF0B7C11DF0B8C11EF0B9C11FF0A00E45
:10442800206E1A0E216E4F0E226E3F0E236E5CEC2C
:1044380016F01CC03EF11DC03FF11EC040F11FC068
:1044480041F10001FF5124EC2EF0010E0101C56F6E
:10445800000E606F7CD719501D5C156E1A501E58DF
:10446800166E0FEC30F015C023F016C024F01B5068
:104478001F5C156E1C502058166E0FEC30F015504E
:10448800235C2450800A256E1650800A2558D8B01F
:1044980002D0010E01D0000E346E356A345035104A
:1044A800D8B418D019C028F01AC029F01BC019F0C8
:1044B8001CC01AF028C01BF029C01CF01DC02AF02F
:1044C8001EC02BF01FC01DF020C01EF02AC01FF018
:1044D8002BC020F019501D5C1E50800A236E1A5004
:1044E800800A2358D8B018D019C02CF01AC02DF063
:1044F8001DC019F01EC01AF02CC01DF02DC01EF0F2
:104508001BC02EF01CC02FF01FC01BF020C01CF0D9
:104518002EC01FF02FC020F019501D5C366E1A50A7
:104528001E58376E1B501F5C156E1C502058166E97
:104538000FEC30F015C026F016C027F036C003F097
:1045480037C004F0000E066E020E056ECDEC2CF09E
:1045580003C032F004C033F01F501B5C1C50800AAB
:10456800236E2050800A2358D8B005D0000E316E33
:10457800010E306E2AD03068316827D0345035109B
:10458800D8B40AD019C009F021C00AF022C00BF033
:104598001B50F6EC2FF009D01BC009F021C00AF01F
:1045A80022C00BF01950F6EC2FF02650325E27503F
:1045B800335A33AE08D030501B2631501C223650A7
:1045C800322637503322194A1A2A19501D5C1E50B8
:1045D800800A236E1A50800A2358D8A01200CED71A
:1045E800115001081C6E1250D8A0E82A00081D6E50
:1045F800000E196E010E186E11C016F012C017F0D9
:10460800D89016361736161E171E164A172A16C0C1
:104618001AF017C01BF0000E1F6E000E1E6E11C0A0
:1046280020F012C021F077D01DBE0BD02006D8A0F4
:104638002106020E1A26000E1B221A501C261B5099
:104648001D221E4A1F2A020E1826000E1922185073
:104658001C2619501D2213A416D00F502024096EB1
:1046680014C00AF015C00BF00D501E24F6EC2FF004
:104678000F501E24096E14C00AF015C00BF00D501F
:104688002024F6EC2FF013A216D020500F5C096EF0
:1046980014C00AF015C00BF00D501E24F6EC2FF0D4
:1046A8001E500F5C096E14C00AF015C00BF00D50B7
:1046B8002024F6EC2FF013A616D00F501E24096EF6
:1046C80014C00AF015C00BF020500D5CF6EC2FF06A
:1046D8000F502024096E14C00AF015C00BF01E50AC
:1046E8000D5CF6EC2FF013A016D01E500F5C096E6F
:1046F80014C00AF015C00BF020500D5CF6EC2FF03A
:1047080020500F5C096E14C00AF015C00BF01E5043
:104718000D5CF6EC2FF020501E5C1F50800A166EC0
:104728002150800A1658D8B012007ED7000E146E99
:1047380012AE12D0121E111E101E0F1E0E1E0D1EBE
:104748000C1E0B6C000E0C220D220E220F221022C2
:1047580011221222010E146E0AAE12D00A1E091E70
:10476800081E071E061E051E041E036C000E0422EA
:10477800052206220722082209220A22010E141AFB
:1047880020EE15F0070EDE6AE806FDE20B500C106D
:104798000D100E100F10101011101210D8B446D0B2
:1047A800010E136E0AD0D8900B360C360D360E3625
:1047B8000F36103611361236132A12AEF4D7D890A7
:1047C800153616361736183619361A361B361C366D
:1047D8000B50035C0C5004580D5005580E500658E9
:1047E8000F500758105008581150095812500A58BD
:1047F800D8A011D00B50035E0C50045A0D50055A26
:104808000E50065A0F50075A1050085A1150095A9C
:1048180012500A5A1580D8901232113210320F32C3
:104828000E320D320C320B32132EC9D71450D8B4B5
:1048380010D01C1E1B1E1A1E191E181E171E161E0F
:10484800156C000E16221722182219221A221B2272
:104858001C2215C003F016C004F017C005F018C0DC
:1048680006F019C007F01AC008F01BC009F01CC0F8
:104878000AF012004DC045F04EC046F04FC047F058
:1048880050C048F051C049F052C04AF053C04BF0F4
:1048980054C04CF01AEC2FF045C061F046C062F0ED
:1048A80047C063F048C064F05DC045F05EC046F0A4
:1048B8005FC047F060C048F059C049F05AC04AF09C
:1048C8005BC04BF05CC04CF01AEC2FF045C065F0B3
:1048D80046C066F047C067F048C068F055C045F06C
:1048E80056C046F057C047F058C048F051C049F08C
:1048F80052C04AF053C04BF054C04CF01AEC2FF0A1
:1049080045C069F046C06AF047C06BF048C06CF01B
:1049180061C003F062C004F063C005F064C006F033
:1049280069C007F06AC008F06BC009F06CC00AF0F3
:10493800DAEC1AF003C06DF004C06EF005C06FF039
:1049480006C070F065C020F066C021F067C022F094
:1049580068C023F06DC01CF06EC01DF06FC01EF063
:1049680070C01FF05CEC16F01CC035F01DC036F0AE
:104978001EC037F01FC038F059C039F05AC03AF09D
:104988005BC03BF05CC03CF0F2EC17F035C071F056
:1049980036C072F037C073F038C074F071C003F0DD
:1049A80072C004F073C005F074C006F05FEC2AF022
:1049B80003C04DF004C04EF012000B6E0B50D8A48B
:1049C80006AE1AD003C007F004C008F005C009F00D
:1049D80006C00AF0071E081E091E0A1E072A000E36
:1049E800082209220A2207C00DF008C00EF009C0EB
:1049F8000FF00AC010F008D003C00DF004C00EF08C
:104A080005C00FF006C010F0035004100510061082
:104A1800D8A409D0000E036E000E046E000E056EB9
:104A2800000E066E1200960E0C6E06D00C2AD89058
:104A380010320F320E320D32000E0D14076E000EBA
:104A48000E14086E000E0F14096EFE0E10140A6E76
:104A58000750081009100A10D8B40DD0E7D70C2A4F
:104A6800010E0D26000E0E220F221022D8901032B1
:104A78000F320E320D32000E0D14076E000E0E149A
:104A8800086E000E0F14096EFF0E10140A6E075000
:104A9800081009100A10D8B407D0E1D70C06D8902E
:104AA8000D360E360F3610360FBE03D0020E0C60D0
:104AB800F5D70CA00F9ED8900C320CC007F0086AEE
:104AC800096A0A6A07C00AF0096A086A076A075089
:104AD8000D1208500E1209500F120A5010120B50E6
:104AE800D8A406AE01D0108E0DC003F00EC004F09D
:104AF8000FC005F010C006F01200010E35EC31F0C1
:104B0800020E066E860E056E990EE82EFED7052E4D
:104B1800FCD7062EFAD700F0110E35EC31F0030E53
:104B2800066E8A0E056E560EE82EFED7052EFCD7A9
:104B3800062EFAD7030E066E8A0E056E560EE82E5E
:104B4800FED7052EFCD7062EFAD7B10E35EC31F07C
:104B5800010E2CEC31F02C0E2CEC31F02D0E2CEC3F
:104B680031F0B20E35EC31F0010E2CEC31F02C0E98
:104B78002CEC31F02D0E2CEC31F0B30E35EC31F07D
:104B8800010E2CEC31F02C0E2CEC31F02D0E2CEC0F
:104B980031F0010E2CEC31F02C0E2CEC31F02D0EF6
:104BA8002CEC31F0B40E35EC31F0070E2CEC31F072
:104BB800C00E35EC31F0A20E2CEC31F0020E2CECCC
:104BC80031F0840E2CEC31F0C10E35EC31F0C50E0D
:104BD8002CEC31F0C20E35EC31F00A0E2CEC31F031
:104BE800000E2CEC31F0C30E35EC31F08A0E2CECB3
:104BF80031F02A0E2CEC31F0C40E35EC31F08A0E6F
:104C08002CEC31F0EE0E2CEC31F0C50E35EC31F019
:104C18000E0E2CEC31F0200E35EC31F0360E35EC62
:104C280031F0C80E2CEC31F03A0E35EC31F0050EAF
:104C38002CEC31F012001D5001082A6E1E50D8A02D
:104C4800E82A00082B6E000E276E010E266E1DC086
:104C580024F01EC025F0D89024362536241E251EA3
:104C6800244A252A24C028F025C029F0000E2D6EDC
:104C7800000E2C6E1DC02EF01EC02FF063D02BBE70
:104C88000BD02E06D8A02F06020E2826000E2922A9
:104C980028502A2629502B222C4A2D2A020E262655
:104CA800000E272226502A2627502B221FA024D068
:104CB8002E501B5C096E2E50020DF3502024246EDA
:104CC80024280A6E22C00BF023C00CF019502C24A3
:104CD80014EC2BF02C501B5C096E2C50020DF35079
:104CE8002024246E24280A6E22C00BF023C00CF066
:104CF80019502E2414EC2BF01FA224D02E501B5C2C
:104D0800096E2E50020DF3502024246E24280A6EBA
:104D180022C00BF023C00CF02C50195C14EC2BF0C3
:104D28002C501B5C096E2C50020DF3502024246E6D
:104D380024280A6E22C00BF023C00CF02E50195CF8
:104D480014EC2BF02E502C5C2D50800A246E2F5022
:104D5800800A2458D8B0120092D7000E146E0AAEFA
:104D680012D00A1E091E081E071E061E051E041E56
:104D7800036C000E042205220622072208220922BB
:104D88000A22010E146E12AE10D0121E111E101E31
:104D98000F1E0E1E0D1E0C1E0B6C000E0C220D227B
:104DA8000E220F221022112212220B500C100D106D
:104DB8000E100F10101011101210D8B43CD0010EA4
:104DC800136E0AD0D8900B360C360D360E360F36C9
:104DD800103611361236132A12AEF4D70B50035C74
:104DE8000C5004580D5005580E5006580F500758CF
:104DF800105008581150095812500A58D8A010D00D
:104E08000B50035E0C50045A0D50055A0E50065AAA
:104E18000F50075A1050085A1150095A12500A5A7E
:104E2800D8901232113210320F320E320D320C324B
:104E38000B32132ED3D71450D8B410D00A1E091E23
:104E4800081E071E061E051E041E036C000E042203
:104E5800052206220722082209220A2203C003F09B
:104E680004C004F005C005F006C006F007C007F04E
:104E780008C008F009C009F00AC00AF01200000EC4
:104E8800116E000E106E000E0F6E000E0E6E02D028
:104E9800094A0A2A09C0F6FF0AC0F7FF0800F550B8
:104EA800200AD8B4F5D709C0F6FF0AC0F7FF0800F2
:104EB800F5CF0BF0F70E0B240C6E0D6AFF0E0D22CA
:104EC8000D500CE1050E0C5CD8B008D0E1D7000EEF
:104ED8000F6E010E0E6E094A0A2A2ED009C0F6FF7F
:104EE8000AC0F7FF0800F5500B6E0C6A0C50000A58
:104EF800D8A422D00B502B0AD8B4EDD7060AD8B4C0
:104F0800E6D71AD010C003F011C004F0000E066EE8
:104F18000A0E056E70EC30F009C0F6FF0AC0F7FF04
:104F28000800F550035E000E045A300E0324106E7C
:104F3800000E0420116ECFD709C0F6FF0AC0F7FF94
:104F48000800F5CF0BF0D00E0B240C6E0D6AFF0E87
:104F58000D220D5004E10A0E0C5CD8A0D3D70E50D8
:104F68000F10D8A40DD010C00BF011C00CF00B1E00
:104F78000C1E0B4A0C2A0BC009F00CC00AF01200D8
:104F880010C009F011C00AF01200E00E35EC31F043
:104F9800020E2CEC31F01C0E2CEC31F0070E2CEC30
:104FA80031F0120E2CEC31F0370E2CEC31F0320EC1
:104FB8002CEC31F0290E2CEC31F02D0E2CEC31F0CC
:104FC800290E2CEC31F0250E2CEC31F02B0E2CECAC
:104FD80031F0390E2CEC31F0000E2CEC31F0010ED2
:104FE8002CEC31F0030E2CEC31F0100E2CEC31F0DF
:104FF800E10E35EC31F0030E2CEC31F01D0E2CECEB
:1050080031F0070E2CEC31F0060E2CEC31F02E0EA0
:105018002CEC31F02C0E2CEC31F0290E2CEC31F06C
:105028002D0E2CEC31F02E0E2CEC31F02E0E2CEC3B
:1050380031F0370E2CEC31F03F0E2CEC31F0000E35
:105048002CEC31F0000E2CEC31F0020E2CEC31F08F
:10505800100E2CEC31F0130E35EC31F01A0E056EF3
:10506800F80EE82EFED7052EFCD700D0290E35EC19
:1050780031F0020E066E040E056EBA0EE82EFED74B
:10508800052EFCD7062EFAD700D01200196E7C50D8
:10509800195CD8B012007B50095CD8B012007C5063
:1050A8000E6E0F6A0A5019C010F0116A1026000E11
:1050B8001122FF0E1024126EFF0E1120136E0E50D7
:1050C800125C1350800A146E0F50800A1458D8A02E
:1050D80003D019507C5C0A6E7B500E6E0F6A0B5021
:1050E80009C010F0116A1026000E1122FF0E1024BC
:1050F800126EFF0E1120136E0E50125C1350800AB0
:10510800146E0F50800A1458D8A003D009507B5C45
:105118000B6E09C005F019500A240E6E0E04066EB7
:1051280009500B240F6E0F04076E19507CEC2EF0FB
:105138000DC017F00CC018F08A828A960BC009F0CF
:105148000950D8B417D00AC019F01950D8B410D0E3
:10515800175047EC31F00E6E0E50156E166A185047
:1051680047EC31F00E6E0E50156E166A1906EDD723
:105178000906E6D78A8612003A6E30C019F0335015
:10518800FE0DF35031241A6E32C01BF034C01CF0EF
:1051980035C01DF03A503324F5EC2EF031503AC0AA
:1051A80036F0376A3626000E37223350365E000E48
:1051B800375AFF0E3624196EFF0E37201A6E3050FC
:1051C80033241B6E1C6A1C3633C01DF01E6A010E88
:1051D8001F6E33C003F0046AFF0E066EFE0E056EE6
:1051E80070EC30F032500324386E000E0420396E13
:1051F800FF0E3824206EFF0E3920216E34C022F0B5
:1052080035C023F01FEC26F03A503324196E1A6A81
:105218001A36305033241B6E1C6A1C3633C01DF0FE
:105228001E6A020E1F6E33C003F0046AFF0E066E7C
:10523800FE0E056E70EC30F032500324366E000E10
:105248000420376EFF0E3624206EFF0E3720216EA5
:1052580034C022F035C023F01FEC26F01200000EF7
:1052680035143D6E000E36143E6E800E37143F6EB8
:105278007F0E3814406E3D503E103F104010D8A4A9
:1052880008D0000E356E000E366E000E376E000E1A
:10529800386E000E39143D6E000E3A143E6E800EC4
:1052A8003B143F6E7F0E3C14406E3D503E103F1045
:1052B8004010D8A408D0000E396E000E3A6E000EC9
:1052C8003B6E000E3C6E38AE09D0356C361ED8B039
:1052D800362A371ED8B0372A800E38563CAE09D049
:1052E800396C3A1ED8B03A2A3B1ED8B03B2A800EF9
:1052F8003C56000E351A000E361A000E371A800E6C
:10530800381A000E391A000E3A1A000E3B1A800E8F
:105318003C1A3950355C3A5036583B5037583C5057
:105328003858D8B002D0D8901200D88012003AC1AC
:105338000DF03BC10EF03CC10FF03DC110F003C0B1
:105348000DF004C00EF005C00FF006C010F00DC03F
:1053580007F00EC008F00FC009F010C00AF0180ED0
:1053680005D0D8900A32093208320732E82EF9D728
:1053780007500B6E0C6A0B500C10D8A419D0D8909B
:105388000D34076E0E34086E0F34096E10340A6E31
:105398000750081009100A10D8A405D0000E046E92
:1053A800020E036E1200000E046E030E036E12004E
:1053B8000B280C10D8A41CD00DC007F00EC008F0A4
:1053C8000FC009F010C00AF0090ED8900736083649
:1053D80009360A36E82EF9D70750081009100A10BE
:1053E800D8A402D0010E01D0000E036E046A120088
:1053F800000E046E040E036E1200800EAE5DD8A07F
:1054080006D0000E0101496F4B0E486F1200B10E15
:10541800B96FACC0BAF0AE5104E1020EAD5DD8A0D0
:105428000AD0FF0EAD25C36FFF0EAE21C46F000E6C
:10543800BE6F000E07D0000EC46F010EC36F000EC2
:10544800BE6F010EBD6FBA0E686E696AAFC06AF0B2
:10545800B0C06BF0B90E6C6ECEEC2EF068C0B7F031
:1054680069C0B8F00001AD51AE11D8B41200B8BF90
:105478001200FF0EAD256F6EFF0EAE21706E6F50DD
:10548800B75DB851800A716E7050800A7158D8A003
:1054980007D0FF0EAD25B56FFF0EAE21B66F04D055
:1054A800B7C0B5F0B8C0B6F0AC51B525D96EDA6A58
:1054B800000EDF6E1200053406340C6E0C50D8A4B2
:1054C80009D0000E036E000E046E000E056E000E6D
:1054D800066E120003C007F004C008F005C009F00A
:1054E80006C00AF0200E05D0D8900A3209320832D8
:1054F8000732E82EF9D707500B6E058EFF0E0316FC
:10550800FF0E0416FF0E0516000E0616960E0C5E0C
:105518000CAE0DD00C50800A970FD8A0D2D7D890D7
:1055280006320532043203320C3EF9D70DD01F0E75
:105538000C6407D0C6D7D89003360436053606362D
:105548000C060C50D8A4F7D70B50D8B408D0061EB8
:10555800051E041E036C000E04220522062203C049
:1055680003F004C004F005C005F006C006F0120000
:10557800746E41D0F30E6F6E7F0E706EEAEC30F0F1
:105588000001FF07FFAF1200050EFF6F1200F60EB5
:105598006F6E7F0E706EEAEC30F00001FF2BFF514A
:1055A800800A7A0FD8A01200000EFF6F1200F90EC1
:1055B8006F6E7F0E706EEAEC30F00001FE07FEAFF2
:1055C8001200030EFE6F1200FC0E6F6E7F0E706EDF
:1055D800EAEC30F00001FE2BFE51800A7C0FD8A0C7
:1055E8001200000EFE6F1200F00E6F6E7F0E706ECE
:1055F800EAEC30F012007450726E736A7350000A4D
:10560800D8A4F2D77250010AD8B4B4D7030AD8B4D0
:10561800BED7010AD8B4CBD7070AD8B4D5D7E4D7B0
:10562800186E7C50185CD8B012007B50095CD8B05A
:1056380012007B500D6E0E6A0A5009C00FF0106AF6
:105648000F26000E1022FF0E0F24116EFF0E1020E1
:10565800126E0D50115C1250800A136E0E50800AA3
:105668001358D8A003D009507B5C0A6E0CC016F002
:105678000BC017F009C005F018C006F009500A243D
:105688000D6E0D04076E18507CEC2EF08A828A96F7
:105698000ED0165047EC31F00D6E0D50146E156A91
:1056A800175047EC31F00D6E0D50146E156A0A064E
:1056B8000A28D8A4EED78A8612001A6E7C501A5C83
:1056C800D8B012007B500B5CD8B012007C500F6E23
:1056D800106A0C501AC011F0126A1126000E12221C
:1056E800FF0E1124136EFF0E1220146E0F50135C60
:1056F8001450800A156E1050800A1558D8A003D08F
:105708001A507C5C0C6E0EC018F00DC019F00BC05E
:1057180005F01A500C240F6E0F04066E0BC007F02C
:105728001A507CEC2EF08A828A960ED0185047ECDC
:1057380031F00F6E0F50166E176A195047EC31F0A2
:105748000F6E0F50166E176A0C060C28D8A4EED7E9
:105758008A861200010150A10AD017C00EF018C0A5
:105768000FF015C010F016C011F0BFEC2FF01ABEE4
:1057780005D019C01EF01AC01FF004D0000E1F6E0D
:10578800000E1E6E000E1D6E000E1C6E0CD0000E5C
:10579800066E200E056E15C007F016C008F0FBEC6B
:1057A8002BF01C4A1D2A1E501C5C1D50800A1B6EC3
:1057B8001F50800A1B58D8A0EAD7010150B10AD05F
:1057C80017C00EF018C00FF015C010F016C011F079
:1057D800BFEC2FF017C003F018C004F05FEC2FF0F7
:1057E8001E500324156E1F500420166E1200075019
:1057F8000810D8B404D007500810D8A404D0055015
:105808005AEC31F0120020EE09F00750D926085062
:10581800DA22DE50DE10D8B416D020EE09F0075098
:10582800D9260850DA2210EE03F00750E126085076
:10583800E222DE50E65CE650800A0D6EDE50800AF9
:105848000D58D8B0120020EE03F00750D9260850A2
:10585800DA22DF50096E07C0D9FF08C0DAFFDF502F
:105868000924D96EDA6A05C0DFFF20EE03F007507D
:10587800D9260850DA22DE2A000EDD221200000E98
:1058880003140B6E000E04140C6E800E05140D6EBE
:105898007F0E06140E6E0B500C100D100E10D8A4AF
:1058A80008D0000E036E000E046E000E056E000E8A
:1058B800066E000E07140B6E000E08140C6E800E98
:1058C80009140D6E7F0E0A140E6E0B500C100D107D
:1058D8000E10D8A408D0000E076E000E086E000E39
:1058E800096E000E0A6E075003180AE108500418E2
:1058F80007E10950051804E10A500618D8B402D087
:10590800D8901200D8801200046EC6BA1200045053
:10591800040D010EF326000EF422DF0EF324F66EBA
:10592800740EF420F76E0800F5CFC7FF0450040D7D
:10593800DF0EF324F66E740EF420F76E0800F5CF30
:10594800C6FF0450040D020EF326000EF422DF0EEB
:10595800F324F66E740EF420F76E0800F5CFC8FF36
:105968000450040D030EF326000EF422DF0EF32478
:10597800F66E740EF420F76E0800F5CF03F00346B8
:105988000346034694500318F70B0318946EC68A0F
:105998001200000E086E06AE06D0056C061ED8B0C2
:1059A800062A010E086E04AE06D0036C041ED8B099
:1059B800042A010E081A000E0A6E000E096E055020
:1059C8000610D8B41CD0010E076E04D0D890053646
:1059D8000636072A06AEFAD7D89009360A36055091
:1059E800035C06500458D8A005D00550035E065045
:1059F800045A0980D89006320532072EEDD7085090
:105A0800D8B404D0096C0A1ED8B00A2A09C003F019
:105A18000AC004F01200076E000E086E0750030B50
:105A28000101546F19D0C00E086E000E536F000E9E
:105A3800526F800E7C6EA00E0DD0A00E03D0000E0B
:105A4800F3D7600E086E000E526F000E536FA00E53
:105A58007C6E800E7B6E14D05451056E066A06501B
:105A6800000AD8A40DD00550000AD8B4DCD7010A22
:105A7800D8B4E3D7030AD8B4E2D7010AD8B4E1D737
:105A8800360E35EC31F008502CEC31F01200FE0ED9
:105A9800F66E620EF76E000EF86E0900F5CFC4F1CF
:105AA8000900F5CFC5F10900F5CFC6F1F60EF66E7F
:105AB800620EF76E000EF86E00EEFBF010EE04F0CA
:105AC8000900F5CFEEFFE550E150FAE1010EF66E60
:105AD800630EF76E000EF86E0900F5CF7BF0090033
