:10000000803120289B1308007E1480318B190B1C33
:100010000D288E317A2680311E288B1A0B1D14284C
:100020008E31C22680311E280B1F1E282100111F71
:100030001E282000111F1E288E31FB267E1009006D
:10004000803122288E3145268031FB008E314426B6
:100050008031EF00FA012030840000308500393013
:100060008E31BC268031A0308400003085003E30C7
:100070008E31BC2680312030840001308500203054
:100080008E31BC267E1020008431EE2C2100EC0045
:10009000C72C6F0803198228EF01C8308600003092
:1000A00087000830EC0000301E00EC0B5428C00123
:1000B000C1018731182780317B03031D662800307A
:1000C000F4007D30F5008F317D27803102307B06D2
:1000D000031D6D288F313A27803103307B060319C9
:1000E000752804307B06031D7C280030F4007D3029
:1000F000F5008F318F2780317B0303198228200080
:10010000CD01CD0A2000540803199728D4010330EB
:100110007B060319972804307B06031997280230C1
:100120007A06031D95280430D700EF01EF0AF4305A
:1001300021004806031DC02849034A044B044C040F
:100140004D044E044F04031DC0287B030319AC2843
:1001500002307B06031DB2280A302000D700EF01D1
:10016000EF0AC02822008E1203302000ED00083074
:10017000EC007730890BBA28EC0BBA28ED0BBA28C3
:1001800001302100C8070030C93DCA3DCB3DCC3D00
:10019000CD3DCE3DCF3D08006F080319E828133050
:1001A000EA008830EB008F31132780312830860039
:1001B000003087000830EC0000301E00EC0BDD281A
:1001C000EF010130B8000030B9008E31E7268031F0
:1001D000C8302000280629042A042B042C042D04EE
:1001E0002E042F04031D0C298731182780317B032F
:1001F000031DFC28CA01CA0A02307B06031D02291E
:10020000C701C70A03307B0603190A2904307B069D
:10021000031D0C29C901C90A200038033904031D34
:100220002D294A0803191B290030F4007D30F50000
:100230008F317D27803120004708031922298F3113
:100240003A2780312000490803192D290030F40095
:100250007D30F5008F318F278031643020003806E3
:100260003904031D36298E31E7268031C83020003D
:1002700038063904031D3E29B801B9015408031991
:100280005729D4018F31ED27803103307A06031DC1
:100290004E290A302000D700EF01EF0A02307A061B
:1002A000031D572905302000D700EF01EF0A7030F9
:1002B000200028061730031929062A042B042C04D1
:1002C0002D042E042F04031D6A2905302000D700B9
:1002D000EF01EF0A01302000B8070030B93D0130CE
:1002E000A8070030A93DAA3DAB3DAC3DAD3DAE3DBC
:1002F000AF3D08006F0803198929FD30EA008730F7
:10030000EB008F3113278031C001C101D301D30A23
:10031000EF01530803199829C83040064104031D12
:10032000CC29873118278031C001C101D301A4290C
:1003300070304006173003194106031DCC29873160
:1003400018278031C001C1017B03031DAE29003095
:10035000F4007D30F5008F317D27803102307B063F
:10036000031DB5298F313A27803103307B060319ED
:10037000BD2904307B06031DCC298E31B626803181
:100380000030F4007D30F5008F318F27803106304A
:100390002000D700EF01EF0A200054080319E429D8
:1003A000D40103307A06031DD9290A30D700EF01A2
:1003B000EF0A02307A06031DE4298731D727083077
:1003C0002000D700EF01EF0A0130C0070030C13D27
:1003D00008006F080319EF29C001C101EF01703057
:1003E0004006173003194106031D2E2A87311827AE
:1003F0008031CD01CD0A7B03031D052A0030F400B6
:100400007D30F5008F317D27803102307B06031D62
:10041000102A0030F4007D30F5008F318F278031B5
:1004200003307B06031D1B2A0030F4007D30F500ED
:100430008F318F27803104307B06031D2B2A00303B
:10044000F4007D30F5008F318F2780310730200098
:10045000D700EF01EF0A2000C001C1016030210088
:100460003806EA3003193906031D4D2A3A0A031DDE
:100470004D2A3B0A031D4D2A3C0A031D4D2A3D0A05
:10048000031D4D2A3E0A031D4D2A3F0A031D4D2A16
:1004900007302000D700EF01EF0A200054080319AD
:1004A000652AD40103307A06031D5A2A0A30D70080
:1004B000EF01EF0A02307A06031D652A8731D7273C
:1004C00008302000D700EF01EF0A0130C0070030EC
:1004D000C13D01302100B8070030B93DBA3DBB3DF8
:1004E000BC3DBD3DBE3DBF3D08006F0803197D2AE0
:1004F000C001C101EF01B801B901703040061730E9
:1005000003194106031DAE2A8731182780317B036A
:10051000031D912A0030F4007D30F5008F317D27D6
:10052000803102307B06031D9C2A0030F4007D30B0
:10053000F5008F318F27803103307B060319A42A01
:1005400004307B06031DAB2A0030F4007D30F5003B
:100550008F318F2780312000C001C1013803390459
:10056000031DB92A0030F4007D30F5008F318F274C
:1005700080316430200038063904031DC22A8731D7
:10058000EA278031C830200038063904031DCC2A00
:10059000B801B901CD01CD0A54080319E32AD401E9
:1005A00003307A06031DD82A0A30D700EF01EF0A7C
:1005B00002307A06031DE32A8731D727083020004E
:1005C000D700EF01EF0A0130C0070030C13D013014
:1005D000B8070030B93D08006F080319092B08302F
:1005E000EA008830EB008F3113278031EF01B03003
:1005F0008600003087000830EC0000301E00EC0B55
:10060000FE2A7030C0001730C100B801B901D20114
:10061000D20A70304006173003194106031D482BDB
:10062000873118278031C001C1017B03031D1F2BB7
:100630000030F4007D30F5008F317D2780310230AD
:100640007B06031D2A2B0030F4007D30F5008F312E
:100650008F27803103307B060319322B04307B0651
:10066000031D392B0030F4007D30F5008F318F27CA
:1006700080317B0303193F2B2000CD01CD0A2000E0
:10068000C001C1018F31DA2780312000B801B901E2
:10069000520803195F2BF4303806031D6E2B390303
:1006A000031D6E2B8E31E72680310030F4007D3043
:1006B000F5008F316B2780312000D2016E2BC830BE
:1006C00038063904031D6E2B8E31E7268031003049
:1006D000F4007D30F5008F316B278031E030210050
:1006E00030062E3003193106320433043404350445
:1006F00036043704031D832B20005708D600093029
:10070000D700EF01EF0A200054080319D12BD401C0
:1007100003307A06031D902B0A30D700EF01EF0A51
:1007200002307A06031D9C2B8731D7278031093090
:100730002000D700EF01EF0A7A03031DD12B873188
:10074000182780317B03031DAC2B0030F4007D3073
:10075000F5008F317D27803102307B06031DB72BDA
:100760000030F4007D30F5008F318F278031033069
:100770007B060319BF2B04307B06031DC62B0030FC
:10078000F4007D30F5008F318F2780317B03031912
:10079000CC2B2000CD01CD0A2000B801B9018F314A
:1007A000DA2701302100B0070030B13DB23DB33D42
:1007B000B43DB53DB63DB73D01302000C007003027
:1007C000C13D0130B8070030B93D08006F0803197A
:1007D000272C8731D72780312000EF01CD01CD0AAA
:1007E000A8308600003087000830EC0000301E0082
:1007F000EC0BF72B8731182780317B03031D072C67
:100800000030F4007D30F5008F317D2780310230DB
:100810007B06031D122C0030F4007D30F5008F3173
:100820008F27803103307B0603191A2C04307B0696
:10083000031D212C0030F4007D30F5008F318F270F
:1008400080317B030319272C2000CD01CD0AF43021
:1008500021002806031D3C2C29032A042B042C0408
:100860002D042E042F04031D3C2C8E31E7260A3064
:100870002000D700EF01EF0A01302100A807003067
:10088000A93DAA3DAB3DAC3DAD3DAE3DAF3D080001
:100890006F0803195D2C8731D72780318E31E72609
:1008A0008031203086000030870008302000EC00C6
:1008B00000301E00EC0B592CEF010130A007003076
:1008C000A13DA23DA33DA43DA53DA63DA73D2003DE
:1008D0002104220423042404250426042704031DE0
:1008E000732C22000C16053020002006210422045F
:1008F00023042404250426042704031D812C22003C
:100900000C120A30200020062104220423042404AF
:10091000250426042704031D8F2C22000C160F30FB
:100920002000200621042204230424042504260494
:100930002704031D9D2C22000C12143020002006D9
:100940002104220423042404250426042704031D6F
:10095000AB2C22000C1619302000200621042204A2
:1009600023042404250426042704031D0800220070
:100970000C128E1203302000ED000830EC007730AE
:10098000890BC02CEC0BC02CED0BC02C08006C08A4
:100990002000EC00ED016D08003A0319D02CED2C7D
:1009A0006C08023A03194928063A0319CC28013A7F
:1009B00003197A29033A0319E929013A0319752A17
:1009C0000F3A0319EC2A013A0319E62B033A0319EB
:1009D000482C013A0319ED2CED2C080087314C27E7
:1009E000843122008E168731D72784310E100C11E6
:1009F0008C100C128E118E3180268431003A03192E
:100A0000FB2CD730F2000E30F3008E318626843175
:100A10001F308F31072784312C30F2000F30F30064
:100A20008E3198268431DF30F2000E30F3008E31A3
:100A3000922684318E314626843102302000D70040
:100A40000330FA008B170B178C1A2A2DD501D50A03
:100A5000D101D10A51080319982D550803193F2DCA
:100A6000303086000030870008302100ED00003073
:100A70001E00ED0B382D2000CF01CF0A972D37082F
:100A8000031D582D3608031D582D3508031D582DFC
:100A90003408031D582D3308031D582D3208031D3B
:100AA000582D3108031D582D64303002031C5A2D77
:100AB00003308F2D20003708031D912D3608031DAC
:100AC000912D3508031D912D3408031D912D3308F8
:100AD000031D912D3208031D912D3108031D912D09
:100AE000643030020318912D20003708031D8E2D2D
:100AF0003608031D8E2D3508031D8E2D3408031D69
:100B00008E2D3308031D8E2D3208031D8E2D3108C6
:100B1000031D8E2D32303002031C912D0230FA005D
:100B2000932DFA01FA0A2000CF01D401D40AD10191
:100B3000500803192A2D4F080319C52D0130B0079D
:100B40000030B13DB23DB33DB43DB53DB63DB73DDE
:100B500032303006310432043304340435043604B0
:100B60003704031DB62D2000CD01CD0AA030200092
:100B700030063104320433043404350436043704B7
:100B8000031DC52D2000CC01CC0A20004D080319FF
:100B9000DF2D0130BE070030BF3D3E033F04031D83
:100BA000D32D22000C160A3020003E063F04031D00
:100BB000DF2D22000C122000CD01BE01BF014C0828
:100BC0000319082E0130BC070030BD3D3C033D0435
:100BD000031DEC2D22000C16053020003C063D04C0
:100BE000031DF42D22000C120A3020003C063D04A7
:100BF000031DFC2D22000C160F3020003C063D0486
:100C0000031D082E22000C122000CC01BC01BD01E6
:100C10004B080319592E0130BA070030BB3D3A0387
:100C20003B04031D1A2E0030F4007D30F5008F3197
:100C30008F278431643020003A063B04031D232EA5
:100C40008731EA278431C83020003A063B04031D6F
:100C5000302E0030F4007D30F5008F318F27843145
:100C60002C3020003A06031D3B2E3B03031D3B2E78
:100C70008731EA278431903020003A06031D4A2E3E
:100C80003B03031D4A2E0030F4007D30F5008F3108
:100C90008F278431F43020003A06031D592E3B0380
:100CA000031D592E8731EA2784312000CB01BA0178
:100CB000BB0157088031462084312000D0012A2D05
:100CC000F7005E0886008701403FE000413FE100F9
:100CD00060088400610885001200253A031D902EEB
:100CE0005E08860087010130810741310318810ABF
:100CF0002100D801D9010310003003180130200071
:100D0000C600FF302100DA00FF30DB0020005E0863
:100D1000860087010130810741310318810A0800EC
:100D20005E0886008701403FE000413FE100600827
:100D30008400610885000008E200E3016208F40015
:100D40006308F5007708F6008631E1268631862EA5
:100D500022008C018E01293021008C0006308E008B
:100D600023008E0101308C0024008C0104308E00A1
:100D70002100951325008C018E01313026008C0056
:100D800036308E001F3027008C003F308E009311CC
:100D9000921591154230F2000E30F3008E319226FA
:100DA0008B1506303D00A0000330A30012303C003C
:100DB000970009303D00A4000530910004309200F6
:100DC00008007608031D7608031DEA2E74088E318C
:100DD000752608007608083E860087011600010483
:100DE00003190E2F7608083E86008701403FD90080
:100DF000413FDA007608023E86008701403FDB0073
:100E0000413FDC005C08803ADD005A08803A5D0210
:100E1000031D0C2F59085B02031808007608023ED8
:100E2000860087010130810741310318810A0800DB
:100E300020004508F3004408F20002307302A43099
:100E400003197202031C262F0430452F023073024F
:100E5000A430031972020318362F023073027B305C
:100E600003197202031C362F0330452F0230730220
:100E70007B30031972020318472F02307302473088
:100E800003197202031C472F0230FB00492FFB019C
:100E9000FB0ACE01CE0A08008631A82687318E31A2
:100EA000C92687318E31622687318E315E268731A1
:100EB0008731922787318F31A12787318F3148279A
:100EC00087318731C32787318F31B42787318F31FD
:100ED000592787318F31C72787318731702708001D
:100EE000083023009F0080309D0024309E00A030F9
:100EF0009B0001309C000030F2000030F3008E3186
:100F00008C2687310030F2000030F3008E317026DD
:100F100087310030F2000030F3008E316B26200064
:100F2000D80108003B009C019D019E0180309F007C
:100F3000A00192019101013094002E309300023003
:100F400096005C30950098011F3097009A01990136
:100F500080309B000800E7006508E9006408E800AD
:100F6000680884006908850012000319C02F6830E2
:100F7000DE006608DF006708863160268731B02F03
:100F8000E401E50108003B00CC01CD01CE01803039
:100F9000CF00D001C201C101C401C3017D30C60030
:100FA000C501C8011F30C700CA01C90108000030CF
:100FB000F200F3008E31B02687318E315A26873108
:100FC0008E315C2687318031022021008E1522006F
:100FD0008E1108000030F200F3008E31AA2687310E
:100FE0008E31502687318E31522687318E315826E8
:100FF00021000E1422000E100800533474346134A2
:10100000673465342034423420340A340D340034DB
:1010100053347434613467346534203443342034B9
:101020000A340D3400345334743461346734653415
:0A103000203441340A340D3400343A
:101C8200080008000800013401349D140800BF1741
:101C92000800BB170800AF170800AB170800CF17E2
:101CA2000800CB170800BB130800AB130800CB13C6
:101CB20008009F1708009B17080082302200970037
:101CC200080016302100970008001C08F1001B08CC
:101CD200F00008007308E7007208E60008007308C5
:101CE200E9007208E8000800F30073088E31D0267C
:101CF20008002700931D08008F311F2708002200CB
:101D0200170E890C890C0139080073082100E100C3
:101D12007208E000080073082100EB007208EA0074
:101D2200080073082100E5007208E4000800730847
:101D32002100E3007208E200080073083B00B400CF
:101D42007208B300080073083B00A4007208A300E5
:101D5200080073083B00C4007208C300080073083F
:101D62003B0094007208930008008731EA278E3105
:101D72008F31ED270800640080010131890BBD2EEF
:101D820000340B1120006E0895008E31F0260800F9
:101D92007830210099009801220096010800F20093
:101DA200111ED12E720823009A0008008E31662679
:101DB20071082000C5007008C4000800003020002F
:101DC2008C190130D500D101D10A08008731EA27E8
:101DD2008E318F31DA278E318F31ED2708002100C5
:101DE200620863040319080063088A0062080A0093
:101DF2008E310800111321006008610403190800E4
:101E020061088A0060080A008F310800F300730835
:101E1200F200F20DF20D1D087206833972069D0062
:101E22001D1408006C30F9006B08E5006A08E40034
:101E32007930E60000308731AB27080021006408C2
:101E420065040319292F65088A0064080A008F3186
:101E52002700931108000130D0070030D13DD23D58
:101E6200D33DD43DD53DD63DD73D2000D001D00A4B
:101E720008000030F4007D30F5008F318F278F315C
:101E82000030F4007D30F5008F317D270800F030FE
:101E920021009E0040309F009B019C0101309D006B
:101EA20011174130F2000E30F3008E318626080001
:101EB20020009901B1309700E03096001110170808
:101EC2002100DF00200016082100DE001130200072
:101ED20098000800FD30F600760821008C05750890
:101EE200F3007408F2008E319E268F318E3148261F
:101EF2008F318E314A260800FB30F6007608210029
:101F02008C057508F3007408F2008E31A4268F3117
:101F12008E314C268F318E314E260800FE30F6006F
:101F2200760821008E057508F3007408F2008E31E0
:101F3200AA268F318E3150268F318E3152260800DB
:101F4200AC01AD01AE018030AF00B001A201A10130
:101F5200A401A3017D30A600A501A8011F30A7009E
:101F6200AA01A9010800BC01BD01BE018030BF0069
:101F7200C001B201B101B401B3017D30B600B501B7
:101F8200B8011F30B700BA01B901080021001508D5
:101F9200C039173895006430200095006430EE0097
:101FA2000B118B164330F2000E30F3008E3198265F
:101FB20008000030F200F3008E319E268F318E3100
:101FC20048268F318E314A268F318E315426210098
:101FD2008C1422008C1008000030F200F3008E31C5
:101FE200A4268F318E314C268F318E314E268F3181
:0E1FF2008E31562621000C1522000C1108001D
:020000040001F9
:08000000FF3FFF3FFF3FFF3F00
:04000E00A43FFF16F6
:00000001FF
