:04000000803118280B
:100008007E1480310B1F09280A2816284E011A1C55
:100018000E280F281628101C122813281628963187
:10002800D82680317E10090080311A2835308400A6
:1000380097308500A0308600013087000030FF002F
:1000480026309631B3268031B5308400883085005B
:1000580020308600023087000030FF0039309631AA
:10006800B3268031BF30840096308500D0308600BA
:10007800023087000030FF000C309631B326803103
:100088002830840027308500C830FE000030FF008B
:100098009631A7268031FA01FB01623084000030D6
:1000A80085000D30FE000030FF009631A726803114
:1000B8004201ED01EE01EF01C630840001308500F8
:1000C8002230FE000030FF009631A72680315930DB
:1000D8008400023085001230FE000030FF009631A7
:1000E800A7268031A0308400023085003030FE0021
:1000F8000030FF009631A72680312030840003307D
:1001080085004A30FE000030FF009631A726803176
:10011800A0308400033085003230FE000030FF003C
:100128009631A72680312030840004308500323093
:10013800FE000030FF009631A7268031A0308400F1
:10014800043085003230FE000030FF009631A726CB
:1001580080317E1040018031B1284401EB01EC016F
:100168004201EA01EB0153308600013087000C3070
:100178004001DC0000301E00DC0BBF2800304201CB
:10018800D0000030D1000030D20026308600013087
:10019800870018304001DC0000301E00DC0BD1283D
:1001A80020308600013087000630DC0000301E0059
:1001B800DC0BDB284201E501E60106304301EC00D7
:1001C80003304201E9000630EC000330E700063056
:1001D800E800A03086000030870018304001DC00BD
:1001E80000301E00DC0BF528443086000130870003
:1001F8000C30DC0000301E00DC0BFF289631F426A2
:10020800803145304301E0003930E100D030E20070
:10021800B930C6000130C700AC30C8000130C90091
:100228002C30CA000230CB0096318A2680318F31BB
:10023800142780319B30F2001630F30096318D265A
:1002480080318B170B175130F2000230F300613008
:10025800F4008A317822803172087304031D35292D
:1002680036293B294001610888311B208031430130
:100278006708031940294129272944016B08883157
:100288000020803144016B35623E86008701720888
:10029800C03F7308C13F6B35623E86008701403F0F
:1002A800F200413FF3006B08F40087314D2780319D
:1002B8004001DC0044016B083E3E860001308700A7
:1002C80040015C08810044016B08EA3E8600870112
:1002D8006B083E3E840001308500000801060319C2
:1002E80076297729AB2997315B27803144016B0840
:1002F8004001DC000130DC35FF3E031D7F295C3501
:10030800A03E860087012408C03F2508C13F260873
:10031800C23F2708C33F44016B084001DC0001309D
:10032800DC35FF3E031D94295C35263E86000130EE
:1003380087000030C03F0030C13FC23FC33F440187
:100348006B08203E8600013087008101810A6B0816
:100358004001DC000130DC35FF3E031DAF295C3570
:10036800263E860001308700433F031DC929423FCE
:10037800031DC929413F031DC929403FDD00103035
:100388005D02031CC829C929222A44016B085F3E63
:100398008600013087006B083E3E840001308500EE
:1003A800000801060319D929DA29222A6B085F3EB9
:1003B8008600013087006B083E3E840001308500CE
:1003C8000008810041304101B80044016B08303E0B
:1003D8004101B9003A30BA0044016B085F3E86001B
:1003E800013087000108303E4101BB000A30BC00E3
:1003F8000D30BD0006304001A0000030A100B8302B
:100408009731AC27803144016B084001DC00013092
:10041800DC35FF3E031D0C2A5C35263E8600013084
:1004280087000030C03F0030C13FC23FC33F440196
:100438006B08203E860001308700810144016B086B
:10044800203E860001308700010803192C2A2D2A36
:10045800452A6B084001DC000130DC35FF3E031DF6
:10046800312A5C35263E860001308700013081073D
:1004780041310030813D41310030813D4131003012
:10048800813D44016B08EA3E860087016B083E3EC9
:10049800840001308500000881005F308D313925E6
:1004A80080314301D7005F308D31D325803143013E
:1004B800D8005F308E316D2680314301D900440168
:1004C8006C08DA3E8600013087006C08D73E84004D
:1004D80001308500000801060319732A742AC32A0B
:1004E80042016508031D792A7A2AB62A6608031D7F
:1004F8007E2A7F2AB62A44016C084201E900440199
:100508006C08DD3E86000130870001084301EC00DD
:1005180044016C08D73E860001308700010842017B
:10052800E800EA01EB01E501E50A44016C08400135
:10053800DC000130DC35FF3E031D9E2A5C35533E4E
:100548008600013087000030C03F0030C13FC23F05
:10055800C33F44016C08503E86000130870081018A
:10056800810AC32A44016C08D73E860001308700FF
:100578006C08DA3E840001308500000881006C08B0
:10058800DA3E8600013087006C08D73E84000130CF
:100598008500000881006C084001DC000130DC3572
:1005A800FF3E031DD32A5C35533E86000130870089
:1005B800433F031DED2A423F031DED2A413F031D22
:1005C800ED2A403FDD0053305D02031CEC2AED2A82
:1005D800902B44016C08DD3E8600013087006C08D2
:1005E800D73E84000130850000080106031DFD2A5E
:1005F800FE2A1B2B6C084001DC000130DC35FF3E75
:10060800031D022B5C35443E860001308700403FC5
:10061800DD00413FDE00423FDF00433FE00060086D
:100628005F045E045D0403191A2B1B2B902B4201F7
:100638006508031D202B212B902B6608031D252BF5
:10064800262B902B44016C084201E70044016C08FA
:10065800D73E86000130870001084201EC004401C2
:100668006C08DD3E8600013087006C08D73E8400A8
:1006780001308500000881004C304101B800440178
:100688006C08313E4101B9003A30BA0042016C08A9
:10069800303E4101BB000A30BC000D30BD000630C1
:1006A8004001A0000030A100B8309731AC2780315C
:1006B8004201EA01EB01E601E60A44016C08400147
:1006C800DC000130DC35FF3E031D662B5C35443E03
:1006D8008600013087000030C03F0030C13FC23F74
:1006E800C33F44016C084001DC000130DC35FF3EAB
:1006F800031D7A2B5C35533E86000130870000309D
:10070800C03F0030C13FC23FC33F44016C08503E68
:10071800860001308700810144016C08503E860044
:1007280001308700010803199A2B9B2BB32B6C0807
:100738004001DC000130DC35FF3E031D9F2B5C359A
:10074800533E860001308700013081074131003077
:10075800813D41310030813D41310030813D4201D0
:1007680065080319B82BB92B9A2C6A086B04031D6A
:10077800BE2BBF2B132C43016C080319C42BC52BAC
:10078800D12B03306C02031CCA2BCB2BEC2B06306D
:100798006C020318D02BD12BEC2B420168080319EB
:1007A800D62BD72BE32B03306802031CDC2BDD2B65
:1007B800EC2B063068020318E22BE32BEC2B6908BC
:1007C800F200F30143016C088C310B248031FF2BBC
:1007D80042016908F200F301F30A43016C088C3105
:1007E8000B248031420169084001A60043016C08CE
:1007F800863149268031420169084001DC00013018
:10080800DC35FF3E031D042C5C35443E8600013078
:1008180087000130C03F0030C13FC23FC33F0130B5
:100828004201EA070030EB3D06306A066B04031DFF
:100838001E2C1F2C832C6908F200F30143016C085D
:100848008C310B24803143016C0803192C2C2D2C7E
:10085800392C03306C02031C322C332C4B2C063001
:100868006C020318382C392C4B2C420168080319E8
:100878003E2C3F2C532C03306802031C442C452C7F
:100888004B2C06306802031C4A2C4B2C532C42017B
:100898006908F20043016C088831EE208031430179
:1008A8006C080319582C592C652C03306C02031C56
:1008B8005E2C5F2C7F2C06306C020318642C652C90
:1008C8007F2C6C08031D692C6A2C722C4201690864
:1008D800031D6F2C702C722C4301E501F201F20A02
:1008E80043016C088931C921803143016C088A3180
:1008F800EC228031832C4201E501EA01EB010B3047
:1009080042016A066B04031D8A2C8B2C9A2CF20177
:1009180043016C088931C921803143016C08973142
:10092800D52780314201E501EA01EB016608031988
:100938009E2C9F2C152D6A086B04031DA42CA52C36
:10094800B62C6708F200F301F30A6C088C31A22474
:100958008031420167084001A60042016C088531D8
:100968003425803101304201EA070030EB3D063082
:100978006A066B04031DC12CC22CFF2C6708F20009
:10098800F3016C088C31A224803142016708F2001F
:100998006C0888317E20803142016C080319D52CFF
:1009A800D62CE22C03306C02031CDB2CDC2CFC2C38
:1009B80006306C020318E12CE22CFC2C6C08031D99
:1009C800E62CE72CEF2C6708031DEB2CEC2CEF2C06
:1009D80001304301E500F201F20A42016C08893155
:1009E8007C21803142016C088B3177238031FF2CC8
:1009F800E601EA01EB010B3042016A066B04031DB4
:100A0800062D072D152DF2016C0889317C218031C6
:100A180042016C089731832780314201E601EA01DF
:100A2800EB0101304001DC005C084401EB070130B8
:100A38004001DC005C084401EC0706306B02031C33
:100A4800262D272D282DEB0103306C02031C2D2D9C
:100A58002E2D2F2DEC014301E7012729803118287D
:100A68004001A9002A308600003087003230A700F4
:100A780000301E00A70B3D2D242E2608031D452DF2
:100A8800462D5B2D6E08031D4A2D4B2D5B2D4330E3
:100A9800AA004C30AB003130AC002030AD004F30F4
:100AA800AE006E30AF000A30B0000D30B100260342
:100AB800031D5F2D602D752D7A08031D642D652D8E
:100AC800752D4330AA004C30AB003230AC002030DA
:100AD800AD004F30AE006E30AF000A30B0000D30C0
:100AE800B10002302606031D7A2D7B2D402E7B088F
:100AF800031D7F2D802D402E4330AA004C30AB00C3
:100B08003330AC002030AD004F30AE006E30AF0057
:100B18000A30B0000D30B100402E2608031D952D77
:100B2800962DA62D5330AA004C30AB003130AC00C6
:100B38002030AD004F30AE006E30AF000A30B0004C
:100B48000D30B1002603031DAA2DAB2DBB2D53304C
:100B5800AA004C30AB003230AC002030AD004F3032
:100B6800AE006E30AF000A30B0000D30B100023078
:100B78002606031DC02DC12D402E5330AA004C302F
:100B8800AB003330AC002030AD004F30AE006E30DB
:100B9800AF000A30B0000D30B100402E2608031D0A
:100BA800D62DD72DE72D5430AA004C30AB0031306C
:100BB800AC002030AD004F30AE006E30AF000A30D0
:100BC800B0000D30B1002603031DEB2DEC2DFC2DDC
:100BD8005430AA004C30AB003230AC002030AD00AD
:100BE8004F30AE006E30AF000A30B0000D30B100AB
:100BF80002302606031D012E022E402E5430AA0074
:100C08004C30AB003330AC002030AD004F30AE007C
:100C18006E30AF000A30B0000D30B100402E5330B6
:100C2800AA005030AB003130AC002030AD004F305E
:100C3800AE006630AF000A30B0000D30B100402E73
:100C48002908A700A8012808003A03192C2E132EFA
:100C58002708003A0319412D013A0319912D033A47
:100C68000319D22D013A0319412D073A0319412DD1
:100C7800013A0319412D132E0830A0000030A100BD
:100C88002A309731AC27853108004001A9002A3065
:100C98008600003087003230A70000301E00A70B06
:100CA800522E282F2608031D5A2E5B2E702E6E08F2
:100CB80003195F2E602E702E4330AA004C30AB0013
:100CC8003130AC002030AD004F30AE006630AF00A0
:100CD8000A30B0000D30B1002603031D742E752EA6
:100CE8008A2E7A080319792E7A2E8A2E4330AA0082
:100CF8004C30AB003230AC002030AD004F30AE008D
:100D08006630AF000A30B0000D30B1000230260660
:100D1800031D8F2E902E442F7B080319942E952E99
:100D2800442F4330AA004C30AB003330AC002030A5
:100D3800AD004F30AE006630AF000A30B0000D3065
:100D4800B100442F2608031DAA2EAB2EBB2E53300C
:100D5800AA004C30AB003130AC002030AD004F3031
:100D6800AE006630AF000A30B0000D30B100260387
:100D7800031DBF2EC02ED02E5330AA004C30AB001E
:100D88003230AC002030AD004F30AE006630AF00DE
:100D98000A30B0000D30B10002302606031DD52EF2
:100DA800D62E442F5330AA004C30AB003330AC0061
:100DB8002030AD004F30AE006630AF000A30B000D2
:100DC8000D30B100442F2608031DEB2EEC2EFC2E0F
:100DD8005430AA004C30AB003130AC002030AD00AC
:100DE8004F30AE006630AF000A30B0000D30B100B1
:100DF8002603031D002F012F112F5430AA004C3059
:100E0800AB003230AC002030AD004F30AE00663061
:100E1800AF000A30B0000D30B10002302606031DC5
:100E2800162F172F442F5430AA004C30AB00333004
:100E3800AC002030AD004F30AE006630AF000A3055
:100E4800B0000D30B100442F2908A700A8012808D8
:100E5800003A0319302F442F2708003A0319562E59
:100E6800013A0319A62E033A0319E72E013A03198A
:100E7800562E073A0319562E013A0319562E442FB7
:100E88000830A0000030A1002A309731AC27863105
:100E980008007435593E860002308700403F400103
:100EA800A600413FA7002635203E86000230870075
:100EB800403FA000413FA100260827040319652FE1
:100EC800662F6A2F0C30A0020030A13B2635223E47
:100ED800860002308700403FA200413FA300003057
:100EE800270205300319260203187B2F7C2F802F39
:100EF8000C30A2070030A33D21087302031D862F82
:100F080020087202031C892F8A2F942F730823024A
:100F1800031D902F720822020318932F942FD72FA6
:100F2800A401A5012435203E860002308700403FF9
:100F3800F500413FF60076087302031DA52F7508DA
:100F48007202031CA82FA92FBD2F2435223E86002C
:100F580002308700403FF500413FF60073087602F3
:100F6800031DB82F72087502031CBB2FBC2FBD2FA1
:100F7800CA2F0130A4070030A53D003025020530F6
:100F880003192402031CC92FCA2F962F2508A7006E
:100F98002408A6007435593E8600023087002608CA
:100FA800C03F2708C13F03307402031CDC2FDD2F2C
:100FB800F42F260827040319E22FE32FF42F01301A
:100FC800F5000030F6007435593E8600023087007F
:100FD8007508C03F7608C13F0130A6000030A70061
:100FE80026080800F33041019E009F019B019C01E7
:100FF80001309D0008000800F5007508F400F40DA4
:10100800F40D41011D087406033974069D001D1472
:101018000630890B0D28003241019D149D181528B2
:10102800162812281C08F3001B08F2000800F30019
:10103800400110108230890B1F280032F401730818
:10104800F200740A2828F236890B2728721C2D28EA
:101058002E28312840011014332840011010823006
:10106800890B342800320130F2007208F407083086
:101078007402031C402841282328400110148230A0
:10108800890B44280032080000304001A3000030DA
:10109800A2000030A1000030A000721C542855287E
:1010A8005E2876084001A0077708A13D7808A23D90
:1010B8007908A33D0130F635F70DF80DF90D890BC8
:1010C8005F280130F536F40CF30CF20C890B662816
:1010D8007508740473047204031D73287428512856
:1010E80040012308F5002208F4002108F300200835
:1010F800F2000800F50098287208031D8428852846
:10110800882801304001EE007203031D8C288D28C9
:101118008F280130FA0002307206031D94289528A2
:10112800B4280130FB00B4287508F300F4017408F2
:10113800003A0319A028B4287308003A0319802834
:10114800013A0319B428033A0319B428013A0319D8
:101158008028073A03198028013A03198028B428FF
:101168000800003400348F3401340C3402347034F5
:101178000234ED340234E0340434023402340134ED
:1011880000340134003402340134003403340434AC
:101198000534063401340134023400340234003496
:1011A8000134023400340334043405340034003488
:1011B800013402340134023400340134023403347B
:1011C800043405342834273400340034003400341F
:1011D800C8340034F5001B297208031DF428F528CB
:1011E800F7284001EE017203031DFB28FC28FD28A7
:1011F800FA0102307206031D022903293129FB0175
:1012080031297208031D09290A290E294001EE0116
:101218004301E5017203031D122913291429FA0158
:1012280002307206031D19291A2931290329750864
:10123800F300F4017408003A0319232931297308CB
:10124800003A03190529033A0319F028073A031944
:10125800F028013A0319F0283129080040019C01BF
:101268009B0198019D0199019A010E309600F0307A
:1012780097003F309200E0309300940195017E0181
:10128800D901CE01F030C3000630E400F0307C0113
:10129800D0003F307E01B800DA017C01D1017E0127
:1012A800E501C401B901CF01E6017C01D2017E014B
:1012B800BA01C501D001DB01FF30BB00FF30C60019
:1012C800FF30D100FF30DC000730E700FF307C0141
:1012D800D300FF307E01BC00FF30C700FF30D200D2
:1012E800FF30DD000F30E800FF307C01D40008003B
:1012F800F500B22942016F08031D83298429C829F2
:10130800720C4001031C1A1203181A16C82942014C
:101318006E08031D90299129C829720C4001031CED
:101328001B1303181B17C82942016D08031D9D29AB
:101338009E29C829720C4001031C1813031818179A
:10134800C82943016608031DAA29AB29C829720CBC
:101358004001031C1B1003181B14C8297508F3004F
:10136800F4017408003A0319BA29C8297308003A25
:1013780003197E29033A03199829073A0319A5295D
:10138800013A03198B29C8290800F500052A4201EA
:101398006F080319D029D1291B2A43016508031DA9
:1013A800D629D7291B2A720C4001031C9A1203184C
:1013B8009A161B2A42016E080319E329E4291B2AFD
:1013C800720C4001031C9B1303189B171B2A420134
:1013D8006D080319F029F1291B2A720C4001031C1E
:1013E8009813031898171B2A430166080319FD2947
:1013F800FE291B2A720C4001031C9B1003189B1426
:101408001B2A7508F300F4017408003A03190D2A21
:101418001B2A7308003A0319CB29033A0319EB294D
:10142800073A0319F829013A0319DE291B2A08008B
:1014380072088600730887004231403FF500413F3B
:10144800F6007508013EF8000030763DF900720894
:101458008600730887004631403FF500413FF6009B
:101468007908803AF7007608803A7702031D3E2A09
:1014780075087802031C412A422A442AF801F90116
:1014880072088600730887004431403FF500413FE9
:10149800F60079087606031D532A78087506031D99
:1014A800562A572A582A772A72088600730887000E
:1014B80042317208840073088500403F0007F50038
:1014C8000131413F003DF600750886007608870027
:1014D8007408810072088600730887004231780812
:1014E800C03F7908C13F080072088600730887006A
:1014F8004431403FF500413FF6007208860073080A
:1015080087004231403FF700413FF80076087806EF
:10151800031D902A75087706031D932A942A992A91
:10152800FF30F200FF30F300EB2A720886007308E0
:1015380087004431403FF500413FF6007508013E01
:101548004001A0000030763DA100720886007308B3
:1015580087004631403FF500413FF6002108803AB8
:10156800F7007608803A7702031DBC2A7508200226
:10157800031CBF2AC02AC32A4001A001A101740884
:101588008600870172088400730885000431003FD3
:10159800F500013FF6007208840073088500003FDB
:1015A800F700013FF8007508770784007608783D52
:1015B800850000088100720886007308870044319E
:1015C80040012008C03F2108C13FF201F301080093
:1015D8004001DA0028308600003087003230A6004B
:1015E80000301E00A60BF52A572B42016F0803197D
:1015F800FE2AFF2A6D2B43016508031D042B052BCA
:101608006D2B52304001A8004330A9002030AA00B9
:101618004F30AB006630AC000A30AD000D30AE0084
:101628006D2B42016E0803191A2B1B2B6D2B57309B
:101638004001A8004330A9002030AA004F30AB0079
:101648006630AC000A30AD000D30AE006D2B4201A3
:101658006D080319302B312B6D2B55304001A80034
:101668004330A9002030AA004F30AB006630AC00F0
:101678000A30AD000D30AE006D2B4301660803192A
:10168800462B472B6D2B56304001A8004330A9004C
:101698002030AA004F30AB006630AC000A30AD00F5
:1016A8000D30AE006D2B5A08A600A7012708003A96
:1016B80003195F2B6D2B2608003A0319F92A033A00
:1016C80003192B2B073A0319412B013A0319152B40
:1016D8006D2B07304001A0000030A1002830973161
:1016E800AC278A3108004001DA0028308600003033
:1016F80087003230A60000301E00A60B802BEB2B93
:1017080042016F08031D892B8A2B012C523040019E
:10171800A8004330A9002030AA004F30AB006E303B
:10172800AC000A30AD000D30AE00012C42016E084D
:10173800031D9F2BA02B012C57304001A8004330DC
:10174800A9002030AA004F30AB006E30AC000A3040
:10175800AD000D30AE00012C42016D08031DB52B04
:10176800B62B012C55304001A8004330A900203089
:10177800AA004F30AB006E30AC000A30AD000D301F
:10178800AE00012C43016608031DCB2BCC2B012C8A
:1017980056304001A8004330A9002030AA004F303D
:1017A800AB006E30AC000A30AD000D30AE00012C3D
:1017B8005330A8003130A9002030AA004F30AB00C8
:1017C8006630AC000A30AD000D30AE00012C5A086E
:1017D800A600A7012708003A0319F32BDC2B2608DB
:1017E800003A0319842B033A0319B02B073A03195B
:1017F800C62B013A03199A2BDC2B07304001A000B5
:101808000030A10028309731AC278B310800F60052
:10181800852C7208031D112C122C1D2C40016E08FA
:101828000319172C182C1D2C730C031C9B1103185F
:101838009B157203031D212C222C2D2C7A080319C9
:10184800262C272C2D2C730C4001031C9A110318ED
:101858009A1502307206031D322C332CA12C7B08FA
:101868000319372C382CA12C730C4001031C9A1037
:1018780003189A14A12C7208031D432C442C4A2CDB
:10188800730C4001031C9D1003189D147203031D63
:101898004E2C4F2C552C730C4001031C9A13031823
:1018A8009A1702307206031D5A2C5B2CA12C730C5C
:1018B8004001031C991003189914A12C7208031DE8
:1018C800662C672C6D2C730C4001031C9D110318AA
:1018D8009D157203031D712C722C782C730C40011A
:1018E800031C9B1203189B1602307206031D7D2CE5
:1018F8007E2CA12C730C4001031C99110318991517
:10190800A12C7608F400F5017508003A03198D2C0E
:10191800A12C7408003A03190D2C013A03193F2C25
:10192800033A0319622C013A03190D2C073A0319DB
:101938000D2C013A03190D2CA12C0800F6001C2DC2
:101948007208031DA82CA92CB42C40016E08031D95
:10195800AE2CAF2CB42C730C031C1B1103181B15D5
:101968007203031DB82CB92CC42C7A08031DBD2C96
:10197800BE2CC42C730C4001031C1A1103181A1531
:1019880002307206031DC92CCA2C382D7B08031D92
:10199800CE2CCF2C382D730C4001031C1A100318C1
:1019A8001A14382D7208031DDA2CDB2CE12C730C69
:1019B8004001031C1D1003181D147203031DE52CA0
:1019C800E62CEC2C730C4001031C1A1303181A178D
:1019D80002307206031DF12CF22C382D730C4001D5
:1019E800031C191003181914382D7208031DFD2C37
:1019F800FE2C042D730C4001031C1D1103181D152A
:101A08007203031D082D092D0F2D730C4001031CB3
:101A18001B1203181B1602307206031D142D152DF8
:101A2800382D730C4001031C191103181915382D92
:101A38007608F400F5017508003A0319242D382DAD
:101A48007408003A0319A42C013A0319D62C033A56
:101A58000319F92C013A0319A42C073A0319A42CE9
:101A6800013A0319A42C382D0800F20072088600E8
:101A780001308700010843012006031D442D452D30
:101A8800472D3908D22D72088600013087000108D9
:101A98002106031D502D512D532D3A08D22D720ABF
:101AA80086000130870001082206031D5C2D5D2D8C
:101AB8005F2D3B08D22D7208023E86000130870058
:101AC80001082306031D692D6A2D6C2D3C08D22DB3
:101AD800720A86000130870001082406031D752D4F
:101AE800762D782D3D08D22D7208023E86000130F1
:101AF800870001082506031D822D832D852D3E08AC
:101B0800D22D720886000130870001082606031DC1
:101B18008E2D8F2D912D3F08D22D720A860001300F
:101B2800870001082706031D9A2D9B2D9D2D40082F
:101B3800D22D7208023E860001308700010828066F
:101B4800031DA72DA82DAA2D4108D22D7208033EEA
:101B580086000130870001082906031DB42DB52D24
:101B6800B72D4208D22D7208043E86000130870046
:101B780001082A06031DC12DC22DC42D4308D22DEC
:101B88007208053E86000130870001082B06031DF8
:101B9800CE2DCF2DD12D4408D22D45080800F200B6
:101BA800720A860001308700010843012006031DE0
:101BB800DE2DDF2DE12D2C086C2E720A86000130F7
:101BC800870001082106031DEA2DEB2DED2D2D08B8
:101BD8006C2E7208023E860001308700010822063A
:101BE800031DF72DF82DFA2D2E086C2E720886008D
:101BF8000130870001082306031D032E042E062E3C
:101C08002F086C2E7208023E8600013087000108FA
:101C18002406031D102E112E132E30086C2E720868
:101C280086000130870001082506031D1C2E1D2E85
:101C38001F2E31086C2E720A8600013087000108B9
:101C48002606031D282E292E2B2E32086C2E7208EC
:101C5800023E86000130870001082706031D352E45
:101C6800362E382E33086C2E720886000130870015
:101C780001082806031D412E422E442E34086C2EDE
:101C88007208033E86000130870001082906031DFB
:101C98004E2E4F2E512E35086C2E7208043E8600AB
:101CA8000130870001082A06031D5B2E5C2E5E2E7C
:101CB80036086C2E7208053E860001308700010840
:101CC8002B06031D682E692E6B2E37086C2E3808DC
:101CD8000800F2007208023E860001308700010801
:101CE80043012006031D792E7A2E7D2E44012C08EF
:101CF800132F7208023E8600013087000108210672
:101D0800031D872E882E8B2E44012D08132F720A4F
:101D180086000130870001082206031D942E952EA7
:101D2800982E44012E08132F720886000130870070
:101D380001082306031DA12EA22EA52E44012F085B
:101D4800132F720A86000130870001082406031D3C
:101D5800AE2EAF2EB22E44013008132F7208860023
:101D68000130870001082506031DBB2EBC2EBF2E9F
:101D780044013108132F7208023E860001308700A3
:101D880001082606031DC92ECA2ECD2E440132088D
:101D9800132F720A86000130870001082706031DE9
:101DA800D62ED72EDA2E44013308132F7208860058
:101DB8000130870001082806031DE32EE42EE72ED4
:101DC80044013408132F7208033E8600013087004F
:101DD80001082906031DF12EF22EF52E44013508BF
:101DE800132F7208043E86000130870001082A0676
:101DF800031DFF2E002F032F44013608132F7208EE
:101E0800053E86000130870001082B06031D0D2FB3
:101E18000E2F112F44013708132F440138080800EA
:101E280040011A129A12181398131B109B101B13B7
:101E38009B131D109D101A139A13191099101D1138
:101E48009D111B129B12191199111B119B111A112B
:101E58009A111A109A109A160330F3000830F200FB
:101E68007730890B352FF20B352FF30B352F000008
:101E780040019A129B170330F3000830F2007730C4
:101E8800890B442FF20B442FF30B442F0000400121
:101E98009B139B140330F3000830F2007730890B52
:101EA800532FF20B532FF30B532F000040019B10BD
:101EB80098170330F3000830F2007730890B622F4F
:101EC800F20B622FF30B622F0000400198139B1551
:101ED8000330F3000830F2007730890B712FF20BD2
:101EE800712FF30B712F000040019B119A150330DD
:101EF800F3000830F2007730890B802FF20B802F27
:101F0800F30B802F000040019A119A140330F3005C
:101F18000830F2007730890B8F2FF20B8F2FF30BDD
:101F28008F2F000040019A109D140330F3000830F1
:101F3800F2007730890B9E2FF20B9E2FF30B9E2F0A
:101F4800000040019D109A170330F3000830F2009A
:101F58007730890BAD2FF20BAD2FF30BAD2F0000AF
:101F680040019A1399140330F3000830F2007730D7
:101F7800890BBC2FF20BBC2FF30BBC2F00004001C8
:101F880099109D150330F3000830F2007730890B63
:101F9800CB2FF20BCB2FF30BCB2F000040019D1161
:101FA8009B160330F3000830F2007730890BDA2FE4
:101FB800F20BDA2FF30BDA2F000040019B12991570
:101FC8000330F3000830F2007730890BE92FF20B69
:101FD800E92FF30BE92F0000400199110630430166
:101FE800DA000630DB000630DC000630DD000630A3
:081FF800DE000630DF000800E6
:102D140040011014080073084301E9007208E80038
:102D240008004F0196019701980199019A019B01AE
:102D3400080001304301D0070030D13D0030D23DBE
:102D44000030D33D0130E700080064008001013108
:102D54000130FE020030FF3B7F087E04031DA82ED5
:102D64000034FE0012001E000130FE020030FF3B62
:102D74007F087E04031DB42E00340234023401346F
:102D84000034013400340234013400340334043494
:102D940005344301680869040319D12ED22ED72EB5
:102DA40069088A0068080A00963108004E0110106C
:102DB40043016B08F1006A08F0009731042796314B
:102DC4009631CB2696310800603051018D008F0179
:102DD40091010530930090019201033052018C045B
:102DE4008C17080096319326963189313221963119
:102DF4009631E62696319731152796318731F62795
:102E04009631080044010E1D082F092F102F0E10B3
:102E140071088D0070088C000E14142F71088D0039
:102E240070088C00080044018F0190010330910068
:102E3400F0308D0060308C004E01101044010D08FC
:102E44004301EB0044010C084301EA004E011A144B
:102E5400FF30F2000730F30096318D269731313080
:102E640044018E0008000334023403340334023472
:102E740002340134013401340134013401340134A5
:102E84000134023400340234003401340234003496
:102E94000334043405340634003400340134023479
:102EA400013402340034013402340334043405346C
:102EB40006340B1343015308F5005208F40051087B
:102EC400F3005008F2000030F9000030F800003040
:102ED400F7001430F6008831482097317508400116
:102EE400AB007408AA007308A9007208A8000B17A5
:102EF4002B08A7002A08A6002908A5002808A40072
:102F04000800F400952F01304201EF00AB2F01308F
:102F14004201EE00AB2F01304201ED00AB2F013036
:102F24004301E600AB2F7408F200F3017308003A82
:102F340003199D2FAB2F7208003A0319852F033A0A
:102F440003198D2F073A0319912F013A0319892F79
:102F5400AB2F08004001A500A301A401C62F5130E6
:102F6400F2000230F300400123082507A2002208E2
:102F7400860087010108F4008A311C229731013050
:102F84004001A3070030A43D2408803AA200210890
:102F9400803A2202031DD02F20082302031CD32FC2
:102FA400D42FB12F0800F400E92F43016508031D55
:102FB400DC2FDD2FFF2F4201EF01FF2F4201EE0135
:102FC400FF2F4201ED01FF2F4301E601FF2F74089B
:102FD400F200F3017308003A0319F12FFF2F72086E
:102FE400003A0319D72F033A0319E32F073A0319B9
:102FF400E62F013A0319E02FFF2F080005340034AF
:043004000C34003454
:020000040001F9
:08000000FF3FFF3FFF3FFF3F00
:0A000E00EC3FFE3F9F3FFF1FFF3F46
:00000001FF
