:0400000076EF0EF099
:1006000000BE1EFE21661AE4222822642050220029
:1006100000000000000000000000000000000000DA
:1006200000D22200000000000048212C2100000020
:1006300000861EE821DE19DC2214223C203C220028
:1006400000000000000000000000000000000000AA
:1006500000C822000000000000802164210000008A
:1006600000537461727420666C6173680A0D0053E4
:1006700074617274200A0D00413A256C78200A0DCD
:10068000000A0D54460A0D00456E640A0D00436CC5
:100690000A0D0000010E2C6E000E256E000E246E59
:1006A0001A501B10D8A457EF03F059EF03F05DEF79
:1006B00003F0020E2C6ED2EF04F0195018100AE16C
:1006C0001604800E1758D8A068EF03F06AEF03F005
:1006D0006CEF03F059EF03F01C501D10D8B473EF0A
:1006E00003F075EF03F059EF03F01C5016241E6E53
:1006F0001D5017201F6E000E1820206E000E1920AE
:10070000216E215020100BE1020E1E5C800E1F583E
:10071000D8A08DEF03F08FEF03F091EF03F059EFC6
:1007200003F07FEC11F01D5007E1400E1C5CD8B0C7
:100730009CEF03F09EEF03F07CEF04F016C001F095
:1007400017C002F018C003F019C004F05FEC11F0FC
:1007500001C022F002C023F016C001F017C002F061
:1007600018C003F019C004F0DBEC10F001C028F051
:1007700002C029F003C02AF004C02BF0000E276E3F
:10078000000E266E6A0E2624D96E010E2720DA6E20
:1007900028C001F029C002F02AC003F02BC004F0E9
:1007A000B6EC0DF0DF6E010E2826000E29222A225B
:1007B0002B220AEC10F00009D8A4E1EF03F0E3EFDC
:1007C00003F0D9EF03F0E8EC10F00009D8A4EBEF48
:1007D00003F0EDEF03F0F1EF03F0000E2C6EF5EFF8
:1007E00003F0010E2C6E02EF04F0264A272A275050
:1007F00009E1400E265CD8A000EF04F002EF04F0FF
:10080000C2EF03F02C04D8B408EF04F00AEF04F0B0
:100810007CEF04F021EF04F024501A24D96E255007
:100820001B20DA6E6A0E2224E16E010E2320E26E96
:10083000DFCFE7FF224A232A244A252A1C06D8A014
:100840001D061C501D10D8A428EF04F02AEF04F058
:100850000CEF04F016C001F017C002F018C003F04E
:1008600019C004F0DBEC10F001C028F002C029F040
:1008700003C02AF004C02BF081C001F082C002F056
:1008800055EC11F028C001F029C002F02AC003F095
:100890002BC004F09AEC0BF02C6E5AEC11F02C509B
:1008A000D8A455EF04F057EF04F06EEF04F07BC0CE
:1008B00001F07CC002F055EC11F028C001F029C015
:1008C00002F02AC003F02BC004F06A0E056E010E80
:1008D000066E52EC0CF02C6E5AEC11F02C50D8A491
:1008E00074EF04F076EF04F07AEF04F0000E2C6E53
:1008F0007CEF04F0010E2C6E400E1C181D10D8A4C5
:1009000084EF04F086EF04F0D2EF04F016C028F074
:1009100017C029F018C02AF019C02BF081C001F0CF
:1009200082C002F055EC11F028C001F029C002F09D
:100930002AC003F02BC004F09AEC0BF02C6E5AEC9A
:1009400011F02C50D8A4A7EF04F0A9EF04F0C2EFE7
:1009500004F07BC001F07CC002F055EC11F028C01F
:1009600001F029C002F02AC003F02BC004F01AC025
:1009700005F01BC006F052EC0CF02C6E5AEC11F096
:10098000C4EF04F0010E2C6E2C50D8A4CAEF04F072
:10099000CCEF04F0D0EF04F0000E2C6ED2EF04F098
:1009A000010E2C6E2C5012000E50D96EDA6ADFCF79
:1009B000F6FF060EF76E0800F550250AD8A4E3EFFF
:1009C00004F0E5EF04F0C8EF05F00E50D96EDA6AD6
:1009D000DF2A000E0001666F000E656F65C085F0AE
:1009E000676968690E50D96EDA6ADF50176E17C0F2
:1009F000F6FF060EF76E0800F5CF18F00BEF05F0C6
:100A0000172A16EF05F0690E186E16EF05F0000EA6
:100A1000186E16EF05F018506C0AD8B400EF05F008
:100A2000140AD8B403EF05F007EF05F017C0F6FF7E
:100A3000060EF76E0800F550780AD8A422EF05F0EC
:100A400024EF05F0C2EF05F04CEF05F00F50D96E22
:100A5000DA6ADF50DF2ADF2AD96EDA6ADECF10F0D9
:100A6000DDCF11F010C012F011C013F0146A156A36
:100A700057EF05F00F50D96EDA6A040EDF26DF5CFF
:100A8000D96EDA6ADECF12F0DECF13F0DECF14F0CB
:100A9000DECF15F057EF05F01850690AD8B426EFED
:100AA00005F0050AD8B43AEF05F057EF05F00E50FF
:100AB000D96EDA6A1728DF6EB6EF05F0200E186ED1
:100AC00012500F0B166E0A0E166069EF05F06BEFF1
:100AD00005F06FEF05F0300E162671EF05F0570E9A
:100AE00016261806000E1824D96EDA6A010EDA22CC
:100AF00016C0DFFF040E106ED89015321432133278
:100B00001232102E7CEF05F0125013101410151035
:100B1000D8B48DEF05F08FEF05F0ABEF05F018506E
:100B2000D8A495EF05F097EF05F060EF05F0ABEF77
:100B300005F0000E1824D96EDA6A010EDA22DF50B1
:100B4000106E1050036E046A0CC005F00DC006F064
:100B500035EC0BF0182A200E1818D8A4B2EF05F0C7
:100B6000B4EF05F099EF05F0DBEF05F017C0F6FFE5
:100B7000060EF76E0800F550780AD8B45EEF05F05F
:100B8000C2EF05F00E50D96EDA6ADF2ADBEF05F00E
:100B90000E50D96EDA6ADFCFF6FF060EF76E080048
:100BA000F550036E046A0CC005F00DC006F035EC7C
:100BB0000BF0C2EF05F01200000E186EC30E176E98
:100BC00009500A10D8B4E7EF05F0E9EF05F0F1EFAE
:100BD00005F00B50D8A4EFEF05F0F1EF05F0F5EFBD
:100BE00005F0960E176EDCEF06F0390EF66E060E67
:100BF000F76E02D808EF06F00500FA6E0900F5500E
:100C0000FD6E0900F550FE6EF850FF6EFA501200AE
:100C10000009D8B40EEF06F010EF06F019EF06F059
:100C2000180E036E000E056E010E046EF0EC08F057
:100C3000176EE70E1718D8A420EF06F022EF06F083
:100C4000DAEF06F018500001E019D8A42AEF06F0F8
:100C50002CEF06F039EF06F0010E8A6F000E896F57
:100C60000B50D96EDA6ADE6ADD6A180E176EDCEF99
:100C700006F08A51D8B43FEF06F041EF06F0DAEF04
:100C800006F01850E119D8A448EF06F04AEF06F034
:100C900095EF06F0000E8A6F09C001F00AC002F05D
:100CA0000B50D96EDA6ADF500C6E0C04036E95ECB3
:100CB0000FF0126E0B50D96EDA6ADECF0CF0DDCF7A
:100CC0000DF00C5009240E6E0D500A200F6EFF0E11
:100CD0000E24156EFF0E0F20166E000E146E1550AA
:100CE0001610D8B476EF06F078EF06F084EF06F031
:100CF00015C010F016C011F010C0D9FF11C0DAFFF6
:100D0000DF50136E13C014F014501218D8A48BEFD8
:100D100006F08DEF06F091EF06F0E70E176EDCEFB0
:100D200006F03C0E176EDCEF06F01850DF19D8A461
:100D30009CEF06F09EEF06F0A4EF06F0010E896F1F
:100D4000180E176EDCEF06F08951D8B4AAEF06F042
:100D5000ACEF06F0AFEF06F0181E000E896F0B50D7
:100D6000D96EDA6A8351DE5C8451DE58D8B0BBEFAD
:100D700006F0BDEF06F0D4EF06F00B50D96EDA6A3C
:100D8000DECF0CF0DDCF0DF00C500924D96E0D50E4
:100D90000A20DA6E18C0DFFF0B50D96EDA6ADE2A3D
:100DA000000EDD2235EF06F0000E8A6F690E176E19
:100DB000DCEF06F0C30E176E1750120020EE03F0A2
:100DC0003950D9263A50DA22DF503D6E3D503F6E01
:100DD0003E6A3EC03FF03E6A3EC03FF03E6A20EEB3
:100DE00002F03950D9263A50DA22DF50406E405096
:100DF000426E416A41C042F0416A20EE01F0395032
:100E0000D9263A50DA22DF50436E4350456E446A89
:100E100039C0D9FF3AC0DAFFDF50466E465044244D
:100E2000476E000E4520486E41504724496E42509F
:100E300048204A6E3E5049244B6E3F504A204C6E2B
:100E40004BC057F04CC058F0000E58BEFF0E596E04
:100E50005A6E780E1E6E57C01FF058C020F059C051
:100E600021F05AC022F0CEEC10F020EEB2F010EEDD
:100E70004DF0070EDBCFE3FFE806FCE200018651F0
:100E8000D8B445EF07F047EF07F050EF07F039C04F
:100E900023F03AC024F0CFEC0AF0000E0001866F78
:100EA00020EE4DF000EE01F0070EDBCFEBFFE80681
:100EB000FCE258EC10F05A50591009E1300E585C21
:100EC000D8A065EF07F067EF07F08CEF07F057C089
:100ED00016F058C017F059C018F05AC019F0040E97
:100EE00039241A6E000E3A201B6E000E1D6E400E45
:100EF0001C6E4AEC03F0556E5550D8B482EF07F0E3
:100F000084EF07F088EF07F07E0E566E8EEF07F045
:100F1000810E566E8EEF07F0240E566E46EC10F0E2
:100F20005650120009500A10D8B499EF07F09BEF01
:100F300007F0A4EF07F00B500C10D8A4A2EF07F0B5
:100F4000A4EF07F0A8EF07F0960E136E44EF08F039
:100F500009C001F00AC002F00BC003F095EC0FF0DD
:100F60000D6E0D500F6E106AE00E036E000E056ED2
:100F7000010E046E3FEC0AF0136EE70E1318D8A4AE
:100F8000C4EF07F0C6EF07F044EF08F0000E126E52
:100F9000000E116E2AEF08F00B50111807E10C50EB
:100FA0001218D8A4D6EF07F0D8EF07F0DCEF07F05F
:100FB0000FC014F0E4EF07F011500924D96E12505D
:100FC0000A20DA6EDF50146E560E1418D8B4EBEF08
:100FD00007F0EDEF07F0FFEF07F09E0E1418D8B4FE
:100FE000F4EF07F0F6EF07F0FFEF07F0CC0E141860
:100FF000D8A4FDEF07F0FFEF07F014EF08F0DF0EC5
:10100000036E000E056E010E046E3FEC0AF0136EC7
:10101000E70E1318D8B40FEF08F011EF08F013EF34
:1010200008F03BEF08F0141E140E036E000E056E60
:10103000010E046E3FEC0AF0136EE70E1318D8B4DD
:1010400024EF08F026EF08F028EF08F03BEF08F057
:10105000114A122A010E0B240D6E000E0C200E6E8A
:101060000D50115C0E501258D8A039EF08F03BEF2C
:1010700008F0CCEF07F0E10E036E000E056E010ED6
:10108000046E3FEC0AF0136E13501200C30E000101
:10109000E46FCEC009F0CFC00AF0CA0E0B6EDCECD4
:1010A00005F00001E46F690EE419D8A45AEF08F0C6
:1010B0005CEF08F064EF08F0BD0EE36F010E646FA3
:1010C00001EC0FF097EF08F0E70EE419D8A46BEFEE
:1010D00008F06DEF08F075EF08F09AEC09F00001E8
:1010E000E36F010E636F97EF08F03C0EE419D8A48C
:1010F0007CEF08F07EEF08F088EF08F0810E1E6E9E
:10110000CEEC10F00001E369010E646F97EF08F078
:10111000180EE419D8A48FEF08F091EF08F095EFBE
:1011200008F03C0EE36F97EF08F0180EE36F000134
:101130006451D8B49EEF08F0A0EF08F0CDEF08F0AE
:10114000E35152EC0EF00001E26FD00E016EE20EA0
:10115000026E036A040E046E000E066E010E056E2A
:10116000A4EC0CF0D4C009F0D5C00AF0D0C00BF04C
:10117000D1C00CF092EC07F00001E46FE70EE41927
:10118000D8B4C5EF08F0C7EF08F0C9EF08F0180EA3
:10119000E36F000E646FEEEF08F06351D8B4D3EF45
:1011A00008F0D5EF08F0EEEF08F0C8C009F0C9C0AC
:1011B0000AF0C4C00BF0C5C00CF092EC07F00001BF
:1011C000E46FE70EE419D8B4E8EF08F0EAEF08F0AE
:1011D000ECEF08F0180EE36F000E636FE35112009E
:1011E00004500510D8B4F7EF08F0F9EF08F001EF5C
:1011F00009F00350D8A4FFEF08F001EF09F005EF64
:1012000009F0960E066E98EF09F0000E086E000EBB
:10121000076E8CEF09F0E70E066E510EF66E060EA5
:10122000F76E02D820EF09F00500FA6E0900F550BC
:10123000FD6E0900F550FE6EF850FF6EFA50120078
:1012400001500210D8A427EF09F029EF09F062EF4E
:1012500009F0390EF66E060EF76E02D83CEF09F073
:101260000500FA6E0900F550FD6E0900F550FE6E9E
:10127000F850FF6EFA5012000009D8B442EF09F09E
:1012800044EF09F05EEF09F003500724D96EDA6AE3
:10129000350EF66E060EF76E02D85BEF09F005000C
:1012A000FA6E0900F550FD6E0900F550FE6EF8501B
:1012B000FF6EFA501200DF6E8AEF09F0C30E066E61
:1012C0008AEF09F0C30E066E330EF66E060EF76E49
:1012D00002D877EF09F00500FA6E0900F550FD6EAF
:1012E0000900F550FE6EF850FF6EFA501200310EF4
:1012F000F66E060EF76E02D88AEF09F00500FA6E58
:101300000900F550FD6E0900F550FE6EF850FF6EB5
:10131000FA501200074A082A0450071807E105503E
:101320000818D8A496EF09F098EF09F00BEF09F030
:101330000650120026EF0AF0C40E016EF1EC0DF01B
:101340008E0E1E6ECEEC10F0810E5C6E3DEF0AF03C
:10135000810E5C6E40EC11F0C40E016E000E026E48
:10136000000E036E010E046E000E066E000E056E7A
:10137000A4EC0CF0610E1E6ECEEC10F03DEF0AF006
:10138000010E0001CE25396E000ECF213A6ECAC083
:101390003BF0CBC03CF0DEEC06F05C6E810E5C18DE
:1013A000D8A4D5EF09F0D7EF09F0E7EF09F0C40EA4
:1013B000016E000E026E000E036E010E046E000E32
:1013C000066E000E056EA4EC0CF03DEF0AF05C50CA
:1013D00022EC0EF05B6EC40E016E5B0E026E036AB1
:1013E000050E046E000E066E010E056EA4EC0CF0E8
:1013F0003DEF0AF0C40E016E000E026E000E036E89
:10140000010E046E000E066E000E056EA4EC0CF0CC
:10141000880E1E6ECEEC10F0000EFC6E000EE06E1C
:1014200000EF18F0A4EF09F0420E5C6EC40E016EDE
:10143000000E026E000E036E020E046E000E066EAB
:10144000000E056EA4EC0CF03DEF0AF0CEC0D9FF03
:10145000CFC0DAFFDF50010AD8B49CEF09F0030ACD
:10146000D8B4A8EF09F0010AD8B4C0EF09F0060A11
:10147000D8B4FAEF09F014EF0AF05C501200E70E4E
:10148000066E04500510D8B448EF0AF04AEF0AF08F
:1014900052EF0AF00350D8A450EF0AF052EF0AF0CE
:1014A00056EF0AF0960E066EB2EF0AF0000E086EC6
:1014B000000E076EA6EF0AF0E70E066E3B0EF66E04
:1014C000060EF76E02D871EF0AF00500FA6E0900F9
:1014D000F550FD6E0900F550FE6EF850FF6EFA50A3
:1014E00012000009D8B477EF0AF079EF0AF05EEF46
:1014F0000AF0370EF66E060EF76E02D891EF0AF07C
:101500000500FA6E0900F550FD6E0900F550FE6EFB
:10151000F850FF6EFA5003500724D96EDA6ADF5094
:101520001200510EF66E060EF76E02D8A4EF0AF006
:101530000500FA6E0900F550FD6E0900F550FE6ECB
:10154000F850FF6EFA501200074A082A0450071894
:1015500007E105500818D8A4B0EF0AF0B2EF0AF07E
:101560005CEF0AF03D0EF66E060EF76E02D8C5EF80
:101570000AF00500FA6E0900F550FD6E0900F550FD
:10158000FE6EF850FF6EFA5012000009D8B4CBEF8F
:101590000AF0CDEF0AF0B2EF0AF006501200FE0E8C
:1015A000016EFF0E026E3F0E036EF8EC0BF0010EA3
:1015B0000001876F20EE03F02350D9262450DA2251
:1015C000DF50256E2550276E266A26C027F0266A32
:1015D00026C027F0266A20EE02F02350D926245098
:1015E000DA22DF50286E28502A6E296A29C02AF094
:1015F000296A20EE01F02350D9262450DA22DF5048
:101600002B6E2B502D6E2C6A23C0D9FF24C0DAFF1D
:10161000DF502E6E2E502C242F6E000E2D20306E9B
:1016200029502F24316E2A503020326E265031241A
:10163000336E27503220346E33C035F034C036F06C
:10164000000E36BEFF0E376E386E35C016F036C04F
:1016500017F037C018F038C019F0AA0E1B6E550EDF
:101660001A6E77EC0DF0810E120005500610D8B4FA
:101670003CEF0BF03EEF0BF047EF0BF00550061080
:10168000D8A445EF0BF047EF0BF04CEF0BF00350F5
:1016900087EC10F099EF0BF020EE0AF00550D926F8
:1016A0000650DA22DE50DE10D8B459EF0BF05BEFB3
:1016B0000BF076EF0BF020EE0AF00550D92606501D
:1016C000DA2210EE03F00550E1260650E222DE5049
:1016D000E65CE650800A0B6EDE50800A0B58D8B0EC
:1016E00074EF0BF076EF0BF099EF0BF020EE03F0B8
:1016F0000550D9260650DA22DECF07F0DDCF08F0FC
:1017000005C0D9FF06C0DAFFDECF09F0DDCF0AF051
:1017100007500924D96E08500A20DA6E03C0DFFF93
:1017200020EE03F00550D9260650DA22DE2A000EFC
:10173000DD221200F7CF05F0066A076A086A07C0C3
:1017400008F006C007F005C006F0056AF8CF09F0FA
:101750000A6A0B6A0C6A0AC00CF009C00BF00A6A2C
:10176000096A055009100D6E06500A100E6E0750DA
:101770000B100F6E08500C10106EF6500D10126EFC
:101780000E50136E0F50146E1050156E000EF2BEF8
:10179000010E116E03C0F8FF02C0F7FF01C0F6FF93
:1017A000A68EA69CA684A688F29E550EA76EAA0EAB
:1017B000A76E11B002D0F29E01D0F28EA682A6B220
:1017C000E4EF0BF0E6EF0BF0DFEF0BF014C0F8FFE7
:1017D00013C0F7FF12C0F6FFA6A6F1EF0BF0F3EF70
:1017E0000BF0F6EF0BF0010EF7EF0BF0000E12000E
:1017F000F7CF04F0056A066A076A06C007F005C05D
:1018000006F004C005F0046AF8CF08F0096A0A6A15
:101810000B6A09C00BF008C00AF0096A086A045094
:1018200008100C6E055009100D6E06500A100E6E51
:1018300007500B100F6EF6500C10126E0D50136EF9
:101840000E50146E0F50156EA68EA69C03C0F8FFA6
:1018500001C004F002C005F003C006F005C004F0AA
:1018600006C005F0066A0450F76E01C0F6FF0900D5
:10187000F5CF04F0E00E04160450106E116A080053
:10188000F550056E046A045010120550111214C070
:10189000F8FF13C0F7FF12C0F6FF10C001F011C02F
:1018A00002F01200400E086EF850F750F650000E8D
:1018B000F2BE010E076EA69CA68EA68403C0F8FF9A
:1018C00002C0F7FF01C0F6FF7AEF0CF005C0D9FFA8
:1018D00006C0DAFFDF50F56E054A062A0850D8A484
:1018E00074EF0CF076EF0CF079EF0CF00C007AEF5F
:1018F0000CF00D0008060828D8A481EF0CF083EF47
:101900000CF066EF0CF0F29E5EC0A7FF5DC0A7FF73
:10191000A68200000000A6B290EF0CF092EF0CF04F
:101920008BEF0CF007B002D0F29E01D0F28EA6949D
:10193000A6A69DEF0CF09FEF0CF0A2EF0CF0010EAD
:10194000A3EF0CF0000E1200010E0524076E000E2E
:101950000620086E0150D96EDA6A07C0DEFF08C0A3
:10196000DDFF0150D96EDA6A040ED926DECF07F00A
:10197000DDCF08F007C0D9FF08C0DAFF04C0DFFFE1
:10198000000E096EE0EF0CF009500224D96E000E33
:101990000320DA6E0150E16EE26A040EE126E6CF22
:1019A00007F0E5CF08F009500726000E0822010EC7
:1019B0000724E16E000E0820E26EDFCFE7FF092A60
:1019C0000950076E086A0550075C06500858D8A0F1
:1019D000ECEF0CF0EEEF0CF0C4EF0CF01200000E88
:1019E0000001746F000E736FABA2F9EF0CF0FBEF08
:1019F0000CF012EF0DF073856F517011D8B403EF36
:101A00000DF005EF0DF012EF0DF002D812EF0DF012
:101A10000500FA6E6F51FD6E7051FE6EF850FF6E4C
:101A2000FA501200ABA417EF0DF019EF0DF031EFE3
:101A30000DF00001738371517211D8B422EF0DF0D3
:101A400024EF0DF031EF0DF002D831EF0DF005006D
:101A5000FA6E7151FD6E7251FE6EF850FF6EFA50C3
:101A60001200AE501200000E00016E6F000E6D6F7E
:101A700071A23DEF0DF03FEF0DF056EF0DF06D85CB
:101A800069516A11D8B447EF0DF049EF0DF056EFE8
:101A90000DF002D856EF0DF00500FA6E6951FD6E9B
:101AA0006A51FE6EF850FF6EFA50120071A45BEF9F
:101AB0000DF05DEF0DF075EF0DF000016D836B51D2
:101AC0006C11D8B466EF0DF068EF0DF075EF0DF006
:101AD00002D875EF0DF00500FA6E6B51FD6E6C517A
:101AE000FE6EF850FF6EFA5012007450120016C0CD
:101AF0001FF017C020F018C021F019C022F01AC042
:101B00001CF01BC01DF0A8EF0DF01CC001F01DC0A3
:101B100002F055EC11F01FC001F020C002F021C00E
:101B200003F022C004F09AEC0BF01E6E5AEC11F098
:101B30001E50D8B49EEF0DF0A0EF0DF0A2EF0DF007
:101B4000B5EF0DF0400E1F26000E2022212222228A
:101B5000225021100AE11F287F0E2058D8A0B3EF91
:101B60000DF0B5EF0DF085EF0DF01200F7CF05F099
:101B7000066A076A086A07C008F006C007F005C0D1
:101B800006F0056AF8CF09F00A6A0B6A0C6A0AC007
:101B90000CF009C00BF00A6A096A055009100D6EB5
:101BA00006500A100E6E07500B100F6E08500C10E6
:101BB000106EF6500D10116E0E50126E0F50136E07
:101BC0001050146E03C0F8FF02C0F7FF01C0F6FF0B
:101BD000080013C0F8FF12C0F7FF11C0F6FFF55060
:101BE00012000150D96EDA6A030EDE6E000EDD6E51
:101BF0000150D96EDA6A040ED926DECF02F0DDCFAD
:101C000003F002C0D9FF03C0DAFF010EDF6E0150FE
:101C1000D96EDA6A040ED92610EE01F0DE50E12604
:101C2000DD50E222020EE76E0150D96EDA6A040E30
:101C3000D92610EE02F0DE50E126DD50E222A90E98
:101C4000E76E1200036E000E046E33EF0EF0010E0D
:101C5000046E50EF0EF0030E046E50EF0EF0050E02
:101C6000046E50EF0EF00350016E026A0250000A3B
:101C7000D8B43DEF0EF050EF0EF00150240AD8B466
:101C80002BEF0EF0660AD8B427EF0EF03C0AD8B45A
:101C90002FEF0EF0A50AD8B427EF0EF050EF0EF09C
:101CA00004501200036E000E046E5FEF0EF0000E83
:101CB000046E74EF0EF0010E046E74EF0EF003501C
:101CC000016E026A0250000AD8B469EF0EF074EF98
:101CD0000EF00150BD0AD8B45BEF0EF0420AD8B442
:101CE00057EF0EF074EF0EF004501200900EF66EE7
:101CF0001F0EF76E000EF86E00EEB2F010EE30F030
:101D00000900F5CFEEFFE550E150FAE101EE00F0F9
:101D1000AA0EEE6AE806FDE100EE60F0520EEE6AF1
:101D2000E806FDE15E6A5D6A000EF86E000169EF8B
:101D300010F0020E896E000E8A6E000E8B6E000E81
:101D40008C6E000E8D6EFD0E926E9368BF0E946EBB
:101D5000BF0E956E870E966E2C0E0F01386F3F0EDC
:101D6000396F3C0E3A6F7F0E3B6F070E3C6F616818
:101D7000F00E626EF2861200C8EF0EF0898239EC26
:101D800011F0DEEF0EF0899246EC08F0DEEF0EF077
:101D900000018B51E56FE66BE651000AD8B4D3EF32
:101DA0000EF0DEEF0EF0E551000AD8B4C3EF0EF0EE
:101DB000010AD8B4BEEF0EF0DEEF0EF01200E0EC38
:101DC0000FF0056E810E0518D8A4E9EF0EF0EBEFC9
:101DD0000EF0FDEF0EF0000E00018B6FAFEC0FF078
:101DE0000009D8A4F6EF0EF0F8EF0EF000EF0FF0B8
:101DF000010E00018B6F00EF0FF0020E00018B6FE0
:101E00001200000E026E000E016E000E0001CB6F7C
:101E1000000ECA6F000E026E000E016E0150CE253C
:101E2000D96E0250CF21DA6EDF6A014A022A490ECA
:101E300001180210D8A41FEF0FF021EF0FF00EEFE2
:101E40000FF012001BC01DF030EF0FF019C00CF0A6
:101E50001AC00DF01D0E0E6E1CC00FF0D4EC04F075
:101E60001DC0F6FF060EF76E0800F5500009D8A455
:101E70003CEF0FF03EEF0FF026EF0FF0000E1A6E62
:101E8000000E196E1200480EB86E900EAB6E260E44
:101E9000AC6EA00EAF6E010EB06E020E016E230E80
:101EA000026EC0EC10F0F20E016E220E026EB2EC69
:101EB00010F0000E0001746F000E736F1200480ED8
:101EC000706E900E716E260E726E670E756E000E3D
:101ED000766E040E016E230E026EA4EC10F0F80E66
:101EE000016E220E026E96EC10F0000E00016E6F75
:101EF000000E6D6F1200D09EF292F18C000E016EFA
:101F0000000E026E50EC11F0F090F18A000E016E9E
:101F1000000E026E4BEC11F0F092F188000E016E93
:101F2000000E026E46EC11F01200000E056E000E5F
:101F3000046EA4EF0FF005500124D96E000E0220AC
:101F4000DA6EDF500426052A0350055CD8A0ABEFFB
:101F50000FF0ADEF0FF09BEF0FF004501200000EEA
:101F6000016E000E026E0000022A0228D8A4BBEF08
:101F70000FF0BDEF0FF0B3EF0FF080B0C2EF0FF036
:101F8000C4EF0FF0C6EF0FF0010E016E015012000A
:101F900055AA000055AA55AA0303D60203DC010383
:101FA000D901000013009F0000004900200100003B
:101FB00013008C00006400000100470001CC569E15
:101FC000000E026E490E016EF5EC0FF0046EE70E86
:101FD0000418D8B4EEEF0FF0F0EF0FF0F3EF0FF0BE
:101FE000C30EF4EF0FF0810E120001500210D8B4AE
:101FF000FCEF0FF0FEEF0FF006EF10F001C083F0E2
:1020000002C084F0E70E036E08EF10F0960E036E28
:1020100003501200010E016EA6B211EF10F013EF83
:1020200010F01CEF10F0A6B018EF10F01AEF10F03F
:102030001CEF10F0000E016E01501200000E016E38
:102040009EA825EF10F027EF10F030EF10F0ACAAAB
:102050002CEF10F02EEF10F030EF10F0010E016EAB
:1020600001501200000E016EA4A839EF10F03BEFF2
:1020700010F044EF10F072AA40EF10F042EF10F0B1
:1020800044EF10F0010E016E01501200000E00012D
:10209000826F000E816F000E806F000E7F6F000E4A
:1020A0007C6F000E7B6F000E7E6F000E7D6F120046
:1020B00001C081F002C082F003C07FF004C080F054
:1020C00007C07BF008C07CF005C07DF006C07EF044
:1020D000120078EC10F0F28E6F0E1E6ECEEC10F047
:1020E000DFEC0EF0BCEC0EF072EF10F000EF00F041
:1020F00032EC11F099EC0EF043EC0FF05FEC0FF0C6
:1021000076EC11F07BEC0FF040EC11F01200026E57
:1021100032EC10F00009D8B490EF10F092EF10F00C
:1021200088EF10F0025072EC11F012000150021012
:10213000D8B49DEF10F09FEF10F0A3EF10F001C0A6
:1021400069F002C06AF0120001500210D8B4ABEF7F
:1021500010F0ADEF10F0B1EF10F001C06BF002C065
:102160006CF0120001500210D8B4B9EF10F0BBEFC0
:1021700010F0BFEF10F001C06FF002C070F012005D
:1021800001500210D8B4C7EF10F0C9EF10F0CDEF36
:1021900010F001C071F002C072F012001F0E236E29
:1021A000000E196E000E1A6E1EC01BF0230E1C6E60
:1021B00022EC0FF01200C00E0114056E7F0E021407
:1021C000066E05C001F006C002F0036A046A120040
:1021D000A6A6EDEF10F0EFEF10F0F2EF10F0010E09
:1021E000F3EF10F0000E1200000EB86E000EAB6E92
:1021F000000EAC6E000EAF6E000EB06E1200000E40
:10220000706E000E716E000E726E000E756E000E16
:10221000766E12009EBA0FEF11F012EF11F0010E60
:1022200013EF11F0000E1200A4BA19EF11F01CEF19
:1022300011F0010E1DEF11F0000E1200ACB223EFF1
:1022400011F026EF11F0010E27EF11F0000E120031
:1022500072B22DEF11F030EF11F0010E31EF11F0ED
:10226000000E1200700ED36E040ED26E000E9B6E26
:102270001200000EFC6E000EE06E00EF18F012006F
:10228000000E0001876F010E866F120001C075F00D
:1022900002C076F0120001C077F002C078F01200A0
:1022A00001C079F002C07AF0120002505D6E01C0E8
:1022B0005EF01200000E5D6E000E5E6E12003F0EAC
:1022C0000114016E026A120073C001F074C002F0C2
:1022D00012006DC001F06EC002F01200016E01C06C
:1022E000ADFF1200016E01C073FF12007FEC11F010
:1022F0001200AB98AB881200719871881200A696F4
:06230000120012001200A1
:02303E0055AA91
:020000040030CA
:0E000000FF281F3CFFBF85FF0FC00FE00F4021
:00000001FF
