:04000000803119280A
:100008007E1480310B1F09280A2817282100911C0B
:100018000E280F2817282000911C132814281728A9
:100028008231532280317E10090080311B28200044
:10003800A801A901AA01AB01AC01AD01AE017E1076
:10004800200080312728FB018131EA2180312A30C4
:10005800F0000230F10082313B2280318B170B1700
:100068008231162280318131FA218031FC007C08EE
:100078007B06031940284128AD287C080319452828
:100088004628AB287C088131A121803120002D032E
:10009800031D4F2850286E28AC012808FD000630A3
:1000A800F0000030F1007D08F900FA017908F2004B
:1000B8007A08F3008031B72080317008FD000630DF
:1000C8007D0203186828692853287D08013E81317C
:1000D8004B218031023020002D06031D742875281D
:1000E8009528AC012808FD000630F0000030F1002A
:1000F8007D08F900FA017908F2007A08F3008031E6
:10010800B72080317008FD0006307D0203188D2865
:100118008E2878287D08013E813116218031200003
:10012800AD012C03031D99289A289F288231162295
:1001380080312000AD0102302C06031DA428A5281B
:10014800AB288231202280312000AD01AC017C082F
:10015800FB008230F900DE30890BB028F90BB0289B
:10016800372880311928F601F11FBB28BC28C3287D
:10017800F009F109F00A0319F10AF601F60AF31F6A
:10018800C628C728D028F209F309F20A0319F30A86
:100198000130F4007408F606F701F80170087104DC
:1001A8000319D728D8280729F501F50AE4280130CA
:1001B800F035F10D890BDC280130F4007408F507DF
:1001C800F11FE728E828DB280130F735F80D890BFF
:1001D800E92871087302031DF32870087202031CD2
:1001E800F628F728FC287008F2027108F33B771408
:1001F8000130F136F00C890BFD280130F502031DA2
:1002080006290729E828760803190B290C2911293A
:10021800F709F809F70A0319F80A7808F1007708C6
:10022800F0000800F20072080139F000F00EF00D3D
:10023800F00D22000C087006BF3970068C0072366B
:100248000139F000F00CF00C0C0870067F397006CC
:100258008C007208F0000230F036890B302901302A
:100268007005F1000C087106FE3971068C007208E1
:10027800F0000330F036890B3E2970080139F1008F
:10028800F10D0C087106FD3971068C000800F200AA
:1002980001307205F00022000D087006FE39700664
:1002A8008D0072360139F000F00D0D087006FD3929
:1002B80070068D007208F0000230F036890B612953
:1002C80070080139F100F10DF10D0D087106FB39C7
:1002D80071068D007208F0000330F036890B712921
:1002E80070080139F100F10DF10DF10D0D087106DD
:1002F800F73971068D000800083023009F009D0122
:1003080004309E00CF309B009C010030F00000308C
:10031800F1008231472281310030F0000030F100D5
:100328008231412281310030F0000030F100823109
:100338004D2281312000AE010800F200B0290130C1
:10034800F00070082000AD07C0290130F0007008E7
:100358002000AC07AD01C0297208F000F101710856
:10036800003A0319B829C0297008013A0319A329CA
:10037800033A0319A929C029080022008C018D011C
:10038800383021008C00D0308D00E03023008D0003
:1003980018308C0024008D018C0121009517220053
:1003A8009D0101309E0008007C3020009B009A01CE
:1003B8009110210091145D30F0000230F10082317B
:1003C8003B2281310D3020009C0008008131C12181
:1003D8008131823134228131823159228131813116
:1003E800D8218131813180218131080020000D1A06
:1003F800FE29FF29012A0130082A8C1A042A052A15
:10040800072A0230082A003008002000260827049E
:1004180003190F2A102A152A27088A0026080A0015
:100428008231080022000D108D100D118D110C1352
:100438008C130C108C10080022000D108D140D1157
:100448008D150C138C170C108C140800013020002B
:10045800A8070030A93D0030AA3D0030AB3D080098
:100468007030210099009801220096010800710857
:100478002000A7007008A600080071082000A3004B
:100488007008A200080071082000A5007008A400E8
:10049800080071082000A1007008A00008002000D2
:1004A800911082310922823108001630210097000C
:0404B8000800080030
:020000040001F9
:08000000FF3FFF3FFF3FFF3F00
:04000E00A409FF1E24
:00000001FF
