:04000000803118280B
:100008007E1480310B1F09280A2816284E011A1C55
:100018000E280F281628101C1228132816288C3191
:100028000F2480317E10090080311A28E9308400BD
:100038008B3085005C308600003087000030FF0080
:100048000C308B31DD238031023084008C30850008
:100058005A308600013087000030FF000D308B31A8
:10006800DD2380311B3084008D308500A030860070
:10007800013087000030FF003A308B31DD238031BA
:100088003E3084008C308500503086000230870076
:100098000030FF0018308B31DD2380315A30840066
:1000A800273085009630FE000030FF008B31D123C9
:1000B8008031F701F801E801E901EA01EB01EC01FF
:1000C800ED013E308400013085001C30FE00003018
:1000D800FF008B31D1238031DA3084000130850074
:1000E8001230FE000030FF008B31D12380312030E8
:1000F8008400023085003030FE000030FF008B3174
:10010800D1238031A0308400023085004A30FE00BF
:100118000030FF008B31D123803120308400033040
:1001280085003230FE000030FF008B31D123803152
:10013800A0308400033085003230FE000030FF001C
:100148008B31D12380312030840004308500323057
:10015800FE000030FF008B31D12380317E1040013A
:100168008031B6284401E801E9012C3086000130CD
:1001780087000C304001A80000301E00A80BC128E1
:100188000030D7000030D8000030D900D2308600C7
:10019800003087001830A80000301E00A80BD128B6
:1001A8004B308600003087000630A80000301E0063
:1001B800A80BDB28DA01DB0106304401EA00033032
:1001C8004101ED000630EF000330EC000630EE0090
:1001D8002D3086000030870018304001A80000301C
:1001E8001E00A80BF42820308600013087000C3050
:1001F800A80000301E00A80BFE288C311D24803179
:10020800C6304201BE000130BF005C30C000023081
:10021800C1005030C2000230C3005A30D400B93097
:10022800D500AC30D6008731FC2780318431CB240F
:100238008031C530F2000B30F3008B31A4238031BC
:100248008B170B174201590803192B292C2926292A
:100258004401EB016B088C3156248031730841014D
:10026800EB007208EA006B08F3006A08F200440128
:100278006B08F4008531B72580314001A80044019E
:100288006B08513E8600870140012808810044011F
:100298006B08453E860087016B08513E8400850146
:1002A80000080106031959295A2973296B084001C6
:1002B800A8000130A835FF3E031D5E292835D23E2F
:1002C800860087010030C03F0030C13FC23FC33FB6
:1002D80044016B084B3E860087018101810A6B0847
:1002E8004001A8000130A835FF3E031D77292835B5
:1002F800D23E86008701433F031D9029423F031DDC
:100308009029413F031D9029403FA90064302902EC
:10031800031C8F299029DC2944016B08383E86008C
:10032800013087006B08513E8400850100080106F2
:1003380003199F29A029DC296B08383E8600013063
:1003480087006B08513E8400850100088100413018
:100358004101A00044016B08303E4101A1003A3040
:10036800A20044016B08383E86000130870001086E
:10037800303E4101A3000A30A4000D30A50044011D
:100388006B084001A8000130A835FF3E031DC829AD
:100398002835D23E860087010030C03F0030C13F7B
:1003A800C23FC33F44016B084B3E86008701810171
:1003B80044016B084B3E8600870101080319E529B3
:1003C800E629FD296B084001A8000130A835FF3E49
:1003D800031DEA292835D23E8600870101308107AE
:1003E80041310030813D41310030813D41310030A3
:1003F800813D44016B08453E860087016B08513EEC
:10040800840085010008810001304001A800280807
:100418004401EB0706306B02031C132A142A2E2909
:1004280038308F31592780314201CB00383087313D
:10043800072780314201CC00383086316026803170
:100448004201CD004401EB016B084E3E86000130AD
:1004580087006B084B3E84000130850000080106C8
:100468000319372A382A862A40015A08031D3D2ACB
:100478003E2A792A5B08031D422A432A792A440125
:100488006B084101ED0044016B08513E86000130C4
:1004980087000108EA006B084B3E860001308700A0
:1004A80001084101EE004401E801E9014001DA01D7
:1004B800DA0A44016B084001A8000130A835FF3E64
:1004C800031D622A28352C3E860001308700003043
:1004D800C03F0030C13FC23FC33F44016B08573E95
:1004E800860087018101810A862A44016B084B3EF8
:1004F8008600013087006B084E3E8400013085007D
:10050800000881006B084E3E8600013087006B08AA
:100518004B3E840001308500000881006B084001D3
:10052800A8000130A835FF3E031D962A28352C3E29
:10053800860001308700433F031DB02A423F031D58
:10054800B02A413F031DB02A403FA900FA302902D2
:10055800031CAF2AB02A482B44016B08513E860081
:10056800013087006B084B3E84000130850000088D
:100578000106031DC02AC12ADE2A6B084001A80013
:100588000130A835FF3E031DC52A2835203E8600C8
:1005980001308700403FA900413FAA00423FAB001D
:1005A800433FAC002C082B042A0429040319DD2A34
:1005B800DE2A482B40015A08031DE32AE42A482B67
:1005C8005B08031DE82AE92A482B44016B0841010E
:1005D800EC0044016B084B3E86000130870001089F
:1005E8004101EF0044016B08513E8600013087004D
:1005F8006B084B3E840001308500000881004C30B8
:100608004101A00044016B08313E4101A1003A308C
:10061800A2006F08303EA3000A30A4000D30A500E8
:100628004401E801E9014001DB01DB0A44016B08F0
:100638004001A8000130A835FF3E031D1F2B2835B7
:10064800203E8600013087000030C03F0030C13FA7
:10065800C23FC33F44016B084001A8000130A835E0
:10066800FF3E031D332B28352C3E860001308700C2
:100678000030C03F0030C13FC23FC33F44016B0858
:10068800573E86008701810144016B08573E86006A
:10069800870101080319512B522B6A2B6B08400163
:1006A800A8000130A835FF3E031D562B28352C3EE7
:1006B8008600013087000130810741310030813DDB
:1006C80041310030813D41310030813D01304001F0
:1006D800A80028084401EB0703306B02031C752BA4
:1006E800762B282A40015A0803197B2B7C2B512C86
:1006F800440168086904031D822B832BCD2B6A08EB
:100708000319872B882B942B03306A02031C8D2B2B
:100718008E2BAF2B06306A020318932B942BAF2B2A
:1007280041016E080319992B9A2BA62B03306E02F0
:10073800031C9F2BA02BAF2B06306E020318A52B92
:10074800A62BAF2B6D08F200F30144016A088E3125
:100758002B268031B92B41016D08F200F301F30A11
:1007680044016A088E312B26803141016D08400111
:10077800A8000130A835FF3E031DBE2B2835203EBA
:100788008600013087000130C03F0030C13FC23FC2
:10079800C33F01304401E8070030E93D06306806F0
:1007A8006904031DD82BD92B3A2C41016D08F2009E
:1007B800F30144016A088E312B26803144016A080E
:1007C8000319E72BE82BF42B03306A02031CED2BEB
:1007D800EE2B062C06306A020318F32BF42B062C9A
:1007E80041016E080319F92BFA2B0E2C03306E0207
:1007F800031CFF2B002C062C06306E02031C052C54
:10080800062C0E2C41016D08F20044016A088D3156
:100818005525803144016A080319132C142C202C07
:1008280003306A02031C192C1A2C352C06306A0274
:1008380003181F2C202C352C6A08031D242C252C6A
:100848002D2C41016D08031D2A2C2B2C2D2C400129
:10085800E801F201F20A44016A088731AE278031C3
:100868003A2C4001DA014401E801E9010B30440166
:1008780068066904031D412C422C512CF2016A08B8
:100888008731AE27803144016A088C31BA2480311F
:100898004001DA014401E801E90140015B0803195C
:1008A800562C572CC62C440168086904031D5D2C7E
:1008B8005E2C672C41016C08F200F301F30A6F0803
:1008C8008E31C226803101304401E8070030E93D0D
:1008D800063068066904031D722C732CAE2C410186
:1008E8006C08F200F3016F088E31C2268031410195
:1008F8006C08F2006F088C31E424803141016F08E4
:100908000319872C882C942C03306F02031C8D2C20
:100918008E2CA92C06306F020318932C942CA92C2A
:100928006F08031D982C992CA12C6C08031D9D2C75
:100938009E2CA12C01304001E800F201F20A41018D
:100948006F088D3198258031AE2C4001DB014401C0
:10095800E801E9010B30440168066904031DB52C60
:10096800B62CC62CF20141016F088D3198258031D3
:1009780041016F088C31912480314001DB01440131
:10098800E801E9014201D9012629803118284001EE
:100998001A129A12181398131B109B101B139B13EF
:1009A8001D109D101A139A13191099101D119D11DD
:1009B8001B129B12191199111B119B111A119A11D3
:1009C8001A109A109A160330F3000830F2007730A4
:1009D800890BEC2CF20BEC2CF30BEC2C00004001F7
:1009E8009A129B170330F3000830F2007730890B16
:1009F800FB2CF20BFB2CF30BFB2C000040019B1390
:100A08009B140330F3000830F2007730890B0A2D6D
:100A1800F20B0A2DF30B0A2D000040019B109817CA
:100A28000330F3000830F2007730890B192DF20BF0
:100A3800192DF30B192D0000400198139B15033055
:100A4800F3000830F2007730890B282DF20B282D9F
:100A5800F30B282D000040019B119A150330F30079
:100A68000830F2007730890B372DF20B372DF30B56
:100A7800372D000040019A119A140330F300083012
:100A8800F2007730890B462DF20B462DF30B462DDD
:100A9800000040019A109D140330F3000830F20062
:100AA8007730890B552DF20B552DF30B552D000082
:100AB80040019D109A170330F3000830F200773098
:100AC800890B642DF20B642DF30B642D000040019B
:100AD8009A1399140330F3000830F2007730890B29
:100AE800732DF20B732DF30B732D00004001991039
:100AF8009D150330F3000830F2007730890B822D02
:100B0800F20B822DF30B822D000040019D119B16E4
:100B18000330F3000830F2007730890B912DF20B87
:100B2800912DF30B912D000040019B129915033074
:100B3800F3000830F2007730890BA02DF20BA02DBE
:100B4800F30BA02D00004001991106304201CE00A0
:100B58000630CF000630D0000630D1000630D20073
:100B68000630D30008007435DA3E8600013087006D
:100B7800403F4001A600413FA7002635A03E860021
:100B880001308700403FA000413FA100260827040C
:100B98000319CF2DD02DD42D0A30A0020030A13B4F
:100BA8002635A23E860001308700403FA200413F23
:100BB800A300003027020530031926020318E52D8B
:100BC800E62DEA2D0A30A2070030A33D2108730262
:100BD800031DF02D20087202031CF32DF42DFE2DA9
:100BE80073082302031DFA2D720822020318FD2D33
:100BF800FE2D412EA401A5012435A03E860001301A
:100C08008700403FF500413FF60076087302031D58
:100C18000F2E75087202031C122E132E272E243550
:100C2800A23E860001308700403FF500413FF600B4
:100C380073087602031D222E72087502031C252EE6
:100C4800262E272E342E0130A4070030A53D003073
:100C58002502053003192402031C332E342E002EDE
:100C68002508A7002408A6007435DA3E860001305E
:100C780087002608C03F2708C13F03307402031CC1
:100C8800462E472E5E2E2608270403194C2E4D2E7D
:100C98005E2E0130F5000030F6007435DA3E86002D
:100CA800013087007508C03F7608C13F0130A600B3
:100CB8000030A70026080800F2007208023E8600ED
:100CC80001308700010840015C06031D6C2E6D2E63
:100CD800702E43012C08062F7208023E8600013050
:100CE800870001085D06031D7A2E7B2E7E2E4301A8
:100CF8002D08062F720A86000130870001085E065B
:100D0800031D872E882E8B2E43012E08062F72086E
:100D180086000130870001085F06031D942E952E7A
:100D2800982E43012F08062F720A8600013087008B
:100D380001086006031DA12EA22EA52E430130082E
:100D4800062F720886000130870001086106031D1E
:100D5800AE2EAF2EB22E43013108062F7208023E86
:100D680086000130870001086206031DBC2EBD2ED7
:100D7800C02E43013208062F720A86000130870010
:100D880001086306031DC92ECA2ECD2E4301330860
:100D9800062F720886000130870001086406031DCB
:100DA800D62ED72EDA2E43013408062F7208033EBA
:100DB80086000130870001086506031DE42EE52E34
:100DC800E82E43013508062F7208043E86000130DC
:100DD800870001086606031DF22EF32EF62E430146
:100DE8003608062F7208053E860001308700010884
:100DF8006706031D002F012F042F43013708062F14
:100E0800430138080800F200720A860001308700A2
:100E1800010840015C06031D122F132F162F4301F2
:100E28003908AD2F720A86000130870001085D0677
:100E3800031D1F2F202F232F43013A08AD2F7208BF
:100E4800023E86000130870001085E06031D2D2F33
:100E58002E2F312F43013B08AD2F72088600013039
:100E6800870001085F06031D3A2F3B2F3E2F4301E1
:100E78003C08AD2F7208023E860001308700010849
:100E88006006031D482F492F4C2F43013D08AD2F05
:100E9800720886000130870001086106031D552F7E
:100EA800562F592F43013E08AD2F720A8600013094
:100EB800870001086206031D622F632F662F430116
:100EC8003F08AD2F7208023E8600013087000108F6
:100ED8006306031D702F712F742F43014008AD2F37
:100EE800720886000130870001086406031D7D2F03
:100EF8007E2F812F43014108AD2F7208033E8600E3
:100F08000130870001086506031D8B2F8C2F8F2F5A
:100F180043014208AD2F7208043E86000130870065
:100F280001086606031D992F9A2F9D2F4301430838
:100F3800AD2F7208053E860001308700010867065C
:100F4800031DA72FA82FAB2F43014408AD2F430142
:100F580045080800F500E52F40016C080319B52F76
:100F6800B62FFB2F6808031DBA2FBB2FFB2F720C5F
:100F7800031C9A1203189A16FB2F40016B080319D9
:100F8800C62FC72FFB2F720C031C9B1303189B172C
:100F9800FB2F40016A080319D22FD32FFB2F720CA5
:100FA800031C981303189817FB2F400169080319AD
:100FB800DE2FDF2FFB2F720C031C9B1003189B14D2
:100FC800FB2F7508F300F4017408003A0319ED2F9C
:100FD800FB2F7308003A0319B02F033A0319CD2FDA
:100FE800073A0319D92F013A0319C12FFB2F08001B
:080FF80040011014080008007C
:1017480073084201E8007208E70008004F0196019B
:101758009701980199019A019B010800F030410115
:101768009E009F019B019C0101309D000800603094
:1017780051018D008F019101053093009001920174
:10178800080001304201C4070030C53D0030C63DA5
:101798000030C73D0130D9000800640080010131E4
:1017A8000130FE020030FF3B7F087E04031DD22B70
:1017B8000034FE0012001E000130FE020030FF3B24
:1017C8007F087E04031DDE2B003403340234033407
:1017D8000334023402340134013401340134013455
:1017E80001344201670868040319FB2BFC2B012C08
:1017F80068088A0067080A008C3108000034003441
:101808000134023401340234003401340234033424
:101818000434053406344E01101042016A08F10000
:101828006908F0008C312D248C318B31F5238C31F3
:1018380008008B31AA238C318D31E1258C318B3115
:10184800BB238C318C3171248C318B31B2238C3198
:10185800080044010E1D312C322C392C0E10710851
:101868008D0070088C000E143D2C71088D007008D6
:101878008C0008000234023401340034013400348E
:10188800023401340034033404340534013401349F
:101898000234003402340034013402340034033496
:1018A80004340534F5007508F400F40DF40D410115
:1018B8001D087406033974069D001D140630890B33
:1018C800632C003241019D149D186B2C6C2C682CE4
:1018D8001C08F3001B08F200080044018F01900166
:1018E80003309100F0308D0060308C004E011010F4
:1018F80044010D084201EA0044010C084201E900D4
:101908004E011A14FF30F2000730F3008B31A42384
:101918008C31313044018E000800F400A32C0130D2
:101928004001EC00B92C01304001EB00B92C01302A
:101938004001EA00B92C01304001E900B92C7408D3
:10194800F200F3017308003A0319AB2CB92C7208A2
:10195800003A0319932C033A03199B2C073A0319ED
:101968009F2C013A0319972CB92C0800F400CD2CB0
:1019780040016808031DC12CC22CE32CEC01E32CA8
:101988004001EB01E32C4001EA01E32C4001E901AD
:10199800E32C7408F200F3017308003A0319D52CFC
:1019A800E32C7208003A0319BC2C033A0319C72C1C
:1019B800073A0319CA2C013A0319C42CE32C08006E
:1019C800F500FE2C7208031DEA2CEB2CEE2C0130DE
:1019D8004001ED007203031DF22CF32CF52C0130AD
:1019E800F70002307206031DFA2CFB2C1A2D013069
:1019F800F8001A2D7508F300F4017408003A031969
:101A0800062D1A2D7308003A0319E62C013A03191A
:101A18001A2D033A03191A2D013A0319E62C073A2D
:101A28000319E62C013A0319E62C1A2D0800003494
:101A3800003447340134AD340134FF3401346534A3
:101A48000234FF34033402340234013400340134E4
:101A580000340234013400340334043405340634C9
:101A680001340134023400340234003401340234C5
:101A780000340334043405340634003400340134AB
:101A8800023401340234003401340234033404349F
:101A980005345A3427340034003400340034963482
:101AA8000034F500812D7208031D5B2D5C2D5E2D21
:101AB8004001ED017203031D622D632D642DF701B2
:101AC80002307206031D692D6A2D972DF801972D96
:101AD8007208031D702D712D742D4001ED01E80170
:101AE8007203031D782D792D7A2DF70102307206C5
:101AF800031D7F2D802D972D6A2D7508F300F401A5
:101B08007408003A0319892D972D7308003A0319B0
:101B18006C2D033A0319572D073A0319572D013A2B
:101B28000319572D972D0800F500CA2D40016C08A0
:101B3800031D9F2DA02DE02D720C031C1A120318F3
:101B48001A16E02D40016B08031DAB2DAC2DE02DBE
:101B5800720C031C1B1303181B17E02D40016A08A5
:101B6800031DB72DB82DE02D720C031C1813031894
:101B78001817E02D40016908031DC32DC42DE02D61
:101B8800720C031C1B1003181B14E02D7508F300BE
:101B9800F4017408003A0319D22DE02D7308003AB5
:101BA80003199A2D033A0319B22D073A0319BE2DCA
:101BB800013A0319A62DE02D080040019C019B0164
:101BC80098019D0199019A010E309600F030970016
:101BD8003F309200E0309300940195017E01D901D5
:101BE800CE01F030C3000630E400F0307C01D000B4
:101BF8003F307E01B800DA017C01D1017E01E501A8
:101C0800C401B901CF01E6017C01D2017E01BA010C
:101C1800C501D001DB01FF30BB00FF30C600FF303B
:101C2800D100FF30DC000730E700FF307C01D30033
:101C3800FF307E01BC00FF30C700FF30D200FF300C
:101C4800DD000F30E800FF307C01D4000800F6000A
:101C5800A52E7208031D312E322E3D2E40016D082F
:101C68000319372E382E3D2E730C031C9B110318B5
:101C78009B157203031D412E422E4D2E7708031922
:101C8800462E472E4D2E730C4001031C9A11031843
:101C98009A1502307206031D522E532EC12E780853
:101CA8000319572E582EC12E730C4001031C9A108D
:101CB80003189A14C12E7208031D632E642E6A2E0F
:101CC800730C4001031C9D1003189D147203031D1F
:101CD8006E2E6F2E752E730C4001031C9A13031879
:101CE8009A1702307206031D7A2E7B2EC12E730CB2
:101CF8004001031C991003189914C12E7208031D82
:101D0800862E872E8D2E730C4001031C9D110318FF
:101D18009D157203031D912E922E982E730C40016F
:101D2800031C9B1203189B1602307206031D9D2E7E
:101D38009E2EC12E730C4001031C9911031899158E
:101D4800C12E7608F400F5017508003A0319AD2E86
:101D5800C12E7408003A03192D2E013A03195F2E7B
:101D6800033A0319822E013A03192D2E073A031953
:101D78002D2E013A03192D2EC12E0800F6003C2FF6
:101D88007208031DC82EC92ED42E40016D08031DEC
:101D9800CE2ECF2ED42E730C031C1B1103181B152B
:101DA8007203031DD82ED92EE42E7708031DDD2ECD
:101DB800DE2EE42E730C4001031C1A1103181A15A9
:101DC80002307206031DE92EEA2E582F7808031DEB
:101DD800EE2EEF2E582F730C4001031C1A10031817
:101DE8001A14582F7208031DFA2EFB2E012F730C9C
:101DF8004001031C1D1003181D147203031D052F39
:101E0800062F0C2F730C4001031C1A1303181A1702
:101E180002307206031D112F122F582F730C400128
:101E2800031C191003181914582F7208031D1D2FAD
:101E38001E2F242F730C4001031C1D1103181D15A0
:101E48007203031D282F292F2F2F730C4001031C09
:101E58001B1203181B1602307206031D342F352F70
:101E6800582F730C4001031C191103181915582F0A
:101E78007608F400F5017508003A0319442F582F25
:101E88007408003A0319C42E013A0319F62E033ACE
:101E98000319192F013A0319C42E073A0319C42E3E
:101EA800013A0319C42E582F0800F2007208860060
:101EB80001308700010840015C06031D642F652F6F
:101EC800682F42015A08FF2F7208860001308700E8
:101ED80001085D06031D712F722F752F42015B08E3
:101EE800FF2F720A86000130870001085E06031D75
:101EF8007E2F7F2F822F42015C08FF2F7208023E3F
:101F080086000130870001085F06031D8C2F8D2F86
:101F1800902F42015D08FF2F720A8600013087006A
:101F280001086006031D992F9A2F9D2F42015E0814
:101F3800FF2F7208023E8600013087000108610603
:101F4800031DA72FA82FAB2F42015F08FF2F720890
:101F580086000130870001086206031DB42FB52FE3
:101F6800B82F42016008FF2F720A860001308700EF
:101F780001086306031DC12FC22FC52F4201610846
:101F8800FF2F7208023E86000130870001086406B0
:101F9800031DCF2FD02FD32F42016208FF2F7208C5
:101FA800033E86000130870001086506031DDD2F0A
:101FB800DE2FE12F42016308FF2F7208043E8600DE
:101FC8000130870001086606031DEB2FEC2FEF2F69
:101FD80042016408FF2F7208053E86000130870021
:101FE80001086706031DF92FFA2FFD2F4201650826
:101FF800FF2F420166080800053400340A34003413
:020000040001F9
:08000000FF3FFF3FFF3FFF3F00
:0A000E00EC3FFE3F9F3FFF1FFF3F46
:00000001FF
