:0400000007EF00F016
:0A0008005F82D8ED11F073EF14F0E1
:10080000004576656E696E67204D65646963696E43
:1008100065004D6F726E696E67204D65646963692E
:100820006E650052656D696E6465722054696D6510
:1008300020696E00496E70757420446F736167653E
:100840003A00506C6561736520526566696C6C0096
:10085000616E642074696D652028412900616E64B1
:100860002074696D6520284229004D3A25642020B6
:100870002020453A256400496E70757420646F73BA
:1008800061676500496E7075742054696D653A0042
:100890004D656469636174696F6E00416C65727463
:0708A0000054696D650000C2
:1008A800596E74EF0AF0F251D8B45DEF04F05FEFBF
:1008B80004F07CEF04F000EC15F0010E046E010E5C
:1008C80080EC13F0770E056E080E066E8BEC12F0B6
:1008D800010E046E020E80EC13F0500E056E080E29
:1008E800066E8BEC12F0000E0001F26F040EEF6F33
:1008F800F451F319D8B483EF04F085EF04F0A2EFB4
:100908000AF0410EF419D8A48CEF04F08EEF04F02D
:1009180092EF04F0020EF66F010EF26FF4C0F3F0DE
:10092800A2EF0AF0F251D8B49CEF04F09EEF04F065
:10093800F4EF04F000EC15F0010E046E010E80ECEB
:1009480013F0340E056E080E066E8BEC12F0010ED5
:10095800046E020E80EC13F0840E056E080E066E0F
:100968008BEC12F00E0E046E010E80EC13F0B40E38
:100978000001C86F000EC96F740ECA6F080ECB6FE6
:1009880090C0CCF0CD6BE1EC13F0B40E056E000E08
:10099800066E8BEC12F00C0E046E020E80EC13F057
:1009A800B40E0001C86F000EC96F740ECA6F080E2E
:1009B800CB6F8EC0CCF0CD6BE1EC13F0B40E056EAE
:1009C800000E066E8BEC12F00E0E046E010E80EC1B
:1009D80013F0CDEC14F0000E0001F26F010E916FD0
:1009E800F451F319D8B4FBEF04F0FDEF04F0A2EFD3
:1009F8000AF09105D8A403EF05F005EF05F038EFEC
:100A080005F0040EF4610BEF05F00DEF05F092EF21
:100A180004F0F4C090F00E0E046E010E80EC13F09A
:100A2800B40E0001C86F000EC96F740ECA6F080EAD
:100A3800CB6F90C0CCF0CD6BE1EC13F0B40E056E2B
:100A4800000E066E8BEC12F00C0E046E020E80EC9B
:100A580013F00001905146EC13F06E0E0001F46F94
:100A6800020E916F92EF04F0020E9119D8A43FEF95
:100A780005F041EF05F06BEF05F0030EF46147EF69
:100A880005F049EF05F092EF04F0F4C08EF00C0E7B
:100A9800046E020E80EC13F0B40E0001C86F000E55
:100AA800C96F740ECA6F080ECB6F8EC0CCF0CD6BB9
:100AB800E1EC13F0B40E056E000E066E8BEC12F02E
:100AC8006E0E0001F46F030E916F92EF04F0030EA7
:100AD8009119D8A472EF05F074EF05F0A1EF05F0B5
:100AE8000A0EF4617AEF05F07CEF05F092EF04F05E
:100AF8008E510A0DF350F4258E6F0C0E046E020E03
:100B080080EC13F0B40E0001C86F000EC96F740EAC
:100B1800CA6F080ECB6F8EC0CCF0CD6BE1EC13F032
:100B2800B40E056E000E066E8BEC12F0DAEC14F0C3
:100B3800000E0001916F92EF04F09151D8A4A7EF35
:100B480005F0A9EF05F092EF04F0420EF419D8A4CD
:100B5800B0EF05F0B2EF05F092EF04F06E0EF46F0F
:100B6800010E8A6F20EE78F0070EDE6AE806FDE2D5
:100B7800030EF66F010EF26F92EF04F0F251D8B443
:100B8800C8EF05F0CAEF05F0E8EF05F0000E46ECF7
:100B980013F000EC15F0010E046E010E80EC13F05A
:100BA800770E056E080E066E8BEC12F0010E046EC1
:100BB800020E80EC13F05D0E056E080E066E8BECCF
:100BC80012F0000E0001F26FF451F319D8B4EFEFF0
:100BD80005F0F1EF05F0A2EF0AF0420EF419D8A4DF
:100BE800F8EF05F0FAEF05F092EF04F0040EF66F57
:100BF8006E0EF46F010EF26F92EF04F0F251D8B45A
:100C080008EF06F00AEF06F060EF06F000EC15F0CA
:100C1800010E046E010E80EC13F0340E056E080E02
:100C2800066E8BEC12F0010E046E020E80EC13F0CF
:100C3800840E056E080E066E8BEC12F00E0E046E16
:100C4800010E80EC13F0B40E0001C86F000EC96FDE
:100C5800740ECA6F080ECB6F8FC0CCF0CD6BE1EC71
:100C680013F0B40E056E000E066E8BEC12F00C0E2F
:100C7800046E020E80EC13F0B40E0001C86F000E73
:100C8800C96F740ECA6F080ECB6F8DC0CCF0CD6BD8
:100C9800E1EC13F0B40E056E000E066E8BEC12F04C
:100CA8000E0E046E010E80EC13F0CDEC14F0000E65
:100CB8000001F26F010E916FF451F319D8B467EF88
:100CC80006F069EF06F0A2EF0AF09105D8A46FEFDD
:100CD80006F071EF06F09FEF06F0040EF46177EF6F
:100CE80006F079EF06F092EF04F0F4C08FF00E0EE4
:100CF800046E010E80EC13F0B40E0001C86F000EF4
:100D0800C96F740ECA6F080ECB6F8FC0CCF0CD6B55
:100D1800E1EC13F0B40E056E000E066E8BEC12F0CB
:100D28000C0E046E020E80EC13F000018F5146EC9D
:100D380013F031EF05F0020E9119D8A4A6EF06F0D2
:100D4800A8EF06F0C7EF06F0030EF461AEEF06F069
:100D5800B0EF06F092EF04F0F4C08DF00C0E046EC4
:100D6800020E80EC13F0B40E0001C86F000EC96FBC
:100D7800740ECA6F080ECB6F8DC0CCF0CD6BE1EC52
:100D880013F05EEF05F0030E9119D8A4CEEF06F02C
:100D9800D0EF06F007EF07F00A0EF461D6EF06F081
:100DA800D8EF06F092EF04F08D510A0DF350F425B8
:100DB8008D6F0C0E046E020E80EC13F0B40E000161
:100DC800C86F000EC96F740ECA6F080ECB6F8DC046
:100DD800CCF0CD6BE1EC13F0B40E056E000E066E90
:100DE8008BEC12F0DAEC14F00B0E0001DE6F260E1D
:100DF800DD6F5D0EE82EFED7DD2FFCD7DE2FFAD78C
:100E080000D09CEF05F09151D8A40DEF07F00FEF3B
:100E180007F092EF04F0430EF419D8A416EF07F088
:100E280018EF07F092EF04F0010E896F20EE70F0D2
:100E3800070EDE6AE806FDE2050EF66F010EF26F98
:100E48006E0EF46F92EF04F0F251D8B42EEF07F063
:100E580030EF07F0CBEF07F0000E46EC13F000EC94
:100E680015F0010E046E010E80EC13F0230E056ED2
:100E7800080E066E8BEC12F0010E046E020E80EC6A
:100E880013F0B40E0001C86F000EC96F6A0ECA6F66
:100E9800080ECB6F78C001F079C002F07AC003F079
:100EA8007BC004F07CC005F07DC006F07EC007F072
:100EB8007FC008F0640E096E000E0A6E000E0B6EFD
:100EC800000E0C6E000E0D6E000E0E6E000E0F6EF4
:100ED800000E106EFBEC10F001C0DDF002C0DEF079
:100EE80003C0DFF004C0E0F005C0E1F006C0E2F0A6
:100EF80007C0E3F008C0E4F00001DD51CC6FCD6B12
:100F080070C001F071C002F072C003F073C004F049
:100F180074C005F075C006F076C007F077C008F019
:100F2800640E096E000E0A6E000E0B6E000E0C6E3B
:100F3800000E0D6E000E0E6E000E0F6E000E106E7F
:100F4800FBEC10F001C0E5F002C0E6F003C0E7F0EA
:100F580004C0E8F005C0E9F006C0EAF007C0EBF00D
:100F680008C0ECF00001E551CE6FCF6BE1EC13F057
:100F7800B40E056E000E066E8BEC12F020EE60F0DB
:100F8800070EDE6AE806FDE2000E0001F26F640E4D
:100F9800601961116211631164116511661167119D
:100FA800D8A4D9EF07F0DBEF07F070EF08F000ECFA
:100FB80015F0010E046E010E80EC13F0230E056E81
:100FC800080E066E8BEC12F0010E046E020E80EC19
:100FD80013F0B40E0001C86F000EC96F6A0ECA6F15
:100FE800080ECB6F78C001F079C002F07AC003F028
:100FF8007BC004F07CC005F07DC006F07EC007F021
:101008007FC008F0640E096E000E0A6E000E0B6EAB
:10101800000E0C6E000E0D6E000E0E6E000E0F6EA2
:10102800000E106EFBEC10F001C0DDF002C0DEF027
:1010380003C0DFF004C0E0F005C0E1F006C0E2F054
:1010480007C0E3F008C0E4F00001DD51CC6FCD6BC0
:1010580070C001F071C002F072C003F073C004F0F8
:1010680074C005F075C006F076C007F077C008F0C8
:10107800640E096E000E0A6E000E0B6E000E0C6EEA
:10108800000E0D6E000E0E6E000E0F6E000E106E2E
:10109800FBEC10F001C0E5F002C0E6F003C0E7F099
:1010A80004C0E8F005C0E9F006C0EAF007C0EBF0BC
:1010B80008C0ECF00001E551CE6FCF6BE1EC13F006
:1010C800B40E056E000E066E8BEC12F020EE60F08A
:1010D800070EDE6AE806FDE200018A51D8B477EF10
:1010E80008F079EF08F0B3EF08F0010E7827000E4A
:1010F80079237A237B237C237D237E237F238E51B0
:10110800640DF3CFDDF0F4CFDEF0000EDEBFFF0E8E
:10111800DF6FE06FE16FE26FE36FE46FDD51785DE1
:10112800DE517959DF517A59E0517B59E1517C59A7
:10113800E2517D59E3517E59E4517F59D8A0A7EF78
:1011480008F0A9EF08F0B3EF08F0010EF26F060EF1
:10115800F66F20EE78F0070EDE6AE806FDE28951A8
:10116800D8B4B9EF08F0BBEF08F0F5EF08F0010EBE
:101178007027000E7123722373237423752376233B
:1011880077238D51640DF3CFDDF0F4CFDEF0000E40
:10119800DEBFFF0EDF6FE06FE16FE26FE36FE46FBA
:1011A800DD51705DDE517159DF517259E05173594B
:1011B800E1517459E2517559E3517659E45177591F
:1011C800D8A0E9EF08F0EBEF08F0F5EF08F0010E12
:1011D800F26F070EF66F20EE70F0070EDE6AE80673
:1011E800FDE28A51D8A4FBEF08F0FDEF08F009EF03
:1011F80009F08951D8A403EF09F005EF09F009EFC8
:1012080009F0010EF26F080EF66F010E6027000E4E
:101218006123622363236423652366236723A2EF84
:101228000AF0F251D8B41BEF09F01DEF09F040EFB6
:1012380009F000EC15F0010E046E010E80EC13F0BD
:10124800120E056E080E066E8BEC12F0040E046E7C
:10125800020E80EC13F0A10E056E080E066E8BECE4
:1012680012F0000E0001F26F905146EC13F0010EDF
:1012780000018B6F000E886F8951D8B446EF09F0D2
:1012880048EF09F052EF09F0010E7027000E7123A4
:101298007223732374237523762377238B51D8B451
:1012A80058EF09F05AEF09F05CEF09F0010E8C6F66
:1012B800640E8819D8A463EF09F065EF09F073EF9D
:1012C80009F08751D8B46BEF09F06DEF09F073EFAF
:1012D80009F0050EF66F010EF26F000E876FF451DC
:1012E800F319D8B47AEF09F07CEF09F0A3EF09F00D
:1012F800410EF419D8A483EF09F085EF09F091EFB6
:1013080009F0000E8C6F8994ED2BEDC0EFF0010E03
:10131800876F000E8A6F000E886F430EF419D8A4E9
:1013280098EF09F09AEF09F0A1EF09F0000E8B6F22
:10133800000E8C6F89946E0EF46FF4C0F3F0882B56
:10134800A2EF0AF0F251D8B4ACEF09F0AEEF09F011
:10135800D1EF09F000EC15F0010E046E010E80ECDF
:1013680013F0010E056E080E066E8BEC12F0040EDB
:10137800046E020E80EC13F0A10E056E080E066EC8
:101388008BEC12F0000E0001F26F8F5146EC13F057
:10139800010E00018B6F000E886F8A51D8B4D7EF09
:1013A80009F0D9EF09F0E3EF09F0010E7827000EF4
:1013B80079237A237B237C237D237E237F238B51F0
:1013C800D8B4E9EF09F0EBEF09F0EDEF09F0010E01
:1013D8008C6F640E8819D8A4F4EF09F0F6EF09F0C1
:1013E80004EF0AF08751D8B4FCEF09F0FEEF09F0DA
:1013F80004EF0AF0050EF66F010EF26F000E876F0C
:10140800F451F319D8B40BEF0AF00DEF0AF0A3EF7B
:1014180009F0420EF419D8A414EF0AF016EF0AF0F6
:1014280022EF0AF0000E8C6F8994ED2BEDC0EFF0DF
:10143800010E876F000E896F000E886F430EF41936
:10144800D8A429EF0AF02BEF0AF0A1EF09F0000E5B
:101458008B6F000E8C6F89946E0EF46FA1EF09F0FC
:10146800F251D8B43AEF0AF03CEF0AF057EF0AF01D
:1014780000EC15F0010E046E010E80EC13F0420E24
:10148800056E080E066E8BEC12F0040E046E020E4A
:1014980080EC13F0900E056E080E066E8BEC12F0C1
:1014A800000E0001F26F010E8C6FF451F319D8B4DD
:1014B80060EF0AF062EF0AF0A2EF0AF0430EF419A7
:1014C800D8A469EF0AF06BEF0AF092EF04F0010E6E
:1014D800F66F000E8C6F8994010EF26F92EF04F094
:1014E80059500001DD6FDE6BDE51000AD8B47FEF82
:1014F8000AF0A2EF0AF0DD51010AD8B457EF04F060
:10150800030AD8B496EF04F0010AD8B4C2EF05F084
:10151800070AD8B402EF06F0010AD8B428EF07F09A
:10152800030AD8B415EF09F0010AD8B4A6EF09F0F8
:101538000F0AD8B434EF0AF0A2EF0AF01200116EC5
:101548001150D8B4AAEF0AF0ACEF0AF0E6EF0AF0AF
:1015580008BEB3EF0AF0B1EF0AF0E6EF0AF001C0F7
:1015680009F002C00AF003C00BF004C00CF005C07B
:101578000DF006C00EF007C00FF008C010F0091EED
:101588000A1E0B1E0C1E0D1E0E1E0F1E101E092AF3
:10159800000E0A220B220C220D220E220F221022EC
:1015A80009C013F00AC014F00BC015F00CC016F0F7
:1015B8000DC017F00EC018F00FC019F010C01AF0C7
:1015C800F6EF0AF001C013F002C014F003C015F0E2
:1015D80004C016F005C017F006C018F007C019F0CF
:1015E80008C01AF00150021003100410051006106C
:1015F80007100810D8A403EF0BF005EF0BF00FEF5E
:101608000BF0000E016E000E026E000E036E000E4F
:10161800046EF7EF0BF0960E126E1DEF0BF0122A08
:10162800D8901A321932183217321632153214324B
:10163800133220EE13F0000EDE14096E000EDE14D5
:101648000A6E000EDE140B6EFE0EDE140C6EFF0E1C
:10165800DE140D6EFF0EDE140E6EFF0EDE140F6E1E
:10166800FF0EDE14106E09500A100B100C100D102E
:101678000E100F101010D8A444EF0BF046EF0BF02B
:1016880013EF0BF05CEF0BF0122A010E1326000E7D
:101698001422152216221722182219221A22D8904B
:1016A8001A321932183217321632153214321332EE
:1016B80020EE13F0000EDE14096E000EDE140A6E22
:1016C800000EDE140B6EFF0EDE140C6EFF0EDE1421
:1016D8000D6EFF0EDE140E6EFF0EDE140F6EFF0E83
:1016E800DE14106E09500A100B100C100D100E109D
:1016F8000F101010D8A483EF0BF085EF0BF048EF14
:101708000BF091EF0BF01206D890133614361536FD
:1017180016361736183619361A3615BE96EF0BF0E8
:1017280098EF0BF0A0EF0BF0020E12609EEF0BF09B
:10173800A0EF0BF087EF0BF012B0A5EF0BF0A7EFBF
:101748000BF0B7EF0BF0FF0E1316FF0E14167F0EFB
:101758001516FF0E1616FF0E1716FF0E1816FF0E9B
:101768001916FF0E1A16D890123212C009F00A6A1A
:101778000B6A0C6A0D6A0E6A0F6A106A0DC010F0C7
:101788000CC00FF00BC00EF00AC00DF009C00CF031
:101798000B6A0A6A096A095013120A5014120B508C
:1017A80015120C5016120D5017120E5018120F5019
:1017B800191210501A121150D8B4E5EF0BF0E7EFD8
:1017C8000BF0EFEF0BF008BEEEEF0BF0ECEF0BF0C9
:1017D800EFEF0BF0168E13C001F014C002F015C025
:1017E80003F016C004F012001EC034F01FC035F01C
:1017F80020C036F021C037F022C038F023C039F0BD
:1018080024C03AF025C03BF03BBE0DEF0CF010EFC2
:101818000CF0010E11EF0CF0000E3E6E3E50D8B4E5
:1018280018EF0CF01AEF0CF02AEF0CF03B1E3A1EE2
:10183800391E381E371E361E351E346C000E3522F2
:1018480036223722382239223A223B22000183BF2E
:1018580038EF0CF0835106E18205D8B036EF0CF072
:1018680038EF0CF03EEF0CF0000E316E010E306ECA
:1018780042EF0CF082C030F083C031F080C032F00B
:1018880081C033F03E50D8B44CEF0CF04EEF0CF062
:1018980065EF0CF03206D8A033063E50D8A457EFB7
:1018A8000CF059EF0CF05FEF0CF0000E2F6E2B0EC2
:1018B8002E6E63EF0CF0000E2F6E2D0E2E6E2EC0C6
:1018C8003EF0000E3D6E1F0E3C6E000EB36FE9EF4A
:1018D8000CF03C06D8A03D06940E3C24D96E000EB0
:1018E8003D20DA6E34C001F035C002F036C003F096
:1018F80037C004F038C005F039C006F03AC007F028
:101908003BC008F00A0E096E000E0A6E000E0B6E40
:10191800000E0C6E000E0D6E000E0E6E000E0F6E99
:10192800000E106E0EEC0FF001C026F002C027F07A
:1019380003C028F004C029F005C02AF006C02BF027
:1019480007C02CF008C02DF026C013F027C014F0F3
:1019580053EC14F01350300FDF6E3006D8A0310668
:101968003206D8A0330634C001F035C002F036C0C4
:1019780003F037C004F038C005F039C006F03AC0AB
:1019880007F03BC008F00A0E096E000E0A6E000E42
:101998000B6E000E0C6E000E0D6E000E0E6E000E1D
:1019A8000F6E000E106E4AEC0EF001C034F002C04B
:1019B80035F003C036F004C037F005C038F006C073
:1019C80039F007C03AF008C03BF03DBEF4EF0CF028
:1019D8003D5008E13C04D8A0F4EF0CF0F6EF0CF011
:1019E80012EF0DF03450351036103710381039100A
:1019F8003A103B10D8A403EF0DF005EF0DF06DEF92
:101A08000CF031BE12EF0DF0315006E13004D8B0C1
:101A180010EF0DF012EF0DF06DEF0CF03E50D8B452
:101A280018EF0DF01AEF0DF025EF0DF03C06D8A0D9
:101A38003D06940E3C24D96E000E3D20DA6E3EC061
:101A4800DFFF1CC011F01DC012F0940E3C24136E71
:101A5800000E3D20146E32C015F033C016F009ECAC
:101A680013F01200010E0001F66F720ED36E000E15
:101A7800956E936894849296929C92909292929882
:101A8800929A9294839ACAEC12F0040E046E010E94
:101A980080EC13F0090E056E080E066E8BEC12F042
:101AA800040E046E020E80EC13F09B0E056E080EF9
:101AB800066E8BEC12F00B0E5B6E260E5A6E5E0EE7
:101AC800E82EFED75A2EFCD75B2EFAD7898089825A
:101AD8008988898AE7EC14F0BEEC14F0F28E5E5027
:101AE800D8B479EF0DF07BEF0DF085EF0DF0000124
:101AF800F65154EC04F0F4EC14F00001866F000E7B
:101B08005E6E0001F551D8B48CEF0DF08EEF0DF03C
:101B1800B7EF0DF0000E5C6E81A095EF0DF097EF1A
:101B28000DF098EF0DF05C8081A29DEF0DF09FEF16
:101B38000DF0A0EF0DF05C8281A4A5EF0DF0A7EFEA
:101B48000DF0A8EF0DF05C8481A6ADEF0DF0AFEFBE
:101B58000DF0B0EF0DF05C86000EF56F5C5067EC91
:101B680010F00001F46F9251D8B4BDEF0DF0BFEF43
:101B78000DF0C1EF0DF0000E926F8C51D8B4C7EF85
:101B88000DF0C9EF0DF073EF0DF0010E6827000E90
:101B980069236A236B236C236D236E236F236805E7
:101BA80069116A116B116C116D116E116F11D8A446
:101BB800E0EF0DF0E2EF0DF0E3EF0DF0899468C06F
:101BC80001F069C002F06AC003F06BC004F06CC099
:101BD80005F06DC006F06EC007F06FC008F0000E8B
:101BE800A3EC0AF001C01BF002C01CF003C01DF0FA
:101BF80004C01EF0000E1F6E000E206E480E216EEF
:101C0800420E226E36EC12F0D8A00DEF0EF00FEF58
:101C18000EF010EF0EF0898468C001F069C002F080
:101C28006AC003F06BC004F06CC005F06DC006F02C
:101C38006EC007F06FC008F0000EA3EC0AF001C0F8
:101C48001BF002C01CF003C01DF004C01EF0000E03
:101C58001F6E000E206EC80E216E420E226E36ECEC
:101C680012F0D8A03AEF0EF03CEF0EF073EF0DF043
:101C7800899420EE68F0070EDE6AE806FDE2000EA1
:101C880000018C6F73EF0DF007EF00F0000E126E7D
:101C980010BE53EF0EF051EF0EF065EF0EF0101E70
:101CA8000F1E0E1E0D1E0C1E0B1E0A1E096C000EAA
:101CB8000A220B220C220D220E220F221022010EC4
:101CC800126E08BE6CEF0EF06AEF0EF07EEF0EF0AB
:101CD800081E071E061E051E041E031E021E016C9A
:101CE800000E0222032204220522062207220822CD
:101CF800010E121A20EE13F0070EDE6AE806FDE266
:101D080009500A100B100C100D100E100F101010A7
:101D1800D8B491EF0EF093EF0EF0E5EF0EF0010E50
:101D2800116EA1EF0EF0D89009360A360B360C3634
:101D38000D360E360F361036112A10AEA6EF0EF0FD
:101D4800A8EF0EF097EF0EF0D8901336143615362C
:101D580016361736183619361A360950015C0A50E5
:101D680002580B5003580C5004580D5005580E508B
:101D780006580F50075810500858D8A0C6EF0EF054
:101D8800C8EF0EF0D9EF0EF00950015E0A50025A62
:101D98000B50035A0C50045A0D50055A0E50065A4F
:101DA8000F50075A1050085A1380D89010320F322B
:101DB8000E320D320C320B320A320932112EA8EFD4
:101DC8000EF01250D8B4EBEF0EF0EDEF0EF0FDEF81
:101DD8000EF01A1E191E181E171E161E151E141E8A
:101DE800136C000E1422152216221722182219220B
:101DF8001A2213C001F014C002F015C003F016C077
:101E080004F017C005F018C006F019C007F01AC092
:101E180008F01200000E126E08BE17EF0FF015EF53
:101E28000FF029EF0FF0081E071E061E051E041EE0
:101E3800031E021E016C000E022203220422052248
:101E4800062207220822010E126E10BE30EF0FF094
:101E58002EEF0FF040EF0FF0101E0F1E0E1E0D1E7E
:101E68000C1E0B1E0A1E096C000E0A220B220C22E5
:101E78000D220E220F22102209500A100B100C10EE
:101E88000D100E100F101010D8B44DEF0FF04FEFCB
:101E98000FF097EF0FF0010E116E5DEF0FF0D89075
:101EA80009360A360B360C360D360E360F36103616
:101EB800112A10AE62EF0FF064EF0FF053EF0FF03E
:101EC8000950015C0A5002580B5003580C50045832
:101ED8000D5005580E5006580F5007581050085806
:101EE800D8A079EF0FF07BEF0FF08BEF0FF00950D0
:101EF800015E0A50025A0B50035A0C50045A0D50F6
:101F0800055A0E50065A0F50075A1050085AD890C2
:101F180010320F320E320D320C320B320A320932C5
:101F2800112E64EF0FF01250D8B49DEF0FF09FEF11
:101F38000FF0AFEF0FF0081E071E061E051E041E49
:101F4800031E021E016C000E022203220422052237
:101F580006220722082201C001F002C002F003C0D5
:101F680003F004C004F005C005F006C006F007C081
:101F780007F008C008F0120041C0D9FF42C0DAFFDC
:101F8800DECFF6FFDDCFF7FF0800F550250AD8A40D
:101F9800D0EF0FF0D2EF0FF052EF10F041C0D9FFA1
:101FA80042C0DAFFDE2A000EDD22000E0001816F3A
:101FB800000E806F80C084F08269836941C0D9FFB8
:101FC80042C0DAFFDECF4FF0DDCF50F04FC0F6FF52
:101FD80050C0F7FF0800F550640AD8B4F6EF0FF0C8
:101FE800F8EF0FF006EF10F04FC0F6FF50C0F7FF04
:101FF8000800F550690AD8A404EF10F006EF10F0B5
:1020080049EF10F043C0D9FF44C0DAFFDFCF45F0F5
:10201800020EDE26DFCF46F0000EDD2245C0D9FFD6
:1020280046C0DAFFDECF47F0DDCF48F0000E48BEED
:10203800FF0E496E4A6E4B6E4C6E4D6E4E6E010E23
:102048004F24456E000E5020466E41C0D9FF42C055
:10205800DAFF45C0DEFF46C0DDFF3FC01CF040C0D0
:102068001DF047C01EF048C01FF049C020F04AC00C
:1020780021F04BC022F04CC023F04DC024F04EC0DC
:1020880025F0F8EC0BF066EF10F041C0D9FF42C024
:10209800DAFFDE2A000EDD2266EF10F041C0D9FF1C
:1020A80042C0DAFFDECFF6FFDDCFF7FF0800F550BC
:1020B800016E026A3FC003F040C004F073EC11F0F7
:1020C80049EF10F01200036E6E0E046EACEF10F0C4
:1020D800010E046EF9EF10F0020E046EF9EF10F025
:1020E800030E046EF9EF10F0410E046EF9EF10F0D4
:1020F800040E046EF9EF10F0050E046EF9EF10F0FF
:10210800060E046EF9EF10F0420E046EF9EF10F0AF
:10211800070E046EF9EF10F0080E046EF9EF10F0D8
:10212800090E046EF9EF10F0430E046EF9EF10F08B
:102138002A0E046EF9EF10F0000E046EF9EF10F09D
:10214800230E046EF9EF10F0440E046EF9EF10F050
:102158000350016E026A0250000AD8B4B6EF10F0BC
:10216800F9EF10F00150000AD8B46CEF10F0010A32
:10217800D8B470EF10F0030AD8B474EF10F0010A65
:10218800D8B478EF10F0070AD8B47CEF10F0010A41
:10219800D8B480EF10F0030AD8B484EF10F0010A25
:1021A800D8B488EF10F00F0AD8B48CEF10F0010AF9
:1021B800D8B490EF10F0030AD8B494EF10F0010AE5
:1021C800D8B498EF10F0070AD8B49CEF10F0010AC1
:1021D800D8B4A0EF10F0030AD8B4A4EF10F0010AA5
:1021E800D8B4A8EF10F0F9EF10F00450120020EE68
:1021F80011F0070EDE6AE806FDE209500A100B101E
:102208000C100D100E100F101010D8B40EEF11F0A6
:1022180010EF11F062EF11F0010E196E1EEF11F0C0
:10222800D89009360A360B360C360D360E360F3670
:102238001036192A10AE23EF11F025EF11F014EF24
:1022480011F0D89011361236133614361536163664
:10225800173618360950015C0A5002580B500358BB
:102268000C5004580D5005580E5006580F5007587A
:1022780010500858D8A043EF11F045EF11F056EF71
:1022880011F00950015E0A50025A0B50035A0C50C3
:10229800045A0D50055A0E50065A0F50075A10503E
:1022A800085A1180D89010320F320E320D320C328B
:1022B8000B320A320932192E25EF11F011C001F044
:1022C80012C002F013C003F014C004F015C005F0EA
:1022D80016C006F017C007F018C008F01200035027
:1022E8000410D8B47AEF11F07CEF11F085EF11F0FB
:1022F80003500410D8A483EF11F085EF11F08AEF92
:1023080011F001500CEC15F0D7EF11F020EE09F0A8
:102318000350D9260450DA22DE50DE10D8B497EFE5
:1023280011F099EF11F0B4EF11F020EE09F003501D
:10233800D9260450DA2210EE03F00350E1260450A7
:10234800E222DE50E65CE650800A096EDE50800A22
:102358000958D8B0B2EF11F0B4EF11F0D7EF11F07F
:1023680020EE03F00350D9260450DA22DECF05F020
:10237800DDCF06F003C0D9FF04C0DAFFDECF07F0D7
:10238800DDCF08F005500724D96E06500820DA6E14
:1023980001C0DFFF20EE03F00350D9260450DA22F3
:1023A800DE2A000EDD2212000600F2A4DEEF11F094
:1023B800E0EF11F0E5EF11F0010E5E6E640ED66EDF
:1023C800F294F2A0EAEF11F0ECEF11F0F7EF11F050
:1023D80081AAF1EF11F0F3EF11F0F6EF11F0010E11
:1023E8000001F56FF2909EA0FCEF11F0FEEF11F0E6
:1023F80034EF12F05D2A5D04D8A405EF12F007EF60
:1024080012F00DEF12F08986898CEFC0F1F0EEC062
:10241800F0F00001F1515D18D8A415EF12F017EF94
:1024280012F018EF12F08996F0515D18D8A41FEF3A
:1024380012F021EF12F022EF12F0899C500E5D1875
:10244800D8A429EF12F02BEF12F02DEF12F0000EA6
:102458005D6EFE0ECF6E160ECE6E010E926F9E90C2
:102468005F921100000E1B14236E000E1C14246EC4
:10247800800E1D14256E7F0E1E14266E2350241008
:1024880025102610D8A44BEF12F04DEF12F055EF9F
:1024980012F0000E1B6E000E1C6E000E1D6E000E5C
:1024A8001E6E000E1F14236E000E2014246E800E64
:1024B8002114256E7F0E2214266E23502410251019
:1024C8002610D8A46AEF12F06CEF12F074EF12F035
:1024D800000E1F6E000E206E000E216E000E226E82
:1024E8001F501B180FE120501C180CE121501D181B
:1024F80009E122501E18D8B484EF12F086EF12F0CA
:1025080089EF12F0D8908AEF12F0D8801200000EEE
:102518000A6E000E096EABEF12F009500524076E23
:102528000A500620086E07C0F6FF08C0F7FFF86AD1
:10253800070EF76403D00800F55005D0F6CFE1FF89
:10254800F7CFE2FFE75092EC14F0094A0A2A095043
:102558000524076E0A500620086E07C0F6FF08C05B
:10256800F7FFF86A070EF76403D00800F55005D0A6
:10257800F6CFE1FFF7CFE2FFE7500009D8A4C7EF95
:1025880012F0C9EF12F091EF12F01200839A000EC8
:10259800B3EC13F0030E056E080E046E770EE82EEA
:1025A800FED7042EFCD7052EFAD700F0030EAEECAA
:1025B80014F0270E046EF50EE82EFED7042EFCD775
:1025C80000F0030EAEEC14F0270E046EF50EE82EA4
:1025D800FED7042EFCD700F0030EAEEC14F0020E6A
:1025E800AEEC14F0020EAEEC14F0080EAEEC14F0E3
:1025F800000EAEEC14F00C0EAEEC14F0000EAEECC7
:1026080014F0060EAEEC14F0120016BE0EEF13F026
:1026180010EF13F016EF13F015C01AF016C01BF0E8
:102628001AEF13F0000E1B6E000E1A6E000E196ED4
:10263800000E186E2CEF13F0000E026E200E016EC5
:1026480011C003F012C004F073EC11F0184A192AF3
:102658001A50185C1950800A176E1B50800A1758B8
:10266800D8A039EF13F03BEF13F020EF13F013C0AD
:102678000AF014C00BF011C00CF012C00DF031ECD0
:1026880014F01200036E62EF13F089808982898842
:102698007FEF13F08990898289887FEF13F0899002
:1026A800899289887FEF13F08990899289987FEFC2
:1026B80013F08980898289887FEF13F00350016EB7
:1026C800026A0250000AD8B46CEF13F05DEF13F001
:1026D8000150000AD8B449EF13F0010AD8B44EEFFC
:1026E80013F0030AD8B453EF13F0010AD8B458EF23
:1026F80013F05DEF13F01200056E0504D8A487EF00
:1027080013F089EF13F09AEF13F004507F0F086E5F
:1027180008380F0B066E08500F0B076E0650AEEC0C
:1027280014F00750AEEC14F0B2EF13F0020E0518D7
:10273800D8A4A1EF13F0A3EF13F0B2EF13F00450F5
:10274800BF0F086E08380F0B066E08500F0B076E88
:102758000650AEEC14F00750AEEC14F01200016E07
:1027680001A0B9EF13F0BBEF13F0BEEF13F08380B5
:10277800BFEF13F0839001A2C4EF13F0C6EF13F07C
:10278800C9EF13F08382CAEF13F0839201A4CFEF4D
:1027980013F0D1EF13F0D4EF13F08384D5EF13F0D7
:1027A800839401A6DAEF13F0DCEF13F0DFEF13F0F8
:1027B8008386E0EF13F083961200CC0E0001D06FF1
:1027C800000ED16FC8C0D2F0C9C0D3F0000ED66FCA
:1027D800000ED56F000EDC6F000EDB6FD20E516E4F
:1027E800000E526ECAC053F0CBC054F0D00E556ED6
:1027F800000E566E0AEC14F00001D551C825D96EAA
:10280800D651C921DA6E000EDF6E120053C057F0A0
:1028180054C058F01EEF14F051C03FF052C040F0C1
:10282800570E416E000E426E55C043F056C044F03C
:10283800C0EC0FF057C0F6FF58C0F7FF0800F5507E
:102848000009D8A42AEF14F02CEF14F010EF14F0BC
:10285800000E526E000E516E1200000E106E000E29
:102868000F6E42EF14F00EC001F0026A0CC003F0C4
:102878000DC004F073EC11F00F4A102A0F500A240F
:10288800D96E10500B20DA6EDF500E6E0E50D8A4A1
:1028980050EF14F052EF14F037EF14F0120014BE9A
:1028A80060EF14F0145006E11304D8B05EEF14F092
:1028B80060EF14F06EEF14F013C015F014C016F0AA
:1028C800151E161E154A162A15C013F016C014F048
:1028D80072EF14F013C013F014C014F012000E0EAF
:1028E800F66E2A0EF76E000EF86E00EEEDF010EEA2
:1028F80009F00900F5CFEEFFE550E150FAE100EEEE
:1029080060F0680EEE6AE806FDE15E6A5D6A5F9057
:102918005F92000EF86E000136EF0DF0046E045061
:102928000F0B026E0450F00B036E838C03380F0BF1
:10293800B3EC13F083881A0EE82EFED700D08398E4
:102948000250B3EC13F083881A0EE82EFED700D09D
:1029580083981200036E839C0350B3EC13F08388B2
:102968000B0E026E620EE82EFED7022EFCD700D0A8
:1029780083981200CD8ECD9CCD92CF0ECD16CD96DC
:10298800FE0ECF6E160ECE6EF28C9D809E90CD8080
:102998001200000EAEEC14F00E0EAEEC14F0000EA9
:1029A800AEEC14F00F0EAEEC14F01200000EAEEC0C
:1029B80014F00A0EAEEC14F0000EAEEC14F00C0E8F
:1029C800AEEC14F01200D58CD59AD596D550F80BEC
:1029D8000609D56E640ED66EF28AF294D58E120070
:1029E80082A4F9EF14F0FBEF14F0FEEF14F0010EDF
:1029F800FFEF14F0000E1200000EAEEC14F0010E02
:0F2A0800AEEC14F012000404040404016E6E011D
:022A18001200AA
:020000040020DA
:08000000FFFFFFFFFFFFFFFF00
:020000040030CA
:0E00000000081F1EFF8185FF0FC00FE00F409C
:00000001FF
