:0400000080315C28C7
:100008007E1480310B1F09280A285A282100111D47
:100018000E280F2816282000111D1328142816282A
:1000280011115A282100911D1A281B282228200066
:10003800911D1F282028222891115A282100121DBD
:100048002628272833282000121D2B282C2833285F
:1000580022004D088A004C080A0080315A282100E5
:10006800921D372838283E282000921D3C283D281C
:100078003E282C282100141C422843284C28200004
:10008800141C472848284C28A331732380315A2848
:100098002100901E502851285A282000901E5528CB
:1000A80056285A288731AB2780315A287E100900F4
:1000B80080315E28C3308400A33085005330860029
:1000C800013087001730A231842280318A308400C1
:1000D800A2308500E0308600013087000630A2316A
:1000E8008422803165308400003085000730A231D9
:1000F8007E2280313C308400013085001730A231E7
:100108007E228031A0308400013085004030A23149
:100118007E22803120308400023085002430A231D4
:100128007E2280317E1020008831222822003F085C
:100138002100AB0022003E082100AA0022003D0851
:100148002100A90022003C082100A8002200620822
:100158002100AF00220061082100AE0022006008E3
:100168002100AD0022005F082100AC009831D720A3
:1001780080310318C028C128C4282200C001C10149
:1001880022003F08AB003E08AA003D08A9003C0831
:10019800A800A7317E278031220029082100EF001E
:1001A800220028082100EE001030A0000030A10035
:1001B8006F08A3006E08A200A531E4258031210054
:1001C80020082300A0000F3021006E05EC0000304D
:1001D8006F05ED0022003F082100C90022003E08FB
:1001E8002100C80022003D082100C70022003C0869
:1001F8002100C6006E08A0006F08A100890D893B88
:100208008909A200A30001309B31322380312100EB
:100218002308C5002208C4002108C3002008C20022
:1002280088310220803121004508EB004408EA00AB
:100238004308E9004208E8006B08B5006A08B40002
:100248006908B3006808B2006C08A0006D08A10036
:10025800890D893B8909A200A30001309B31322313
:10026800803121002308B1002208B0002108AF0026
:100278002008AE009531F825803121003108220090
:10028800A700210030082200A60021002F08220024
:10029800A50021002E082200A4004130A3008030D0
:1002A800A2000030A1000030A00085313A2580313D
:1002B80022002308AB002208AA002108A900200870
:1002C800A800A7317E278031220028082300A1003A
:1002D800220041082300A200220040082300A300B6
:1002E80059082200AB00230058082200AA00230066
:1002F80057082200A900230056082200A800A731A9
:100308007E278031220029082100EF0022002808DA
:100318002100EE001030A0000030A1006F08A300FB
:100328006E08A200A531E4258031210020082300B1
:10033800A4000F3021006E05EC0000306F05ED00C1
:10034800230059082100C900230058082100C800CB
:10035800230057082100C700230056082100C600C3
:100368006E08A0006F08A100890D893B8909A200C9
:10037800A30001309B313223803121002308C500BE
:100388002208C4002108C3002008C20088310220C6
:10039800803121004508EB004408EA004308E900E1
:1003A8004208E8006B08B5006A08B4006908B300A1
:1003B8006808B2006C08A0006D08A100890D893B8F
:1003C8008909A200A30001309B313223803121002A
:1003D8002308B1002208B0002108AF002008AE00B1
:1003E8009531F8258031210031082200A70021002D
:1003F80030082200A60021002F082200A5002100B5
:100408002E082200A4004130A3008030A200003052
:10041800A1000030A00085313A2580312200230850
:10042800AB002208AA002108A9002008A800A731CB
:100438007E278031220028082300A5005D082200BD
:10044800AB0023005C082200AA0023005B082200FE
:10045800A90023005A082200A800A7317E2780316E
:10046800220029082100EF00220028082100EE00C0
:100478001030A0000030A1006F08A3006E08A20091
:10048800A531E4258031210020082300A6000F3083
:1004980021006E05EC0000306F05ED0023005D08BB
:1004A8002100C90023005C082100C80023005B0864
:1004B8002100C70023005A082100C6006E08A000CA
:1004C8006F08A100890D893B8909A200A3000130AA
:1004D8009B313223803121002308C5002208C40043
:1004E8002108C3002008C200883102208031210081
:1004F8004508EB004408EA004308E9004208E80020
:100508006B08B5006A08B4006908B3006808B2004F
:100518006C08A0006D08A100890D893B8909A2001B
:10052800A30001309B313223803121002308B10020
:100538002208B0002108AF002008AE009531F82548
:100548008031210031082200A70021003008220054
:10055800A60021002F082200A50021002E08220055
:10056800A4004130A3008030A2000030A100003078
:10057800A00085313A25803122002308AB002208EB
:10058800AA002108A9002008A800A7317E278031E9
:10059800220028082300A70022005E08AB005D089F
:1005A800AA005C08A9005B08A800A7317E27803153
:1005B800220029082100EF00220028082100EE006F
:1005C8001030A0000030A1006F08A3006E08A20040
:1005D800A531E4258031210020082300A8000F3030
:1005E80021006E05EC0000306F05ED0022005E086A
:1005F8002100C90022005D082100C80022005C0813
:100608002100C70022005B082100C6006E08A00078
:100618006F08A100890D893B8909A200A300013058
:100628009B313223803121002308C5002208C400F1
:100638002108C3002008C20088310220803121002F
:100648004508EB004408EA004308E9004208E800CE
:100658006B08B5006A08B4006908B3006808B200FE
:100668006C08A0006D08A100890D893B8909A200CA
:10067800A30001309B313223803121002308B100CF
:100688002208B0002108AF002008AE009531F825F7
:100698008031210031082200A70021003008220003
:1006A800A60021002F082200A50021002E08220004
:1006B800A4004130A3008030A2000030A100003027
:1006C800A00085313A25803122002308AB0022089A
:1006D800AA002108A9002008A800A7317E27803198
:1006E800220028082300A90022005A08AB00590854
:1006F800AA005808A9005708A800A7317E2780310A
:10070800220029082100EF00220028082100EE001D
:100718001030A0000030A1006F08A3006E08A200EE
:10072800A531E4258031210020082300AA000F30DC
:1007380021006E05EC0000306F05ED0022005A081C
:100748002100C900220059082100C80022005808C9
:100758002100C700220057082100C6006E08A0002B
:100768006F08A100890D893B8909A200A300013007
:100778009B313223803121002308C5002208C400A0
:100788002108C3002008C2008831022080312100DE
:100798004508EB004408EA004308E9004208E8007D
:1007A8006B08B5006A08B4006908B3006808B200AD
:1007B8006C08A0006D08A100890D893B8909A20079
:1007C800A30001309B313223803121002308B1007E
:1007D8002208B0002108AF002008AE009531F825A6
:1007E8008031210031082200A700210030082200B2
:1007F800A60021002F082200A50021002E082200B3
:10080800A4004130A3008030A2000030A1000030D5
:10081800A00085313A25803122002308AB00220848
:10082800AA002108A9002008A800A7317E27803146
:10083800220028082300AB00220056082100E60009
:10084800220055082100E500220054082100E40098
:10085800220053082100E3006608AB006508AA00DF
:100868006408A9006308A8000030AF000030AE009B
:100878000030AD000030AC009831D720803103182B
:10088800462C472C632C220056082100A300220086
:1008980055082100A200220054082100A1002200CE
:1008A80053082100A000A331192380312100230817
:1008B800E6002208E5002108E4002008E300210002
:1008C80066082200AB00210065082200AA0021006A
:1008D80064082200A900210063082200A800A731AB
:1008E8007E278031220029082100EF0022002808F5
:1008F8002100EE001030A0000030A1006F08A30016
:100908006E08A200A531E4258031210020082300CB
:10091800AC000F3021006E05EC0000306F05ED00D3
:100928006608C9006508C8006408C7006308C600EF
:100938006E08A0006F08A100890D893B8909A200F3
:10094800A30001309B313223803121002308C500E8
:100958002208C4002108C3002008C20088310220F0
:10096800803121004508EB004408EA004308E9000B
:100978004208E8006B08B5006A08B4006908B300CB
:100988006808B2006C08A0006D08A100890D893BB9
:100998008909A200A30001309B3132238031210054
:1009A8002308B1002208B0002108AF002008AE00DB
:1009B8009531F8258031210031082200A700210057
:1009C80030082200A60021002F082200A5002100DF
:1009D8002E082200A4004130A3008030A20000307D
:1009E800A1000030A00085313A258031220023087B
:1009F800AB002208AA002108A9002008A800A731F6
:100A08007E278031220028082300AD0022006508D7
:100A18002300AE00AF01210822062306240625067E
:100A280026062706280629062A062B062C062D0642
:100A38002E062006B00021009211E7016708B23E99
:100A48008600013087006708A03E840001308500D9
:100A5800000881000130E2006208E70711306702F0
:100A6800031C372D382D222D92150800220023084B
:100A780080392100CF00220023352100D100220037
:100A8800A21F472D482D4A2D21005114210051083D
:100A980003194F2D502D612D510A031D542D552D2D
:100AA8005E2D00302200A3000030A2000030A1001B
:100AB8000030A0002200A2176A2D00302200A300F7
:100AC8000030A2000030A1000030A00027088039C3
:100AD8002100CA004A08CF06220027352100D0008D
:100AE8002200A61F782D792D7B2D2100501421007E
:100AF80050080319802D812D922D500A031D852D34
:100B0800862D8F2D00302200A7000030A60000306F
:100B1800A5000030A4002200A6179B2D003022005B
:100B2800A7000030A6000030A5000030A400210076
:100B380050080319A02DA12DA62D5108031DA52D80
:100B4800A62DB02D00302200A3000030A2000030F6
:100B5800A1000030A000AA2F220020082100A00038
:100B680022002608A4312D24853121002108DB002C
:100B78002008DA005A08CA00CB01CC01CD014D0883
:100B8800D5004C08D4004B08D3004A08D2005B08B3
:100B9800CA00CB01CC01CD014D08D9004C08D800C2
:100BA8004B08D7004A08D600220021082100A000DF
:100BB80022002508A4312D24853121002108DB00DD
:100BC8002008DA005A08CA00CB01CC01CD014A0836
:100BD800D2074B08D33D4C08D43D4D08D53D5B08A2
:100BE800CA00CB01CC01CD014A08D6074B08D73D36
:100BF8004C08D83D4D08D93D220022082100A0000C
:100C080022002408A4312D24853121002108DB008D
:100C18002008DA005A08CA00CB01CC01CD014A08E5
:100C2800D2074B08D33D4C08D43D4D08D53D5B0851
:100C3800CA00CB01CC01CD014A08D6074B08D73DE5
:100C48004C08D83D4D08D93D0830D235D30DD40DC8
:100C5800D50D890B292E220021082100A000220091
:100C68002408A4312D24853121002108DB00200827
:100C7800DA005A08D2075B08D33D0030D43DD53D91
:100C8800220020082100A00022002508A4312D24DC
:100C9800853121002108DB002008DA005A08D20734
:100CA8005B08D33D0030D43DD53D0830D235D30D57
:100CB800D40DD50D890B5A2E220020082100A00042
:100CC80022002408A4312D24853121002108DB00CD
:100CD8002008DA005A08D2075B08D33D0030D43D1B
:100CE800D53D220021082100A00022002608A431B9
:100CF8002D24853121002108DB002008DA005A085C
:100D0800D6075B08D73D0030D83DD93D22002208E0
:100D18002100A00022002508A4312D2485312100BE
:100D28002108DB002008DA005A08D6075B08D73DFF
:100D38000030D83DD93D220022082100A000220021
:100D48002608A4312D24853121002108DB00200844
:100D5800DA005A08CA005B08CB00CC01CD01083084
:100D6800CA35CB0DCC0DCD0D890BB42E4A08D6074C
:100D78004B08D73D4C08D83D4D08D93D5208CA000C
:100D88005308CB005408CC005508CD001830CD3698
:100D9800CC0CCB0CCA0C890BCB2E4A08D6074B08B7
:100DA800D73D4C08D83D4D08D93D0830D235D30D34
:100DB800D40DD50D890BDA2E51085007CA00CB0186
:100DC800CB0D4A08823EDA00FF304B3DDB00032F93
:100DD8000130D635D70DD80DD90D890BED2ED51F7D
:100DE800F62EF72EF82E56140130D235D30DD40D29
:100DF800D50D890BF92EFF30DA07FF30DB3DD81F00
:100E0800062F072FEC2ED001D51F0B2F0C2F282FC4
:100E1800FF305205CA00FF305305CB00FF305405A0
:100E2800CC007F305505CD004D084C044B044A04D6
:100E380003191F2F202F232FD001D00A282F561C2B
:100E4800262F272F282F202F500803192C2F2D2F1E
:100E5800552F0130D6070030D73D0030D83D00303F
:100E6800D93D591C382F392F552F5608CA00570815
:100E7800CB005808CC005908CD000130CE00CD3742
:100E8800CC0CCB0CCA0CCE0B432F4D08D9004C0808
:100E9800D8004B08D7004A08D6000130DA070030DE
:100EA800DB3D5B08803ACA0080304A02031D5E2F92
:100EB800FF305A02031C612F622F6C2F7F302100F4
:100EC800D9008030D8000030D7000030D600972FE6
:100ED80021005B08803ACA0080304A02031D762F41
:100EE80001305A020318792F7A2F852F00302100FC
:100EF800D9000030D8000030D7000030D600CF012C
:100F0800972F21005A08D100FF30D605FF30D705AA
:100F18007F30D8050030D905511C932F942F952F79
:100F2800D8175136D9004F08CA004A08D9045908B9
:100F38002200A300210058082200A200210057081F
:100F48002200A100210056082200A0000800D3308A
:100F580020009600CA30950090122200D001D00AD5
:100F68003F08F3003E08F2003D08F1003C08F0009D
:100F78006208F7006108F6006008F5005F08F400F1
:100F880098314D2087310318CA2FCB2FD82F031043
:100F980022000C1D03140318D22FD52F22000C1584
:100FA800D72F22000C11F62F23006308F3006208E4
:100FB800F2006108F1006008F00022003F08F70025
:100FC8003E08F6003D08F5003C08F40098314D2035
:100FD80087310318F02FF12FF42F22000C15F62F6C
:100FE80022000C1108006030320099009B019D011D
:080FF80007309F009E01080074
:1010040080302100C5064908B1004808B0004708EF
:10101400AF004608AE004508B5004408B4004308D4
:10102400B3004208B2009531F82588312100310817
:10103400C5003008C4002F08C3002E08C2000800F1
:10104400A431A7248831A5313F258831A331F42365
:10105400883142302200DE008C30DD000030DC00BC
:101064000030DB005A082100B10022005908210099
:10107400B000220058082100AF00220057082100C8
:10108400AE0022005E082100B50022005D082100A8
:10109400B40022005C082100B30022005B08210098
:1010A400B2009531F8258831210031082300E3008E
:1010B400210030082300E20021002F082300E10072
:1010C40021002E082300E000220056082100B10070
:1010D400220055082100B000220054082100AF006E
:1010E400220053082100AE0022005E082100B50052
:1010F40022005D082100B40022005C082100B30036
:1011040022005B082100B2009531F82588312100C6
:1011140031082200E200210030082200E100210011
:101124002F082200E00021002E082200DF006208C0
:101134002300DD00220061082300DC002200600897
:101144002300DB0022005F082300DA004030D900CE
:101154002030D8000030D7000030D60042302200C2
:10116400A300C830A2000030A1000030A000650830
:10117400B400B501B601B70137082100A30022006D
:1011840036082100A200220035082100A100220017
:1011940034082100A00000309B3132238831210023
:1011A40023082200A700210022082200A600210013
:1011B40021082200A500210020082200A40091316A
:1011C400F021883122002308E9002208E8002108E0
:1011D400E7002008E6005003031DF128F2284E2BF7
:1011E400A231EF2288319C31EB24883122002B0874
:1011F400BF002A08BE002908BD002808BC003F081B
:10120400BB003E08BA003D08B9003C08B8006908B4
:101214002100AB00220068082100AA002200670810
:101224002100A900220066082100A8003E30AF007A
:101234008030AE000030AD000030AC009831D720D3
:101244008831031C262927296E29220069082100D8
:10125400AB00220068082100AA00220067082100D0
:10126400A900220066082100A8003F30AF0000302A
:10127400AE000030AD000030AC009831D72088318A
:101284000318452946296E2922006908A700680821
:10129400A6006708A5006608A4004330A300A03098
:1012A400A2000030A1000030A00085313A25883129
:1012B40022002308AB002208AA002108A900200864
:1012C400A800A7317E278831220028082C3EE3009D
:1012D4000030293DE4005F2A220069082100AB00A8
:1012E400220068082100AA00220067082100A90042
:1012F400220066082100A8003F30AF000030AE0095
:101304000030AD000030AC009831D7208831031C88
:101314008C298D29D429220069082100AB002200E0
:1013240068082100AA00220067082100A900220001
:1013340066082100A8003F30AF004030AE00003006
:10134400AD000030AC009831D72088310318AB29A8
:10135400AC29D42922006908A7006808A6006708F8
:10136400A5006608A4004330A300A030A20000300A
:10137400A1000030A00085313A25883122002308DD
:10138400AB002208AA002108A9002008A800A73160
:101394007E278831220028082F3EE3000030293DB3
:1013A400E4005F2A220069082100AB0022006808DB
:1013B4002100AA00220067082100A9002200660873
:1013C4002100A8003F30AF004030AE000030AD0037
:1013D4000030AC009831D7208831031CF229F3295E
:1013E4003A2A220069082100AB0022006808210083
:1013F400AA00220067082100A90022006608210033
:10140400A8003F30AF006630AE006630AD006630F5
:10141400AC009831D72088310318112A122A3A2AAD
:1014240022006908A7006808A6006708A5006608E6
:10143400A4004330A300A030A2000030A10000307B
:10144400A00085313A25883122002308AB00220808
:10145400AA002108A9002008A800A7317E27883106
:10146400220028082C3EE3000030293DE4005F2AD6
:1014740022006908A7006808A6006708A500660896
:10148400A4004330A300A030A2000030A10000302B
:10149400A00085313A25883122002308AB002208B8
:1014A400AA002108A9002008A800A7317E278831B6
:1014B40022002908E4002808E3003B082400C700B0
:1014C40022003A082400C600220039082400C5007E
:1014D400220038082400C4002030903122208831B2
:1014E400230063082100AB00230062082100AA0046
:1014F400230061082100A900230060082100A8003E
:1015040022003F082100AF0022003E082100AE0067
:1015140022003D082100AD0022003C082100AC005F
:101524009831D72088310318982A992AA22A2200B0
:101534006408AD006308AC00A43110248831492B41
:1015440022003F082100AB0022003E082100AA002F
:1015540022003D082100A90022003C082100A80027
:10156400220062082100AF00220061082100AE00C1
:10157400220060082100AD0022005F082100AC00B9
:101584009831D72088310318C82AC92AD12A0030B3
:101594002200AC00AD00A43110248831492B143052
:1015A400203E860002308700403F2100A000413FDA
:1015B400A100423FA200433FA300A431512488313B
:1015C400210023082200AB00210022082200AA00E7
:1015D400210021082200A900210020082200A800DF
:1015E400A7317E278831220029086402031DFC2AC2
:1015F400280863020318FF2A002B1D2B630821000F
:10160400A000220064082100A100A201A30100306F
:101614009B3132238831210023082400B7002100A4
:1016240022082400B600210021082400B50021006E
:1016340020082400B4001430203E860002308700C5
:10164400403F2100A000413FA100423FA200433F90
:10165400A300A43151248831210023082200AB00C7
:10166400210022082200AA00210021082200A9004A
:10167400210020082200A800A7317E2788312200FB
:101684002908AD002808AC00A43110248831803129
:101694009A2088312200D0013F082100AB002200AB
:1016A4003E082100AA0022003D082100A9002200D2
:1016B4003C082100A80023005D082100AF0023009E
:1016C4005C082100AE0023005B082100AD0023006C
:1016D4005A082100AC009831D72088310318732BA5
:1016E400742B772B22008C12ED2822008C16ED2807
:1016F40080315C282300450846064706480649060B
:101704004A064B064C064D064E0644062000E000F1
:101714002300500820006006031D912B922BFF2FFD
:1017240023004F08031D972B982BFF2F441E9B2B40
:101734009C2B222C44080F392000E000230045088C
:101744002000D600D701D801D9015908F300580860
:10175400F2005708F1005608F00000309A31882250
:101764008B3173082000A7007208A6007108A50039
:101774007008A4004130A3008030A2000030A10012
:101784000030A0009E3156268B3120002308BD0076
:101794002208BC002108BB002008BA006008DA0057
:1017A400DB01DA0EDB0EF030DB055A080F39DB04FF
:1017B400F030DA055A08F0005B08F100890D893B26
:1017C4008909F200F30001309A3188228B317308C1
:1017D4002000C1007208C0007108BF007008BE007C
:1017E4009331F0238B3120003D08DF003C08DE00FC
:1017F4003B08DD003A08DC005F08D1005E08D00039
:101804005D08CF005C08CE004330D5008030D400A2
:101814000030D3000030D200903102208B31200000
:1018240051082300D900200050082300D8002000CC
:101834004F082300D70020004E082300D6008B2C2D
:1018440044080F392000E000230045082000D6009A
:10185400D701D801D9015908F3005808F2005708F4
:10186400F1005608F00000309A3188228B31730859
:101874002000A7007208A6007108A5007008A40043
:101884004130A3008030A2000030A1000030A0004D
:101894009E3156268B3120002308BD002208BC004F
:1018A4002108BB002008BA006008DA00DB01DA0E68
:1018B400DB0EF030DB055A080F39DB04F030DA05B3
:1018C4005A08F0005B08F100890D893B8909F20090
:1018D400F30001309A3188228B3173082000C10053
:1018E4007208C0007108BF007008BE009331F02375
:1018F4008B3120003D082300D90020003C08230040
:10190400D80020003B082300D70020003A08230019
:10191400D600461E8E2C8F2C152D46080F3920001C
:10192400E000230047082000D600D701D801D901E0
:101934005908F3005808F2005708F1005608F0005F
:1019440000309A3188228B3173082000A700720876
:10195400A6007108A5007008A4004130A3008030DF
:10196400A2000030A1000030A0009E3156268B3129
:1019740020002308BD002208BC002108BB00200869
:10198400BA006008DA00DB01DA0EDB0EF030DB05AA
:101994005A080F39DB04F030DA055A08F0005B0806
:1019A400F100890D893B8909F200F30001309A3175
:1019B40088228B3173082000C1007208C0007108AE
:1019C400BF007008BE009331F0238B3120003D0826
:1019D400DF003C08DE003B08DD003A08DC005F085D
:1019E400D1005E08D0005D08CF005C08CE00433013
:1019F400D5008030D4000030D3000030D2009031C4
:101A040002208B31200051082300DD002000500803
:101A14002300DC0020004F082300DB0020004E08D8
:101A24002300DA007E2D46080F392000E000230051
:101A340047082000D600D701D801D9015908F3007E
:101A44005808F2005708F1005608F00000309A31A7
:101A540088228B3173082000A7007208A600710841
:101A6400A5007008A4004130A3008030A20000301B
:101A7400A1000030A0009E3156268B31200023089F
:101A8400BD002208BC002108BB002008BA00600881
:101A9400DA00DB01DA0EDB0EF030DB055A080F3911
:101AA400DB04F030DA055A08F0005B08F100890D18
:101AB400893B8909F200F30001309A3188228B3185
:101AC40073082000C1007208C0007108BF007008CC
:101AD400BE009331F0238B3120003D082300DD004C
:101AE40020003C082300DC0020003B082300DB002E
:101AF40020003A082300DA00481E812D822D082E8A
:101B040048080F392000E000230049082000D600CF
:101B1400D701D801D9015908F3005808F200570831
:101B2400F1005608F00000309A3188228B31730896
:101B34002000A7007208A6007108A5007008A40080
:101B44004130A3008030A2000030A1000030A0008A
:101B54009E3156268B3120002308BD002208BC008C
:101B64002108BB002008BA006008DA00DB01DA0EA5
:101B7400DB0EF030DB055A080F39DB04F030DA05F0
:101B84005A08F0005B08F100890D893B8909F200CD
:101B9400F30001309A3188228B3173082000C10090
:101BA4007208C0007108BF007008BE009331F023B2
:101BB4008B3120003D08DF003C08DE003B08DD00DF
:101BC4003A08DC005F08D1005E08D0005D08CF0051
:101BD4005C08CE004330D5008030D4000030D30000
:101BE4000030D200903102208B31200051082200B5
:101BF400DE00200050082200DD0020004F082200F3
:101C0400DC0020004E082200DB00712E48080F394A
:101C14002000E000230049082000D600D701D801A5
:101C2400D9015908F3005808F2005708F100560882
:101C3400F00000309A3188228B3173082000A7000D
:101C44007208A6007108A5007008A4004130A30022
:101C54008030A2000030A1000030A0009E31562642
:101C64008B3120002308BD002208BC002108BB00E2
:101C74002008BA006008DA00DB01DA0EDB0EF0306F
:101C8400DB055A080F39DB04F030DA055A08F00096
:101C94005B08F100890D893B8909F200F3000130EA
:101CA4009A3188228B3173082000C1007208C00069
:101CB4007108BF007008BE009331F0238B312000FF
:101CC4003D082200DE0020003C082200DD00200048
:101CD4003B082200DC0020003A082200DB0023003D
:101CE4004B082000D600D701D801D9015908F300C8
:101CF4005808F2005708F1005608F00000309A31F5
:101D040088228B3173082000A7007208A60071088E
:101D1400A5007008A4004130A3008030A200003068
:101D2400A1000030A0009E3156268B3120002308EC
:101D3400BD002208BC002108BB002008BA00230013
:101D44004A082000DA00DB01DA0EDB0EF030DB0596
:101D54005A080F39DB04F030DA055A08F0005B0842
:101D6400F100890D893B8909F200F30001309A31B1
:101D740088228B3173082000C1007208C0007108EA
:101D8400BF007008BE009331F0238B3120003D0862
:101D94002200DA0020003C082200D90020003B0881
:101DA4002200D80020003A082200D70023004D0862
:101DB4002000D600D701D801D9015908F3005808EA
:101DC400F2005708F1005608F00000309A318822DA
:101DD4008B3173082000A7007208A6007108A500C3
:101DE4007008A4004130A3008030A2000030A1009C
:101DF4000030A0009E3156268B3120002308BD0000
:101E04002208BC002108BB002008BA0023004C08AB
:101E14002000DA00DB01DA0EDB0EF030DB055A08B5
:101E24000F39DB04F030DA055A08F0005B08F100E2
:101E3400890D893B8909F200F30001309A31882227
:101E44008B3173082000C1007208C0007108BF0004
:101E54007008BE009331F0238B3120003D0822002E
:101E6400D60020003C082200D50020003B082200B8
:101E7400D40020003A082200D3005608F300550885
:101E8400F2005408F1005308F000A33103238B310E
:101E940073082200D6007208D5007108D4007008B7
:101EA400D3005A082000BD00220059082000BC00BD
:101EB400220058082000BB00220057082000BA0066
:101EC40022005E082000C10022005D082000C0003E
:101ED40022005C082000BF0022005B082000BE0036
:101EE4009331F0238B3120003D082300E3002000D0
:101EF4003C082300E20020003B082300E10020000E
:101F04003A082300E000220056082000BD00220009
:101F140055082000BC00220054082000BB00220009
:101F240053082000BA0022005E082000C1002200ED
:101F34005D082000C00022005C082000BF002200D1
:101F44005B082000BE009331F0238B3120003D0854
:101F54002200E20020003C082200E10020003B08AF
:101F64002200E00020003A082200DF0023004E088F
:101F74002200E50042302000A300C830A200003057
:101F8400A1000030A000220065082000D600D7017F
:101F9400D801D9015908F3005808F2005708F10094
:101FA4005608F00000309A3188228B3173082000E3
:101FB400A7007208A6007108A5007008A4009E314D
:101FC40056268B31200023082200E9002000220835
:101FD4002200E800200021082200E7002000200859
:101FE4002200E6005E08F3005D08F2005C08F100E0
:0C1FF4005B08F000A231E5228B310800F0
:1020040080302000D1065508BD005408BC00530898
:10201400BB005208BA005108C1005008C0004F0864
:10202400BF004E08BE009331F023903120003D08DC
:10203400D1003C08D0003B08CF003A08CE0008008D
:102044002400D80047082100C500240046082100C8
:10205400C400240045082100C300240044082100D2
:10206400C20024005808860002308700403F210047
:10207400C600413FC700423FC800433FC900883102
:1020840002209031210045082400D7002100440893
:102094002400D600210043082400D5002100420872
:1020A4002400D40057082200AB0024005608220064
:1020B400AA00240055082200A90024005408220084
:1020C400A800240058081C3E860002308700403FC8
:1020D4002200AC00413FAD00423FAE00433FAF00A1
:1020E40024005808203E860002308700403F22002A
:1020F400B000413FB100423FB200433FB3009B31C7
:10210400DD23903122002B082400CB0022002A0872
:102114002400CA00220029082400C900220028083B
:102124002400C8004B082200A70024004A0822000B
:10213400A600240049082200A50024004808220023
:10214400A400240057082200A300240056082200FB
:10215400A200240055082200A100240054082200F3
:10216400A00085313A259031220023082100B100D6
:10217400220022082100B000220021082100AF0023
:10218400220020082100AE0024005808183E8600D2
:1021940002308700403F2100B200413FB300423F7C
:1021A400B400433FB5009531F82590312400580818
:1021B400183E86000230870021002E08C03F2F08F9
:1021C400C13F3008C23F3108C33F240058080C3EC9
:1021D400860002308700403F2200A000413FA1005A
:1021E400423FA200433FA30024005808103E86004B
:1021F40002308700403F2100C200413FC300423FFC
:10220400C400433FC500240047082100C90024003E
:1022140046082100C800240045082100C700240006
:1022240044082100C600883102209031210045086D
:102234002200A700210044082200A6002100430830
:102244002200A500210042082200A40085313A257D
:102254009031220023082400CF0022002208240009
:10226400CE00220021082400CD00220020082400F2
:10227400CC005808183E860002308700403F2200F8
:10228400A000413FA100423FA200433FA30024001D
:102294005808083E860002308700403F2200A40010
:1022A400413FA500423FA600433FA70085313A25A0
:1022B4009031220023082100B100220022082100CD
:1022C400B000220021082100AF00220020082100D4
:1022D400AE00240057082200A30024005608220060
:1022E400A200240055082200A10024005408220062
:1022F400A00024005808043E860002308700403FB6
:102304002200A400413FA500423FA600433FA7008E
:1023140085313A259031220023082100B50022009E
:1023240022082100B400220021082100B300220069
:1023340020082100B2009531F825903121003108A0
:102344002400D300210030082400D20021002F08EB
:102354002400D10021002E082400D0004F082100C1
:10236400C50024004E082100C40024004D082100AB
:10237400C30024004C082100C2002400530821009B
:10238400C900240052082100C8002400510821007B
:10239400C700240050082100C60088310220903173
:1023A40024005808143E86000230870021004208A9
:1023B400C03F4308C13F4408C23F4508C33F24000F
:1023C4005808103E8600023087004408C03F450884
:1023D400C13F4608C23F4708C33F08002200270800
:1023E40080392100D300220027352100DA002200A1
:1023F400A61FFD29FE29002A21005A1421005A088B
:102404000319052A062A182A5A0A031D0A2A0B2A1E
:10241400142A00302200A7000030A6000030A500D6
:102424000030A4002200A617A701212A00302200B0
:10243400A7000030A6000030A5000030A400230847
:1024440080392100CA004A08D3062200233521001E
:10245400DB002200A21F2F2A302A322A21005B141B
:1024640021005B080319372A382A4A2A5B0A031D0C
:102474003C2A3D2A462A00302200A3000030A20054
:102484000030A1000030A0002200A217A301532AAB
:1024940000302200A3000030A2000030A100003070
:1024A400A0002308220421042004031D5A2A5B2AC5
:1024B400762A0030A7000030A6000030A5000030C6
:1024C400A4008030A6047F30A70421005308CA006A
:1024D4004A082200A7042708A3002608A20025080A
:1024E400A1002408A000EF2B21005A08031D7B2A19
:1024F4007C2A862A00302200A3000030A20000308B
:10250400A1000030A000EF2B5A08CA00CB014B08F1
:10251400CD005B084A02CC00031CCD034C087F3E6F
:10252400D40000304D3DD500220027082100D20000
:10253400220026082100D100220025082100D00015
:10254400220024082100CF0000302200A700003020
:10255400A6000030A5000030A40000302100D900FE
:102564000030D8000030D7000030D600DB010C2B3F
:102574005B080319BE2ABF2ADD2A0130CF35D00DEE
:10258400D10DD20D890BC02A01302200A435A50D2E
:10259400A60DA70D890BC72A2100D91FD22AD32A39
:1025A400D52A2200241401302100D635D70DD80DA8
:1025B400D90D890BD62A2200230821005202031DBB
:1025C400F32A2200220821005102031DF32A2200CB
:1025D400210821005002031DF32A220020082100B3
:1025E4004F02031CF62AF72A082B59172200200849
:1025F4002100CF02220021082100D03B2200220822
:102604002100D13B220023082100D23B0130CA0023
:102614004A08DB071A305B02031C112B122BBA2A5F
:102624005208510450044F040319192B1A2B362B4A
:102634005614362B0130A435A50DA60DA70D890B14
:102644001D2B2100D91F272B282B2A2B22002414D1
:1026540001302100D635D70DD80DD90D890B2B2B80
:10266400FF30D407FF30D53D2200A61F3A2B3B2B69
:102674001C2B2100DB01D91F402B412B5F2BFF308A
:102684005605CA00FF305705CB00FF305805CC0073
:102694007F305905CD004D084C044B044A040319FE
:1026A400542B552B592B2100DB01DB0A5F2B220015
:1026B400241C5D2B5E2B5F2B552B21005B0803191B
:1026C400642B652B9D2B01302200A4070030A53D0F
:1026D4000030A63D0030A73D271C712B722B9D2B8B
:1026E40024082100CA00220025082100CB00220072
:1026F40026082100CC00220027082100CD0001304B
:10270400CE00CD37CC0CCB0CCA0CCE0B832B4D0892
:102714002200A70021004C082200A60021004B083B
:102724002200A50021004A082200A4000130210053
:10273400D4070030D53D21005508803ACA008030C6
:102744004A02031DA72BFF305402031CAA2BAB2BF8
:10275400B92BFF302100D4000030D5000030220016
:10276400A7000030A6000030A5000030A40021001E
:102774005508803ACA0080304A02031DC32B013039
:1027840054020318C62BC72BD52B2100D401D50125
:1027940000302200A7000030A6000030A500003061
:1027A400A4002100D30121005408DA005A1CDB2BB9
:1027B400DC2BDF2B2200A617E42B7F30CA004A084B
:1027C4002200A60521005A362200A7002100530842
:1027D400CA004A082200A7046D2A080020003D0808
:1027E4008039CA003D35CC00BC1FF92BFA2BFB2BDA
:1027F4004C144C080319FF2B002C102C4C0A031DFD
:10280400042C052C0D2C0030BD000030BC00003021
:10281400BB000030BA00BC17BD01182C0030BD004D
:102824000030BC000030BB000030BA0041088039E1
:10283400CB004B084A060319202C212C222C4A17C2
:102844004135CB00C01F272C282C292C4B144B08B6
:1028540003192D2C2E2C3E2C4B0A031D322C332C09
:102864003B2C0030C1000030C0000030BF000030FD
:10287400BE00C017C101462C0030C1000030C000AA
:102884000030BF000030BE004C084B0203184B2C34
:102894004C2C722C4A1F4F2C502C542C8030C200CC
:1028A4004208CA064C08CD004B08CC004D08CB00AA
:1028B4003A08CD003E08BA004D08BE003B08CD00E2
:1028C4003F08BB004D08BF003C08CD004008BC00D9
:1028D4004D08C0003D08CD004108BD004D08C100B1
:1028E400CD014B08C200C3014308C5004C08420295
:1028F400C400031CC5034508803AC6008030460264
:10290400031D862C1A304402031C892C8A2CBC2CEF
:1029140020003D083C043B043A04031D922C942CF3
:102924000130952C0030CD000030BD000030BC00DB
:102934000030BB000030BA004B08CC00C32C4D1C47
:10294400A42CA52CA92C4D360138CD00AB2C03109A
:10295400CD0C3A1CAE2CAF2CB02CCD170130C200DC
:10296400BD37BC0CBB0CBA0CC20BB22C0130C2007C
:102974004208CC0720004B084C02031CC22CC32C79
:10298400A12C4A1BC62CC72CFD2C4C08031DCB2C98
:10299400CC2CD52C0030BD000030BC000030BB0076
:1029A4000030BA00F72D3E08BA073F08BB3D400887
:1029B400BC3D4108BD3D3D1CE02CE12C892D4D1C46
:1029C400E42CE52CE92C4D360138CD00EB2C03101A
:1029D400CD0C3A1CEE2CEF2CF02CCD170130C2009C
:1029E400BD37BC0CBB0CBA0CC20BF22C0130C200BC
:1029F4004208CC07892D3D08803AC2004108803A3C
:102A04004202031D0F2D40083C02031D0F2D3F08F9
:102A14003B02031D0F2D3E083A020318122D132DFD
:102A24004B2DFF30C200FF30C300FF30C400FF3025
:102A3400C5003A083E02C6003B083F3BC7003C08BD
:102A4400403BC8003D08413BC9004608C20747084F
:102A5400C33D4808C43D4908C53D4508BD00440878
:102A6400BC004308BB004208BA008030C2004208E0
:102A7400CA06CD09CD0A4D08031D412D422D532D03
:102A84000130BA070030BB3D0030BC3D0030BD3DD5
:102A9400532D3E08BA023F08BB3B4008BC3B4108EB
:102AA400BD3B3D083C043B043A04031D5A2D5B2DF9
:102AB400852D4D08031D5F2D602D852D0030BD0033
:102AC4000030BC000030BB000030BA00F72D0130EC
:102AD400BA35BB0DBC0DBD0D890B6A2DCD1F732DF1
:102AE400742D752D3A144D1C782D792D7C2D0314DD
:102AF400CD0D7E2D0310CD0D4C080319822D832D91
:102B0400852D0130CC02BC1F882D892D692DCB0168
:102B1400CD1F8D2D8E2D9C2D4D087F390319932D9E
:102B2400942D972DCB01CB0A9C2D3A1C9A2D9B2DCD
:102B34009C2D942D4B080319A02DA12DCE2D0130D1
:102B4400BA070030BB3D0030BC3D0030BD3D3D1CEC
:102B5400AC2DAD2DCE2D3A08C2003B08C3003C0875
:102B6400C4003D08C5000130C600C537C40CC30C01
:102B7400C20CC60BB72D4508BD004408BC00430871
:102B8400BB004208BA004C0A0319C92DCA2DCE2D28
:102B94000130C2004208CC074C0A0319D22DD32DB0
:102BA400D82D4C08031DD72DD82DE62D0030BD009F
:102BB4000030BC000030BB000030BA004C08031DDC
:102BC400E42DE52DE62DCA014C1CE92DEA2DEC2D52
:102BD400BC17F02D7F30C2004208BC054C36BD0046
:102BE400CA1FF52DF62DF72DBD1708002100310859
:102BF4008039BE003135C000B01F012E022E032ED5
:102C0400401440080319072E082E182E400A031DED
:102C14000C2E0D2E152E0030B1000030B000003007
:102C2400AF000030AE00B017B101202E0030B1006B
:102C34000030B0000030AF000030AE0035088039FD
:102C4400BF003F083E060319282E292E2A2E3E17C0
:102C54003535BF00B41F2F2E302E312E3F143F08C0
:102C64000319352E362E462E3F0A031D3A2E3B2ECF
:102C7400432E0030B5000030B4000030B300003003
:102C8400B200B417B5014E2E0030B5000030B400C8
:102C94000030B3000030B20040083F020318532E46
:102CA400542E7A2E3E1F572E582E5C2E8030B6009E
:102CB4003608BE064008C1003F08C0004108BF00F6
:102CC4002E08C1003208AE004108B2002F08C1002E
:102CD4003308AF004108B3003008C1003408B00025
:102CE4004108B4003108C1003508B1004108B500FD
:102CF400C1013F08B600B7013708B90040083602E1
:102D0400B800031CB9033908803ABA0080303A028B
:102D1400031D8E2E1A303802031C912E922EC42EBF
:102D24002100310830042F042E04031D9A2E9C2EFA
:102D340001309D2E0030C1000030B1000030B000E1
:102D44000030AF000030AE003F08C000CB2E411C65
:102D5400AC2EAD2EB12E41360138C100B32E031076
:102D6400C10C2E1CB62EB72EB82EC1170130B600DA
:102D7400B137B00CAF0CAE0CB60BBA2E0130B600A6
:102D84003608C00721003F084002031CCA2ECB2E80
:102D9400A92E3E1BCE2ECF2E052F4008031DD32E69
:102DA400D42EDD2E0030B1000030B0000030AF0072
:102DB4000030AE00FF2F3208AE073308AF3D3408B1
:102DC400B03D3508B13D311CE82EE92E912F411C50
:102DD400EC2EED2EF12E41360138C100F32E0310F6
:102DE400C10C2E1CF62EF72EF82EC1170130B6009A
:102DF400B137B00CAF0CAE0CB60BFA2E0130B600E6
:102E04003608C007912F3108803AB6003508803A59
:102E14003602031D172F34083002031D172F330801
:102E24002F02031D172F32082E0203181A2F1B2FEF
:102E3400532FFF30B600FF30B700FF30B800FF302B
:102E4400B9002E083202BA002F08333BBB00300809
:102E5400343BBC003108353BBD003A08B6073B089B
:102E6400B73D3C08B83D3D08B93D3908B1003808C4
:102E7400B0003708AF003608AE008030B600360820
:102E8400BE06C109C10A4108031D492F4A2F5B2F01
:102E94000130AE070030AF3D0030B03D0030B13DF1
:102EA4005B2F3208AE023308AF3B3408B03B350821
:102EB400B13B310830042F042E04031D622F632F0D
:102EC4008D2F4108031D672F682F8D2F0030B1000F
:102ED4000030B0000030AF000030AE00FF2F0130F2
:102EE400AE35AF0DB00DB10D890B722FC11F7B2F05
:102EF4007C2F7D2F2E14411C802F812F842F0314AF
:102F0400C10D862F0310C10D400803198A2F8B2F82
:102F14008D2F0130C002B01F902F912F712FBF0150
:102F2400C11F952F962FA42F41087F3903199B2F7A
:102F34009C2F9F2FBF01BF0AA42F2E1CA22FA32FAB
:102F4400A42F9C2F3F080319A82FA92FD62F013097
:102F5400AE070030AF3D0030B03D0030B13D311C14
:102F6400B42FB52FD62F2E08B6002F08B70030087F
:102F7400B8003108B9000130BA00B937B80CB70C41
:102F8400B60CBA0BBF2F3908B1003808B0003708A7
:102F9400AF003608AE00400A0319D12FD22FD62F26
:102FA4000130B6003608C007400A0319DA2FDB2FB8
:102FB400E02F4008031DDF2FE02FEE2F0030B1007B
:102FC4000030B0000030AF000030AE004008031DF8
:102FD400EC2FED2FEE2FBE01401CF12FF22FF42F1A
:102FE400B017F82F7F30B6003608B0054036B10070
:102FF400BE1FFD2FFE2FFF2FB11708004830200001
:103004009800F3309600CA30950090122100901673
:103014009030200097000800A3313F2398312F30CF
:10302400A231722298317F30A23178229831103047
:103034002100A0002730A100A231C1229831003024
:103044002100A0000030A100A231B8229831003044
:103054002100A0000030A100A231DC2298316C30A4
:103064002100A0002230A100A231CA22983166308A
:103074002100A0002230A100A231AF2298310030FB
:103084002100A0000030A100A231D3229831A23146
:1030940053229831080000307005F80000307105A3
:1030A400F90080307205FA007F307305FB007B085D
:1030B4007A0479047804031D6028612869280030A3
:1030C400F3000030F2000030F1000030F000003076
:1030D4007405F80000307505F90080307605FA00B3
:1030E4007F307705FB007B087A0479047804031D9C
:1030F4007C287D2885280030F7000030F600003059
:10310400F5000030F400F31F88288928A128003036
:10311400F8000030F9000030FA008030FB0070083D
:10312400F8027108F93B7208FA3B7308FB3B7B0811
:10313400F3007A08F2007908F1007808F000F71F2C
:10314400A428A528BD280030F8000030F90000307C
:10315400FA008030FB007408F8027508F93B760821
:10316400FA3B7708FB3B7B08F7007A08F6007908FE
:10317400F5007808F4008030F3068030F70677080D
:103184007302031DCF2876087202031DCF28750829
:103194007102031DCF28740870020318D228D328A3
:1031A400D5280310D6280314080000302100280570
:1031B400B00000302905B10080302A05B2007F300C
:1031C4002B05B3003308320431043004031DEB280B
:1031D400EC28F4280030AB000030AA000030A9002D
:1031E4000030A80000302C05B00000302D05B100DF
:1031F40080302E05B2007F302F05B300330832042F
:1032040031043004031D0729082910290030AF00B8
:103214000030AE000030AD000030AC00AB1F13290D
:1032240014292C290030B0000030B1000030B20065
:103234008030B3002808B0022908B13B2A08B23B09
:103244002B08B33B3308AB003208AA003108A900AD
:103254003008A800AF1F2F29302948290030B000BA
:103264000030B1000030B2008030B3002C08B0024E
:103274002D08B13B2E08B23B2F08B33B3308AF00F7
:103284003208AE003108AD003008AC008030AB0627
:103294008030AF062F082B02031D5A292E082A025C
:1032A400031D5A292D082902031D5A292C08280216
:1032B40003185D295E29602903106129031408009D
:1032C4002000A101F31F672968297529F009F10974
:1032D400F209F309F00A0319F10A0319F20A0319AE
:1032E400F30AA101A10AF71F782979298829F40989
:1032F400F509F609F709F40A0319F50A0319F60A98
:103304000319F70A0130F8007808A1060030A50077
:103314000030A4000030A3000030A200730872043F
:1033240071047004031997299829D929A001A00AC6
:10333400A6290130F035F10DF20DF30D890B9C290E
:103344000130F8007808A007F31FA929AA299B29AE
:103354000130A235A30DA40DA50D890BAB2973086B
:103364007702031DBF2972087602031DBF29710865
:103374007502031DBF2970087402031CC229C329E6
:10338400CC297008F4027108F53B7208F63B730807
:10339400F73B22140130F336F20CF10CF00C890BDC
:1033A400CD290130A002031DD829D929AA29210831
:1033B4000319DD29DE29E929A209A309A409A5091C
:1033C400A20A0319A30A0319A40A0319A50A2508C2
:1033D400F3002408F2002308F1002208F00008009A
:1033E4002100A8002808A53109259931003A031DB8
:1033F400FC29FD29FE29872A2100230824009100A5
:103404002400140C890C01392100A600240016089C
:103414001F3921002604031D102A112A022A240020
:1034240096149618162A172A132A03142100280D15
:10343400240091002400140C890C01392100A600F9
:10344400240016081F3921002604031D2A2A2B2ACA
:103454001C2A2400161F2F2A302A342AA33186233B
:103464009931872A2100A901802A24009615240075
:10347400140C890C01392100A600240016081F39F8
:1034840021002604031D472A482A392A290824072B
:10349400A600260886000130870024001108810058
:1034A40021002508FF3EA600FF3003180030A700C6
:1034B400290826062704031D602A612A692A240094
:1034C40096161616161A672A682A642A7B2A240076
:1034D400961216162400140C890C01392100A6003A
:1034E400240016081F3921002604031D7A2A7B2A8A
:1034F4006C2A01302100A6002608A9072508290204
:10350400031C852A862A372A302A0800F8007808FE
:1035140003198D2A8E2AA22AF31F912A922AA22AFB
:103524007009FA007109FB007209FC007309FD00BF
:10353400FA0A0319FB0A0319FC0A0319FD0AAA2A49
:103544007308FD007208FC007108FB007008FA00A3
:103554007308720471047004031DB12AB22ABB2AD1
:103564000030F3000030F2000030F1000030F000D1
:10357400312B9630F900C92A0130F4007408F90798
:103584000130FD36FC0CFB0CFA0C890BC32AFE300F
:103594007D05031DCE2ACF2ABE2AE32A0130F4007A
:1035A4007408F9070130FA070030FB3D0030FC3D98
:1035B4000030FD3D0130FD36FC0CFB0CFA0C890B90
:1035C400DD2AFF307D05031DE82AE92AD02AF32AE3
:1035D4000130F9020130FA35FB0DFC0DFD0D890BAC
:1035E400ED2AFC1BF62AF72AFD2A02307902031879
:1035F400FC2AFD2AEA2A7918002B012B092BFF301B
:10360400FA05FF30FB057F30FC05FF30FD05031094
:10361400F90C7908F400F501F601F7011830F435D6
:10362400F50DF60DF70D890B112B7408FA047508C6
:10363400FB047608FC047708FD0478080319232B9F
:10364400242B292BF31F272B282B292BFD177D082F
:10365400F3007C08F2007B08F1007A08F00008000F
:103664002100A80028080319382B392B4D2BA31F40
:103674003C2B3D2B4D2B2009AA002109AB0022092C
:10368400AC002309AD00AA0A0319AB0A0319AC0A5A
:103694000319AD0A552B2308AD002208AC002108FC
:1036A400AB002008AA002308220421042004031DDF
:1036B4005C2B5D2B662B0030A3000030A200003091
:1036C400A1000030A000DC2B9630A900742B01303F
:1036D400A4002408A9070130AD36AC0CAB0CAA0C2D
:1036E400890B6E2BFE302D05031D792B7A2B692B4C
:1036F4008E2B0130A4002408A9070130AA0700304A
:10370400AB3D0030AC3D0030AD3D0130AD36AC0CCE
:10371400AB0CAA0C890B882BFF302D05031D932BB2
:10372400942B7B2B9E2B0130A9020130AA35AB0DC3
:10373400AC0DAD0D890B982BAC1BA12BA22BA82B88
:10374400023029020318A72BA82B952B2918AB2B81
:10375400AC2BB42BFF30AA05FF30AB057F30AC0592
:10376400FF30AD050310A90C2908A400A501A6018A
:10377400A7011830A435A50DA60DA70D890BBC2BE8
:103784002408AA042508AB042608AC042708AD04C1
:1037940028080319CE2BCF2BD42BA31FD22BD32B2A
:1037A400D42BAD172D08A3002C08A2002B08A100D0
:1037B4002A08A0000800220033082100AB002200E0
:1037C40032082100AA00220031082100A9002200A9
:1037D40030082100A80022002B082100A3002200A9
:1037E4002A082100A200220029082100A1002200A9
:1037F40028082100A000A43151249B312100230872
:10380400AF002208AE002108AD002008AC009831BA
:10381400D7209B31031C0F2C102C1A2C3F30210075
:10382400DF008030DE000030DD000030DC00DB2C07
:1038340022002F082100AB0022002E082100AA003C
:1038440022002D082100A90022002C082100A80034
:1038540022002B082100A30022002A082100A20034
:10386400220029082100A100220028082100A0002C
:10387400A43151249B3121002308AF002208AE005B
:103884002108AD002008AC009831D7209B310318E3
:103894004C2C4D2C572C00302100DF000030DE0072
:1038A4000030DD000030DC00DB2C22003308210076
:1038B400C500220032082100C40022003108210082
:1038C400C300220030082100C20022002F0821007A
:1038D400C90022002E082100C80022002D08210062
:1038E400C70022002C082100C600883102209B3129
:1038F400210045082200A300210044082200A20060
:10390400210043082200A100210042082200A00057
:103914002B082100A30022002A082100A200220073
:1039240029082100A100220028082100A000A431B8
:1039340051249B3121002308C5002208C40021081A
:10394400C3002008C20022002F082100C900220061
:103954002E082100C80022002D082100C7002200E3
:103964002C082100C600883102209B312100450823
:103974002200A700210044082200A60021004308D9
:103984002200A500210042082200A4009131F02168
:103994009B31220023082100DF002200220821009D
:1039A400DE00220021082100DD0022002008210081
:1039B400DC005F082200AB0021005E082200AA00A0
:1039C40021005D082200A90021005C082200A80053
:1039D40008002200511EEF2CF02C7D2D51080F39C8
:1039E4002100E600220052082100DC00DD01DE0196
:1039F400DF015F08A3005E08A2005D08A1005C0867
:103A0400A00000309B3132239C3121002308220086
:103A1400A700210022082200A6002100210822007C
:103A2400A500210020082200A4004130A30080301A
:103A3400A2000030A1000030A0009131F0219C319F
:103A4400220023082100B100220022082100B00036
:103A5400220021082100AF00220020082100AE002E
:103A64006608E000E101E00EE10EF030E1056008D7
:103A74000F39E104F030E0056008A0006108A100FE
:103A8400890D893B8909A200A30001309B313223AF
:103A94009C3121002308B5002208B4002108B3009A
:103AA4002008B2009531F8259C3121003108E50049
:103AB4003008E4002F08E3002E08E2006508C50082
:103AC4006408C4006308C3006208C2004330C9002C
:103AD4008030C8000030C7000030C60088310220A2
:103AE4009C3121004508EA004408E9004308E80045
:103AF4004208E700ED2D51080F392100E6002200AD
:103B040052082100DC00DD01DE01DF015F08A300B3
:103B14005E08A2005D08A1005C08A00000309B3193
:103B240032239C31210023082200A700210022080F
:103B34002200A600210021082200A500210020085F
:103B44002200A4004130A3008030A2000030A10074
:103B54000030A0009131F0219C3122002308210083
:103B6400B100220022082100B00022002108210017
:103B7400AF00220020082100AE006608E000E10149
:103B8400E00EE10EF030E10560080F39E104F03099
:103B9400E0056008A0006108A100890D893B89093E
:103BA400A200A30001309B3132239C312100230861
:103BB400B5002208B4002108B3002008B2009531F2
:103BC400F8259C3121003108EA003008E9002F086B
:103BD400E8002E08E7006A08AB006908AA00680834
:103BE400A9006708A8004230AF003430AE000030AE
:103BF400AD000030AC009831D7209C310318032E5F
:103C0400042E222E3F302100B1008030B00000305D
:103C1400AF000030AE006A08B5006908B400680857
:103C2400B3006708B2009531F8259C3121003108B2
:103C3400EA003008E9002F08E8002E08E700462EC5
:103C4400230059082100B100230058082100B000C6
:103C5400230057082100AF00230056082100AE00BE
:103C64006A08B5006908B4006808B3006708B200C0
:103C74009531F8259C3121003108EA003008E9002B
:103C84002F08E8002E08E7006A082200AB00210094
:103C940069082200AA00210068082200A900210066
:103CA40067082200A8000800200027088039B10016
:103CB4002735B800A61F5F2E602E612E38143808F1
:103CC4000319652E662E762E380A031D6A2E6B2E76
:103CD400732E0030A7000030A6000030A50000308D
:103CE400A400A617A7017E2E0030A7000030A6006E
:103CF4000030A5000030A40023088039A80028085B
:103D0400B1062335B900A21F882E892E8A2E3914B4
:103D1400390803198E2E8F2E9F2E390A031D932ED8
:103D2400942E9C2E0030A3000030A2000030A1008D
:103D34000030A000A217A301A72E0030A30000307A
:103D4400A2000030A1000030A000230822042104B6
:103D54002004031DAE2EAF2EC82E0030A700003065
:103D6400A6000030A5000030A4008030A6047F30F7
:103D7400A7043108A8002808A7042708A3002608D8
:103D8400A2002508A1002408A000FF2F3808031D65
:103D9400CC2ECD2ED62E0030A3000030A200003051
:103DA400A1000030A000FF2F3808A800A9012908AD
:103DB400AB0039082802AA00031CAB032A087F3E83
:103DC400B20000302B3DB3002708B0002608AF0036
:103DD4002508AE002408AD000030A7000030A6007E
:103DE4000030A5000030A4000030B7000030B60059
:103DF4000030B5000030B400B9013E2F3908031972
:103E0400042F052F1F2F0130AD35AE0DAF0DB00DB2
:103E1400890B062F0130A435A50DA60DA70D890B1E
:103E24000D2FB71F162F172F182F24140130B43558
:103E3400B50DB60DB70D890B192F23083002031DDC
:103E44002D2F22082F02031D2D2F21082E02031DC2
:103E54002D2F20082D02031C302F312F3A2F371716
:103E64002008AD022108AE3B2208AF3B2308B03B3B
:103E74000130A8002808B9071A303902031C432F5F
:103E8400442F002F30082F042E042D0403194B2F28
:103E94004C2F652F3414652F0130A435A50DA60DC4
:103EA400A70D890B4F2FB71F582F592F5A2F2414A2
:103EB4000130B435B50DB60DB70D890B5B2FFF304E
:103EC400B207FF30B33DA61F682F692F4E2FB901EB
:103ED400B71F6D2F6E2F8A2FFF303405A800FF30D7
:103EE4003505A900FF303605AA007F303705AB0041
:103EF4002B082A04290428040319812F822F852FD3
:103F0400B901B90A8A2F241C882F892F8A2F822F5E
:103F1400390803198E2F8F2FB72F0130A4070030D3
:103F2400A53D0030A63D0030A73D271C9A2F9B2FAE
:103F3400B72F2408A8002508A9002608AA002708E6
:103F4400AB000130AC00AB37AA0CA90CA80CAC0B2D
:103F5400A52F2B08A7002A08A6002908A5002808D1
:103F6400A4000130B2070030B33D3308803AA80002
:103F740080302802031DC02FFF303202031CC32FE0
:103F8400C42FD12FFF302000B2000030B300003026
:103F9400A7000030A6000030A5000030A4002000D7
:103FA4003308803AA80080302802031DDB2F01303B
:103FB40032020318DE2FDF2FEB2F2000B201B301F2
:103FC4000030A7000030A6000030A5000030A40097
:103FD400B10120003208B800381CF12FF22FF42F61
:103FE400A617F82F7F30A8002808A6053836A700A2
:0C3FF4003108A8002808A704BF2E080010
:1044940024001908080020009211080024001D16A9
:1044A400080021009215080020001F1508002400B0
:1044B4001C08013908001630210097000800240068
:1044C4001C0C890C01390800A2314A22A2312200B5
:1044D400CF000800A2314A22A2312000E6000800E1
:1044E4002100A000203524009A0008002100A0002B
:1044F400203524009B000800640080010131890BF1
:104504007F2A0034FE0012001E00FE0B852A0034B0
:10451400003400348E34423408340334031024004D
:104524009C1E03140030093D0800031024001C1CC9
:1045340003140030093D08003200910192019301F7
:104544009401950196010800210021082300E90047
:10455400210020082300E80008002100210822008F
:10456400C900210020082200C800080021002108F9
:104574002200C700210020082200C60008002100F4
:1045840021082200CD00210020082200CC000800D0
:10459400210021082200CB00210020082200CA00AB
:1045A4000800210021082200C50021002008220063
:1045B400C4000800210021082300DF002100200896
:1045C4002300DE00080073082400A3007208A20080
:1045D4007108A1007008A000080051302100A30058
:1045E4000230A4001830A6314426A23108009030CD
:1045F4002C009900980197011F08FC3901389F008D
:104604000800730872047104700403190A2B0B2B3D
:104614000D2B8030F30608004F3020009E009D01D2
:10462400911005309F00A2315622A33108002100C9
:1046340023082204210420040319212B222B242BD8
:104644008030A306080022004808490403192B2BD4
:104654002C2B312B49088A0048080A00A331080092
:10466400803024009C0006302100A0002008240093
:104674009D0481309E009D12080024009D1A432B46
:10468400442B4F2B80309C0006302100A0002008D2
:1046940024009D0481309E009D16080021002308FB
:1046A4002400A300210022082400A20021002108E4
:1046B4002400A100210020082400A00008002000FC
:1046C4009C01E0309A00990111101A082300E700B8
:1046D400200019082300E600313020009B001B1441
:1046E40008002000141025001108F9001208FA002F
:1046F4007A082000A7007908A600230069088A0028
:1047040068080A00A3310800240016152400140CBC
:10471400890C01392100A000240016081F3921004A
:104724002004031D962B972B882B000008002400DF
:10473400950194019601970194171508F0390838EA
:1047440095004F3092002000911121009111240016
:10475400951608001130200069020318B22BB32B00
:10476400C12B6908B23E860001308700010824008D
:1047740099000130F00070082000E907C22BE9011C
:104784000800003400348034BF34003400348034F2
:104794003F34003400348C344234003400348A34DE
:1047A4004234FF34FF3464340034003480343F3402
:1047B400853025009300940192019101A6302100D7
:1047C400A0002630A100A231A622A33125001F0893
:1047D400FC3901389F002000141021001414250016
:1047E40093170800230065082100AB002300640828
:1047F4002100AA00AA30A3000230A4001830A4317A
:10480400D424A33105302100A3005130A400023088
:10481400A50018309931F221A331080022002D0897
:104824002100E30022002C082100E200E336E20C20
:10483400E336E20C62082C00980022002C080339AD
:104844002100E2000530E235FF3E031D252C6235D0
:104854002C00970008002100A800A401A50120084D
:10486400A200A3012208A6002308A700281C3B2CB1
:104874003C2C402C2608A4072708A53D0130A6356A
:10488400A70D890B412C0310A80C2808031D4B2CE1
:104894004C2C382C2508A1002408A0000800230073
:1048A40055082100A700230054082100A600230076
:1048B40053082100A500230052082100A400230866
:1048C400A7002208A6002108A5002008A400FF30A4
:1048D400A405FF30A505FF30A6057F30A7052708EE
:1048E400A3002608A2002508A1002408A0000800AF
:1048F400240019082000E2000D3068020318832CFC
:10490400842C992C6808C43E860001308700620814
:1049140081000130E1006108E8070D306802031CE2
:10492400942C952C9A2C8B317C23A4319A2CE8015D
:1049340022004A084B040319A02CA12CA62C4B08D6
:104944008A004A080A00A4310800A2319E22A43138
:10495400A3319923A431A3313223A431A531AC2549
:10496400A4318731F727A431A2315D22A431A331C8
:10497400DA23A431A3316123A431A3310E23A4315A
:10498400A231F922A43198310020A43120009101F0
:104994009201C0302100A20022088B0498310E201D
:1049A400A43108002100A6002608A5310925A43158
:1049B400003A031DDE2CDF2CE02C082D2100A7017A
:1049C400FF2C27082307A500250886008701010876
:1049D400240091002400140C890C01392100A50045
:1049E400240016081F3921002504031DFA2CFB2C72
:1049F400EC2C0130A5002508A70724082702031C76
:104A0400042D052DE32CA3318623A43108002100B5
:104A1400A2002400140C890C01392100A1002400F7
:104A240016081F3921002104031D192D1A2D0B2DE1
:104A34002400161416181F2D202D1C2D210022359C
:104A4400240091002400140C890C01392100A100D8
:104A5400240016081F3921002104031D322D332D93
:104A6400242D2400161F372D382D3D2DA3318623E8
:104A7400A53100303E2D0130080044302400A70049
:104A84007A30A6000030A5000030A4004230AB000C
:104A94004830AA000030A9000030A8003E30AF0022
:104AA4004C30AE00CC30AD00CD30AC003F30BF0058
:104AB4006630BE006630BD006630BC003D30C300C9
:104AC400CC30C200CC30C100CD30C0004230210017
:104AD400A3008C30A2000030A1000030A000A3315C
:104AE4005023A53108002100A2002400140C890CD5
:104AF40001392100A100240016081F3921002104D6
:104B0400031D852D862D772D2400161416188B2D44
:104B14008C2D882D03142100220D240091002400E3
:104B2400140C890C01392100A100240016081F3936
:104B340021002104031D9F2DA02D912D2400161F5B
:104B4400A42DA52DAA2DA3318623A5310030AB2D8C
:104B54000130080022008C018E01133021008C00EA
:104B64003B308E00043023008E0037308C0024004C
:104B74008C018E0125008C018E01373026008C00BB
:104B84003F308E003F3027008C003F308E001830BD
:104B94003D00A00010303C00A00015309E001930EC
:104BA4003D00A1001A30A40013303C0094000230F0
:104BB4003D00A2001B30A50011303C00A1001430C0
:104BC4009D0008002100A601A11FE92DEA2DF12D69
:104BD400A009A109A00A0319A10AA601A60AA31FF4
:104BE400F42DF52DFE2DA209A309A20A0319A30A87
:104BF4000130A4002408A606A701A8012008210466
:104C04000319052E062E352EA501A50A122E0130F4
:104C1400A035A10D890B0A2E0130A4002408A50794
:104C2400A11F152E162E092E0130A735A80D890BAC
:104C3400172E21082302031D212E20082202031C03
:104C4400242E252E2A2E2008A2022108A33B271455
:104C54000130A136A00C890B2B2E0130A502031DB7
:104C6400342E352E162E26080319392E3A2E3F2EB1
:104C7400A709A809A70A0319A80A2808A100270850
:104C8400A00008002100A7002708A5317525A6313A
:104C9400003A031D4E2E4F2E502EA52E2100A801A2
:104CA4009C2E240096152400140C890C0139210033
:104CB400A500240016081F3921002504031D632EB6
:104CC400642E552E28082307A500250886000130E8
:104CD400870024001108810021002408FF3EA5005C
:104CE400FF3003180030A600280825062604031DFB
:104CF4007C2E7D2E852E240096161616161A832ECB
:104D0400842E802E972E2400961216162400140C3E
:104D1400890C01392100A500240016081F3921003F
:104D24002504031D962E972E882E01302100A50000
:104D34002508A80724082802031CA12EA22E532EFE
:104D4400A3318623A631080020002708EB0026089B
:104D5400EA006B0822004302031DB42E20006A08F7
:104D6400220042020318B72EB82ED42E4208200087
:104D74006A02F0002200430820006B3BF100F201BC
:104D8400F3010130F700C930F600C330F50080307C
:104D9400F40099316221A63171082200C100700823
:104DA400C000072F42082000A8002200430820006A
:104DB400A900AA01AB016A08AC006B08AD00AE0102
:104DC400AF012808AC022908AD3B2A08AE3B2B08EA
:104DD400AF3B00302C07F00000302D3DF1000130D6
:104DE4002E3DF20000302F3DF3000130F700C930B2
:104DF400F600C330F5008030F40099316221A63109
:104E040071082200C1007008C00020006B08220055
:104E1400C30020006A082200C2000800A2314D220B
:104E2400A731A2319022A731003A03191A2F1B2F60
:104E34002B2FA2316122A731003A0319222F232FED
:104E4400272F01302000E500642F02302000E50008
:104E5400642FA2316122A731003A0319322F332F74
:104E6400372F03302000E500642F04302000E500D4
:104E7400642FA3312523A731A2319722A731003A09
:104E84000319452F462F7A2FA331AC23A7317A2F4C
:104E9400E801A3312523A7317A2FA2319722A73124
:104EA400003A0319562F572F7A2F462FA231592231
:104EB400A731003A03195F2F602F7A2FA4317A2487
:104EC400A7317A2F6508E300E4016408003A031966
:104ED4006C2F7A2F6308013A03193B2F033A031905
:104EE4004A2F013A03194F2F073A0319582F7A2FE3
:104EF400A2315022A7310800031022002A0D2B0DE5
:104F04002100E1006108031D882F892F932F0030B1
:104F14002200AB000030AA000030A9000030A80035
:104F2400FF2F220028082100DC002200290821008C
:104F3400DD0022002A082100DE0022002B082100C7
:104F4400DF001F30DF36DE0CDD0CDC0C890BA42FF8
:104F54005C08E0002200AA17FF30A805FF30A9056D
:104F6400FF30AA050030AB0596302100E102E11FB5
:104F7400BC2FBD2FD72F6108803A973E0318C32F4B
:104F8400C42FC52F892F01302200AB36AA0CA90CDF
:104F9400A80C890BC62F01302100DC005C08E10756
:104FA400031DD52FD62FC52FEE2F20306102031CF1
:104FB400DC2FDD2FE92F892F01302200A835A90D20
:104FC400AA0DAB0D890BDF2F01302100E10261082E
:104FD400031DED2FEE2FDE2F60080319F22FF32FA0
:104FE400FF2F2200A809A909AA09AB09A80A0319D5
:0C4FF400A90A0319AA0A0319AB0A080055
:020000040001F9
:08000000FF3FFF3FFF3FFF3F00
:08000E008C3FF33FFF3FFF3F71
:00000001FF
