:0400000086EF00F097
:100008004682FACF10F0FBCF11F0D9CF12F0DACF39
:1000180013F0F3CF14F0F4CF15F0F6CF16F0F7CFB6
:1000280017F0F8CF18F0F5CF19F0F2AA1EEF00F08C
:1000380020EF00F02BEF00F0F2A425EF00F027EFFF
:1000480000F02BEF00F005EC0CF070EF00F0F2A6DA
:1000580030EF00F032EF00F03DEF00F0F2A037EFA4
:1000680000F039EF00F03DEF00F021EC0BF070EFFD
:1000780000F0F2AC42EF00F044EF00F070EF00F057
:10008800A0A649EF00F04BEF00F060EF00F0A1A64A
:1000980050EF00F052EF00F060EF00F002D85EEF92
:1000A80000F00500FA6E4350FD6E4450FE6EFF6A84
:1000B800FA50120070EF00F09DA665EF00F067EFB0
:1000C80000F070EF00F09EA66CEF00F06EEF00F00D
:1000D80070EF00F052EF00F019C0F5FF18C0F8FFFC
:1000E80017C0F7FF16C0F6FF15C0F4FF14C0F3FFE2
:1000F80013C0DAFF12C0D9FF11C0FBFF10C0FAFF0E
:100108004692110059EF0BF0000E01011D6F000E11
:10011800006F8CEC0BF0920E1A6E180E1B6E22EC10
:100128000CF0F00E1A6E150E1B6E2CEC0CF0F00E87
:100138001A6E150E1B6E27EC0CF0F28EF28C2D0E3B
:100148000001A46FFF0EA56F0DEC0BF0DD0E000192
:10015800A46FFE0EA56F0DEC0BF084EC05F01C0EE1
:100168000001A46FFF0EA56F0DEC0BF0C30E00018C
:10017800A46FFE0EA56F0DEC0BF0210EE5EC0BF055
:10018800210EDCEC0BF0F60E0001A46FFE0EA56F3D
:100198000DEC0BF0220EE5EC0BF0220EDCEC0BF074
:1001A800090E0001A46FFF0EA56F0DEC0BF0400EB9
:1001B8008BEC09F00001D151D8B4E5EF00F0E7EF7E
:1001C80000F067EF01F0EB0EA46FFF0EA56F0DECCA
:1001D8000BF00E0E236E200E2DEC08F001011D6FA2
:1001E8001D51010B016FD8901D31010B026F1D418C
:1001F800E8423F0B010B036F1D39E8461F0B010B4B
:10020800046F1D390F0B010B056F1D39E842070BF1
:10021800010B066F1D45E846030B010B076F1D45D3
:10022800010B086F570E0001A46FFF0EA56F1DC1CB
:10023800A6F0A76B0DEC0BF0100E236E200E2DEC24
:1002480008F001011D6F1D51010B0F6FD8901D3172
:10025800010B106F1D41E8423F0B010B116F1D3957
:10026800E8461F0B010B126F1D390F0B010B136FA3
:100278001D39E842070B010B146F1D45E846030BB7
:10028800010B156F1D45010B166F3D0E0001A46F84
:10029800FF0EA56F1DC1A6F0A76B0DEC0BF0120E9B
:1002A800236E200E2DEC08F001011D6F420E000197
:1002B800A46FFF0EA56F1DC1A6F0A76B0DEC0BF088
:1002C800000E0001D16FD051D8B46DEF01F06FEF7F
:1002D80001F0E0EF01F0F00EA46FFF0EA56F0DEC3A
:1002E8000BF00F0E236E200E2DEC08F001011D6F90
:1002F8001D51010B096FD8901D31010B0A6F1D416B
:10030800E8423F0B010B0B6F1D39E8461F0B010B31
:100318000C6F1D390F0B010B0D6F1D39E842070BD0
:10032800010B0E6F620E0001A46FFF0EA56F1DC1B9
:10033800A6F0A76B0DEC0BF0110E236E200E2DEC22
:1003480008F001011D6F4A0E0001A46FFF0EA56F92
:100358001DC1A6F0A76B0DEC0BF001011D51010B9F
:10036800176FD8901D31010B186F1D41E8423F0BE4
:10037800010B196F1D39E8461F0B010B1A6F1D3948
:100388000F0B010B1B6F1D39E842070B010B1C6F8C
:10039800130E236E200E2DEC08F001011D6F4F0E79
:1003A8000001A46FFF0EA56F1DC1A6F0A76B0DEC91
:1003B8000BF0000E0001D06F01010151D8B4E7EF36
:1003C80001F0E9EF01F000EF02F06D0E0001A46FFB
:1003D800FF0EA56F0FC1A6F0A76B0DEC0BF0010186
:1003E8000F51D8B4FAEF01F0FCEF01F0FEEF01F085
:1003F800000E0F6F000E016F0251D8B406EF02F025
:1004080008EF02F01FEF02F07F0E0001A46FFF0E4D
:10041800A56F10C1A6F0A76B0DEC0BF001011051F0
:10042800D8B419EF02F01BEF02F01DEF02F0000E36
:10043800106F000E026F0351D8B425EF02F027EFBA
:1004480002F03EEF02F0910E0001A46FFF0EA56FBF
:1004580011C1A6F0A76B0DEC0BF001011151D8B436
:1004680038EF02F03AEF02F03CEF02F0000E116FA5
:10047800000E036F0451D8B444EF02F046EF02F0C7
:100488005DEF02F0A30E0001A46FFF0EA56F12C16D
:10049800A6F0A76B0DEC0BF001011251D8B457EF81
:1004A80002F059EF02F05BEF02F0000E126F000E3F
:1004B800046F0551D8B463EF02F065EF02F07CEFEA
:1004C80002F0B50E0001A46FFF0EA56F13C1A6F0D0
:1004D800A76B0DEC0BF001011351D8B476EF02F0C5
:1004E80078EF02F07AEF02F0000E136F000E056F3E
:1004F8000651D8B482EF02F084EF02F09BEF02F0CD
:10050800C70E0001A46FFF0EA56F14C1A6F0A76B5C
:100518000DEC0BF001011451D8B495EF02F097EFF0
:1005280002F099EF02F0000E146F000E066F0751EB
:10053800D8B4A1EF02F0A3EF02F0BAEF02F0D90E9F
:100548000001A46FFF0EA56F15C1A6F0A76B0DECF7
:100558000BF001011551D8B4B4EF02F0B6EF02F078
:10056800B8EF02F0000E156F000E076F0851D8B4EF
:10057800C0EF02F0C2EF02F0D9EF02F0E20E000184
:10058800A46FFF0EA56F16C1A6F0A76B0DEC0BF0BC
:1005980001011651D8B4D3EF02F0D5EF02F0D7EF2E
:1005A80002F0000E166F000E086F0951D8B4DFEF85
:1005B80002F0E1EF02F0F8EF02F0760E0001A46F0E
:1005C800FF0EA56F17C1A6F0A76B0DEC0BF001018C
:1005D8001751D8B4F2EF02F0F4EF02F0F6EF02F0A0
:1005E800000E176F000E096F0A51D8B4FEEF02F023
:1005F80000EF03F017EF03F0880E0001A46FFF0E61
:10060800A56F18C1A6F0A76B0DEC0BF001011851EE
:10061800D8B411EF03F013EF03F015EF03F0000E59
:10062800186F000E0A6F0B51D8B41DEF03F01FEFBF
:1006380003F036EF03F09A0E0001A46FFF0EA56FCA
:1006480019C1A6F0A76B0DEC0BF001011951D8B434
:1006580030EF03F032EF03F034EF03F0000E196FC0
:10066800000E0B6F0C51D8B43CEF03F03EEF03F0D3
:1006780055EF03F0AC0E0001A46FFF0EA56F1AC171
:10068800A6F0A76B0DEC0BF001011A51D8B44FEF8F
:1006980003F051EF03F053EF03F0000E1A6F000E52
:1006A8000C6F0D51D8B45BEF03F05DEF03F074EFFE
:1006B80003F0BE0E0001A46FFF0EA56F1BC1A6F0CC
:1006C800A76B0DEC0BF001011B51D8B46EEF03F0D2
:1006D80070EF03F072EF03F0000E1B6F000E0D6F4A
:1006E8000E51D8B47AEF03F07CEF03F093EF03F0E8
:1006F800D00E0001A46FFF0EA56F1CC1A6F0A76B5A
:100708000DEC0BF001011C51D8B48DEF03F08FEF05
:1007180003F091EF03F0000E1C6F000E0E6F000146
:10072800D251D8B49AEF03F09CEF03F0DEEF00F05B
:100738000101002BC80E0019D8A4A5EF03F0A7EFFC
:1007480003F0ECEF03F01D51D8B4ADEF03F0AFEFB9
:1007580003F0CDEF03F0080E276E000E266E010E93
:10076800286E400E61EC09F00B0E276ECE0E266E39
:10077800020E286E400E61EC09F0000E01011D6F9B
:10078800FA0E0001A46FFF0EA56F0DEC0BF0E9EF58
:1007980003F0030E276EE80E266E010E286E400E3B
:1007A80061EC09F0010E276EF40E266E020E286E1B
:1007B800400E61EC09F0010E01011D6FF50E0001FC
:1007C800A46FFF0EA56F0DEC0BF0000E0101006F7A
:1007D8008BB0F1EF03F0F4EF03F0010EF5EF03F047
:1007E800000EFF0A0001AA6F8B50AA19FE0BAA1966
:1007F8008B6E000ED26FDEEF00F086EF00F042BE87
:1008080010EF04F0425006E14104D8B00EEF04F0B6
:1008180010EF04F017EF04F0000E00017C6F010EDA
:100828007B6F1BEF04F041C07BF042C07CF03FC0FF
:1008380077F040C078F067C07DF068C07EF069C08E
:100848007FF06AC080F06BC081F06CC082F06DC030
:1008580083F06EC084F0000E0001866F1F0E856F56
:10086800000EF26F93EF04F08507D8A086077D513C
:100878000F0B876F090E876544EF04F046EF04F00D
:100888004EEF04F0570E8725796F7A6B000E7A23A6
:1008980054EF04F0300E8725796F7A6B000E7A23B7
:1008A80079C087F0D30E8525D96E000E8621DA6EC1
:1008B80087C0DFFF7B07D8A07C077707D8A0780719
:1008C8007DC06FF07EC070F07FC071F080C072F0A4
:1008D80081C073F082C074F083C075F084C076F074
:1008E800050E80EF04F0D890763375337433733384
:1008F8007233713370336F33E82E77EF04F06FC0C3
:100908007DF070C07EF071C07FF072C080F073C05F
:1009180081F074C082F075C083F076C084F086BF21
:100928009FEF04F0865109E1020E855DD8A09FEF84
:1009380004F0A1EF04F0BDEF04F07D517E117F11AA
:1009480080118111821183118411D8A4AEEF04F0B3
:10095800B0EF04F038EF04F07CBFBDEF04F07C5139
:1009680006E17B05D8B0BBEF04F0BDEF04F038EF2B
:1009780004F065C02CF066C02DF0D30E85252E6ED0
:10098800000E86212F6E77C030F078C031F035EC3C
:1009980007F012008AC0D9FF8BC0DAFFDECFF6FF5E
:1009A800DDCFF7FFF86A0800F550250AD8A4DFEF75
:1009B80004F0E1EF04F06EEF05F08AC0D9FF8BC0B8
:1009C800DAFFDE2A000EDD22000E406E000E3F6EBA
:1009D8003FC0CFF0416842688AC0D9FF8BC0DAFFB8
:1009E800DECF9AF0DDCF9BF09AC0F6FF9BC0F7FFF1
:1009F800F86A0800F550780AD8A405EF05F007EF63
:100A080005F065EF05F08CC0D9FF8DC0DAFFDFCFA8
:100A18008EF0020EDE26DFCF8FF0000EDD228EC0B4
:100A2800D9FF8FC0DAFFDECF90F0DDCF91F090C014
:100A380092F091C093F00001946B956B966B976B55
:100A4800986B996B010E9A258E6F000E9B218F6F04
:100A58008AC0D9FF8BC0DAFF8EC0DEFF8FC0DDFFF2
:100A68004EEF05F088C065F089C066F092C067F067
:100A780093C068F094C069F095C06AF096C06BF0B6
:100A880097C06CF098C06DF099C06EF003EC04F05C
:100A980083EF05F09AC0F6FF9BC0F7FFF86A0800DD
:100AA800F5508E6F8F6B8F51000AD8B45EEF05F04A
:100AB80065EF05F08E51780AD8B436EF05F065EF8A
:100AC80005F08AC0D9FF8BC0DAFFDE2A000EDD22CE
:100AD80083EF05F08AC0D9FF8BC0DAFFDECFF6FFBF
:100AE800DDCFF7FFF86A0800F5501C6E1D6A88C054
:100AF8001EF089C01FF0EAEC06F065EF05F0120061
:100B08000A0E236E040E246E200E9FEC08F0000ED1
:100B1800236EFF0E246E200E9FEC08F0010E236E4C
:100B2800FF0E246E200E9FEC08F00C0E236EFF0EB5
:100B3800246E200E9FEC08F00D0E236EFF0E246E1F
:100B4800200E9FEC08F0040E236EFF0E246E200E7C
:100B58009FEC08F0050E236EFF0E246E200E9FEC0E
:100B680008F0060E236EFF0E246E200E9FEC08F090
:100B7800060E236EFF0E246E200E9FEC08F0080E62
:100B8800236E000E246E200E9FEC08F0090E236ED3
:100B9800000E246E200E9FEC08F0100E236E200E1F
:100BA8002DEC08F0110E236E200E2DEC08F0120E1D
:100BB800236E200E2DEC08F0130E236E200E2DEC64
:100BC80008F01200D2EC0BF00009D8B4EEEF05F0F3
:100BD800F0EF05F02BEF06F0FEEF05F065EC0CF0FA
:100BE80047EF06F061EC0CF047EF06F059EC0CF01B
:100BF80047EF06F0BDC00AF0BEC00BF002D80FEFF9
:100C080006F00500FA6E0001B151FD6EB251FE6E9C
:100C1800FF6AFA5012000C6E0D6A0D50000AD8B423
:100C280018EF06F0FAEF05F00C50010AD8B4FAEF05
:100C380005F0030AD8B4F2EF05F0010AD8B4F6EFCC
:100C480005F0070AD8B4FAEF05F0FAEF05F000014D
:100C5800CE91C8C0D9FFC9C0DAFFC84BC92BDF5035
:100C680069EC0CF00001CA07D8A0CB07CA51CB1118
:100C7800D8A441EF06F043EF06F046EF06F0060E63
:100C880047EF06F0030E120086EC0CF0C8C0D9FF3F
:100C9800C9C0DAFFDF6E0001C84BC92BCA07D8A04C
:100CA800CB07CA51CB11D8B45CEF06F05EEF06F063
:100CB80063EF06F070EC0CF0050E9AEF06F0CE87A5
:100CC8006EEF06F04DEC0CF09AEF06F051EC0CF0DC
:100CD8009AEF06F0B7C00AF0B8C00BF002D87EEF62
:100CE80006F00500FA6EAB51FD6EAC51FE6EFF6A60
:100CF800FA5012000C6E0D6A0D50000AD8B487EF36
:100D080006F06AEF06F00C50010AD8B46AEF06F054
:100D1800030AD8B466EF06F0010AD8B466EF06F005
:100D2800070AD8B46AEF06F06AEF06F012001C6EE4
:100D3800010E1D6E0001CEB5A4EF06F0A6EF06F079
:100D4800E8EF06F01CC0C7F0CE93CE85CE910E0E0C
:100D5800CC6F010EC66FF40EC56FCE87180EAB6F41
:100D6800190EAC6F000EB76F000EB86F180EAD6F8E
:100D7800190EAE6F000EB96F000EBA6F180EAF6F76
:100D8800190EB06F000EBB6F000EBC6F180EB16F5E
:100D9800190EB26F000EBD6F000EBE6F140EB36F4A
:100DA800190EB46F000EBF6F000EC06FDA0E1A6E08
:100DB800180E1B6E40EC0CF080EC0CF07BEC0BF08A
:100DC80078EC0CF0000E1D6E1D5012001E501F1006
:100DD800D8B4F1EF06F0F3EF06F0FCEF06F01E5082
:100DE8001F10D8A4FAEF06F0FCEF06F001EF07F0A9
:100DF8001C501DEC0CF034EF07F020EE09F01E50EB
:100E0800D9261F50DA22DE50DE10D8B40EEF07F0D4
:100E180010EF07F02BEF07F020EE09F01E50D9264F
:100E28001F50DA2210EE03F01E50E1261F50E22276
:100E3800DE50E65CE650800A246EDE50800A2458B4
:100E4800D8B029EF07F02BEF07F034EF07F020EECA
:100E580003F01E50D9261F50DA22DE2A000EDD22AA
:100E6800120031BE3AEF07F03CEF07F042EF07F00F
:100E780030C063F031C064F047EF07F0000E0001A6
:100E8800646F000E636F000E0001626F000E616FE9
:100E98005BEF07F0000E1D6E200E1C6E2CC01EF0BE
:100EA8002DC01FF0EAEC06F00001614B622B635184
:100EB800615D6251800A606F6451800A6059D8A0F0
:100EC80068EF07F06AEF07F04EEF07F02EC025F045
:100ED8002FC026F02CC027F02DC028F0AFEC09F069
:100EE80012000001CE8786EF07F05DEC0CF0B2EF40
:100EF80007F084EC0CF0030EB2EF07F059EC0CF09D
:100F0800B2EF07F0B7C00AF0B8C00BF002D896EFFE
:100F180007F00500FA6EAB51FD6EAC51FE6EFF6A2C
:100F2800FA5012000C6E0D6A0D50000AD8B49FEFEB
:100F380007F082EF07F00C50010AD8B482EF07F0EF
:100F4800030AD8B479EF07F0010AD8B479EF07F0AB
:100F5800070AD8B47DEF07F082EF07F012001E6E83
:100F68001A501B10D8B4BBEF07F0BDEF07F0D7EF4E
:100F780007F01E50020DAB0EF324D96E000EF420BC
:100F8800DA6E1AC0DEFF1BC0DDFF1E50020DB70E61
:100F9800F324D96E000EF420DA6E1CC0DEFF1DC0EB
:100FA800DDFFEFEF07F01E50020DAB0EF324D96EF4
:100FB800000EF420DA6E180EDE6E190EDD6E1E506D
:100FC800020DB70EF324D96E000EF420DA6E000E6F
:100FD800DE6E000EDD6E1200056E01500210D8B4F0
:100FE800F8EF07F0FAEF07F014EF08F00550020DDC
:100FF800AB0EF324D96E000EF420DA6E01C0DEFFCA
:1010080002C0DDFF0550020DB70EF324D96E000EA5
:10101800F420DA6E03C0DEFF04C0DDFF2CEF08F019
:101028000550020DAB0EF324D96E000EF420DA6ED3
:10103800180EDE6E190EDD6E0550020DB70EF32484
:10104800D96E000EF420DA6E000EDE6E000EDD6E34
:101058001200246E000E256E24509BEC06F0000949
:10106800D8B439EF08F03BEF08F030EF08F0980EED
:101078001F6E150E206E250E216E000E226E99EC45
:101088000BF0230E1A6E000E1B6E000E1D6E010E65
:101098001C6E35EC0BF0000E1F6E000E206E000E5D
:1010A800216E000E226EA5EC0BF045EC0CF048EC1E
:1010B8000AF0E806D8B463EF08F065EF08F05BEFD4
:1010C80008F02550120082EC0CF00001CEA16FEF61
:1010D80008F071EF08F07EEF08F0D2EC0BF0000991
:1010E800D8B479EF08F07BEF08F07EEF08F00F0E28
:1010F8000001CC6F0001CC51020D830EF324F66E73
:10110800FE0EF420F76EF86A000EF8220900F5CFFB
:101118000EF00900F5CF0FF002D89CEF08F005009B
:10112800FA6E0E50FD6E0F50FE6EFF6AFA501200F6
:101138000001CC6F1200256E25509BEC06F00009CB
:10114800D8B4A9EF08F0ABEF08F0A0EF08F0400E14
:101158001F6E150E206E240E216E000E226E99EC65
:101168000BF0230E1A6E000E1B6E000E1D6E010E84
:101178001C6E35EC0BF0000E1F6E000E206E000E7C
:10118800216E000E226EA5EC0BF045EC0CF048EC3D
:101198000AF0E806D8B4D3EF08F0D5EF08F0CBEFA3
:1011A80008F012000001CE91020ECD6FE4EF08F0B6
:1011B8005DEC0CF008EF09F059EC0CF008EF09F0C1
:1011C800BBC00AF0BCC00BF002D8F4EF08F0050071
:1011D800FA6EAF51FD6EB051FE6EFF6AFA50120002
:1011E8000C6E0D6A0D50000AD8B4FDEF08F0E0EF60
:1011F80008F00C50020AD8B4DCEF08F0010AD8B4A1
:10120800DCEF08F0E0EF08F01200000E8D6E000E23
:101218008C6E000E896E000E8A6E000E8B6E070EA5
:10122800966E92689368BE0E946E95680F013B693E
:10123800240E3A6F0F0E396F070E3C6F2F0E386F62
:10124800300E616EF19E6288628A260E1A6E190E41
:101258001B6E2CEC0CF0280E1A6E190E1B6E27EC68
:101268000CF0F28612009EC0A2F09FC0A3F04CEFD3
:1012780009F09CC088F09DC089F0A20E00018A6F19
:10128800000E8B6FA0C08CF0A1C08DF0CEEC04F0E6
:10129800A2C0F6FFA3C0F7FFF86A0800F5500009DE
:1012A800D8A459EF09F05BEF09F03DEF09F0000E03
:1012B80000019D6F000E9C6F1200296E2850040DCE
:1012C800F350060F236E000E246E29509FEC08F091
:1012D8002850040DF350070F236E000E246E29507A
:1012E8009FEC08F02850040DF350080F236E26C019
:1012F80024F029509FEC08F02850040DF350090FF2
:10130800236E2750246E29509FEC08F01200266E99
:10131800000E236E310E246E26509FEC08F0FE0E50
:10132800236E030E246E26509FEC08F0000E236EE9
:10133800A10E246E26509FEC08F0010E236E040EB9
:10134800246E26509FEC08F0000E1B6E010E1A6EDC
:1013580030EC0AF01200000E2B6E000E2A6EC0EF61
:1013680009F029C01CF01D6A27C01EF028C01FF014
:10137800EAEC06F02A4A2B2A2A502524D96E2B504B
:101388002620DA6EDF50296E2950D8A4CEEF09F056
:10139800D0EF09F0B5EF09F012001A6E010E1B6EBE
:1013A8000001CEB3DAEF09F0DCEF09F0EFEF09F056
:1013B800CE83000E1B6E1A50D8B4E5EF09F0E7EFA4
:1013C80009F0EBEF09F0010ECC6FEDEF09F0020E1A
:1013D800CC6F7AEC0CF01B50120020EE02F00A5091
:1013E800D9260B50DA22DECF01F0DDCF02F00AC099
:1013F800D9FF0BC0DAFFDECF03F0DDCF04F047ECF6
:101408000BF0000E066E000E076E000E086E000E42
:10141800096EB1EC0BF0020E1200080EB86E900EB9
:10142800AB6E240EAC6EA00EAF6E010EB06E000E49
:101438001A6E000E1B6E36EC0CF0000E1A6E000EC3
:101448001B6E31EC0CF0000E1A6E000E1B6E3BEC9E
:101458000CF0000E456E12003AEF0AF0060E1C6EF4
:10146800300EE82EFED71C2EFCD700D01A06D8A0C6
:101478001B061A2806E11B28D8A445EF0AF047EFF7
:101488000AF032EF0AF01200010E1A6E0001CEB314
:1014980050EF0AF052EF0AF05CEF0AF0CE95C769F8
:1014A80080EC0CF07CEC0CF07EEC0CF0CDC01AF06B
:1014B8001A5012003C503D10D8B465EF0AF067EF9F
:1014C8000AF073EF0AF002D873EF0AF00500FA6E1B
:1014D8003C50FD6E3D50FE6EFF6AFA50120012003D
:1014E80032503310D8B47BEF0AF07DEF0AF089EF61
:1014F8000AF002D889EF0AF00500FA6E3250FD6E44
:101508003350FE6EFF6AFA50120012003450351044
:10151800D8B491EF0AF093EF0AF09FEF0AF002D8DF
:101528009FEF0AF00500FA6E3450FD6E3550FE6EDE
:10153800FF6AFA50120012000AC001F00BC002F054
:10154800000E046E010E036E47EC0BF0000E066EE3
:10155800000E076E000E086E000E096EB1EC0BF05F
:10156800040E12000AC001F00BC002F0000E046E57
:10157800020E036E47EC0BF0000E066E000E076EAF
:10158800000E086E000E096EB1EC0BF0020E120090
:101598000AC001F00BC002F0000E046E010E036ECB
:1015A80047EC0BF0000E066E000E076E000E086E7C
:1015B800000E096EB1EC0BF0020E12000AC001F029
:1015C8000BC002F0000E046E020E036E47EC0BF027
:1015D800000E066E000E076E000E086E000E096EF5
:1015E800B1EC0BF0040E120081B8FDEF0AF0FFEF2A
:1015F8000AF002EF0BF0010E0001D16F81BA07EF7C
:101608000BF009EF0BF00CEF0BF0010E0001D06F9F
:101618001200A60E0001A86F000EA96F000E9C6FA5
:10162800000E9D6FA4C09EF0A5C09FF0A80EA06FED
:10163800000EA16F37EC09F0120062A826EF0BF03C
:1016480028EF0BF02AEF0BF08AEC0AF062AA2FEFD2
:101658000BF031EF0BF033EF0BF074EC0AF0F29073
:1016680012000001CEA73BEF0BF03DEF0BF046EF69
:101678000BF01AC0C8F01BC0C9F01CC0CAF01DC0CE
:10168800CBF0CE9712000001CEA74DEF0BF04FEF35
:101698000BF058EF0BF001C0C8F002C0C9F003C04E
:1016A800CAF004C0CBF0CE97120000EEABF0480EA3
:1016B800EE6AE806FDE100EE3FF0070EEE6AE80686
:1016C800FDE146904692000188EF00F0000ED76ECB
:1016D800640ED66E640E3E6EF294F28A240E1A6E72
:1016E800190E1B6E22EC0CF0D70ED56E1200C6BA7E
:1016F80080EF0BF082EF0BF08BEF0BF0000EC76E54
:10170800080EC66E000EC56E270EC86EC68A120079
:1017180076EC0CF0C8EC0BF009EC09F0FEEC0BF0E1
:101728006AEC0BF011EC0AF012001FC01AF020C08E
:101738001BF021C01CF022C01DF0000EB3EC07F016
:1017480012001FC01AF020C01BF021C01CF022C0DC
:101758001DF0020EB3EC07F0120006C001F007C03E
:1017680002F008C003F009C004F0000EF0EC07F026
:1017780012001A6E9EA8C3EF0BF0C5EF0BF0BEEF78
:101788000BF01AC0ADFF1200000EC76E280EC66E11
:10179800000EC56E270EC86EC69A1200C5BCD7EFDC
:1017A8000BF0DAEF0BF0010EDBEF0BF0000E12007E
:1017B800266E010E236E000E246E26509FEC08F054
:1017C8001200266E000E236E000E246E26509FEC2B
:1017D80008F012000001CE81C751C72569EC0CF052
:1017E800030E12000001CE81D880C73569EC0CF0D9
:1017F800050E1200700ED36E040ED26E000E9B6E94
:101808001200F2943EC0D6FF5EEC0AF0120000010E
:10181800CE93000ECD6F0E0E12000001CE9188EC13
:101828000CF0040E12000001CE93000ECD6F0E0EC8
:1018380012001B6E1B50BDEC0BF012001AC03CF0DE
:101848001BC03DF012001AC032F01BC033F012006A
:101858001AC034F01BC035F012001AC038F01BC093
:1018680039F012001AC03AF01BC03BF012001AC03F
:1018780036F01BC037F012001AC043F01BC044F00A
:101888001200000ED1EC09F01200010E0001D26F17
:10189800120073EC0CF0090E120073EC0CF00A0E37
:1018A800120070EC0CF0050E12008EEC0CF0000E1D
:1018B800120090EC0CF0010E120090EC0CF0020EED
:1018C800120090EC0CF0010E1200016E01C0C9FF6D
:1018D800120067EC08F01200C59AC5881200C58A84
:1018E800C5881200D09E12009D861200C580120085
:1018F8009D961200C69A12009E9612009E9612009D
:101908009E861200C9501200C5861200050E1200EC
:10191800010E1200C5841200C582120012001200C6
:021928001200AB
:10FE8200002E18EC17DC17CC0B900C2218EA0ECAC5
:10FE920018C218BA18B218AA18A2189A181618ACCA
:10FEA2001140202221FDFCFBFA06FE0100060F0E86
:10FEB200111003020706090805040A0D0C131201AA
:10FEC2000053657474696E67206F75747075742061
:10FED2006D637032333031370A0D005365747469C3
:10FEE2006E6720696E707574206D637032333031C5
:10FEF200370A0D00446F6E65206F7574707574203B
:10FF02006D6370310A0D00446F6E65206F757470F9
:10FF12007574206D6370320A0D00446F6E6520693E
:10FF22006E707574206D63700A0D0050726F677287
:10FF3200616D2053746172740A0D00494E5443413D
:10FF420050413A25780A0D00494E54434150423AF5
:10FF520025780A0D00494E5446413A25780A0D008B
:10FF6200494E5446423A25780A0D005041303A250E
:10FF7200780A0D005042303A25780A0D005041317E
:10FF82003A25780A0D005042313A25780A0D005080
:10FF920041323A25780A0D005042323A25780A0D4C
:10FFA200005041333A25780A0D005042333A257801
:10FFB2000A0D005041343A25780A0D005042343A75
:10FFC20025780A0D005041353A25780A0D00504235
:10FFD200353A25780A0D005041363A25780A0D0047
:10FFE2005041373A25780A0D0049410A0D0049422D
:0EFFF2000A0D004F660A0D004F6E0A0D00004A
:020000040020DA
:08000000FFFFFFFFFFFFFFFF00
:020000040030CA
:0E000000FF281F3CFFBF85FF0FC00FE00F4021
:00000001FF
