:1000000080311728080008007E1480314101161A3B
:100010000C1E0E28B631B926803115280B1B171F70
:1000200015280D1F1528B731EC277E1009008031E7
:1000300019284201A2318A228031DF00A2318B22AD
:100040008031E000A2318C228031E10067308400F1
:10005000003085000930A83101208031493084000A
:10006000013085001630A83101208031A030840095
:10007000013085002030A83101207E104001A631DA
:100080003F2E80348034803480347F3480347F3419
:100090008034803480347F3480347F3480348034C2
:1000A0007F34803480348034803480347F348034B2
:1000B0007F3480347F347F34803480347F348034A4
:1000C0007F34803480347F348034803480347F3493
:1000D00080347F3480347F3480347F3480347F3484
:1000E0007F34803480347F348034803480347F3473
:1000F00080347F3480347F34803480347F34803463
:100100007F347F3480347F3480347F3480347F3454
:1001100080348034803480347F3480347F34803441
:1001200080347F34803480347F3480348034803431
:1001300080347F3480347F3480347F3480347F3423
:1001400080347F34803480347F3480347F347F3413
:100150007F347F348034803480347F3480347F3403
:1001600080348034803480347F347F3480348034F1
:10017000803480348034803480347F3480347F34E1
:100180007F3480347F347F347F347F347F347F34D6
:1001900080347F347F34803480347F3480348034C2
:1001A0007F347F3480348034803480347F347F34B3
:1001B000803480347F347F348034803480348034A1
:1001C00080347F3480347F3480347F3480347F3493
:1001D00080347F347F348034803480347F347F3483
:1001E00080347F347F3480347F3480347F34803473
:1001F0007F3480347F3480347F3480347F34803463
:1002000081347F3480347F3480347F3480347F3451
:10021000803480347F3480347F3480347F34803441
:100220007F3480347F3480347F3480347F34803432
:100230007F3480347F347F3480347F3480347F3423
:1002400080347F3480347F3480347F3480347F3412
:100250007F3480347F3480347F3480347F34803402
:100260007F3480347F347F3480347F3480347F34F3
:1002700080347F3480347F347F3480347F348034E2
:100280007F3480347F34803480347F3480347F34D2
:1002900080347F3480347F3480347F3480347F34C2
:1002A0007F3480347F3480347F34803480347F34B2
:1002B00080347F3480347F3480347F3480347F34A2
:1002C000803480347F3480347F3480347F34803491
:1002D0007F3480347F3480347F3480347F34803482
:1002E0007F347F3480347F3480347F3480347F3473
:1002F00080347F3480347F347F3480347F34803462
:100300007F347F3480347F34803480347F34803451
:100310007F34803480347F3480347F3480347F3441
:10032000803480347F3480347F3480347F34803430
:100330007F3480347F3480347F3480347F347F3422
:1003400080347F3480347F3480347F3480347F3411
:1003500080347F34803480347F3480347F34803400
:100360007F3480347F34803480347F3480347F34F1
:1003700080347F3480347F3480347F3480348034E0
:100380007F3480347F3480347F3480347F348034D1
:100390007F347F3480347F3480347F3480347F34C2
:1003A00080347F3480347F3480347F3480347F34B1
:1003B000803480347F3480347F3480347F348034A0
:1003C0007F3480347F3480347F34803480347F3491
:1003D00080347F3480347F3480347F348034803480
:1003E0007F3480347F347F3480347F3480347F3472
:1003F000803480347F3480347F3480347F34803460
:100400007F3480347F3480347F34803480347F3450
:1004100080347F3480347F3480347F3480347F3440
:1004200080347F3480347F347F3480347F34803430
:100430007F3480347F34803480347F3480347F3420
:100440007F3480347F3480347F3480347F34803410
:1004500080347F3480347F3480347F3480347F3400
:1004600080347F3480347F34803480347F348034EF
:100470007F3480347F3480347F34803480347F34E0
:1004800080347F3480347F3480347F3480347F34D0
:1004900080347F3480347F34803480347F348034BF
:1004A0007F3480347F3480347F3480347F348034B0
:1004B0007F3480347F3480347F347F3480347F34A1
:1004C00080347F3480347F3480347F3480347F3490
:1004D00080347F347F3480347F3480347F34803480
:1004E0007F34803480347F3480347F3480347F3470
:1004F00080347F3480347F34803480347F3480345F
:100500007F3480347F3480347F34803480347F344F
:1005100080347F3480347F3480347F34803480343E
:100520007F3480347F3480347F3480347F3480342F
:100530007F3480347F3480347F3480347F347F3420
:1005400080347F3480347F3480347F3480347F340F
:1005500080347F34803480347F3480347F348034FE
:100560007F3480347F3480347F3480347F348034EF
:100570007F347F3480347F3480347F3480347F34E0
:10058000803480347F3480347F3480347F348034CE
:100590007F3480347F3480347F34803480347F34BF
:1005A00080347F3480347F3480347F3480347F34AF
:1005B00080347F3480347F3480347F3480347F349F
:1005C00080347F34803480347F3480347F3480348E
:1005D0007F3480347F3480347F3480347F3480347F
:1005E0007F3480347F347F3480347F3480347F3470
:1005F00080347F3480347F3480347F34803480345E
:100600007F3480347F34803480347F3480347F344E
:1006100080347F347F3480347F3480347F347F343F
:1006200080347F347F3480347F3480347F3480342E
:1006300080347F3480347F3480347F347F3480341E
:100640007F3480347F3480347F3480347F3480340E
:100650007F34803480347F3480347F3480347F34FE
:1006600080347F3480347F3480347F3480347F34EE
:1006700080347F3480347F3480347F3480347F34DE
:100680007F3480347F3480347F3480347F348034CE
:100690007F3480347F34803480347F3480347F34BE
:1006A00080347F3480347F3480347F3480348034AD
:1006B0007F3480347F3480347F3480347F3480349E
:1006C0007F3480347F347F3480347F3480347F348F
:1006D00080347F3480347F347F3480347F3480347E
:1006E0007F3480347F3480347F3480347F347F346F
:1006F00080347F347F3480347F3480347F3480345E
:100700007F34803480347F3480347F3480347F344D
:1007100080347F3480347F3480347F3480347F343D
:1007200080347F3480347F34803480347F3480342C
:100730007F3480347F3480347F347F3480347F341E
:1007400080347F34803480347F347F3480347F340D
:1007500080347F34803480347F3480347F348034FC
:100760007F347F3480347F34803480347F348034ED
:100770007F3480347F347F3480347F3480348034DD
:100780007F34803480347F3480347F3480347F34CD
:1007900080347F3480347F3480347F3480347F34BD
:1007A00080347F34803480347F34803480347F34AC
:1007B0007F3480347F3480347F3480347F3480349D
:1007C0007F3480347F3480347F3480347F347F348E
:1007D00080347F3481347E3481347E3480347F347D
:1007E000803480347F3480347F3480347F3480346C
:1007F0007F3480347F3480347F34803480347F345D
:1008000080347F34803480347F3480347F3480344B
:100810007F3480347F347F3480347F347F3480343D
:100820007F3480347F3480347F347F3480347F342D
:100830007F34803480347F3480347F3480347F341C
:1008400080347F3480347F3480347F3480347F340C
:1008500080347F3480347F3480347F347F348034FC
:100860007E3481347E3482347E3481347F348034EB
:1008700080347F3480347F3480347F3480347F34DC
:1008800080347F3480347F34803480347F348034CB
:100890007F3480347F34803480347F3480347F34BC
:1008A000803480347F3480347F3480347F347F34AC
:1008B00080347F347F3480347F3480347F3480349C
:1008C0007F3480347F3480347F3480347F3480348C
:1008D0007F3480347F3480347F3480347F3480347C
:1008E0007F3480347F34803480347F3480347F346C
:1008F00080347F3481347E3481347E3481347F345B
:10090000803480347F3481347E3481347F34803449
:100910007F3480347F3480347F3480347F347F343C
:1009200080347F3480347F3480347F34803480342A
:100930007F347F3480347F3480347F3480347F341C
:1009400080347F347F3480347F3480347F3480340B
:1009500080347F3480347F3480347F3480347F34FB
:1009600080347F3480347F347F3480347F348034EB
:100970007F3480347F3480347F3480347F348034DB
:100980007F3480347F3480347F3480347F348034CB
:1009900080347F3480347F3480347F3480347F34BB
:1009A00080347F3480347F3480347F3480348034AA
:1009B0007F3480347F3480347F3480347F3480349B
:1009C0007F3480347F3480347F3480347F3480348B
:1009D0007F347F3480347F3480347F3480347F347C
:1009E00080347F3480347F34803480347F3480346A
:1009F00080347F3480347F3480347F3480347F345B
:100A000080347F3480347F3480347F348034803449
:100A10007F3480347F3480347F3480347F3480343A
:100A20007F3480347F34803480347F3480347F342A
:100A300080347F34803480347F3480347F34803419
:100A40007F347F3480347F34803480347F3480340A
:100A50007F34803480347F3480347F3480347F34FA
:100A60007F3480347F3480347F347F3480347F34EB
:100A700080347F34803480347F3480347F348034D9
:100A800080347F347F3480347F3480347F347F34CB
:100A900080347F3480347F34803480347F348034B9
:100AA00080347F3480347F3480347F347F348034AA
:100AB0007F3480347F3480347F3480347F3480349A
:100AC0007F3480347F347F3480347F3480347F348B
:100AD00080347F3480347F34803480347F34803479
:100AE0007F3480347F3480347F3480347F3480346A
:100AF0007F347F3480347F34803480347F3480345A
:100B00007F3480347F3480347F347F348034803449
:100B10007F3480347F3480347F347F3480347F343A
:100B200080347F3480347F3480347F3480347F3429
:100B300080347F3480347F3480347F3480347F3419
:100B400080347F3480347F3480347F3480347F3409
:100B5000803480347F3480347F3481347F348034F7
:100B60007F3480347F347F3480347F3480347F34EA
:100B700080347F3480347F3480347F3480347F34D9
:100B800080347F3480347F3480347F3480347F34C9
:100B900080347F347F3480347F3480347F348034B9
:100BA0007F3480347F3480347F3480347F348034A9
:100BB0007F3480347F3480347F3480347F34803499
:100BC0007F347F3480347F3480347F348034803489
:100BD0007F34803480347F3480347F3480347F3479
:100BE00080347F3480347F3480347F3480347F3469
:100BF0007F3480347F3480347F3480347F34803459
:100C00007F3480347F3480347F3480347F34803448
:100C10007F34803480347F3480347F3480347F3438
:100C200080347F3480347F3480347F3480347F3428
:100C300080347F3480347F347F3480347F34803418
:100C40007F3480347F3480347F3480347F34803408
:100C50007F3480347F3480347F3480347F348034F8
:100C60007F3480347F3480347F34803480347F34E8
:100C700080347F3480347F3480347F3480347F34D8
:100C800080347F3480347F347F3480347F348034C8
:100C90007F3480347F34803480347F3480347F34B8
:100CA00080347F3480347F3480347F347F348034A8
:100CB0007F3480347F3480347F3480347F34803498
:100CC0007F34803480347F3480347F347F34803488
:100CD0007F3480347F34803480347F3480347F3478
:100CE0008034803480347F3480347F3480347F3467
:100CF00080347F347F3480347F3480347F34803458
:100D00007F3480347F3480347F34803480347F3447
:100D100080347F3480347F3480347F3480347F3437
:100D200080347F347F3480347F3480347F34803427
:100D30007F3480347F3480347F3480347F34803417
:100D40007F34803480347F3480347F3480347F3407
:100D500080347F3480347F3480347F3480347F34F7
:100D6000803480347F3480347F3480347F348034E6
:100D70007F3480347F3480347F34803480347F34D7
:100D800080347F347F34803480347F3480348034C6
:100D90007F3480347F3480347F3480347F348034B7
:100DA0007F3480347F347F3480347F3480347F34A8
:100DB00080347F3480347F34803480347F34803496
:100DC0007F3480347F347F3480347F3480347F3488
:100DD000803480347F3480347F3480347F34803476
:100DE0007F3480347F3480347F347F3480347F3468
:100DF00080347F3480347F3480347F3480347F3457
:100E000080347F3480347F3480347F3480347F3446
:100E100080347F34803480347F3480347F34803435
:100E20007F3480347F3480347F3480347F34803426
:100E30007F3480347F3480347F347F3480347F3417
:100E400080347F3480347F3480347F348034803405
:100E50007F3480347F3480347F3480347F348034F6
:100E60007F347F3480347F3480347F3480347F34E7
:100E700080347F3480347F3480347F3480347F34D6
:100E8000803480347F3480347F3480347F348034C5
:100E90007F3480347F3480347F3480347F348034B6
:100EA0007F3480347F3480347F34803480347F34A6
:100EB00080347F3480347F3480347F3480347F3496
:100EC00080347F3480347F3480347F347F34803486
:100ED0007F34803480347F3480347F3480347F3476
:100EE000803480347F3480347F3480347F34803465
:100EF0007F347F34803480347F3480347F34803456
:100F00007F3480347F3480347F3480347F34803445
:100F10007F34803480347F3480347F3480347F3435
:100F200080347F3480347F34803480347F34803424
:100F30007F3480347F3480347F3480347F34803415
:100F40007F3480347F3480347F3480347F34803405
:100F50007F34803480347F3480347F3480347F34F5
:100F600080347F3480347F3480347F3480347F34E5
:100F700080347F347F3480347F3480347F348034D5
:100F80007F347F3480347F3480347F3480347F34C6
:100F900080347F3480347F3480347F3480347F34B5
:100FA00080347F3480347F3480347F3480348034A4
:100FB0007F3480347F3480347F3480347F34803495
:100FC0007F3480347F347F3480347F3480347F3486
:100FD00080347F3480347F3480347F3480347F3475
:100FE00080347F3480347F3480347F3480347F3465
:100FF000803480347F3480347F3480347F34803454
:101000007F3480347F3480347F3480347F34803444
:101010007F34803480347F3480347F3480347F3434
:101020007F3480347F3480347F3480347F34803424
:101030007F3480347F3480347F3480347F34803414
:101040007F34803480347F3480347F3480347F3404
:1010500080347F3480347F34803480347F348034F3
:101060007F3480347F3480347F3480347F348034E4
:101070007F3480347F3480347F3480347F348034D4
:101080007F34803480347F3480347F3480347F34C4
:1010900080347F3480347F3480347F347F348034B4
:1010A0007F3480347F347F3480347F3480347F34A5
:1010B00080347F3480347F3480347F3480347F3494
:1010C00080347F3480347F3480347F3480347F3484
:1010D0007F3480347F3480347F3480347F34803474
:1010E0007F3480347F3480347F3480347F347F3465
:1010F00080347F3480347F3480347F3480347F3454
:1011000080347F3480347F3480347F3480347F3443
:1011100080347F3480347F34803480347F34803432
:101120007F3480347F3480347F3480347F34803423
:101130007F3480347F34803480347F3480347F3413
:1011400080347F34803480347F34803480347F3402
:101150007F3480347F3480347F347F3480347F34F4
:1011600080347F3480347F3480347F3480347F34E3
:1011700080347F3480347F3480347F3480347F34D3
:101180007F3480347F3480347F3480347F348034C3
:101190007F3480347F3480347F347F3480347F34B4
:1011A00080347F3480347F3480347F3480347F34A3
:1011B00080347F3480347F3480347F3480347F3493
:1011C00080347F3480347F3480347F347F34803483
:1011D0007F3480347F3480347F3480347F34803473
:1011E00080347F3480347F347F3480347F34803463
:1011F0007F3480347F3480347F34803480347F3453
:1012000080347F3480347F3480347F3480347F3442
:1012100080347F34803480347F34803480347F3431
:1012200080347F3480347F3480347F348034803421
:101230007F3480347F3480347F3480347F34803412
:101240007F3480347F34803480347F347F34803402
:101250007F3480347F3480347F3480347F347F34F3
:1012600080347F3480347F3480347F3480347F34E2
:1012700080347F347F3480347F3480347F348034D2
:101280007F3480347F34803480347F3480347F34C2
:101290007F3480347F3480347F3480347F347F34B3
:1012A00080347F3480347F3480347F3480347F34A2
:1012B000803480347F3480347F3480347F34803491
:1012C0007F34803480347F3480347F3480347F3482
:1012D00080347F3480347F347F3480347F34803472
:1012E00080347F3480347F3480347F3480347F3462
:1012F0007F3480347F3480347F3480347F34803452
:101300007F3480347F347F3480347F3480347F3442
:1013100080347F3480347F34803480347F34803430
:101320007F3480347F3480347F347F3480347F3422
:1013300080347F347F3480347F3480347F347F3412
:1013400080347F3480347F3480347F3480347F3401
:101350007F3480347F347F34803480347F348034F1
:101360007F3480347F3480347F34803480347F34E1
:1013700080347F3480347F3480347F347F348034D1
:101380007F34803480347F3480347F3480347F34C1
:1013900080347F3480347F3480347F3480347F34B1
:1013A0007F3480347F3480347F3480347F347F34A2
:1013B00080347F3480347F3480347F3480347F3491
:1013C00080347F347F3480347F3480347F34803481
:1013D0007F3480347F3480347F3480347F347F3472
:1013E00080347F3480347F3480347F348034803460
:1013F00080347F3480347F3480347F3480347F3451
:101400007F3480347F3480347F3480347F34803440
:101410007F34803480347F3480347F3480347F3430
:1014200080347F3480347F347F3480347F34803420
:101430007F3480347F34803480347F3480347F3410
:1014400080347F3480347F3480347F3480347F3400
:101450007F3480347F3480347F3480347F348034F0
:101460007F3480347F3480347F3480347F348034E0
:101470007F347F3480347F3480347F3480347F34D1
:101480007F3480347F3480347F3480347F348034C0
:101490007F3480347F347F3480347F3480347F34B1
:1014A00080347F3480347F3480347F347F348034A0
:1014B0007F3480347F3480347F3480347F34803490
:1014C0007F3480347F34803480347F3480347F3480
:1014D00080347F348034803480347F34803480346E
:1014E0007F3480347F3480347F347F3480347F3461
:1014F00080347F347F3480347F3480347F34803450
:101500007F3480347F3480347F347F3480347F3440
:1015100080347F3480347F3480347F3480347F342F
:1015200080347F3480347F347F3480347F3480341F
:101530007F3480347F3480347F3480347F3480340F
:101540007F34803480347F3480347F3480347F34FF
:101550007F3480347F347F3480347F3480347F34F0
:1015600080347F347F3480347F3480347F348034DF
:101570007F3480347F3480347F3480347F347F34D0
:1015800080347F34803480347F3480347F348034BE
:1015900080347F3480347F3480347F347F348034AF
:1015A0007F3480347F34803480347F3480347F349F
:1015B000803480347F3480347F3480347F347F348F
:1015C00080347F3480347F3480347F3480347F347F
:1015D00080347F347F3480347F3480347F3480346F
:1015E0007F3480347F3480347F34803480347F345F
:1015F00080347F3480347F347F3480347F3480344F
:101600007F34803480347F3480347F347F3480343E
:101610007F347F3480347F3480347F347F3480342F
:101620007F34803480347F3480347F34803480341D
:101630007F3480347F347F3480347F347F3480340F
:1016400080347F3480347F3480347F3480347F34FE
:101650007F3480347F3480347F3480347F348034EE
:101660007F3480347F3480347F3480347F347F34DF
:1016700080347F3480347F3480347F3480347F34CE
:1016800080347F3480347F34803480347F348034BD
:101690007F3480347F34803480347F3480348034AD
:1016A0007F3480347F347F3480347F3480347F349F
:1016B00080347F3480347F3480347F3480347F348E
:1016C00080347F3480347F3480347F34803480347D
:1016D0007F3480347F3480347F3480347F3480346E
:1016E0007F3480347F347F3480347F3480347F345F
:1016F00080347F3480347F3480347F3480347F344E
:1017000080347F347F3480347F3480347F3480343D
:101710007F347F3480347F3480347F347F3480342E
:101720007F3480347F3480347F347F3480347F341E
:1017300080347F3480347F3480347F3480347F340D
:1017400080347F347F3480347F34803480347F34FD
:1017500080347F34803480347F3480347F348034EC
:1017600080347F3480347F3480347F3480347F34DD
:101770007F3480347F3480347F3480347F348034CD
:101780007F3480347F3480347F3480347F347F34BE
:1017900080347F3480347F3480347F3480347F34AD
:1017A00080347F3480347F3480347F3480347F349D
:1017B0007F3480347F3480347F3480347F3480348D
:1017C0007F3480347F347F34803480347F3480347D
:1017D00080347F3480347F3480347F3480347F346D
:1017E00080347F3480347F3480347F34803480345C
:1017F0007F3480347F3480347F3480347F3480344D
:101800007F3480347F3480347F3480347F3480343C
:101810007F347F3480347F3480347F3480347F342D
:1018200080347F3480347F347F3480347F3480341C
:101830007F3480347F3480347F3480347F3480340C
:101840007F347F3480347F3480347F3480348034FC
:101850007F3480347F34803480347F3480347F34EC
:101860007F3480347F3480347F347F3480347F34DD
:10187000803480347F3480347F347F3480347F34CC
:10188000803480347F3480347F347F3480347F34BC
:1018900080347F34803480347F3480347F347F34AC
:1018A00080347F34803480347F3480347F3480349B
:1018B0007F3480347F3480347F3480347F3480348C
:1018C0007F3480347F34803480347F3480347F347C
:1018D00080347F3480347F3480347F3480347F346C
:1018E00080347F347F3480347F3481347E3481345B
:1018F0007F3480347F3480347F3480347F3480344C
:101900007F347F3480347F3480347F3480347F343C
:1019100080347F3480347F3480347F3480347F342B
:101920007F3480347F3480347F3480347F3480341B
:101930007F3480347F347F3480347F3480347F340C
:1019400080347F3480347F3480347F3480347F34FB
:1019500080347F3480347F347F3480347F348034EB
:101960007F3480347F3480347F3480347F348034DB
:101970007F3480347F347F3480347E3481347E34CD
:1019800081347E3481347F34803480347F348034B9
:10199000803480347F3480347F3481347E348134A9
:1019A0007F3480347F3480347F34803480347F349B
:1019B00080347F3480347F3480347F3480347F348B
:1019C00080347F34803480347F3480347F3480347A
:1019D0007F3480347F3480347F3480347F3480346B
:1019E0007F34803480347F3480347F3480347F345B
:1019F00080347F3480347F3480347F3480347F344B
:101A000080347F3480347F347F3480347F34813439
:101A10007E3481347E3480347F34803480347F342B
:101A200080347F3480347F3480347F3480347F341A
:101A300080347F3480347F3480347F347F3480340A
:101A40007F3480347F3480347F3480347F348034FA
:101A50007F3480347F3480347F3480347F348034EA
:101A600080347F3480347F3480347F3480347F34DA
:101A7000803480347F3480347F3480347F348034C9
:101A80007F3480347F3480347F347F3480347F34BB
:101A900080347F3480347F3480347F3480347F34AA
:101AA00080347F3480347F34803480347F34803499
:101AB0007F3480347F3480347F3480347F3480348A
:101AC0007F3480347F3480347F347F3480347F347B
:101AD00080347F3480347F3480347F3480347F346A
:101AE00080347F3480347F3480347F3480347F345A
:101AF00080347F347F3480347F3480347F3480344A
:101B00007F3480347F3480347F3480347F34803439
:101B10007F3480347F34803480347F3480347F3429
:101B2000803480347F3480347F3480347F34803418
:101B30007F34803480347F3480347F3480347F3409
:101B4000803480347F3480347F3480347F347F34F9
:101B500080347F34803480347F3480347F348034E8
:101B60007F347F3480347F3480347F3480347F34DA
:101B700080347F34803480347F3480347F348034C8
:101B80007F3480347F347F3480347F3480347F34BA
:101B900080347F3480347F34803480347F347F34A9
:101BA00080347F3480347F347F3480347F34803499
:101BB0007F3480347F3480347F3480347F34803489
:101BC0007F3480347F3480347F3480347F34803479
:101BD00080347F3480347F3480347F3480347F3469
:101BE0007F3480347F3480347F3480347F34803459
:101BF0007F3480347F3480347F3480347F34803449
:101C00007F34803480347F3480347F3480347F3438
:101C100080347F347F3480347F3480347F34803428
:101C20007F3480347F3480347F3480347F347F3419
:101C300080347F3480347F3480347F3480347F3408
:101C400080347F3480347F3480347F3480347F34F8
:101C50007F3480347F3480347F3480347F348034E8
:101C60007F3480347F3480347F34803480347F34D8
:101C700080347F3480347F3480347F3480347F34C8
:101C800080347F3480347F3480347F347F348034B8
:101C90007F3480347F3480347F3480347F348034A8
:101CA0007F3480347F347F3480347F3480347F3499
:101CB00080347F3480347F3480347F3480347F3488
:101CC00080347F347F3480347F3480347F34803478
:101CD0007F3480347F3480347F347F3480347F3469
:101CE00080347F3480347F3480347F347F34803458
:101CF00080347F3480347F347F3480347F34803448
:101D00007F3480347F34803480347F3480347F3437
:101D100080347F347F347F3480347F3480347F3428
:101D200080347F3480347F3480347F348034803416
:101D30007F3480347F3480347F3480347F34803407
:101D40007F3480347F3480347F3480347F348034F7
:101D5000803480347F3480347F347F3480347F34E7
:101D600080347F3480347F3480347F3480347F34D7
:101D700080347F3480347F3480347F3480347F34C7
:101D8000803480347F3480347F34803480348034B5
:101D90007F3480347F3480347F3480347F348034A7
:101DA00080347F3480347F3480347F3480347F3497
:101DB00080347F3480347F3480347F347F34803487
:101DC0007F347F34803480347F3480347F34803477
:101DD0007F3480347F347F3480347F3480347F3468
:101DE00080347F3480347F3480347F347F34803457
:101DF0007F3480347F3480347F3480347F34803447
:101E00007F3480347F3480347F3480347F34803436
:101E100080347F3480347F3480347F3480347F3426
:101E200080347F3480347F34803480347F34803415
:101E30007F3480347F3480347F3480347F347F3407
:101E4000803480347F34803480347F3480347F34F5
:101E500080347F3480347F3480347F3480347F34E6
:101E60007F3480347F3480347F3480347F348034D6
:101E70007F3480347F3480347F3480347F348034C6
:101E80007F3480347F34803480347F3480347F34B6
:101E900080347F3480347F3480347F3480347F34A6
:101EA0007F3480347F34803480347F3480347F3496
:101EB00080347F3480347F3480347F3480347F3486
:101EC000803480347F3480347F3480347F34803475
:101ED00080347F3480347F347F3480347F34803466
:101EE0007F3480347F3480347F3480347F34803456
:101EF00080347F3480347F3480347F3480347F3446
:101F000080347F3480347F3480347F348034803434
:101F10007F3480347F3480347F3480347F34803425
:101F20007F3480347F3480347F3480347F34803415
:101F300080347F3480347F3480347F3480347F3405
:101F400080347F3480347F3480347F3480347F34F5
:101F500080347F3480347F347F3480347F348034E5
:101F60007F3480347F3480347F347F3480347F34D6
:101F700080347F3480347F3480347F3480347F34C5
:101F800080347F3480347F3480347F3480348034B4
:101F90007F3480347F3480347F3480347F348034A5
:101FA0007F3480347F34803480347F3480347F3495
:101FB00080347F3480347F3480347F3480347F3485
:101FC00080347F34803480347F34803480347F3474
:101FD0007F3480347F347F3480347F3480347F3466
:101FE00080347F347F347F3480347F3480347F3456
:101FF0007F3480347F3480347F3480347F34803445
:1020000080347F34803480347F3480347F34803433
:102010007F3480347F3480347F347F3480347F3425
:1020200080347F3480347F3480347F3480347F3414
:1020300080347F34803480347F3480347F34803403
:102040007F3480347F3480347F3480347F348034F4
:102050007F3480347F3480347F34803480347F34E4
:1020600080347F3480347F347F34803480347F34D4
:1020700080347F3480347F348034803480347F34C3
:10208000803480347F3480347F3480347F348034B3
:102090007F347F3480347F3480347F3480347F34A5
:1020A00080347F3480347F3480347F3480347F3494
:1020B00080347F3480347F347F3480347F34803484
:1020C0007F3480347F3480347F3480347F34803474
:1020D0007F347F3480347F3480347F3480347F3465
:1020E00080347F3480347F3480347F3480347F3454
:1020F00080347F34803480347F3480347F34803443
:102100007F3480347F3480347F3480347F34803433
:102110007F3480347F3480347F3480347F34803423
:102120007F34803480347F3480347F3480347F3413
:1021300080347F34803480347F3480347F34803402
:102140007F3480347F34803480347F3480347F34F3
:1021500080347F3480347F3480347F3480347F34E3
:1021600080347F3480347F347F3480347F348034D3
:102170007F3480347F3480347F3480347F348034C3
:102180007F347F3480347F3480347F347F348034B4
:102190007F347F3480347F3480347F3480348034A3
:1021A0007F3480347F348034803480347F34803492
:1021B0007F3480347F347F3480347F3480347F3484
:1021C00080347F3480347F3480347F3480347F3473
:1021D000803480347F34803480347F3480347F3462
:1021E0007F3480347F3480347F3480347F34803453
:1021F0007F3480347F3480347F3480347F347F3444
:1022000080347F3480347F3480347F3480347F3432
:1022100080347F3480347F347F3480347F34803422
:102220007F3480347F3480347F3480347F34803412
:102230007F3480347F34803480347F3480347F3402
:102240008034803480347F3480347F3480347F34F1
:1022500080347F347F3480347F3480347F348034E2
:102260007F3480347F3480347F3480347F348034D2
:1022700080347F3480347F3480347F3480347F34C2
:1022800080347F3480347F3480347F3480347F34B2
:1022900080347F34803480347F3480347F348034A1
:1022A0007F3480347F3480347F3480347F34803492
:1022B0007F34803480347F3480347F3480347F3482
:1022C00080347F3480347F3480347F3480347F3472
:1022D00080347F34803480347F3480347F34803461
:1022E0007F3480347F3480347F3480347F347F3453
:1022F00080347F3480347F3480347F3480347F3442
:1023000080347F347F3480347F3480347F34803431
:102310007F3480347F3480347F3480347F34803421
:102320007F3480347F3480347F3480347F34803411
:102330007F3480347F347F3480347F3480347F3402
:1023400080347F3480347F3480347F3480348034F0
:102350007F3480347F3480347F3480347F348034E1
:102360007F3480347F3480347F3480347F348034D1
:1023700080347F3480347F3480347F3480347F34C1
:1023800080347F3480347F34803480347F348034B0
:102390007F3480347F3480347F3480347F347F34A2
:1023A00080347F3480347F3480347F3480347F3491
:1023B00080347F3480347F3480347F3480347F3481
:1023C00080347F3480347F3480347F347F34803471
:1023D0007F3480347F3480347F3480347F34803461
:1023E0007F347F3480347F3480347F3480347F3452
:1023F00080347F3480347F3480347F3480347F3441
:1024000080347F3480347F3480347F34803480342F
:102410007F3480347F3480347F3480347F34803420
:102420007F347F3480347F3480347F3480347F3411
:1024300080347F3480347F34803480347F348034FF
:102440007F3480347F3480347F3480347F348034F0
:102450007F3480347F3480347F34803480347F34E0
:1024600080347F3480347F3480347F3480347F34D0
:1024700080347F34803480347F3480347F348034BF
:102480007F3480347F3480347F3480347F348034B0
:1024900080347F3480347F3480347F347F348034A0
:1024A0008034803480347F3480347F3480347F348F
:1024B00080347F3480347F34803480347F3480347F
:1024C0007F3480347F3480347F3480347F347F3471
:1024D00080347F3480347F3480347F3480347F3460
:1024E00080347F34803480347F3480347F3480344F
:1024F0007F3480347F3480347F3480347F34803440
:102500007F3480347F3480347F34803480347F342F
:1025100080347F3480347F3480347F3480347F341F
:10252000803480347F3480347F3480347F3480340E
:102530007F3480347F34803480347F3480347F34FF
:10254000803480347F3480347F3480347F348034EE
:102550007F3480347F34803480347F3480347F34DF
:1025600080347F3480347F34803480347F347F34CF
:1025700080347F3480347F34803480347F348034BE
:102580007F3480347F3480347F34803480347F34AF
:1025900080347F3480347F3480347F3480347F349F
:1025A0007F3480347F3480347F3480347F3480348F
:1025B0007F3480347F347F3480347F3480347F3480
:1025C00080347F3480347F3480347F3480347F346F
:1025D000803480347F3480347F3480347F3480345E
:1025E0007F347F3480347F3480347F3480347F3450
:1025F00080347F3480347F3480347F34803480343E
:102600007F3480347F3480347F3480347F3480342E
:102610007F3480347F3480347F3480347F3480341E
:102620007F3480347F3480347F347F3480347F340F
:1026300080347F3480347F3480347F3480347F34FE
:1026400080347F3480347F347F3480347F348034EE
:102650007F3480347F3480347F3480347F348034DE
:102660007F347F34803480347F3480347F348034CE
:1026700080347F3480347F3480347F3480347F34BE
:1026800080347F3480347F347F3480347F348034AE
:102690007F3480347F34803480347F3480347F349E
:1026A00080347F3480347F3480347F3480347F348E
:1026B000803480347F3480347F3480347F3480347D
:1026C0007F3480347F3480347F3480347F3480346E
:1026D0007F3480347F3480347F3480347F347F345F
:1026E00080347F3480347F3480347F3480347F344E
:1026F00080347F347F3480347F3480347F3480343E
:102700007F3480347F347F3480347F3480347F342E
:10271000803480347F348034803480347F3480341B
:102720007F3480347F3480347F347F3480347F340E
:10273000803480347F34803480347F3480347F34FC
:102740007F3480347F3480347F3480347F347F34EE
:1027500080347F3480347F3480347F3480347F34DD
:1027600080347F3480347F3480347F3480347F34CD
:102770007F3480347F3480347F3480347F348034BD
:102780007F3480347F3480347F3480347F347F34AE
:1027900080347F3480347F3480347F3480347F349D
:1027A00080347F3480347F347F3480347F3480348D
:1027B0007F3480347F3480347F3480347F3480347D
:1027C0007F34803480347F3480347F3480347F346D
:1027D00080347F3480347F34803480347F3480345C
:1027E0007F3480347F3480347F34803480347F344D
:1027F0007F3480347F3480347F3480347F3480343D
:102800007F3480347F3480347F347F3480347F342D
:1028100080347F3480347F3480347F3480347F341C
:10282000803480347F3480347F34803480347F340B
:1028300080347F34803480347F3480347F348034FB
:102840007F3480347F3480347F3480347F348034EC
:1028500080347F3480347F3480347F3480347F34DC
:1028600080347F3480347F3480347F347F348034CC
:102870007F3480347F347F3480347F3480347F34BD
:1028800080347F34803480347F3480347F348034AB
:102890007F3480347F3480347F3480347F3480349C
:1028A0007F3480347F3480347F3480347F3480348C
:1028B0007F3480347F347F3480347F3480347F347D
:1028C00080347F3480347F3480347F34803480346B
:1028D0007F3480347F3480347F3480347F3480345C
:1028E0007F3480347F3480347F34803480347F344C
:1028F00080347F3480347F3480347F3480347F343C
:10290000803480347F3480347F34803480347F342A
:1029100080347F347F3480347F34803480347F341B
:10292000803480347F3480347F34803480347F340A
:102930008034803480347F3480347F3480347F34FA
:1029400080347F3480347F3480347F3480348034EA
:102950007F3480347F3480347F34803480347F34DB
:1029600080347F34803480347F3480347F348034CA
:1029700080347F3480347F34803480347F348034BA
:1029800080347F3480347F34803480347F347F34AB
:1029900080347F3480347F34803480347F3480349A
:1029A0007F347F3480347F3480347F3480347F348C
:1029B00080347F3480347F3480347F347F3480347B
:1029C0007F3480347F3480347F3480347F3480346B
:1029D0007F3480347F3480347F3480347F3480345B
:1029E0007F347F3480347F3480347F3480347F344C
:1029F00080347F3480347F3480347F34803480343A
:102A00007F3480347F3480347F3480347F3480342A
:102A10007F3480347F3480347F3480347F3480341A
:102A200080347F3480347F3480347F3480347F340A
:102A300080347F3480347F347F3480347F347F34FB
:102A400080347F34803480347F3480347F348034E9
:102A500080347F3480347F3480347F3480347F34DA
:102A600080347F3480347F3480347F3480347F34CA
:102A700080347F347F3480347F3480347F348034BA
:102A80007F3480347E3481347E3481347F348034AA
:102A900080347E3481347E3481347E3480347F349B
:102AA00080347F3480347F3480347F3480347F348A
:102AB0007F3480347F3480347F3480347F3480347A
:102AC0007F3480347F3480347F3480347F3480346A
:102AD0007F3480347F347F3480347F3480347F345B
:102AE00080347F3480347F347F3480347F3480344A
:102AF0007F3480347F3480347F3480347F3480343A
:102B00007F3480347F3480347F347F3480347F342A
:102B100080347F3480347F3480347F3480347F3419
:102B2000803480347F3480347E3481347E34803409
:102B30007F3480347F3480347F3480347F348034F9
:102B40007F34803480347F3480347F3480347F34E9
:102B500080347F3480347F3480347F3480348034D8
:102B60007F3480347F3480347F347F3480348034C9
:102B70007F3480347F3480347F3480347F348034B9
:102B80007F3480347F34803480347F3480347F34A9
:102B900080347F34803480347F3480347F34803498
:102BA0007F3480347F3480347F3480347F34803489
:102BB0007F347F3480347F3480347F3480347F347A
:102BC000803480347F3480347F347F3480347F3469
:102BD00080347F347F3480347F3480347F34803459
:102BE0007F3480347F3480347F3480347F34803449
:102BF00080347F3480347F34803480347F34803438
:102C000080347F3480347F3480347F347F34803428
:102C10007F3480347F3480347F347F3480347F3419
:102C200080347F3480347F3480347F3480347F3408
:102C300080347F34803480347F3480347F348034F7
:102C400080347F347F3480347F3480347F348034E8
:102C50007F347F3480347F3480347F3480348034D8
:102C60007F3480347F3480347F347F3480347F34C9
:102C700080347F347F3480347F3480347F348034B8
:102C80007F347F3480347F3480347F3480347F34A9
:102C900080347F347F3480347F3480347F34803498
:102CA0007F3480347F34803480347F3480347F3488
:102CB00080347F34803480347F347F348034803477
:102CC0007F3480347F347F3480347F3480347F3469
:102CD00080347F3480347F3480347F348034803457
:102CE0007F3480347F3480347F3480347F34803448
:102CF00080347F3480347F3480347F347F34803438
:102D00007F347F3480347F3480347F3480347F3428
:102D100080347F3480347F34803480347F34803416
:102D20007F3480347F3480347F3480347F34803407
:102D30007F3480347F3480347F3480347F348034F7
:102D40007F34803480347F3480347F3480347F34E7
:102D500080347F3480347F3480347F3480347F34D7
:102D600080347F3480347F3480347F3480347F34C7
:102D700080347F3480347F3480347F3480348034B6
:102D80007F3480347F3480347F34803480347F34A7
:102D900080347F347F3480347F3480347F34803497
:102DA00080347F3480347F3480347F3480347F3487
:102DB00080347F3480347F3480347F3480347F3477
:102DC00080347F347F3480347F3480347F34803467
:102DD0007F3480347F3480347F3480347F34803457
:102DE0007F3480347F3480347F3480347F34803447
:102DF0007F3480347F3480347F3480347F34803437
:102E000080347F3480347F3480347F3480347F3426
:102E100080347F3480347F347F3480347F34803416
:102E20007F347F3480347F3480347F347F34803407
:102E30007F3480347F3480347F3480347F348034F6
:102E400080347F3480347F3480347F3480348034E5
:102E50007F34803480347F3480347F3480347F34D6
:102E600080347F3480347F3480347F3480348034C5
:102E70007F3480347F3480347F3480347F348034B6
:102E80007F3480347F3480347F3480347F348034A6
:102E90007F3480347F3480347F3480347F34803496
:102EA0007F34803480347F3480347F3480347F3486
:102EB000803480347F3480347F3480347F34803475
:102EC00080347F347F3480347F3480347F347F3467
:102ED00080347F3480347F347F34803480347F3456
:102EE00080347F3480347F3480347F3480347F3446
:102EF000803480347F3480347F3480347F34803435
:102F00007F347F3480347F3480347F3480347F3426
:102F100080347F347F3480347F3480347F34803415
:102F200080347F34803480347F3480347F34803404
:102F30007F3480347F3480347F34803480347F34F5
:102F400080347F3480347F3480347F347F348034E5
:102F50007F3480347F347F34803480347F348034D5
:102F60007F3480347F3480347F3480347F348034C5
:102F70007F347F3480347F3480347F3480347F34B6
:102F800080347F3480347F3480347F3480347F34A5
:102F900080347F3480347F34803480347F34803494
:102FA0007F3480347F34803480347F348034803484
:102FB0007F3480347F348034803480347F34803474
:102FC0007F3480347F3480347F3480347F34803465
:102FD0007F3480347F34803480347F3480347F3455
:102FE00080347F347F3480347F34803480347F3445
:102FF00080347F3480347F3480347F3480347F3435
:1030000080347F347F3480347F3480347F34803424
:103010007F3480347F3480347F3480347F34803414
:103020007F34803480347F3480347F348034803403
:1030300080347F3480347F3480347F3480347F34F4
:1030400080347F3480347F3480347F3480348034E3
:103050007F3480347F3480347F3480347F348034D4
:103060007F3480347F3480347F347F3480347F34C5
:1030700080347F3480347F347F3480347F348034B4
:103080007F3480347F3480347F3480347F348034A4
:103090007F3480347F3480347F3480347F34803494
:1030A00080347F3480347F3480347F3480347F3484
:1030B00080347F3480347F3480347F347F34803474
:1030C0007F3480347F3480347F3480347F34803464
:1030D0007F3480347F3480347F3480347F347F3455
:1030E00080347F347F3480347F3480347F34803444
:1030F00080347F3480347F347F3480347F34803434
:1031000080347F3480347F3480347F3480347F3423
:103110007F3480347F347F3480347F3480347F3414
:1031200080347F3480347F3480347F3480347F3403
:103130007F3480347F3480347F3480347F348034F3
:103140007F3480347F34803480347F3480347F34E3
:1031500080347F3480347F3480347F3480347F34D3
:1031600080347F3480347F3480347F3480347F34C3
:1031700080347F34803480347F3480347F348034B2
:103180007F3480347F34803480347F347F348034A3
:103190007F34803480347F3480347F3480347F3493
:1031A0007F3480347F3480347F3480347F34803483
:1031B0007F3480347F3480347F34803480347F3473
:1031C00080347F3480347F3480347F3480347F3463
:1031D00080347F3480347F3480347F3480347F3453
:1031E0007F3480347F3480347F3480347F34803443
:1031F0007F3480347F3480347F3480347F34803433
:103200007F3480347F3480347F347F3480347F3423
:1032100080347F3480347F3480347F3480347F3412
:1032200080347F3480347F3480347F3480347F3402
:10323000803480347F3480347F3480347F347F34F2
:1032400080347F3480347F3480347F3480348034E1
:103250007F3480347F3480347F3480347F348034D2
:103260007F3480347F3480347F3480347F348034C2
:103270007F34803480347F3480347F3480347F34B2
:1032800080347F3480347F3480347F347F348034A2
:103290007F3480347F3480347F3480347F34803492
:1032A0007F3480347F3480347F3480347F34803482
:1032B0007F347F3480347F3480347F3480347F3473
:1032C00080347F347F3480347F347F3480347F3463
:1032D00080347F34803480347F3480347F347F3452
:1032E00080347F3480347F3480347F3480347F3442
:1032F00080347F3480347F3480347F348034803431
:103300007F3480347F3480347F3480347F34803421
:103310007F3480347F3480347F34803480347F3411
:1033200080347F3480347F3480347F3480347F3401
:1033300080347F3480347F3480347F3480347F34F1
:10334000803480347F3480347F3480347F348034E0
:103350007F3480347F3480347F34803480347F34D1
:1033600080347F3480347F34803480347F348034C0
:103370007F3480347F3480347F3480347F348034B1
:103380007F3480347F3480347F3480347F347F34A2
:1033900080347F3480347F3480347F3480347F3491
:1033A00080347F3480347F3480347F3480347F3481
:1033B000803480347F3480347F3480347F34803470
:1033C0007F3480347F3480347F3480347F34803461
:1033D00080347F3480347F3480347F3480347F3451
:1033E00080347F3480347F3480347F3480347F3441
:1033F00080347F3480347F347F3480347F34803431
:103400007F3480347F3480347F3480347F34803420
:1034100080347F3480347F3480347F34803480340F
:103420007F3480347F3480347F3480347F34803400
:103430007F3480347F3480347F347F3480347F34F1
:103440007F3480347F3480347F3480347F347F34E1
:1034500080347F3480347F3480347F3480347F34D0
:1034600080347F34803480347F3480347F348034BF
:103470007F3480347F3480347F3480347F348034B0
:103480007F3480347F3480347F3480347F348034A0
:1034900080347F3480347F3480347F3480347F3490
:1034A00080347F3480347F347F3480347F34803480
:1034B0007F3480347F3480347F3480347F34803470
:1034C0007F3480347F3480347F3480347F347F3461
:1034D00080347F3480347F3480347F3480347F3450
:1034E00080347F34803480347F3480347F3480343F
:1034F0007F3480347F3480347F34803480347F3430
:1035000080347F3480347F3480347F3480347F341F
:1035100080347F3480347F3480347F3480347F340F
:1035200080347F34803480347F3480347F348034FE
:103530007F3480347F3480347F3480347F347F34F0
:1035400080347F3480347F3480347F3480348034DE
:103550007F3480347F348034803480347F348034CE
:103560007F3480347F3480347F3480347F348034BF
:103570007F3480347F34803480347F3480347F34AF
:1035800080347F3480347F3480347F3480347F349F
:1035900080347F347F3480347F3480347F3480348F
:1035A0007F3480347F3480347F3480347F3480347F
:1035B000803480347F3480347F3480347F3480346E
:1035C00080347F3480347F3480347F3480347F345F
:1035D00080347F3480347F34803480347F3480344E
:1035E0007F34803480347F3480347F3480347F343F
:1035F0008034803480347F347F3480347F3480342E
:103600007F3480347F3480347F34803480347F341E
:1036100080347F3480347F347F3480347F3480340E
:103620007F3480347F3480347F347F3480347F34FF
:1036300080347F3480347F34803480347F348034ED
:103640007F3480347F3480347F3480347F347F34DF
:1036500080347F3480347F3480347F347F348034CE
:103660007F3480347F3480347F3480347F348034BE
:103670007F347F3480347F3480347F3480348034AE
:103680007F3480347F3480347F3480347F347F349F
:1036900080347F3480347F34803480347F3480348D
:1036A00080347F3480347F3480347F3480347F347E
:1036B00080347F3480347F347F3480347F3480346E
:1036C0007F3480347F3480347F34803480347F345E
:1036D00080347F3480347F3480347F3480347F344E
:1036E00080347F3480347F347F3480347F3480343E
:1036F0007F3480347F3480347F3480347F3480342E
:103700007F34803480347F3480347F3480347F341D
:1037100080347F3480347F3480347F3480347F340D
:1037200080347F3480347F34803480347F348034FC
:103730007F3480347F3480347F3480347F348034ED
:103740007F3480347F3480347F3480347F347F34DE
:1037500080347F3480347F3480347F3480347F34CD
:1037600080347F3480347F34803480347F348034BC
:103770007F3480347F3480347F3480347F348034AD
:103780007F34803480347F3480347F3480347F349D
:1037900080347F3480347F3480347F34803480348C
:1037A0007F34803480347F3480347F347F3480347D
:1037B0007F3480347F34803480347F3480347F346D
:1037C00080347F3480347F3480347F34803480345C
:1037D0007F3480347F3480347F3480347F3480344D
:1037E0007F3480347F3480347F3480347F3480343D
:1037F0007F3480347F347F3480347F3480347F342E
:1038000080347F3480347F3480347F34803480341B
:103810007F3480347F347F3480347F3480347F340D
:10382000803480347F3480347F3480347F348034FB
:103830007F3480347F3480347F347F3480347F34ED
:1038400080347F3480347F347F34803480347F34DC
:1038500080347F3480347F34803480347F348034CB
:103860007F3480347F3480347F3480347F348034BC
:103870007F3480347F347F3480347F3480347F34AD
:1038800080347F3480347F3480347F3480347F349C
:103890007F3480347F3480347F3480347F3480348C
:1038A0007F3480347F3480347F347F3480347F347D
:1038B00080347F3480347F3480347F3480347F346C
:1038C0007F3480347F3480347F3480347F3480345C
:1038D0007F3480347F3480347F3480347F3480344C
:1038E0007F34803480347F3480347F3480347F343C
:1038F00080347F3480347F3480347F34803480342B
:10390000803480347F3480347F3480347F3480341A
:103910007F3480347F3480347F3480347F3480340B
:103920007F3480347F3480347F347F3480347F34FC
:1039300080347F3480347F3480347F347F348034EB
:103940007F347F3480347F3480347F3480348034DB
:103950007F3480347F3480347F3480347F348034CB
:103960007F3480347F3480347F3480347F348034BB
:1039700080347F34803480347F3480347F348034AA
:103980007F3480347F3480347F34803480347F349B
:1039900080347F3480347F3480347F3480347F348B
:1039A00080347F3480347F3480347F3480347F347B
:1039B00080347F3480347F347F3480347F3480346B
:1039C0007F3480347F3480347F3480347F3480345B
:1039D0007F3480347F347F3480347F3480347F344C
:1039E00080347F3480347F347F3480347F3480343B
:1039F0007F3480347F3480347F3480347F347F342C
:103A000080347F3480347F3480347F348034803419
:103A10007F3480347F3480347F3480347F347F340B
:103A200080347F3480347F3480347F3480348034F9
:103A30007F3480347F3480347F3480347F348034EA
:103A40007F3480347F3480347F3480347F348034DA
:103A500080347F3480347F3480347F3480347F34CA
:103A600080347F3480347F347F3480347F348034BA
:103A70007F34803480347F3480347F347F348034AA
:103A80007F3480347F3480347F3480347F3480349A
:103A90007F3480347F3480347F34803480347F348A
:103AA00080347F34803480347F3480347F34803479
:103AB0007F34803480347F3480347F3480347F346A
:103AC00080347F3480347F3480347F348034803459
:103AD0007F347F3480347F3480347F34803480344A
:103AE0007F3480347F3480347F3480347F3480343A
:103AF0007F3480347F3480347F3480347F3480342A
:103B00007F34803480347F3481347E3481347E3419
:103B100081347F3480347F34803480347F34803407
:103B20007F3480347F3480347F3480347F348034F9
:103B30007F3480347F3480347F3480347F348034E9
:103B40007F3480347F3480347F3480347F347F34DA
:103B500080347F34803480347F3480347F348034C8
:103B60007F347F3480347F3480347F3480347F34BA
:103B700080347F3480347F3480347F3480347F34A9
:103B800080347F3480347F3480347F3480347F3499
:103B9000803480347F3480347E3481347D34823488
:103BA0007E3481347F347F3481347E3481347E347A
:103BB00080347F3480347F3480347F3480347F3469
:103BC00080347F347F3480347F3480347F347F345A
:103BD00080347F3480347F347F3480347F34803449
:103BE0007F3480347F3480347F3480347F34803439
:103BF0007F3480347F3480347F3480347F34803429
:103C00007F3480347F3480347F3480347F34803418
:103C10007F3480347F3480347F347F3480347F3409
:103C200080347F3480347F3480347F3480347E34F9
:103C300081347F34803480347F3481347E348134E5
:103C40007F3480347F3480347F3480347F348034D8
:103C50007F3480347F347F3480347F3480347F34C9
:103C600080347F3480347F3480347F3480347F34B8
:103C700080347F3480347F3480347F3480347F34A8
:103C800080347F3480347F3480347F347F34803498
:103C90007F347F3480347F34803480347F34803488
:103CA0007F3480347F348034803480347F34803477
:103CB0007F3480347F3480347F3480347F34803468
:103CC0007F3480347F347F3480347F3480347F3459
:103CD00080347F347F3480347F34803480347F3448
:103CE00080347F34803480347F3480347F34803437
:103CF0007F347F3480347F34803480347F34803428
:103D00007F3480347F3480347F3480347F347F3418
:103D100080347F3480347F34803480347F34803406
:103D200080347F347F3480347F34803480347F34F7
:103D300080347F3480347F347F3480347F348034E7
:103D400080347F3480347F34803480347F348034D6
:103D50007F3480347F3480347F3480347F348034C7
:103D60007F34803480347F3480347F3480347F34B7
:103D70007F3480347F3480347F347F3480347F34A8
:103D800080347F347F3480347F3480347F34803497
:103D90007F3480347F34803480347F3480347F3487
:103DA00080347F3480347F348034803480347F3476
:103DB00080347F34803480347F3480347F34803466
:103DC0007F34803480347F3480347F3480347F3457
:103DD000803480347F3480347F347F3480347F3447
:103DE00080347F347F3480347F347F3480347F3438
:103DF0007F3480347F3480347F3480347F34803427
:103E000080347F3480347F3480347F3480347F3416
:103E100080347F3480347F3480347F347F34803406
:103E20007F3480347F3480347F3480347F348034F6
:103E300080347F3480347F34803480347F348034E5
:103E40007F34803480347F3480347F3480348034D5
:103E50007F3480347F3480347F3480347F348034C6
:103E60007F34803480347F3480347F3480347F34B6
:103E700080347F3480347F3480347F3480347F34A6
:103E800080347F3480347F3480347F347F34803496
:103E90007F3480347F3480347F347F3480347F3487
:103EA000803480347F3480347F34803480347F3475
:103EB00080347F3480347F3480347F3480347F3466
:103EC00080347F3480347F3480347F3480347F3456
:103ED000803480347F3480347F3480347F34803445
:103EE0007F3480347F3480347F3480347F34803436
:103EF0007F3480347F3480347F3480347F34803426
:103F00007F347F3480347F3480347F3480347F3416
:103F100080347F3480347F3480347F3480347F3405
:103F200080347F3480347F347F3480347F348034F5
:103F30007F34803480347F3480347F347F348034E5
:103F40007F3480347F3480347F347F3480347F34D6
:103F500080347F3480347F34803480347F347F34C5
:103F600080347F3480347F3480347F3480347F34B5
:103F70007F3480347F34803480347F3480347F34A5
:103F800080347F34803480347F3480347F34803494
:103F90007F3480347F3480347F3480347F34803485
:103FA0007F3480347F347F3480347F3480347F3476
:103FB00080347F3480347F3480347F348034803464
:103FC0007F3480347F3480347F34803480347F3455
:103FD00080347F34803480347F34803480347F3444
:103FE00080347F3480347F34803480347F34803434
:103FF0007F3480347F3480347F3480347F34803425
:104000007F3480347F3480347F3480347F347F3415
:1040100080347F3480347F3480347F348034803403
:104020007F3480347F3480347F3480347F348034F4
:104030007F3480347F3480347F34803480347F34E4
:1040400080347F3480347F3480347F3480347F34D4
:1040500080347F3480347F347F3480347F348034C4
:104060007F3480347F347F3480347F3480348034B4
:104070007F3480347F3480347F347F3480347F34A5
:1040800080347F3480347F3480347F3480347F3494
:1040900080347F3480347F347F3480347F34803484
:1040A0007F3480347F3480347F3480347F34803474
:1040B0007F34803480347F34803480347F34803463
:1040C0007F3480347F3480347F3480347F34803454
:1040D0007F347F3480347F3480347F3480347F3445
:1040E00080347F3480347F3480347F348034803433
:1040F0007F3480347F3480347F347F3480347F3425
:1041000080347F34803480347F3480347F34803412
:104110007F3480347F3480347F3480347F34803403
:104120007F3480347F347F3480347F3480347F34F4
:1041300080347F3480347F3480347F3480347F34E3
:1041400080347F3480348034803480347F348034D1
:104150007F3480347F3480347F3480347F348034C3
:104160007F3480347F3480347F34803480347F34B3
:1041700080347F3480347F3480347F3480347F34A3
:1041800080347F34803480347F3480347F34803492
:104190007F3480347F3480347F3480347F34803483
:1041A0007F347F3480347F3480347F3480347F3474
:1041B00080347F3480347F3480347F347F34803463
:1041C0007F3480347F3480347F3480347F34803453
:1041D0007F3480347F3480347F3480347F34803443
:1041E00080347F3480347F3480347F3480347F3433
:1041F00080347F3480347F347F3480347F34803423
:104200007F347F3480347F3480347F3480347F3413
:1042100080347F3480347F34803480347F34803401
:104220007F3480347F34803480347F3480347F34F2
:104230007F3480347F3480347F34803480347F34E2
:10424000803480347F3480347F3480347F348034D1
:104250007F34803480347F3480347F3480347F34C2
:1042600080347F3480347F3480347F3480347F34B2
:1042700080347F3480347F347F3480347F348034A2
:104280007F3480347F34803480347F3480347F3492
:104290007F3480347E347F3480347F3480347F3484
:1042A00080347F3480347F3480347F3480347F3472
:1042B00080347F3480347F3480347F347F34803462
:1042C0007F3480347F3480347F3480347F34803452
:1042D0007F3480347F3480347F3480347F34803442
:1042E0007F3480347F3480347F34803480347F3432
:1042F00080347F3480347F3480347F3480347F3422
:1043000080347F3480348034803480347F3480340F
:104310007F348034803480348034803480348034FE
:104320007F3480347F34803480347F3480347F34F1
:1043300080348034803480347F34803480347F34DF
:1043400080347F3480347F3480347F3480348034D0
:104350007F3480347F3480347F3480347F348034C1
:104360007F34803480347F3480347F3480347F34B1
:10437000803480348034803480348034803480349D
:104380007F3480347F34803480347F3480347F3491
:104390008034803480347F3480347F347F34803480
:1043A0007F3480347F34803480347F3480347F3471
:1043B00080347F347F3480347F3480347F34803461
:1043C0008034803480347F3480347F3480347F3450
:1043D00080347F348034803480347F3480347F3440
:1043E00080347F3480347F3480347F348034803430
:1043F0007F34803480347F3480347F348034803420
:104400007F34803480347F3480347F34803480340F
:104410007F3480347F3480347F3480347F34803400
:104420007F3480347F3480347F3480347F348034F0
:104430007F3480347F3480347F3480347F348034E0
:1044400080348034803480347F3480347F348034CE
:104450007F34803480347F3480347F3480347F34C0
:1044600080348034803480348034803480348034AC
:1044700080347F3480347F3480348034803480349E
:1044800080347F348034803480347F3480347F348F
:1044900080347F3480347F3480347F3480347F3480
:1044A00080347F34803480347F3480347F3480346F
:1044B0007F34803480347F34803480347F3480345F
:1044C0007F3480347F347F3480347F348034803450
:1044D0007F3480347F3480347F3480347F34803440
:1044E0007F3480347F3480347F34803480347F3430
:1044F00080347F34803480347F3480347F3480341F
:104500007F34803480347F3480347F3480347F340F
:1045100080340034413480340A34AE000314AE0DCC
:10452000B7316C27A231003A0319902A42012E08B4
:10453000A931D321A231003A031DAA2AA8311B2098
:10454000A23100304201A600B830A700B73153278E
:1045500000300800AB313923A2314201AD000030F8
:10456000A8317220A231A8311B2042012D08080079
:104570004101B7011A30B731B627A231B7011B305C
:10458000B731B627A231B7011C30B731B627A231F7
:10459000B7012330B731B627A231B7012430B73184
:1045A000B627A2311030B7003730B731B627A23165
:1045B000B7013830B731B627A231B7016A30B73109
:1045C000B627A231B7016B30B731B627A231B70198
:1045D0006C30B731B627A2314201B501B401353094
:1045E000AF000130B0007530A8314520A231003A4B
:1045F0000319082B68303506031D042BB401B40AD7
:104600002C30A600B1300B2BEF30A600B0300B2BB6
:10461000CE30A600B030A700B731532734080800C9
:10462000B601A430860000308700473FB400B41FB5
:104630003B2B4101A409A509A609A709A809A909B5
:10464000AA09AB09A40A031D382BA50A031D382BA0
:10465000A60A031D382BA70A031D382BA80A031D21
:10466000382BA90A031D382BAA0A031D382BAB0AC5
:104670004101B601B60AAC30860000308700473FE2
:104680004101B400B41F682B4101AC09AD09AE096A
:10469000AF09B009B109B209B309AC0A031D632B14
:1046A000AD0A031D632BAE0A031D632BAF0A031D66
:1046B000632BB00A031D632BB10A031D632BB20ADF
:1046C000031D632BB30A01304101B4003408B60660
:1046D000B73086000030870008304101B400003058
:1046E0001E00B40B702B240825042604270428047C
:1046F00029042A042B040319D32BB501B50AAB1BDB
:104700008E2BA435A50DA60DA70DA80DA90DAA0DDC
:10471000AB0D0130B4003408B5077F2BB735B80DA9
:10472000B90DBA0DBB0DBC0DBD0DBE0D2B0833026E
:10473000031DB42B2A083202031DB42B29083102B1
:10474000031DB42B28083002031DB42B27082F02A9
:10475000031DB42B26082E02031DB42B25082D02A1
:10476000031DB42B24082C02031CC72B2408AC0205
:104770002508AD3B2608AE3B2708AF3B2808B03BD9
:104780002908B13B2A08B23B2B08B33B3714AB36A0
:10479000AA0CA90CA80CA70CA60CA50CA40C013003
:1047A000B502031D8E2B36080319F42BB709B8097F
:1047B000B909BA09BB09BC09BD09BE09B70A031D7D
:1047C000F42BB80A031DF42BB90A031DF42BBA0A03
:1047D000031DF42BBB0A031DF42BBC0A031DF42B91
:1047E000BD0A031DF42BBE0A41013708A400380896
:1047F000A5003908A6003A08A7003B08A8003C0815
:10480000A9003D08AA003E08AB000800B900300826
:10481000C1003108C2003208C3003308C4003408A4
:10482000C5003508C6003608C7003708C800413043
:10483000860000308700473FB800B81F212C0130A8
:10484000222C00304001C00040080319452CC1094A
:10485000C209C309C409C509C609C709C809C10AEB
:10486000031D452CC20A031D452CC30A031D452CFC
:10487000C40A031D452CC50A031D452CC60A031D89
:10488000452CC70A031D452CC80A40016808803A18
:10489000B80080303802031D4F2C01306702031826
:1048A000572C01304001BC000030BD005C2C4001A1
:1048B0006808BD006708BC0042014A084001BF000B
:1048C000420149084001BE0040080319762CFF3020
:1048D000BE07FF30BF3D4008031D702C2B30712CEC
:1048E0002D30BA000030BB003A08C0001F30C900AC
:1048F0000030CA004301BF01FA2C400141084204C4
:10490000430444044504460447044804031D932C0F
:104910003D08803AB80080303802031D912C0130E8
:104920003C02031C062DFF304001C907FF30CA3D81
:104930000A30A000A101A201A301A401A501A601C2
:10494000A7014108A8004208A9004308AA0044089A
:10495000AB004508AC004608AD004708AE0048086B
:10496000AF00AD315325A4312108F4002008F30035
:10497000A8315B20A4317308303E4001B8004908DB
:10498000A03E86000130870038088100FF30BC0758
:10499000FF30BD3DFF30BE07FF30BF3D0A30A000F5
:1049A000A101A201A301A401A501A601A70141083B
:1049B000A8004208A9004308AA004408AB00450823
:1049C000AC004608AD004708AE004808AF00AF3164
:1049D0000D27A4312008C1002108C2002208C3000D
:1049E0002308C4002408C5002508C6002608C700FF
:1049F0002708C80040014A08803AB80080303802D1
:104A0000031D042D0130490203187D2C400140088C
:104A10000319152DFF30C907FF30CA3D4908A03ED4
:104A2000860001308700400881004908A03EA400AC
:104A30003F08A6003E08A5003908A931FE2108005C
:104A4000C8003F08CF004008D0004108D10042080C
:104A5000D2004308D3004408D4004508D5004608D6
:104A6000D600CF30860000308700473FC700C71F01
:104A70003B2D01303C2D00304101D7005708031970
:104A80005F2DCF09D009D109D209D309D409D5099D
:104A9000D609CF0A031D5F2DD00A031D5F2DD10A51
:104AA000031D5F2DD20A031D5F2DD30A031D5F2D49
:104AB000D40A031D5F2DD50A031D5F2DD60A4001C0
:104AC0006808803A4101C70080304702031D6B2D02
:104AD0000130400167020318732D01304101CB0002
:104AE0000030CC007B2D400168084101CC00400122
:104AF00067084101CB0042014A084101CE00420152
:104B000049084101CD0057080319952DFF30CD0705
:104B1000FF30CE3D5708031D8F2D2B30902D2D30AB
:104B2000C9000030CA004908D7001F30D800003043
:104B3000D9004301BF01192E41014F08500451040F
:104B400052045304540455045604031DB22D4C085A
:104B5000803AC70080304702031DB02D01304B0260
:104B6000031C252EFF304101D807FF30D93D0A3004
:104B7000A400A501A601A701A801A901AA01AB01F2
:104B80004F08AC005008AD005108AE005208AF000D
:104B90005308B0005408B1005508B2005608B300DD
:104BA000AE312F26A5312508B8002408B700A8315A
:104BB000A020A53141013708303EC7005808A03E6B
:104BC00086000130870047088100FF30CB07FF30A7
:104BD000CC3DFF30CD07FF30CE3D0A30A400A5010B
:104BE000A601A701A801A901AA01AB014F08AC00C9
:104BF0005008AD005108AE005208AF005308B00095
:104C00005408B1005508B2005608B300A331102370
:104C1000A5312408CF002508D0002608D100270898
:104C2000D2002808D3002908D4002A08D5002B0870
:104C3000D60041015908803AC70080304702031D61
:104C4000232E0130580203189C2D410157080319E7
:104C5000342EFF30D807FF30D93D5808A03E8600DB
:104C600001308700570881005808A03EB5004E0863
:104C7000B7004D08B6004808AA312D2208004201AD
:104C8000C301C401C501C601BF01BF0AB731C727AF
:104C9000A631B8304101A4002830A500B631D32692
:104CA000A631B0304101A4003630A500B631E3266C
:104CB000A631B631B426A63192304201A600B130F9
:104CC000A700B7315327A6317B30A600B130A7002B
:104CD000B7315327A631A231B822A631B90040011D
:104CE0001A1542013903031D992EA030A600B030D9
:104CF000A700B7315327A631BA0142013A08BA0AD0
:104D0000B6000B3036020318BD2E031040011A1DE9
:104D10000314031C8E2E40011A15902E40011A1107
:104D20002C304101A4000130A500A8310720A63194
:104D30007D2E6230A600B130A700B7315327A631CF
:104D4000BB0142013B08BB0AB6000B303602031818
:104D5000BD2E031040011A1D0314031CB22E400186
:104D60001A15B42E40011A11E8304101A400033095
:104D7000A500A8310720A631A12E40011A11A730A5
:104D80004201A600B130A700B7315327A6313D300C
:104D9000A600B030A7000530A8000030A900FF3001
:104DA000AA000030AB00B7315327A631BB30A600B4
:104DB000B130A700B7315327A6310030B631BF2636
:104DC000A63123304201A600B830A700B7315327DF
:104DD000A631C001C1014201BC01BD0141303C0707
:104DE000840000303D3D803885000008C200420844
:104DF0000319192F4208803EB600FF300318003017
:104E0000B70036083704031D072F0030082F42086B
:104E1000B631BF26A6313E304101A4000030A500C6
:104E2000A9316A21A63101304201BC070030BD3DE5
:104E3000EE2E0130C0070030C13D4108803AB60077
:104E400080303602031D262F14304002031CEB2E47
:104E500013304201A600B830A700B7315327A6315E
:104E60008B170B1742015C080319AD2F5903031967
:104E7000AB2F8B130B130030AA31FD22A6313A0859
:104E80004201C800410139084201C7008B170B17C6
:104E9000470843024101B70042014808443B410131
:104EA000B800A831A020A63141013808803A42015B
:104EB000B60081303602031D602FF5304101370204
:104EC000031C892F420147084302B6004808443BAF
:104ED000B7003708803AB80080303802031D722FBF
:104EE00001303602031C772F0E304201E1004201EF
:104EF00047084302B6004808443BB700B71F822F5B
:104F00000630E1004808C4004708C300DB01DB0AA3
:104F1000AB2F4201470843024101B7004201480854
:104F2000443B4101B800A831A020A6314101380816
:104F3000803A4201B60080303602031DA22F333082
:104F400041013702031CAB2F42014808C400470847
:104F5000C300DA01DA0A4201DC015B080319EE2F13
:104F60003F080319C92F4130450784000030463DF2
:104F7000803885000008BE000130C5070030C63DFE
:104F80008B304506133003194606031DDC2FBF0185
:104F9000DC2F4130450784000030463D80388500D5
:104FA0000008BE000130C5020030C63B450846047B
:104FB000031DDC2FBF01BF0A3E08B631BF26A63154
:104FC00042016108B600B70136084101A400420160
:104FD00037084101A500A9316A21A63142015A08CA
:104FE0000319322F4230A600B830A700B73153273B
:104FF000A631DB01DA010030B631BF26A631322FEF
:10500200640080010131890B022800340130410122
:10501200A4020030A53B240A0319250A031908003B
:105022000B304101A6006230890B1528A60B15280A
:105032000000072840011410B631F326A8314001C0
:105042009410B631EB26A83140011414B631F32680
:10505200A83140019414B631EB2608004001141027
:10506200B631F326A83140019414B631F326A831A3
:1050720040011414B631EB26A83140018E184328A2
:105082000130080000300800B20032084101AD00D2
:105092006830A9312A21A8314201B3006830A23117
:1050A2008D22B1002F088600300887003108810068
:1050B200330808007408803AF50080307502031D39
:1050C200642801307302031808007309F50074099B
:1050D200F600F50A0319F60A7508F3007608F400DB
:1050E20008004101A60040011410B631F326A83190
:1050F200260803197F284001941081284001941446
:10510200B631F326A83140011414B631EB2608005B
:10511200B8003808AD006830A9312A21A831003A18
:10512200031908003408AD003508B600B701360887
:10513200AE003708AF006830AB31BA230800380838
:10514200803AB90080303902031DA92801303702A4
:105152000318080041013709B9003809BA00B90A31
:105162000319BA0A3908B7003A08B8000800003033
:1051720040018C1A0130E6006608031DCE28420168
:10518200DB01DB0A3E304101A000B830A100B7319B
:10519200D9274201D901D90A08004201DA01DA0A03
:1051A200D9010800E3005F08E5005E08E400640836
:1051B20084006508850012000319EC286430CB00D6
:1051C2000030CC006108CE006008CD006308AC312D
:1051D200A224A831D828DE01DF010800A30021089B
:1051E200A5002008A40042012408840025088500A7
:1051F20012000319092924304101DA004201220870
:105202004101DB0042012308AC310024A831F4281B
:10521200A001A101080048304E0192009030900098
:105222002630910040308E0003308F000030410163
:10523200A4000030A500B7312F27A9310030410169
:10524200A4000030A500B7313B274201D101D201B1
:105252000800AE00B7316C27A931003A03192B2997
:1052620041012E35AE002E08A931D321A931AF005C
:105272002F08031D4029A8311B20003008002D08EB
:10528200A931D321A931AF00A8311B202F08080072
:10529200A000A201A30122082007FB007B088600D0
:1052A200013087000108A100210803190800210824
:1052B200FB00FC017B08F2007C08F3007A08F40092
:1052C200AA318E22A93101304001A2070030A33D4C
:1052D2004C2900302502203003192402031C7F29A7
:1052E2005530890B7229000020304101A4020030A0
:1052F200A53B6A29003200320032003201304101FE
:10530200A4020030A53B240A031D7B29250A0319A8
:1053120008007B29B100B301B40133083107AF00A3
:105322002F088600013087000108B20032080319F5
:1053320008003208AF00B0012F08A6003008A7000D
:105342002E08A800AA31C522A93101304101B307B4
:105352000030B43D8E2946010E108F0190010330BA
:10536200910015308D009F308C000D084001EC003B
:1053720046010C084001EB0003304101A40000305B
:10538200A500B631E326A93100304101A400003066
:10539200A500B631DB2641010D1317173530460142
:1053A2008E0008004101AB008030AC00A901AA01C7
:1053B20041012C082B05A8002B35AB0028082C0630
:1053C200031DE729B7319727A931EA29B731882781
:1053D200A9310130A9070030AA3D2A08803AA60067
:1053E20080302602083003192902031CD929A8316A
:1053F2002F204101A70027080800AB00A61B062AA0
:105402002608AA002508A900082AA901AA01A701BD
:10541200A8012808803AFD002A08803A7D02031D6F
:10542200142A290827020318262A2030F200003005
:10543200F30040012B08F400AA318E22A931013079
:105442004001A7070030A83D0A2A40012B08FA00B4
:105452002408A93149210800BD00B71B352A3708A5
:10546200BC003608BB00372ABB01BC01B901BA0136
:105472003A08803AB8003C08803A3802031D432AB1
:105482003B0839020318552A20304101A60000309A
:10549200A7003D08A800AA31C522AA310130410166
:1054A200B9070030BA3D392A41013D08AE0035083E
:1054B200A9318B210800400198019A0133309200F2
:1054C2002330940007307D018C00A00120308D0034
:1054D2000330A1008E01A20117308F003C30A300DF
:1054E2001F3090003030A40015307C01C200133010
:1054F2007B01A00020307D019100203092009301B9
:10550200A501A601A70102304101A4000030A500B7
:10551200B631D3264101161608007408031D74081B
:10552200031D972A7208B731232708007408083E22
:1055320086008701160001040319BB2A7408083E7D
:1055420086008701403FF500413FF6007408023EA5
:1055520086008701403FF700413FF8007808803A13
:10556200F9007608803A7902031DB92A7508770294
:10557200031808007408023E860087010130810783
:1055820041310318810A08002808031D2808031D59
:10559200CE2A2608B731472708002808083E860089
:1055A2008701160001040319F22A2808083E860022
:1055B2008701403FA900413FAA002808023E860019
:1055C2008701403FAB00413FAC002C08803AAD0060
:1055D2002A08803A2D02031DF02A29082B020318FB
:1055E200080041012808023E860087010130810738
:1055F20041310318810A08004101C200072B3B30E8
:10560200052B3D30052B3F30C3001A2B4208BB004F
:10561200BC013C08003A03190F2B002B3B08003A4F
:105622000319002B013A0319022B033A0319042B25
:10563200002B5D30B4000230B5004308A831892048
:1056420042015E084101BB00BC0142015D0841010B
:10565200BD00BE013D08BE00BD013B083D04C000C7
:105662003C083E04C1004108BA004008B9000800E5
:10567200A90140019418432B1410B631F326AB3123
:10568200400194144101A701A80140011410B63150
:10569200EB26AB3140011414B631EB26AB3140019D
:1056A2008E1C572B410129080138A9004101280805
:1056B200803AA60080302602031D612B07302702A4
:1056C2000318662B41012935A90001304101A707C2
:1056D2000030A83D2808803AA60080302602083013
:1056E20003192702031C462B410129080800B500B3
:1056F200B101B2013535B500B7316C27AB31003A93
:1057020003197D2B41013508A931D321AB31B600F4
:105712003608031D912BA8311B20AD01AE010800F4
:10572200B301B401A02B0130B0003008AD07013045
:10573200B1070030B23D0130B3070030B43D2F084D
:105742003402031DA62B2E0833020318B32B2D0897
:10575200860087010108A931D321AB31B600360397
:105762000319942BA8311B203208AE003108AD007A
:105772000800B300B101B201B7316C27AB31003A76
:105782000319BD2B03144101B30D3308A931D321F1
:10579200AB31003A031DF12BA8311B20AD01AE0144
:1057A20008002D08860001308700AB313923AB3168
:1057B200810000302F02023003192E02031CE52B58
:1057C2000130A8317220AB310130B0003008AD0792
:1057D2000130AE020030AF3B0130B1070030B23DC4
:1057E2002E082F04031DD22B0030A8317220AB31BA
:1057F200A8311B203208AE003108AD00080041017B
:10580200E8005A08860001308700403FDC00413F33
:10581200DD005C0884005D0885001200253A031D46
:10582200892C5A08860001308700013081074131F6
:105832000318810A4201C901CA010310003003188A
:1058420001304001ED00FF30E700FF30E800410188
:105852005A08860001308700403FE900413FEA00D4
:10586200690884006A0885001200643A0319412C11
:10587200690884006A0885001200693A031D7E2CBB
:105882005B08860001308700010884000130850032
:1058920002308107003FDC00013FDD005C08E000D0
:1058A2005D08E100890D893B8909E200E300E4001B
:1058B200E500E600E7006908013EDC0000306A3DD1
:1058C200DD005A088600013087005C08C03F5D0891
:1058D200C13F6008BF006108C0006208C1006308E0
:1058E200C2006408C3006508C4006608C5006708F2
:1058F200C6006808A5312025080041015A08860023
:10590200013087000130810741310318810A080004
:105912005A08860001308700403FDC00413FDD002D
:105922005C0884005D0885000008DE00DF015E0877
:10593200A6005F08A7006808A800AA31C522AC31FA
:105942007E2CDB004B0886004C088700403FCF00CE
:10595200413FD0004F088400500885001200253ACC
:10596200031D312D4B0886004C088700013081074A
:1059720041310318810A4201C901CA0103100030F2
:10598200031801304001ED00FF30E700FF30E8006E
:105992004B0886004C088700403FDC00413FDD0099
:1059A2005C0884005D0885001200643A0319E12C4A
:1059B2005C0884005D0885001200693A031D272DEA
:1059C2004D0886004E0887000108CF00023081078B
:1059D20041310108D00000300318810A81074F08C5
:1059E200860050088700403FD100413FD200510855
:1059F200D3005208D400890D893B8909D500D6000D
:105A0200D700D800D900DA005C08013ECF00003090
:105A12005D3DD0004B0886004C0887004F08C03F10
:105A22005008C13F5308B0005408B1005508B200F5
:105A32005608B3005708B4005808B5005908B60014
:105A42005A08B7005B08A431062408004B088600F8
:105A52004C0887000130810741310318810A080090
:105A62004B0886004C088700403FCF00413FD000E2
:105A72004F088400500885000008D100D201510867
:105A8200F2005208F3005B08F400AA318E224001B2
:105A92004B0886004C08870001308107413103180A
:105AA200810A0800F2012830860000308700473F53
:105AB200F000F01F7D2D4001A809A909AA09AB0930
:105AC200AC09AD09AE09AF09A80A031D7B2DA90ACD
:105AD200031D7B2DAA0A031D7B2DAB0A031D7B2D03
